{"abi":[{"type":"constructor","inputs":[{"name":"_repoRegistry","type":"address","internalType":"address"},{"name":"_profileRegistry","type":"address","internalType":"address"}],"stateMutability":"nonpayable"},{"type":"function","name":"ADMIN_ROLE","inputs":[],"outputs":[{"name":"","type":"bytes32","internalType":"bytes32"}],"stateMutability":"view"},{"type":"function","name":"DEFAULT_ADMIN_ROLE","inputs":[],"outputs":[{"name":"","type":"bytes32","internalType":"bytes32"}],"stateMutability":"view"},{"type":"function","name":"acceptApplication","inputs":[{"name":"_applicationId","type":"uint256","internalType":"uint256"}],"outputs":[],"stateMutability":"nonpayable"},{"type":"function","name":"applicationCount","inputs":[],"outputs":[{"name":"","type":"uint256","internalType":"uint256"}],"stateMutability":"view"},{"type":"function","name":"applications","inputs":[{"name":"","type":"uint256","internalType":"uint256"}],"outputs":[{"name":"id","type":"uint256","internalType":"uint256"},{"name":"issueId","type":"uint256","internalType":"uint256"},{"name":"contributor","type":"address","internalType":"address"},{"name":"message","type":"string","internalType":"string"},{"name":"aiMatchScore","type":"uint256","internalType":"uint256"},{"name":"status","type":"uint8","internalType":"enum ApplicationManager.Status"},{"name":"appliedAt","type":"uint256","internalType":"uint256"},{"name":"reviewedAt","type":"uint256","internalType":"uint256"},{"name":"rejectionReason","type":"string","internalType":"string"}],"stateMutability":"view"},{"type":"function","name":"applyToIssue","inputs":[{"name":"_issueId","type":"uint256","internalType":"uint256"},{"name":"_message","type":"string","internalType":"string"},{"name":"_aiMatchScore","type":"uint256","internalType":"uint256"}],"outputs":[{"name":"","type":"uint256","internalType":"uint256"}],"stateMutability":"nonpayable"},{"type":"function","name":"batchReviewApplications","inputs":[{"name":"_applicationIds","type":"uint256[]","internalType":"uint256[]"},{"name":"_accept","type":"bool","internalType":"bool"},{"name":"_rejectionReason","type":"string","internalType":"string"}],"outputs":[],"stateMutability":"nonpayable"},{"type":"function","name":"contributorApplications","inputs":[{"name":"","type":"address","internalType":"address"},{"name":"","type":"uint256","internalType":"uint256"}],"outputs":[{"name":"","type":"uint256","internalType":"uint256"}],"stateMutability":"view"},{"type":"function","name":"getApplication","inputs":[{"name":"_applicationId","type":"uint256","internalType":"uint256"}],"outputs":[{"name":"","type":"tuple","internalType":"struct ApplicationManager.Application","components":[{"name":"id","type":"uint256","internalType":"uint256"},{"name":"issueId","type":"uint256","internalType":"uint256"},{"name":"contributor","type":"address","internalType":"address"},{"name":"message","type":"string","internalType":"string"},{"name":"aiMatchScore","type":"uint256","internalType":"uint256"},{"name":"status","type":"uint8","internalType":"enum ApplicationManager.Status"},{"name":"appliedAt","type":"uint256","internalType":"uint256"},{"name":"reviewedAt","type":"uint256","internalType":"uint256"},{"name":"rejectionReason","type":"string","internalType":"string"}]}],"stateMutability":"view"},{"type":"function","name":"getContributorAcceptedApplications","inputs":[{"name":"_contributor","type":"address","internalType":"address"}],"outputs":[{"name":"","type":"uint256[]","internalType":"uint256[]"}],"stateMutability":"view"},{"type":"function","name":"getContributorApplications","inputs":[{"name":"_contributor","type":"address","internalType":"address"}],"outputs":[{"name":"","type":"uint256[]","internalType":"uint256[]"}],"stateMutability":"view"},{"type":"function","name":"getContributorPendingApplications","inputs":[{"name":"_contributor","type":"address","internalType":"address"}],"outputs":[{"name":"","type":"uint256[]","internalType":"uint256[]"}],"stateMutability":"view"},{"type":"function","name":"getContributorRejectedApplications","inputs":[{"name":"_contributor","type":"address","internalType":"address"}],"outputs":[{"name":"","type":"uint256[]","internalType":"uint256[]"}],"stateMutability":"view"},{"type":"function","name":"getContributorStats","inputs":[{"name":"_contributor","type":"address","internalType":"address"}],"outputs":[{"name":"totalApplications","type":"uint256","internalType":"uint256"},{"name":"pendingApplications","type":"uint256","internalType":"uint256"},{"name":"acceptedApplications","type":"uint256","internalType":"uint256"},{"name":"rejectedApplications","type":"uint256","internalType":"uint256"},{"name":"successRate","type":"uint256","internalType":"uint256"}],"stateMutability":"view"},{"type":"function","name":"getIssueApplicationCount","inputs":[{"name":"_issueId","type":"uint256","internalType":"uint256"}],"outputs":[{"name":"","type":"uint256","internalType":"uint256"}],"stateMutability":"view"},{"type":"function","name":"getIssueApplications","inputs":[{"name":"_issueId","type":"uint256","internalType":"uint256"}],"outputs":[{"name":"","type":"uint256[]","internalType":"uint256[]"}],"stateMutability":"view"},{"type":"function","name":"getMaintainerPendingApplications","inputs":[{"name":"_maintainer","type":"address","internalType":"address"}],"outputs":[{"name":"","type":"uint256[]","internalType":"uint256[]"}],"stateMutability":"view"},{"type":"function","name":"getPendingIssueApplications","inputs":[{"name":"_issueId","type":"uint256","internalType":"uint256"}],"outputs":[{"name":"","type":"uint256[]","internalType":"uint256[]"}],"stateMutability":"view"},{"type":"function","name":"getRoleAdmin","inputs":[{"name":"role","type":"bytes32","internalType":"bytes32"}],"outputs":[{"name":"","type":"bytes32","internalType":"bytes32"}],"stateMutability":"view"},{"type":"function","name":"getStats","inputs":[],"outputs":[{"name":"totalApplications","type":"uint256","internalType":"uint256"},{"name":"pendingApplications","type":"uint256","internalType":"uint256"},{"name":"acceptedApplications","type":"uint256","internalType":"uint256"},{"name":"rejectedApplications","type":"uint256","internalType":"uint256"}],"stateMutability":"view"},{"type":"function","name":"getTopApplicants","inputs":[{"name":"_issueId","type":"uint256","internalType":"uint256"},{"name":"_limit","type":"uint256","internalType":"uint256"}],"outputs":[{"name":"","type":"uint256[]","internalType":"uint256[]"}],"stateMutability":"view"},{"type":"function","name":"grantRole","inputs":[{"name":"role","type":"bytes32","internalType":"bytes32"},{"name":"account","type":"address","internalType":"address"}],"outputs":[],"stateMutability":"nonpayable"},{"type":"function","name":"hasApplied","inputs":[{"name":"","type":"uint256","internalType":"uint256"},{"name":"","type":"address","internalType":"address"}],"outputs":[{"name":"","type":"bool","internalType":"bool"}],"stateMutability":"view"},{"type":"function","name":"hasAppliedToIssue","inputs":[{"name":"_issueId","type":"uint256","internalType":"uint256"},{"name":"_contributor","type":"address","internalType":"address"}],"outputs":[{"name":"","type":"bool","internalType":"bool"}],"stateMutability":"view"},{"type":"function","name":"hasRole","inputs":[{"name":"role","type":"bytes32","internalType":"bytes32"},{"name":"account","type":"address","internalType":"address"}],"outputs":[{"name":"","type":"bool","internalType":"bool"}],"stateMutability":"view"},{"type":"function","name":"issueApplications","inputs":[{"name":"","type":"uint256","internalType":"uint256"},{"name":"","type":"uint256","internalType":"uint256"}],"outputs":[{"name":"","type":"uint256","internalType":"uint256"}],"stateMutability":"view"},{"type":"function","name":"maxApplicationsPerIssue","inputs":[],"outputs":[{"name":"","type":"uint256","internalType":"uint256"}],"stateMutability":"view"},{"type":"function","name":"minAIScore","inputs":[],"outputs":[{"name":"","type":"uint256","internalType":"uint256"}],"stateMutability":"view"},{"type":"function","name":"profileRegistry","inputs":[],"outputs":[{"name":"","type":"address","internalType":"contract ProfileRegistry"}],"stateMutability":"view"},{"type":"function","name":"rejectApplication","inputs":[{"name":"_applicationId","type":"uint256","internalType":"uint256"},{"name":"_reason","type":"string","internalType":"string"}],"outputs":[],"stateMutability":"nonpayable"},{"type":"function","name":"renounceRole","inputs":[{"name":"role","type":"bytes32","internalType":"bytes32"},{"name":"callerConfirmation","type":"address","internalType":"address"}],"outputs":[],"stateMutability":"nonpayable"},{"type":"function","name":"repoRegistry","inputs":[],"outputs":[{"name":"","type":"address","internalType":"contract RepoRegistry"}],"stateMutability":"view"},{"type":"function","name":"revokeRole","inputs":[{"name":"role","type":"bytes32","internalType":"bytes32"},{"name":"account","type":"address","internalType":"address"}],"outputs":[],"stateMutability":"nonpayable"},{"type":"function","name":"supportsInterface","inputs":[{"name":"interfaceId","type":"bytes4","internalType":"bytes4"}],"outputs":[{"name":"","type":"bool","internalType":"bool"}],"stateMutability":"view"},{"type":"function","name":"totalAcceptedApplications","inputs":[],"outputs":[{"name":"","type":"uint256","internalType":"uint256"}],"stateMutability":"view"},{"type":"function","name":"totalPendingApplications","inputs":[],"outputs":[{"name":"","type":"uint256","internalType":"uint256"}],"stateMutability":"view"},{"type":"function","name":"totalRejectedApplications","inputs":[],"outputs":[{"name":"","type":"uint256","internalType":"uint256"}],"stateMutability":"view"},{"type":"function","name":"updateConfiguration","inputs":[{"name":"_maxApplicationsPerIssue","type":"uint256","internalType":"uint256"},{"name":"_minAIScore","type":"uint256","internalType":"uint256"}],"outputs":[],"stateMutability":"nonpayable"},{"type":"function","name":"updateContracts","inputs":[{"name":"_repoRegistry","type":"address","internalType":"address"},{"name":"_profileRegistry","type":"address","internalType":"address"}],"outputs":[],"stateMutability":"nonpayable"},{"type":"function","name":"withdrawApplication","inputs":[{"name":"_applicationId","type":"uint256","internalType":"uint256"}],"outputs":[],"stateMutability":"nonpayable"},{"type":"event","name":"ApplicationAccepted","inputs":[{"name":"applicationId","type":"uint256","indexed":true,"internalType":"uint256"},{"name":"issueId","type":"uint256","indexed":true,"internalType":"uint256"},{"name":"contributor","type":"address","indexed":true,"internalType":"address"},{"name":"timestamp","type":"uint256","indexed":false,"internalType":"uint256"}],"anonymous":false},{"type":"event","name":"ApplicationRejected","inputs":[{"name":"applicationId","type":"uint256","indexed":true,"internalType":"uint256"},{"name":"issueId","type":"uint256","indexed":true,"internalType":"uint256"},{"name":"contributor","type":"address","indexed":true,"internalType":"address"},{"name":"reason","type":"string","indexed":false,"internalType":"string"},{"name":"timestamp","type":"uint256","indexed":false,"internalType":"uint256"}],"anonymous":false},{"type":"event","name":"ApplicationSubmitted","inputs":[{"name":"applicationId","type":"uint256","indexed":true,"internalType":"uint256"},{"name":"issueId","type":"uint256","indexed":true,"internalType":"uint256"},{"name":"contributor","type":"address","indexed":true,"internalType":"address"},{"name":"aiMatchScore","type":"uint256","indexed":false,"internalType":"uint256"},{"name":"timestamp","type":"uint256","indexed":false,"internalType":"uint256"}],"anonymous":false},{"type":"event","name":"ApplicationWithdrawn","inputs":[{"name":"applicationId","type":"uint256","indexed":true,"internalType":"uint256"},{"name":"issueId","type":"uint256","indexed":true,"internalType":"uint256"},{"name":"contributor","type":"address","indexed":true,"internalType":"address"},{"name":"timestamp","type":"uint256","indexed":false,"internalType":"uint256"}],"anonymous":false},{"type":"event","name":"ConfigurationUpdated","inputs":[{"name":"maxApplicationsPerIssue","type":"uint256","indexed":false,"internalType":"uint256"},{"name":"minAIScore","type":"uint256","indexed":false,"internalType":"uint256"}],"anonymous":false},{"type":"event","name":"RoleAdminChanged","inputs":[{"name":"role","type":"bytes32","indexed":true,"internalType":"bytes32"},{"name":"previousAdminRole","type":"bytes32","indexed":true,"internalType":"bytes32"},{"name":"newAdminRole","type":"bytes32","indexed":true,"internalType":"bytes32"}],"anonymous":false},{"type":"event","name":"RoleGranted","inputs":[{"name":"role","type":"bytes32","indexed":true,"internalType":"bytes32"},{"name":"account","type":"address","indexed":true,"internalType":"address"},{"name":"sender","type":"address","indexed":true,"internalType":"address"}],"anonymous":false},{"type":"event","name":"RoleRevoked","inputs":[{"name":"role","type":"bytes32","indexed":true,"internalType":"bytes32"},{"name":"account","type":"address","indexed":true,"internalType":"address"},{"name":"sender","type":"address","indexed":true,"internalType":"address"}],"anonymous":false},{"type":"error","name":"AIScoreTooLow","inputs":[]},{"type":"error","name":"AccessControlBadConfirmation","inputs":[]},{"type":"error","name":"AccessControlUnauthorizedAccount","inputs":[{"name":"account","type":"address","internalType":"address"},{"name":"neededRole","type":"bytes32","internalType":"bytes32"}]},{"type":"error","name":"AlreadyApplied","inputs":[]},{"type":"error","name":"ApplicationDoesNotExist","inputs":[]},{"type":"error","name":"ApplicationNotPending","inputs":[]},{"type":"error","name":"EmptyMessage","inputs":[]},{"type":"error","name":"InvalidStatus","inputs":[]},{"type":"error","name":"IssueDoesNotExist","inputs":[]},{"type":"error","name":"IssueNotOpen","inputs":[]},{"type":"error","name":"NotContributor","inputs":[]},{"type":"error","name":"NotMaintainer","inputs":[]},{"type":"error","name":"ProfileDoesNotExist","inputs":[]},{"type":"error","name":"TooManyApplications","inputs":[]},{"type":"error","name":"Unauthorized","inputs":[]}],"bytecode":{"object":"0x6080604052600a600b55601e600c553480156200001a575f80fd5b5060405162003dc138038062003dc18339810160408190526200003d9162000177565b600180546001600160a01b038085166001600160a01b0319928316179092556002805492841692909116919091179055620000795f33620000af565b50620000a67fa49807205ce4d355092ef5a8a18f56e8913cf4a201fbe287825b095693c2177533620000af565b505050620001ad565b5f828152602081815260408083206001600160a01b038516845290915281205460ff1662000152575f838152602081815260408083206001600160a01b03861684529091529020805460ff19166001179055620001093390565b6001600160a01b0316826001600160a01b0316847f2f8788117e7eff1d82e926ec794901d17c78024a50270940304540a733656f0d60405160405180910390a450600162000155565b505f5b92915050565b80516001600160a01b038116811462000172575f80fd5b919050565b5f806040838503121562000189575f80fd5b62000194836200015b565b9150620001a4602084016200015b565b90509250929050565b613c0680620001bb5f395ff3fe608060405234801561000f575f80fd5b506004361061023e575f3560e01c80638c5e44c111610135578063c9bb1a48116100b4578063dfefadff11610079578063dfefadff146105b1578063e2aad4a0146105d9578063e692c49f146105e2578063edc234c3146105f5578063f1d5314a146105fe575f80fd5b8063c9bb1a4814610552578063d2ce160b14610565578063d361a66114610578578063d515049b1461058b578063d547741f1461059e575f80fd5b8063a217fddf116100fa578063a217fddf146104cc578063a39bf544146104d3578063b3e3813f14610500578063b4ef5c7114610513578063c59d484714610526575f80fd5b80638c5e44c1146104455780638fcc86091461048057806391d14854146104935780639baeda16146104a6578063a09c726a146104b9575f80fd5b806335d5f2a8116101c157806375b238fc1161018657806375b238fc146103e65780637603858b1461040d57806379f557831461042057806380f2f19d14610433578063810db8231461043c575f80fd5b806335d5f2a81461034a57806336568abe1461038257806343e342ca14610395578063483d209e146103a8578063748f2f4a146103d3575f80fd5b80631f2f4bfd116102075780631f2f4bfd146102c35780632084ea53146102e3578063248a9ca3146102f65780632f2ff15d14610318578063326c4b971461032b575f80fd5b80628822101461024257806301ffc9a71461026b57806311575df01461028e578063152acc9b146102a35780631739a53b146102ba575b5f80fd5b610255610250366004612e75565b610611565b6040516102629190612e97565b60405180910390f35b61027e610279366004612eda565b6107ec565b6040519015158152602001610262565b6102a161029c36600461302c565b610822565b005b6102ac600c5481565b604051908152602001610262565b6102ac600b5481565b6102d66102d136600461306f565b610a85565b6040516102629190613107565b6102a16102f136600461306f565b610c7a565b6102ac61030436600461306f565b5f9081526020819052604090206001015490565b6102a16103263660046131b0565b610f15565b6102ac61033936600461306f565b5f9081526004602052604090205490565b61027e6103583660046131b0565b5f9182526006602090815260408084206001600160a01b0393909316845291905290205460ff1690565b6102a16103903660046131b0565b610f3f565b6102556103a3366004612e75565b610f77565b6001546103bb906001600160a01b031681565b6040516001600160a01b039091168152602001610262565b6102556103e136600461306f565b611149565b6102ac7fa49807205ce4d355092ef5a8a18f56e8913cf4a201fbe287825b095693c2177581565b61025561041b36600461306f565b61130f565b61025561042e366004612e75565b61136e565b6102ac60085481565b6102ac60095481565b610458610453366004612e75565b6113d5565b604080519586526020860194909452928401919091526060830152608082015260a001610262565b6102a161048e36600461321d565b611553565b61027e6104a13660046131b0565b611664565b6102ac6104b43660046132e1565b61168c565b6102ac6104c7366004613301565b6116b7565b6102ac5f81565b61027e6104e13660046131b0565b600660209081525f928352604080842090915290825290205460ff1681565b6102a161050e3660046132e1565b611b2d565b6102ac61052136600461334c565b611c37565b600754600854600954600a54604080519485526020850193909352918301526060820152608001610262565b6002546103bb906001600160a01b031681565b610255610573366004612e75565b611c50565b6102556105863660046132e1565b611e22565b610255610599366004612e75565b6121e1565b6102a16105ac3660046131b0565b61265a565b6105c46105bf36600461306f565b61267e565b60405161026299989796959493929190613376565b6102ac60075481565b6102a16105f03660046133eb565b6127e6565b6102ac600a5481565b6102a161060c36600461306f565b6128cf565b6001600160a01b0381165f90815260056020908152604080832080548251818502810185019093528083526060949383018282801561066d57602002820191905f5260205f20905b815481526020019060010190808311610659575b505050505090505f805b82518110156106ec575f60035f85848151811061069657610696613417565b60209081029190910181015182528101919091526040015f206005015460ff1660028111156106c7576106c76130d3565b036106da57816106d68161343f565b9250505b806106e48161343f565b915050610677565b505f816001600160401b0381111561070657610706612f01565b60405190808252806020026020018201604052801561072f578160200160208202803683370190505b5090505f805b84518110156107e1575f60035f87848151811061075457610754613417565b60209081029190910181015182528101919091526040015f206005015460ff166002811115610785576107856130d3565b036107cf5784818151811061079c5761079c613417565b60200260200101518383815181106107b6576107b6613417565b6020908102919091010152816107cb8161343f565b9250505b806107d98161343f565b915050610735565b509095945050505050565b5f6001600160e01b03198216637965db0b60e01b148061081c57506301ffc9a760e01b6001600160e01b03198316145b92915050565b81801580610831575060075481115b1561084f5760405163362a281160e01b815260040160405180910390fd5b5f83815260036020526040812090600582015460ff166002811115610876576108766130d3565b146108945760405163d5eda46b60e01b815260040160405180910390fd5b600180549082015460405163976b311360e01b815260048101919091525f916001600160a01b03169063976b3113906024015f60405180830381865afa1580156108e0573d5f803e3d5ffd5b505050506040513d5f823e601f3d908101601f19168201604052610907919081019061354e565b60015460208201516040516317c47de960e21b81529293505f926001600160a01b0390921691635f11f7a4916109439160040190815260200190565b5f60405180830381865afa15801561095d573d5f803e3d5ffd5b505050506040513d5f823e601f3d908101601f1916820160405261098491908101906136af565b60208101519091506001600160a01b031633146109b457604051639b96b05160e01b815260040160405180910390fd5b60058301805460ff19166002179055426007840155600883016109d78682613897565b5060088054905f6109e783613952565b9091555050600a8054905f6109fb8361343f565b90915550506001830180545f9081526006602090815260408083206002880180546001600160a01b0390811686529190935292819020805460ff19169055905492549051929091169188907fc262a9d60819fb8673fac5c2e74f6f04215b7a738c24f804d94a239440db24c390610a75908a904290613967565b60405180910390a4505050505050565b610a8d612e02565b81801580610a9c575060075481115b15610aba5760405163362a281160e01b815260040160405180910390fd5b5f838152600360208181526040928390208351610120810185528154815260018201549281019290925260028101546001600160a01b0316938201939093529082018054919291606084019190610b1090613818565b80601f0160208091040260200160405190810160405280929190818152602001828054610b3c90613818565b8015610b875780601f10610b5e57610100808354040283529160200191610b87565b820191905f5260205f20905b815481529060010190602001808311610b6a57829003601f168201915b505050918352505060048201546020820152600582015460409091019060ff166002811115610bb857610bb86130d3565b6002811115610bc957610bc96130d3565b81526020016006820154815260200160078201548152602001600882018054610bf190613818565b80601f0160208091040260200160405190810160405280929190818152602001828054610c1d90613818565b8015610c685780601f10610c3f57610100808354040283529160200191610c68565b820191905f5260205f20905b815481529060010190602001808311610c4b57829003601f168201915b50505050508152505091505b50919050565b80801580610c89575060075481115b15610ca75760405163362a281160e01b815260040160405180910390fd5b5f82815260036020526040812090600582015460ff166002811115610cce57610cce6130d3565b14610cec5760405163d5eda46b60e01b815260040160405180910390fd5b600180549082015460405163976b311360e01b815260048101919091525f916001600160a01b03169063976b3113906024015f60405180830381865afa158015610d38573d5f803e3d5ffd5b505050506040513d5f823e601f3d908101601f19168201604052610d5f919081019061354e565b60015460208201516040516317c47de960e21b81529293505f926001600160a01b0390921691635f11f7a491610d9b9160040190815260200190565b5f60405180830381865afa158015610db5573d5f803e3d5ffd5b505050506040513d5f823e601f3d908101601f19168201604052610ddc91908101906136af565b60208101519091506001600160a01b03163314610e0c57604051639b96b05160e01b815260040160405180910390fd5b60058301805460ff1916600117905542600784015560088054905f610e3083613952565b909155505060098054905f610e448361343f565b90915550506001805490840154600285015460405163f65fb58d60e01b815260048101929092526001600160a01b0390811660248301529091169063f65fb58d906044015f604051808303815f87803b158015610e9f575f80fd5b505af1158015610eb1573d5f803e3d5ffd5b50505050610ec3836001015486612a58565b600283015460018401546040514281526001600160a01b039092169187907fa78788289b7ec68d9e28f96a29e0c8c70bf56d6ed4838848e6acc9729e0924c49060200160405180910390a45050505050565b5f82815260208190526040902060010154610f2f81612cc0565b610f398383612ccd565b50505050565b6001600160a01b0381163314610f685760405163334bd91960e11b815260040160405180910390fd5b610f728282612d5c565b505050565b6001600160a01b0381165f908152600560209081526040808320805482518185028101850190935280835260609493830182828015610fd357602002820191905f5260205f20905b815481526020019060010190808311610fbf575b505050505090505f805b825181101561105357600160035f858481518110610ffd57610ffd613417565b60209081029190910181015182528101919091526040015f206005015460ff16600281111561102e5761102e6130d3565b03611041578161103d8161343f565b9250505b8061104b8161343f565b915050610fdd565b505f816001600160401b0381111561106d5761106d612f01565b604051908082528060200260200182016040528015611096578160200160208202803683370190505b5090505f805b84518110156107e157600160035f8784815181106110bc576110bc613417565b60209081029190910181015182528101919091526040015f206005015460ff1660028111156110ed576110ed6130d3565b036111375784818151811061110457611104613417565b602002602001015183838151811061111e5761111e613417565b6020908102919091010152816111338161343f565b9250505b806111418161343f565b91505061109c565b5f81815260046020908152604080832080548251818502810185019093528083526060949383018282801561119b57602002820191905f5260205f20905b815481526020019060010190808311611187575b505050505090505f805b825181101561121a575f60035f8584815181106111c4576111c4613417565b60209081029190910181015182528101919091526040015f206005015460ff1660028111156111f5576111f56130d3565b0361120857816112048161343f565b9250505b806112128161343f565b9150506111a5565b505f816001600160401b0381111561123457611234612f01565b60405190808252806020026020018201604052801561125d578160200160208202803683370190505b5090505f805b84518110156107e1575f60035f87848151811061128257611282613417565b60209081029190910181015182528101919091526040015f206005015460ff1660028111156112b3576112b36130d3565b036112fd578481815181106112ca576112ca613417565b60200260200101518383815181106112e4576112e4613417565b6020908102919091010152816112f98161343f565b9250505b806113078161343f565b915050611263565b5f8181526004602090815260409182902080548351818402810184019094528084526060939283018282801561136257602002820191905f5260205f20905b81548152602001906001019080831161134e575b50505050509050919050565b6001600160a01b0381165f9081526005602090815260409182902080548351818402810184019094528084526060939283018282801561136257602002820191905f5260205f209081548152602001906001019080831161134e5750505050509050919050565b6001600160a01b0381165f90815260056020908152604080832080548251818502810185019093528083528493849384938493849383018282801561143757602002820191905f5260205f20905b815481526020019060010190808311611423575b50505050509050805195505f5b8151811015611515575f60035f84848151811061146357611463613417565b60209081029190910181015182528101919091526040015f9081206005015460ff169150816002811115611499576114996130d3565b036114b057866114a88161343f565b975050611502565b60018160028111156114c4576114c46130d3565b036114db57856114d38161343f565b965050611502565b60028160028111156114ef576114ef6130d3565b0361150257846114fe8161343f565b9550505b508061150d8161343f565b915050611444565b505f6115218486613988565b90505f8111611530575f611546565b8061153c86606461399b565b61154691906139b2565b9250505091939590929450565b5f5b8351811015610f395782156115dd57306001600160a01b0316632084ea5385838151811061158557611585613417565b60200260200101516040518263ffffffff1660e01b81526004016115ab91815260200190565b5f604051808303815f87803b1580156115c2575f80fd5b505af11580156115d4573d5f803e3d5ffd5b50505050611652565b306001600160a01b03166311575df08583815181106115fe576115fe613417565b6020026020010151846040518363ffffffff1660e01b81526004016116249291906139d1565b5f604051808303815f87803b15801561163b575f80fd5b505af115801561164d573d5f803e3d5ffd5b505050505b8061165c8161343f565b915050611555565b5f918252602082815260408084206001600160a01b0393909316845291905290205460ff1690565b6004602052815f5260405f2081815481106116a5575f80fd5b905f5260205f20015f91509150505481565b60025460405163a787c80b60e01b815233600482018190525f9290916001600160a01b039091169063a787c80b90602401602060405180830381865afa158015611703573d5f803e3d5ffd5b505050506040513d601f19601f8201168201806040525081019061172791906139e9565b61174457604051635a05a1b160e01b815260040160405180910390fd5b83515f036117655760405163017636cb60e71b815260040160405180910390fd5b600c54831015611788576040516348e03f5b60e01b815260040160405180910390fd5b5f85815260066020908152604080832033845290915290205460ff16156117c15760405162540c0360e11b815260040160405180910390fd5b60015460405163976b311360e01b8152600481018790525f916001600160a01b03169063976b3113906024015f60405180830381865afa158015611807573d5f803e3d5ffd5b505050506040513d5f823e601f3d908101601f1916820160405261182e919081019061354e565b90505f8160e001516004811115611847576118476130d3565b146118655760405163eb3edb8760e01b815260040160405180910390fd5b600b545f878152600460205260409020541061189457604051633224aeb960e21b815260040160405180910390fd5b60025460405162f53a4760e41b81523360048201525f916001600160a01b031690630f53a470906024015f60405180830381865afa1580156118d8573d5f803e3d5ffd5b505050506040513d5f823e601f3d908101601f191682016040526118ff9190810190613a04565b905060018160c001516002811115611919576119196130d3565b036119375760405163d764187d60e01b815260040160405180910390fd5b60078054905f6119468361343f565b91905055506040518061012001604052806007548152602001888152602001336001600160a01b031681526020018781526020018681526020015f6002811115611992576119926130d3565b8152426020808301919091525f6040808401829052805180840182528281526060948501526007548252600380845291819020855181559285015160018401558401516002830180546001600160a01b0319166001600160a01b03909216919091179055918301519091820190611a099082613897565b506080820151600482015560a082015160058201805460ff19166001836002811115611a3757611a376130d3565b021790555060c0820151600682015560e082015160078201556101008201516008820190611a659082613897565b5050505f8781526004602090815260408083206007805482546001818101855593875285872001553380865260058552838620915482548085018455928752858720909201919091558b8552600684528285209085529092528220805460ff191690911790556008805491611ad98361343f565b90915550506007546040805187815242602082015233928a9290917f4a713e978dae2489a458b332243d844bc3b923b63f87af2a7d6298d7c621b299910160405180910390a4505060075495945050505050565b7fa49807205ce4d355092ef5a8a18f56e8913cf4a201fbe287825b095693c21775611b5781612cc0565b6064821115611ba05760405162461bcd60e51b815260206004820152601060248201526f496e76616c69642041492073636f726560801b60448201526064015b60405180910390fd5b5f8311611bef5760405162461bcd60e51b815260206004820152601860248201527f496e76616c6964206d6178206170706c69636174696f6e7300000000000000006044820152606401611b97565b600b839055600c82905560408051848152602081018490527fef1efc2eb4c3919acff49f1baa43e65b34b152dd75ac70025e825092d576ed68910160405180910390a1505050565b6005602052815f5260405f2081815481106116a5575f80fd5b6001600160a01b0381165f908152600560209081526040808320805482518185028101850190935280835260609493830182828015611cac57602002820191905f5260205f20905b815481526020019060010190808311611c98575b505050505090505f805b8251811015611d2c57600260035f858481518110611cd657611cd6613417565b60209081029190910181015182528101919091526040015f206005015460ff166002811115611d0757611d076130d3565b03611d1a5781611d168161343f565b9250505b80611d248161343f565b915050611cb6565b505f816001600160401b03811115611d4657611d46612f01565b604051908082528060200260200182016040528015611d6f578160200160208202803683370190505b5090505f805b84518110156107e157600260035f878481518110611d9557611d95613417565b60209081029190910181015182528101919091526040015f206005015460ff166002811115611dc657611dc66130d3565b03611e1057848181518110611ddd57611ddd613417565b6020026020010151838381518110611df757611df7613417565b602090810291909101015281611e0c8161343f565b9250505b80611e1a8161343f565b915050611d75565b5f828152600460209081526040808320805482518185028101850190935280835260609493830182828015611e7457602002820191905f5260205f20905b815481526020019060010190808311611e60575b505050505090505f805b8251811015611ef3575f60035f858481518110611e9d57611e9d613417565b60209081029190910181015182528101919091526040015f206005015460ff166002811115611ece57611ece6130d3565b03611ee15781611edd8161343f565b9250505b80611eeb8161343f565b915050611e7e565b50805f03611f12575050604080515f815260208101909152905061081c565b5f816001600160401b03811115611f2b57611f2b612f01565b604051908082528060200260200182016040528015611f54578160200160208202803683370190505b5090505f805b8451811015612006575f60035f878481518110611f7957611f79613417565b60209081029190910181015182528101919091526040015f206005015460ff166002811115611faa57611faa6130d3565b03611ff457848181518110611fc157611fc1613417565b6020026020010151838381518110611fdb57611fdb613417565b602090810291909101015281611ff08161343f565b9250505b80611ffe8161343f565b915050611f5a565b505f5b8251811015612127575f61201e826001613988565b90505b83518110156121145760035f85838151811061203f5761203f613417565b602002602001015181526020019081526020015f206004015460035f86858151811061206d5761206d613417565b602002602001015181526020019081526020015f20600401541015612102575f84838151811061209f5761209f613417565b602002602001015190508482815181106120bb576120bb613417565b60200260200101518584815181106120d5576120d5613417565b602002602001018181525050808583815181106120f4576120f4613417565b602002602001018181525050505b8061210c8161343f565b915050612021565b508061211f8161343f565b915050612009565b505f82518711612137578661213a565b82515b90505f816001600160401b0381111561215557612155612f01565b60405190808252806020026020018201604052801561217e578160200160208202803683370190505b5090505f5b828110156121d45784818151811061219d5761219d613417565b60200260200101518282815181106121b7576121b7613417565b6020908102919091010152806121cc8161343f565b915050612183565b5098975050505050505050565b600154604051636d06c5a560e01b81526001600160a01b0383811660048301526060925f92911690636d06c5a5906024015f60405180830381865afa15801561222c573d5f803e3d5ffd5b505050506040513d5f823e601f3d908101601f191682016040526122539190810190613b45565b90505f805b82518110156124195760015483515f916001600160a01b03169063f607ecaf9086908590811061228a5761228a613417565b60200260200101516040518263ffffffff1660e01b81526004016122b091815260200190565b5f60405180830381865afa1580156122ca573d5f803e3d5ffd5b505050506040513d5f823e601f3d908101601f191682016040526122f19190810190613b45565b90505f5b8151811015612404575f60045f84848151811061231457612314613417565b602002602001015181526020019081526020015f2080548060200260200160405190810160405280929190818152602001828054801561237157602002820191905f5260205f20905b81548152602001906001019080831161235d575b505050505090505f5b81518110156123ef575f60035f84848151811061239957612399613417565b60209081029190910181015182528101919091526040015f206005015460ff1660028111156123ca576123ca6130d3565b036123dd57856123d98161343f565b9650505b806123e78161343f565b91505061237a565b505080806123fc9061343f565b9150506122f5565b505080806124119061343f565b915050612258565b505f816001600160401b0381111561243357612433612f01565b60405190808252806020026020018201604052801561245c578160200160208202803683370190505b5090505f805b84518110156107e15760015485515f916001600160a01b03169063f607ecaf9088908590811061249457612494613417565b60200260200101516040518263ffffffff1660e01b81526004016124ba91815260200190565b5f60405180830381865afa1580156124d4573d5f803e3d5ffd5b505050506040513d5f823e601f3d908101601f191682016040526124fb9190810190613b45565b90505f5b8151811015612645575f60045f84848151811061251e5761251e613417565b602002602001015181526020019081526020015f2080548060200260200160405190810160405280929190818152602001828054801561257b57602002820191905f5260205f20905b815481526020019060010190808311612567575b505050505090505f5b8151811015612630575f60035f8484815181106125a3576125a3613417565b60209081029190910181015182528101919091526040015f206005015460ff1660028111156125d4576125d46130d3565b0361261e578181815181106125eb576125eb613417565b602002602001015187878151811061260557612605613417565b60209081029190910101528561261a8161343f565b9650505b806126288161343f565b915050612584565b5050808061263d9061343f565b9150506124ff565b505080806126529061343f565b915050612462565b5f8281526020819052604090206001015461267481612cc0565b610f398383612d5c565b600360208190525f91825260409091208054600182015460028301549383018054929491936001600160a01b03909216926126b890613818565b80601f01602080910402602001604051908101604052809291908181526020018280546126e490613818565b801561272f5780601f106127065761010080835404028352916020019161272f565b820191905f5260205f20905b81548152906001019060200180831161271257829003601f168201915b50505060048401546005850154600686015460078701546008880180549798949760ff9094169650919450929161276590613818565b80601f016020809104026020016040519081016040528092919081815260200182805461279190613818565b80156127dc5780601f106127b3576101008083540402835291602001916127dc565b820191905f5260205f20905b8154815290600101906020018083116127bf57829003601f168201915b5050505050905089565b7fa49807205ce4d355092ef5a8a18f56e8913cf4a201fbe287825b095693c2177561281081612cc0565b6001600160a01b0383166128585760405162461bcd60e51b815260206004820152600f60248201526e496e76616c6964206164647265737360881b6044820152606401611b97565b6001600160a01b0382166128a05760405162461bcd60e51b815260206004820152600f60248201526e496e76616c6964206164647265737360881b6044820152606401611b97565b50600180546001600160a01b039384166001600160a01b03199182161790915560028054929093169116179055565b808015806128de575060075481115b156128fc5760405163362a281160e01b815260040160405180910390fd5b5f82815260036020526040902060028101546001600160a01b03163314612935576040516282b42960e81b815260040160405180910390fd5b5f600582015460ff16600281111561294f5761294f6130d3565b1461296d5760405163d5eda46b60e01b815260040160405180910390fd5b60058101805460ff1916600217905542600782015560408051808201909152601881527f57697468647261776e20627920636f6e7472696275746f720000000000000000602082015260088201906129c59082613897565b5060088054905f6129d583613952565b9091555050600a8054905f6129e98361343f565b90915550506001810180545f90815260066020908152604080832033808552925291829020805460ff191690559154905185907fc12a3eaa7f7126530aadca3ccaa3c302e96123174cd32827f339a4c7b0200aad90612a4b9042815260200190565b60405180910390a4505050565b5f82815260046020908152604080832080548251818502810185019093528083529192909190830182828015612aab57602002820191905f5260205f20905b815481526020019060010190808311612a97575b505050505090505f5b8151811015610f395782828281518110612ad057612ad0613417565b602002602001015114158015612b2a57505f60035f848481518110612af757612af7613417565b60209081029190910181015182528101919091526040015f206005015460ff166002811115612b2857612b286130d3565b145b15612cae575f60035f848481518110612b4557612b45613417565b60209081029190910181015182528101919091526040015f2060058101805491925060029160ff1916600183021790555042600782015560408051808201909152601e81527f416e6f74686572206170706c6963616e74207761732073656c6563746564000060208201526008820190612bbf9082613897565b5060088054905f612bcf83613952565b9091555050600a8054905f612be38361343f565b90915550505f8581526006602090815260408083206002850180546001600160a01b039081168652919093529220805460ff191690555484519116908690859085908110612c3357612c33613417565b60200260200101517fc262a9d60819fb8673fac5c2e74f6f04215b7a738c24f804d94a239440db24c342604051612ca491906040808252601e908201527f416e6f74686572206170706c6963616e74207761732073656c656374656400006060820152602081019190915260800190565b60405180910390a4505b80612cb88161343f565b915050612ab4565b612cca8133612dc5565b50565b5f612cd88383611664565b612d55575f838152602081815260408083206001600160a01b03861684529091529020805460ff19166001179055612d0d3390565b6001600160a01b0316826001600160a01b0316847f2f8788117e7eff1d82e926ec794901d17c78024a50270940304540a733656f0d60405160405180910390a450600161081c565b505f61081c565b5f612d678383611664565b15612d55575f838152602081815260408083206001600160a01b0386168085529252808320805460ff1916905551339286917ff6391f5c32d9c69d2a47ea670b442974b53935d1edc7fd64eb21e047a839171b9190a450600161081c565b612dcf8282611664565b612dfe5760405163e2517d3f60e01b81526001600160a01b038216600482015260248101839052604401611b97565b5050565b6040518061012001604052805f81526020015f81526020015f6001600160a01b03168152602001606081526020015f81526020015f6002811115612e4857612e486130d3565b81526020015f81526020015f8152602001606081525090565b6001600160a01b0381168114612cca575f80fd5b5f60208284031215612e85575f80fd5b8135612e9081612e61565b9392505050565b602080825282518282018190525f9190848201906040850190845b81811015612ece57835183529284019291840191600101612eb2565b50909695505050505050565b5f60208284031215612eea575f80fd5b81356001600160e01b031981168114612e90575f80fd5b634e487b7160e01b5f52604160045260245ffd5b6040516101c081016001600160401b0381118282101715612f3857612f38612f01565b60405290565b60405161018081016001600160401b0381118282101715612f3857612f38612f01565b6040516101a081016001600160401b0381118282101715612f3857612f38612f01565b604051601f8201601f191681016001600160401b0381118282101715612fac57612fac612f01565b604052919050565b5f6001600160401b03821115612fcc57612fcc612f01565b50601f01601f191660200190565b5f82601f830112612fe9575f80fd5b8135612ffc612ff782612fb4565b612f84565b818152846020838601011115613010575f80fd5b816020850160208301375f918101602001919091529392505050565b5f806040838503121561303d575f80fd5b8235915060208301356001600160401b03811115613059575f80fd5b61306585828601612fda565b9150509250929050565b5f6020828403121561307f575f80fd5b5035919050565b5f5b838110156130a0578181015183820152602001613088565b50505f910152565b5f81518084526130bf816020860160208601613086565b601f01601f19169290920160200192915050565b634e487b7160e01b5f52602160045260245ffd5b6003811061310357634e487b7160e01b5f52602160045260245ffd5b9052565b6020815281516020820152602082015160408201525f604083015161313760608401826001600160a01b03169052565b5060608301516101208060808501526131546101408501836130a8565b9150608085015160a085015260a085015161317260c08601826130e7565b5060c085015160e085015260e0850151610100818187015280870151915050601f1985840301828601526131a683826130a8565b9695505050505050565b5f80604083850312156131c1575f80fd5b8235915060208301356131d381612e61565b809150509250929050565b5f6001600160401b038211156131f6576131f6612f01565b5060051b60200190565b8015158114612cca575f80fd5b803561321881613200565b919050565b5f805f6060848603121561322f575f80fd5b83356001600160401b0380821115613245575f80fd5b818601915086601f830112613258575f80fd5b81356020613268612ff7836131de565b82815260059290921b8401810191818101908a841115613286575f80fd5b948201945b838610156132a45785358252948201949082019061328b565b97506132b3905088820161320d565b9550505060408601359150808211156132ca575f80fd5b506132d786828701612fda565b9150509250925092565b5f80604083850312156132f2575f80fd5b50508035926020909101359150565b5f805f60608486031215613313575f80fd5b8335925060208401356001600160401b0381111561332f575f80fd5b61333b86828701612fda565b925050604084013590509250925092565b5f806040838503121561335d575f80fd5b823561336881612e61565b946020939093013593505050565b898152602081018990526001600160a01b0388166040820152610120606082018190525f906133a78382018a6130a8565b90508760808401526133bc60a08401886130e7565b8560c08401528460e08401528281036101008401526133db81856130a8565b9c9b505050505050505050505050565b5f80604083850312156133fc575f80fd5b823561340781612e61565b915060208301356131d381612e61565b634e487b7160e01b5f52603260045260245ffd5b634e487b7160e01b5f52601160045260245ffd5b5f600182016134505761345061342b565b5060010190565b5f82601f830112613466575f80fd5b8151613474612ff782612fb4565b818152846020838601011115613488575f80fd5b613499826020830160208701613086565b949350505050565b5f82601f8301126134b0575f80fd5b815160206134c0612ff7836131de565b82815260059290921b840181019181810190868411156134de575f80fd5b8286015b8481101561351c5780516001600160401b03811115613500575f8081fd5b61350e8986838b0101613457565b8452509183019183016134e2565b509695505050505050565b805160038110613218575f80fd5b805160058110613218575f80fd5b805161321881612e61565b5f6020828403121561355e575f80fd5b81516001600160401b0380821115613574575f80fd5b908301906101c08286031215613588575f80fd5b613590612f15565b82518152602083015160208201526040830151828111156135af575f80fd5b6135bb87828601613457565b6040830152506060830151828111156135d2575f80fd5b6135de87828601613457565b6060830152506080830151828111156135f5575f80fd5b61360187828601613457565b60808301525060a083015182811115613618575f80fd5b613624878286016134a1565b60a08301525061363660c08401613527565b60c082015261364760e08401613535565b60e0820152610100915061365c828401613543565b9181019190915261012082810151908201526101408083015190820152610160808301519082015261018080830151908201526101a091820151918101919091529392505050565b805161321881613200565b5f602082840312156136bf575f80fd5b81516001600160401b03808211156136d5575f80fd5b9083019061018082860312156136e9575f80fd5b6136f1612f3e565b8251815261370160208401613543565b6020820152604083015182811115613717575f80fd5b61372387828601613457565b60408301525060608301518281111561373a575f80fd5b61374687828601613457565b60608301525060808301518281111561375d575f80fd5b61376987828601613457565b60808301525060a083015182811115613780575f80fd5b61378c878286016134a1565b60a08301525060c0830151828111156137a3575f80fd5b6137af878286016134a1565b60c08301525060e0830151828111156137c6575f80fd5b6137d287828601613457565b60e08301525061010083810151908201526101208084015190820152610140808401519082015261016091506138098284016136a4565b91810191909152949350505050565b600181811c9082168061382c57607f821691505b602082108103610c7457634e487b7160e01b5f52602260045260245ffd5b601f821115610f72575f81815260208120601f850160051c810160208610156138705750805b601f850160051c820191505b8181101561388f5782815560010161387c565b505050505050565b81516001600160401b038111156138b0576138b0612f01565b6138c4816138be8454613818565b8461384a565b602080601f8311600181146138f7575f84156138e05750858301515b5f19600386901b1c1916600185901b17855561388f565b5f85815260208120601f198616915b8281101561392557888601518255948401946001909101908401613906565b508582101561394257878501515f19600388901b60f8161c191681555b5050505050600190811b01905550565b5f816139605761396061342b565b505f190190565b604081525f61397960408301856130a8565b90508260208301529392505050565b8082018082111561081c5761081c61342b565b808202811582820484141761081c5761081c61342b565b5f826139cc57634e487b7160e01b5f52601260045260245ffd5b500490565b828152604060208201525f61349960408301846130a8565b5f602082840312156139f9575f80fd5b8151612e9081613200565b5f60208284031215613a14575f80fd5b81516001600160401b0380821115613a2a575f80fd5b908301906101a08286031215613a3e575f80fd5b613a46612f61565b613a4f83613543565b8152602083015182811115613a62575f80fd5b613a6e87828601613457565b602083015250604083015182811115613a85575f80fd5b613a9187828601613457565b604083015250606083015182811115613aa8575f80fd5b613ab4878286016134a1565b606083015250608083015182811115613acb575f80fd5b613ad7878286016134a1565b608083015250613ae960a08401613527565b60a0820152613afa60c08401613527565b60c082015260e08381015190820152610100808401519082015261012080840151908201526101408084015190820152610160808401519082015261018091506138098284016136a4565b5f6020808385031215613b56575f80fd5b82516001600160401b03811115613b6b575f80fd5b8301601f81018513613b7b575f80fd5b8051613b89612ff7826131de565b81815260059190911b82018301908381019087831115613ba7575f80fd5b928401925b82841015613bc557835182529284019290840190613bac565b97965050505050505056fea26469706673582212200f2cd38438824cf8f003b68498a12498efec21aa96e7ee66d3cdde6bc0384ee264736f6c63430008140033","linkReferences":{}},"methodIdentifiers":{"ADMIN_ROLE()":"75b238fc","DEFAULT_ADMIN_ROLE()":"a217fddf","acceptApplication(uint256)":"2084ea53","applicationCount()":"e2aad4a0","applications(uint256)":"dfefadff","applyToIssue(uint256,string,uint256)":"a09c726a","batchReviewApplications(uint256[],bool,string)":"8fcc8609","contributorApplications(address,uint256)":"b4ef5c71","getApplication(uint256)":"1f2f4bfd","getContributorAcceptedApplications(address)":"43e342ca","getContributorApplications(address)":"79f55783","getContributorPendingApplications(address)":"00882210","getContributorRejectedApplications(address)":"d2ce160b","getContributorStats(address)":"8c5e44c1","getIssueApplicationCount(uint256)":"326c4b97","getIssueApplications(uint256)":"7603858b","getMaintainerPendingApplications(address)":"d515049b","getPendingIssueApplications(uint256)":"748f2f4a","getRoleAdmin(bytes32)":"248a9ca3","getStats()":"c59d4847","getTopApplicants(uint256,uint256)":"d361a661","grantRole(bytes32,address)":"2f2ff15d","hasApplied(uint256,address)":"a39bf544","hasAppliedToIssue(uint256,address)":"35d5f2a8","hasRole(bytes32,address)":"91d14854","issueApplications(uint256,uint256)":"9baeda16","maxApplicationsPerIssue()":"1739a53b","minAIScore()":"152acc9b","profileRegistry()":"c9bb1a48","rejectApplication(uint256,string)":"11575df0","renounceRole(bytes32,address)":"36568abe","repoRegistry()":"483d209e","revokeRole(bytes32,address)":"d547741f","supportsInterface(bytes4)":"01ffc9a7","totalAcceptedApplications()":"810db823","totalPendingApplications()":"80f2f19d","totalRejectedApplications()":"edc234c3","updateConfiguration(uint256,uint256)":"b3e3813f","updateContracts(address,address)":"e692c49f","withdrawApplication(uint256)":"f1d5314a"},"id":21}