{"abi":[{"type":"constructor","inputs":[{"name":"_repoRegistry","type":"address","internalType":"address"},{"name":"_profileRegistry","type":"address","internalType":"address"}],"stateMutability":"nonpayable"},{"type":"function","name":"ADMIN_ROLE","inputs":[],"outputs":[{"name":"","type":"bytes32","internalType":"bytes32"}],"stateMutability":"view"},{"type":"function","name":"DEFAULT_ADMIN_ROLE","inputs":[],"outputs":[{"name":"","type":"bytes32","internalType":"bytes32"}],"stateMutability":"view"},{"type":"function","name":"acceptApplication","inputs":[{"name":"_applicationId","type":"uint256","internalType":"uint256"}],"outputs":[],"stateMutability":"nonpayable"},{"type":"function","name":"applicationCount","inputs":[],"outputs":[{"name":"","type":"uint256","internalType":"uint256"}],"stateMutability":"view"},{"type":"function","name":"applications","inputs":[{"name":"","type":"uint256","internalType":"uint256"}],"outputs":[{"name":"id","type":"uint256","internalType":"uint256"},{"name":"issueId","type":"uint256","internalType":"uint256"},{"name":"contributor","type":"address","internalType":"address"},{"name":"message","type":"string","internalType":"string"},{"name":"aiMatchScore","type":"uint256","internalType":"uint256"},{"name":"status","type":"uint8","internalType":"enum ApplicationManager.Status"},{"name":"appliedAt","type":"uint256","internalType":"uint256"},{"name":"reviewedAt","type":"uint256","internalType":"uint256"},{"name":"rejectionReason","type":"string","internalType":"string"}],"stateMutability":"view"},{"type":"function","name":"applyToIssue","inputs":[{"name":"_issueId","type":"uint256","internalType":"uint256"},{"name":"_message","type":"string","internalType":"string"},{"name":"_aiMatchScore","type":"uint256","internalType":"uint256"}],"outputs":[{"name":"","type":"uint256","internalType":"uint256"}],"stateMutability":"nonpayable"},{"type":"function","name":"batchReviewApplications","inputs":[{"name":"_applicationIds","type":"uint256[]","internalType":"uint256[]"},{"name":"_accept","type":"bool","internalType":"bool"},{"name":"_rejectionReason","type":"string","internalType":"string"}],"outputs":[],"stateMutability":"nonpayable"},{"type":"function","name":"contributorApplications","inputs":[{"name":"","type":"address","internalType":"address"},{"name":"","type":"uint256","internalType":"uint256"}],"outputs":[{"name":"","type":"uint256","internalType":"uint256"}],"stateMutability":"view"},{"type":"function","name":"getApplication","inputs":[{"name":"_applicationId","type":"uint256","internalType":"uint256"}],"outputs":[{"name":"","type":"tuple","internalType":"struct ApplicationManager.Application","components":[{"name":"id","type":"uint256","internalType":"uint256"},{"name":"issueId","type":"uint256","internalType":"uint256"},{"name":"contributor","type":"address","internalType":"address"},{"name":"message","type":"string","internalType":"string"},{"name":"aiMatchScore","type":"uint256","internalType":"uint256"},{"name":"status","type":"uint8","internalType":"enum ApplicationManager.Status"},{"name":"appliedAt","type":"uint256","internalType":"uint256"},{"name":"reviewedAt","type":"uint256","internalType":"uint256"},{"name":"rejectionReason","type":"string","internalType":"string"}]}],"stateMutability":"view"},{"type":"function","name":"getContributorAcceptedApplications","inputs":[{"name":"_contributor","type":"address","internalType":"address"}],"outputs":[{"name":"","type":"uint256[]","internalType":"uint256[]"}],"stateMutability":"view"},{"type":"function","name":"getContributorApplications","inputs":[{"name":"_contributor","type":"address","internalType":"address"}],"outputs":[{"name":"","type":"uint256[]","internalType":"uint256[]"}],"stateMutability":"view"},{"type":"function","name":"getContributorPendingApplications","inputs":[{"name":"_contributor","type":"address","internalType":"address"}],"outputs":[{"name":"","type":"uint256[]","internalType":"uint256[]"}],"stateMutability":"view"},{"type":"function","name":"getContributorRejectedApplications","inputs":[{"name":"_contributor","type":"address","internalType":"address"}],"outputs":[{"name":"","type":"uint256[]","internalType":"uint256[]"}],"stateMutability":"view"},{"type":"function","name":"getContributorStats","inputs":[{"name":"_contributor","type":"address","internalType":"address"}],"outputs":[{"name":"totalApplications","type":"uint256","internalType":"uint256"},{"name":"pendingApplications","type":"uint256","internalType":"uint256"},{"name":"acceptedApplications","type":"uint256","internalType":"uint256"},{"name":"rejectedApplications","type":"uint256","internalType":"uint256"},{"name":"successRate","type":"uint256","internalType":"uint256"}],"stateMutability":"view"},{"type":"function","name":"getIssueApplicationCount","inputs":[{"name":"_issueId","type":"uint256","internalType":"uint256"}],"outputs":[{"name":"","type":"uint256","internalType":"uint256"}],"stateMutability":"view"},{"type":"function","name":"getIssueApplications","inputs":[{"name":"_issueId","type":"uint256","internalType":"uint256"}],"outputs":[{"name":"","type":"uint256[]","internalType":"uint256[]"}],"stateMutability":"view"},{"type":"function","name":"getMaintainerPendingApplications","inputs":[{"name":"_maintainer","type":"address","internalType":"address"}],"outputs":[{"name":"","type":"uint256[]","internalType":"uint256[]"}],"stateMutability":"view"},{"type":"function","name":"getPendingIssueApplications","inputs":[{"name":"_issueId","type":"uint256","internalType":"uint256"}],"outputs":[{"name":"","type":"uint256[]","internalType":"uint256[]"}],"stateMutability":"view"},{"type":"function","name":"getRoleAdmin","inputs":[{"name":"role","type":"bytes32","internalType":"bytes32"}],"outputs":[{"name":"","type":"bytes32","internalType":"bytes32"}],"stateMutability":"view"},{"type":"function","name":"getStats","inputs":[],"outputs":[{"name":"totalApplications","type":"uint256","internalType":"uint256"},{"name":"pendingApplications","type":"uint256","internalType":"uint256"},{"name":"acceptedApplications","type":"uint256","internalType":"uint256"},{"name":"rejectedApplications","type":"uint256","internalType":"uint256"}],"stateMutability":"view"},{"type":"function","name":"getTopApplicants","inputs":[{"name":"_issueId","type":"uint256","internalType":"uint256"},{"name":"_limit","type":"uint256","internalType":"uint256"}],"outputs":[{"name":"","type":"uint256[]","internalType":"uint256[]"}],"stateMutability":"view"},{"type":"function","name":"grantRole","inputs":[{"name":"role","type":"bytes32","internalType":"bytes32"},{"name":"account","type":"address","internalType":"address"}],"outputs":[],"stateMutability":"nonpayable"},{"type":"function","name":"hasApplied","inputs":[{"name":"","type":"uint256","internalType":"uint256"},{"name":"","type":"address","internalType":"address"}],"outputs":[{"name":"","type":"bool","internalType":"bool"}],"stateMutability":"view"},{"type":"function","name":"hasAppliedToIssue","inputs":[{"name":"_issueId","type":"uint256","internalType":"uint256"},{"name":"_contributor","type":"address","internalType":"address"}],"outputs":[{"name":"","type":"bool","internalType":"bool"}],"stateMutability":"view"},{"type":"function","name":"hasRole","inputs":[{"name":"role","type":"bytes32","internalType":"bytes32"},{"name":"account","type":"address","internalType":"address"}],"outputs":[{"name":"","type":"bool","internalType":"bool"}],"stateMutability":"view"},{"type":"function","name":"issueApplications","inputs":[{"name":"","type":"uint256","internalType":"uint256"},{"name":"","type":"uint256","internalType":"uint256"}],"outputs":[{"name":"","type":"uint256","internalType":"uint256"}],"stateMutability":"view"},{"type":"function","name":"maxApplicationsPerIssue","inputs":[],"outputs":[{"name":"","type":"uint256","internalType":"uint256"}],"stateMutability":"view"},{"type":"function","name":"minAIScore","inputs":[],"outputs":[{"name":"","type":"uint256","internalType":"uint256"}],"stateMutability":"view"},{"type":"function","name":"profileRegistry","inputs":[],"outputs":[{"name":"","type":"address","internalType":"contract ProfileRegistry"}],"stateMutability":"view"},{"type":"function","name":"rejectApplication","inputs":[{"name":"_applicationId","type":"uint256","internalType":"uint256"},{"name":"_reason","type":"string","internalType":"string"}],"outputs":[],"stateMutability":"nonpayable"},{"type":"function","name":"renounceRole","inputs":[{"name":"role","type":"bytes32","internalType":"bytes32"},{"name":"callerConfirmation","type":"address","internalType":"address"}],"outputs":[],"stateMutability":"nonpayable"},{"type":"function","name":"repoRegistry","inputs":[],"outputs":[{"name":"","type":"address","internalType":"contract RepoRegistry"}],"stateMutability":"view"},{"type":"function","name":"revokeRole","inputs":[{"name":"role","type":"bytes32","internalType":"bytes32"},{"name":"account","type":"address","internalType":"address"}],"outputs":[],"stateMutability":"nonpayable"},{"type":"function","name":"supportsInterface","inputs":[{"name":"interfaceId","type":"bytes4","internalType":"bytes4"}],"outputs":[{"name":"","type":"bool","internalType":"bool"}],"stateMutability":"view"},{"type":"function","name":"totalAcceptedApplications","inputs":[],"outputs":[{"name":"","type":"uint256","internalType":"uint256"}],"stateMutability":"view"},{"type":"function","name":"totalPendingApplications","inputs":[],"outputs":[{"name":"","type":"uint256","internalType":"uint256"}],"stateMutability":"view"},{"type":"function","name":"totalRejectedApplications","inputs":[],"outputs":[{"name":"","type":"uint256","internalType":"uint256"}],"stateMutability":"view"},{"type":"function","name":"updateConfiguration","inputs":[{"name":"_maxApplicationsPerIssue","type":"uint256","internalType":"uint256"},{"name":"_minAIScore","type":"uint256","internalType":"uint256"}],"outputs":[],"stateMutability":"nonpayable"},{"type":"function","name":"updateContracts","inputs":[{"name":"_repoRegistry","type":"address","internalType":"address"},{"name":"_profileRegistry","type":"address","internalType":"address"}],"outputs":[],"stateMutability":"nonpayable"},{"type":"function","name":"withdrawApplication","inputs":[{"name":"_applicationId","type":"uint256","internalType":"uint256"}],"outputs":[],"stateMutability":"nonpayable"},{"type":"event","name":"ApplicationAccepted","inputs":[{"name":"applicationId","type":"uint256","indexed":true,"internalType":"uint256"},{"name":"issueId","type":"uint256","indexed":true,"internalType":"uint256"},{"name":"contributor","type":"address","indexed":true,"internalType":"address"},{"name":"timestamp","type":"uint256","indexed":false,"internalType":"uint256"}],"anonymous":false},{"type":"event","name":"ApplicationRejected","inputs":[{"name":"applicationId","type":"uint256","indexed":true,"internalType":"uint256"},{"name":"issueId","type":"uint256","indexed":true,"internalType":"uint256"},{"name":"contributor","type":"address","indexed":true,"internalType":"address"},{"name":"reason","type":"string","indexed":false,"internalType":"string"},{"name":"timestamp","type":"uint256","indexed":false,"internalType":"uint256"}],"anonymous":false},{"type":"event","name":"ApplicationSubmitted","inputs":[{"name":"applicationId","type":"uint256","indexed":true,"internalType":"uint256"},{"name":"issueId","type":"uint256","indexed":true,"internalType":"uint256"},{"name":"contributor","type":"address","indexed":true,"internalType":"address"},{"name":"aiMatchScore","type":"uint256","indexed":false,"internalType":"uint256"},{"name":"timestamp","type":"uint256","indexed":false,"internalType":"uint256"}],"anonymous":false},{"type":"event","name":"ApplicationWithdrawn","inputs":[{"name":"applicationId","type":"uint256","indexed":true,"internalType":"uint256"},{"name":"issueId","type":"uint256","indexed":true,"internalType":"uint256"},{"name":"contributor","type":"address","indexed":true,"internalType":"address"},{"name":"timestamp","type":"uint256","indexed":false,"internalType":"uint256"}],"anonymous":false},{"type":"event","name":"ConfigurationUpdated","inputs":[{"name":"maxApplicationsPerIssue","type":"uint256","indexed":false,"internalType":"uint256"},{"name":"minAIScore","type":"uint256","indexed":false,"internalType":"uint256"}],"anonymous":false},{"type":"event","name":"RoleAdminChanged","inputs":[{"name":"role","type":"bytes32","indexed":true,"internalType":"bytes32"},{"name":"previousAdminRole","type":"bytes32","indexed":true,"internalType":"bytes32"},{"name":"newAdminRole","type":"bytes32","indexed":true,"internalType":"bytes32"}],"anonymous":false},{"type":"event","name":"RoleGranted","inputs":[{"name":"role","type":"bytes32","indexed":true,"internalType":"bytes32"},{"name":"account","type":"address","indexed":true,"internalType":"address"},{"name":"sender","type":"address","indexed":true,"internalType":"address"}],"anonymous":false},{"type":"event","name":"RoleRevoked","inputs":[{"name":"role","type":"bytes32","indexed":true,"internalType":"bytes32"},{"name":"account","type":"address","indexed":true,"internalType":"address"},{"name":"sender","type":"address","indexed":true,"internalType":"address"}],"anonymous":false},{"type":"error","name":"AIScoreTooLow","inputs":[]},{"type":"error","name":"AccessControlBadConfirmation","inputs":[]},{"type":"error","name":"AccessControlUnauthorizedAccount","inputs":[{"name":"account","type":"address","internalType":"address"},{"name":"neededRole","type":"bytes32","internalType":"bytes32"}]},{"type":"error","name":"AlreadyApplied","inputs":[]},{"type":"error","name":"ApplicationDoesNotExist","inputs":[]},{"type":"error","name":"ApplicationNotPending","inputs":[]},{"type":"error","name":"EmptyMessage","inputs":[]},{"type":"error","name":"InvalidStatus","inputs":[]},{"type":"error","name":"IssueDoesNotExist","inputs":[]},{"type":"error","name":"IssueNotOpen","inputs":[]},{"type":"error","name":"NotContributor","inputs":[]},{"type":"error","name":"NotMaintainer","inputs":[]},{"type":"error","name":"ProfileDoesNotExist","inputs":[]},{"type":"error","name":"TooManyApplications","inputs":[]},{"type":"error","name":"Unauthorized","inputs":[]}],"bytecode":{"object":"0x608034620000b857601f620033e438819003918201601f19168301916001600160401b03831184841017620000bc578084926040948552833981010312620000b8576200005a60206200005283620000d0565b9201620000d0565b600a600b55601e600c55600180546001600160a01b039384166001600160a01b031991821617909155600280549290931691161790556200009b33620000e5565b50620000a73362000163565b506040516131c09081620002048239f35b5f80fd5b634e487b7160e01b5f52604160045260245ffd5b51906001600160a01b0382168203620000b857565b6001600160a01b03165f8181527fad3228b676f7d3cd4284a5443f17f1962b36e491b30a40b2405849e597ba5fb5602052604081205490919060ff166200015f57818052816020526040822081835260205260408220600160ff1982541617905533915f80516020620033c48339815191528180a4600190565b5090565b6001600160a01b03165f8181527f7d7ffb7a348e1c6a02869081a26547b49160dd3df72d1d75a570eb9b698292ec60205260408120549091907fa49807205ce4d355092ef5a8a18f56e8913cf4a201fbe287825b095693c217759060ff16620001fe57808352826020526040832082845260205260408320600160ff198254161790555f80516020620033c4833981519152339380a4600190565b50509056fe6080806040526004361015610012575f80fd5b5f9060e08235811c918262882210146124885750816301ffc9a71461243157816311575df01461217c578163152acc9b1461215e5781631739a53b146121405781631f2f4bfd14611fc15781632084ea5314611bfa578163248a9ca314611bce5781632f2ff15d14611b91578163326c4b9714611b6757816335d5f2a814610bbb57816336568abe14611b1f57816343e342ca146119df578163483d209e146119b6578163748f2f4a1461187357816375b238fc146118385781637603858b146117d357816379f557831461176057816380f2f19d14611742578163810db823146117245781638c5e44c11461156b5781638fcc8609146113d857816391d148541461138f5781639baeda161461135d578163a09c726a14610c21578163a217fddf14610c05578163a39bf54414610bbb578163b3e3813f14610ade578163b4ef5c7114610a88578163c59d484714610a51578163c9bb1a4814610a28578163d2ce160b146108cf578163d361a661146108a8578163d515049b146104e1578163d547741f146104a0578163dfefadff146103de57508063e2aad4a0146103c0578063e692c49f1461034c578063edc234c31461032e5763f1d5314a146101d7575f80fd5b3461032b57602036600319011261032b5760043580158015610320575b61030e5780825260036020526040822060028101546001600160a01b031633036102fd576005810180549160ff831661022c8161273b565b6102eb57600191600260ff198095161790554260078201556008810161025b61025582546127af565b82612c4d565b7f57697468647261776e20627920636f6e7472696275746f720000000000000030905560085461028a90612e26565b600855610298600a54612c29565b600a55019081548452600660205260408420335f5260205260405f2090815416905554604051914283527fc12a3eaa7f7126530aadca3ccaa3c302e96123174cd32827f339a4c7b0200aad60203394a480f35b60405163d5eda46b60e01b8152600490fd5b6040516282b42960e81b8152600490fd5b60405163362a281160e01b8152600490fd5b5060075481116101f4565b80fd5b503461032b578060031936011261032b576020600a54604051908152f35b503461032b57604036600319011261032b576103666125bf565b61036e6125d9565b90610377612888565b6001600160a01b039081169161038e83151561314c565b169061039b82151561314c565b6bffffffffffffffffffffffff60a01b90816001541617600155600254161760025580f35b503461032b578060031936011261032b576020600754604051908152f35b823461032b57602036600319011261032b5760409060043581526003602052209061049c82549160018401549360018060a01b0360028201541690610425600382016127e7565b9260048201549360ff60058401541661047260068501549261044e6008600788015497016127e7565b966040519b8c9b8c5260208c015260408b01526101208060608c01528a0190612716565b9560808901526104818161273b565b60a088015260c0870152850152838203610100850152612716565b0390f35b823461032b57604036600319011261032b576104dd6004356104c06125d9565b90808452836020526104d86001604086200154612901565b61299e565b5080f35b823461032b576020908160031936011261032b576104fd6125bf565b60018054604051636d06c5a560e01b81526001600160a01b03938416600482015292169360249380848681895afa93841561089b57819461087f575b50919492918080875b610708575b5090610554879392612e46565b95819482985b61056d575b6040518061049c8a826125ef565b8097969751891015610700576105838982612e32565b516040519063f607ecaf60e01b82526004820152838184818c5afa9081156106f55784916106d3575b5083865b6105cc575b50506105c48596979899612c29565b98969561055a565b81518110156106ce57806105e1889284612e32565b5186526004875260408620604051908189825491828152019189528989209089905b8b8183106106b757505050508161061b910382612673565b86835b610634575b505061062e90612c29565b906105b0565b90919282518210156106b0575061064b8183612e32565b518752600388528a60ff600560408a200154166106678161273b565b15610681575b506106788991612c29565b8193929161061e565b6106a68b610678926106a0859e6106998f9789612e32565b5192612e32565b52612c29565b9a9150508a61066d565b9291610623565b835485528d97940193928301929190910190610603565b6105b5565b6106ef91503d8086833e6106e78183612673565b810190612e78565b8a6105ac565b6040513d86823e3d90fd5b86975061055f565b87859698955182101561087557506107208187612e32565b516040519063f607ecaf60e01b82526004820152838189818c5afa9081156106f557849161085b575b5085919084835b610769575b505061076090612c29565b90979594610542565b909192825182101561085457906107808184612e32565b5186526004875260408620604051908189825491828152019189528989209089905b8b81831061083d5750505050816107ba910382612673565b86835b6107d6575b50506107cd90612c29565b81939291610750565b8192939151811015610834576107ec8184612e32565b5188526003895260ff600560408a200154166108078161273b565b1561081f575b61081690612c29565b819392916107bd565b9561082c61081691612c29565b96905061080d565b819392506107c2565b835485528d979401939283019291909101906107a2565b9291610755565b61086f91503d8086833e6106e78183612673565b89610749565b5096949396610547565b6108949194503d8086833e6106e78183612673565b9286610539565b50604051903d90823e3d90fd5b823461032b5761049c6108c36108bd36612770565b90612ef1565b604051918291826125ef565b823461032b576020908160031936011261032b576001600160a01b036108f36125bf565b1681526005918281526040822091604051808484829654938481520190845284842092845b86828210610a125750505061092f92500384612673565b8091815b845181101561098b576109468186612e32565b51835260038252600260ff87604086200154166109628161273b565b14610976575b61097190612c29565b610933565b9261098361097191612c29565b939050610968565b5092909161099890612e46565b9382805b8351811015610a04576109af8185612e32565b51825260038652600260ff84604085200154166109cb8161273b565b146109df575b6109da90612c29565b61099c565b936109fc6109da916109f18787612e32565b516106a0828b612e32565b9490506109d1565b6040518061049c89826125ef565b8554845260019586019589955093019201610918565b823461032b578060031936011261032b576002546040516001600160a01b039091168152602090f35b823461032b578060031936011261032b576080600754600854600954600a5491604051938452602084015260408301526060820152f35b823461032b57604036600319011261032b57610aa26125bf565b6001600160a01b031681526005602052604081208054602435929083101561032b576020610ad08484612786565b90546040519160031b1c8152f35b823461032b57610aed36612770565b610af5612888565b60648111610b83578115610b3e57816040917fef1efc2eb4c3919acff49f1baa43e65b34b152dd75ac70025e825092d576ed6893600b5580600c5582519182526020820152a180f35b60405162461bcd60e51b815260206004820152601860248201527f496e76616c6964206d6178206170706c69636174696f6e7300000000000000006044820152606490fd5b60405162461bcd60e51b815260206004820152601060248201526f496e76616c69642041492073636f726560801b6044820152606490fd5b823461032b57604036600319011261032b576040610bd76125d9565b9160043581526006602052209060018060a01b03165f52602052602060ff60405f2054166040519015158152f35b823461032b578060031936011261032b57602090604051908152f35b905034611359576060366003190112611359576024356001600160401b03811161126457610c539036906004016126af565b9160018060a01b036002541660405163a787c80b60e01b8152336004820152602081602481855afa9081156112cd57839161131f575b501561130d578351156112fb57600c54604435106112e9576004358252600660205260408220335f5260205260ff60405f2054166112d85760015460405163976b311360e01b81526004803590820152908390829060249082906001600160a01b03165afa9081156112cd5790849184916112ab575b50015160058110156112975761128557600435825260046020526040822054600b54111561127357816024916040519283809262f53a4760e41b82523360048301525afa9081156112685782916110dc575b5060c06001910151610d628161273b565b610d6b8161273b565b146110ca57610d7b600754612c29565b8060075560405193610d8c85612629565b8185526004356020860152336040860152606085015260443560808501528160a08501524260c08501528183850152604051610dc781612658565b828152610100850152815260036020526040812083518155602084015160018201556002810160018060a01b036040860151166bffffffffffffffffffffffff60a01b82541617905560608401518051906001600160401b0382116110b657610e4082610e3760038601546127af565b60038601612c73565b602090601f831160011461104457918061010094926008948792611039575b50508160011b915f199060031b1c19161760038201555b6080860151600482015560a08601519460058201610e938761273b565b610e9c8761273b565b60ff199660ff88835416911617905560c087015160068301558601516007820155019301519283516001600160401b03811161102557610ee681610ee084546127af565b84612c73565b6020601f8211600114610fc0578190604095968592610fb5575b50508160011b915f199060031b1c19161790555b60043581526004602052610f2d82822060075490612cb6565b3381526005602052610f4482822060075490612cb6565b6004358152600660205220335f52602052600160405f2091825416179055610f6d600854612c29565b6008556020600754604051604435815242838201523390827f4a713e978dae2489a458b332243d844bc3b923b63f87af2a7d6298d7c621b299604060043593a4604051908152f35b015190505f80610f00565b8284526020842095601f198316855b81811061100d5750916040969791846001959410610ff5575b505050811b019055610f14565b01515f1960f88460031b161c191690555f8080610fe8565b83830151895560019098019760209384019301610fcf565b634e487b7160e01b83526041600452602483fd5b015190505f80610e5f565b906003840185526020852091855b601f198516811061109e575092610100949260019260089583601f19811610611086575b505050811b016003820155610e76565b01515f1960f88460031b161c191690555f8080611076565b91926020600181928685015181550194019201611052565b634e487b7160e01b84526041600452602484fd5b60405163d764187d60e01b8152600490fd5b90503d8083833e6110ed8183612673565b810190602081830312611264578051906001600160401b03821161124857016101a0918282820312611248576040519283018381106001600160401b038211176112505760405261113d82612ae3565b835260208201516001600160401b03811161124c578161115e918401612a1e565b602084015260408201516001600160401b03811161124c5781611182918401612a1e565b604084015260608201516001600160401b03811161124c57816111a6918401612a63565b606084015260808201516001600160401b03811161124c57906111ca918301612a63565b608083015260a081015160038110156112485760a083015260c08101516003811015611248579160c091600193838301528581015186830152610100808201519083015261012080820151908301526101408082015190830152610160808201519083015261123d610180809201612a11565b908201529150610d51565b8380fd5b8480fd5b634e487b7160e01b5f52604160045260245ffd5b8280fd5b6040513d84823e3d90fd5b604051633224aeb960e21b8152600490fd5b60405163eb3edb8760e01b8152600490fd5b634e487b7160e01b83526021600452602483fd5b6112c791503d8086833e6112bf8183612673565b810190612af7565b5f610cff565b6040513d85823e3d90fd5b60405162540c0360e11b8152600490fd5b6040516348e03f5b60e01b8152600490fd5b60405163017636cb60e71b8152600490fd5b604051635a05a1b160e01b8152600490fd5b90506020813d602011611351575b8161133a60209383612673565b810103126112645761134b90612a11565b5f610c89565b3d915061132d565b5080fd5b823461032b5761136c36612770565b9190815260046020526040812090815483101561032b576020610ad08484612786565b823461032b57604036600319011261032b5760406113ab6125d9565b91600435815280602052209060018060a01b03165f52602052602060ff60405f2054166040519015158152f35b823461032b57606036600319011261032b576001600160401b0360043581811161126457366023820112156112645780600401359061141682612759565b906114246040519283612673565b8282526020908183016024809560051b83010191368311611567579085889594939201905b828210611555575050505082359081151582036112645760449485359081116112485761147a9036906004016126af565b835b82518110156115515783156114f9576114958184612e32565b51303b156114f55760405190632084ea5360e01b825260048201528581888183305af19081156114ea5786916114d6575b50506114d190612c29565b61147c565b6114df90612645565b61124c5784896114c6565b6040513d88823e3d90fd5b8580fd5b6115038184612e32565b51303b156114f5576040519063011575df60e41b825260048201526040878201528581806115338b820187612716565b038183305af19081156114ea5786916114d65750506114d190612c29565b8480f35b81358152889550908301908301611449565b8780fd5b823461032b57602080600319360112611359576115866125bf565b8283849260018060a01b03168552600580855260408620946040518087838299549384815201908a52838a20928a5b8582821061170e575050506115cc92500387612673565b85519587945b8151861015611678576115e58683612e32565b5189526003835260ff8460408b200154166115ff8161273b565b8061161d575061161161161791612c29565b95612c29565b946115d2565b61162a819796929761273b565b60018103611645575061163f61161791612c29565b94612c29565b8061165460029297939761273b565b14611663575b61161790612c29565b9561167061161791612c29565b96905061165a565b9250509392508282018083116116fa578015806116ef576064840290848204606414851517156116db576116c75760a0975004935b604051958652850152604084015260608301526080820152f35b634e487b7160e01b88526012600452602488fd5b634e487b7160e01b89526011600452602489fd5b505060a095936116ad565b634e487b7160e01b5f52601160045260245ffd5b855484526001958601958c9550930192016115b5565b823461032b578060031936011261032b576020600954604051908152f35b823461032b578060031936011261032b576020600854604051908152f35b823461032b57602080600319360112611359576001600160a01b036117836125bf565b1682526005815260408220916040518092808554928381520194835280832092905b8282106117bc5761049c856108c381890382612673565b8354865294850194600193840193909101906117a5565b823461032b576020806003193601126113595760043582526004815260408220916040518092808554928381520194835280832092905b8282106118215761049c856108c381890382612673565b83548652948501946001938401939091019061180a565b823461032b578060031936011261032b5760206040517fa49807205ce4d355092ef5a8a18f56e8913cf4a201fbe287825b095693c217758152f35b823461032b57602080600319360112611359576004358252600481526040822091604051808484829654938481520190845284842092845b868282106119a0575050506118c292500384612673565b80805b845181101561191c576118d88186612e32565b5182526003845260ff6005604084200154166118f38161273b565b15611907575b61190290612c29565b6118c5565b9161191461190291612c29565b9290506118f9565b509061192790612e46565b9281805b82518110156119925761193e8184612e32565b5182526003855260ff6005604084200154166119598161273b565b1561196d575b61196890612c29565b61192b565b9261198a6119689161197f8686612e32565b516106a0828a612e32565b93905061195f565b6040518061049c88826125ef565b85548452600195860195899550930192016118ab565b823461032b578060031936011261032b576001546040516001600160a01b039091168152602090f35b823461032b576020908160031936011261032b576001600160a01b03611a036125bf565b1681526005918281526040822091604051808484829654938481520190845284842092845b86828210611b0957505050611a3f92500384612673565b8091815b8451811015611a9b57611a568186612e32565b51835260038252600160ff8760408620015416611a728161273b565b14611a86575b611a8190612c29565b611a43565b92611a93611a8191612c29565b939050611a78565b50929091611aa890612e46565b9382805b8351811015610a0457611abf8185612e32565b51825260038652600160ff8460408520015416611adb8161273b565b14611aef575b611aea90612c29565b611aac565b93611b01611aea916109f18787612e32565b949050611ae1565b8554845260019586019589955093019201611a28565b823461032b57604036600319011261032b57611b396125d9565b336001600160a01b03821603611b55576104dd9060043561299e565b60405163334bd91960e11b8152600490fd5b823461032b57602036600319011261032b5760406020916004358152600483522054604051908152f35b823461032b57604036600319011261032b576104dd600435611bb16125d9565b9080845283602052611bc96001604086200154612901565b612922565b823461032b57602036600319011261032b57600160406020926004358152808452200154604051908152f35b823461032b57602036600319011261032b57600435158015611fb4575b61030e576004358152600360205260408120600581019182549260ff8416611c3e8161273b565b6102eb5760018054908401805460405163976b311360e01b815260048101919091529095916001600160a01b0316908481602481855afa908115611fa95785916020918391611f8f575b5001516024604051809481936317c47de960e21b835260048301525afa9081156106f5578491611f6d575b50602001516001600160a01b03163303611f5b5760ff19166001179055426007830155600854611ce290612e26565b600855611cf0600954612c29565b60095560018060a01b03600154166002845493019260018060a01b0384541690823b1561124857906044849283604051958694859363f65fb58d60e01b8552600485015260248401525af1801561126857611f4c575b5082548082526004602052604082206040518082602082945493848152019086526020862092865b818110611f33575050611d8392500382612673565b825b8151811015611ef157611db190600435611d9f8285612e32565b51141580611ec4575b611db657612c29565b611d85565b611dc08184612e32565b51855260036020526040852060058101600260ff19825416179055426007820155846008820191611dfa611df484546127af565b84612c4d565b7f416e6f74686572206170706c6963616e74207761732073656c6563746564000092603c84019055611e2d600854612e26565b600855600a611e3c8154612c29565b9055818852600660205260026040892091019060018060a01b038254165f5260205260405f2060ff1981541690557fc262a9d60819fb8673fac5c2e74f6f04215b7a738c24f804d94a239440db24c36080611e978689612e32565b519260018060a01b03905416946040519060408252601e60408301526060820152426020820152a4612c29565b50611ecf8184612e32565b518552600360205260ff600560408720015416611eeb8161273b565b15611da8565b50505091549060018060a01b03905416906040514281527fa78788289b7ec68d9e28f96a29e0c8c70bf56d6ed4838848e6acc9729e0924c4602060043592a480f35b8454835260019485019486945060209093019201611d6e565b611f5590612645565b83611d46565b604051639b96b05160e01b8152600490fd5b611f8991503d8086833e611f818183612673565b810190612cef565b86611cb3565b611fa391503d8085833e6112bf8183612673565b89611c88565b6040513d87823e3d90fd5b5060075460043511611c17565b905034611359576020918260031936011261032b5760405191600435611fe684612629565b82845282858501528260408501526060808501528260808501528260a08501528260c0850152828285015260606101008095015280158015612135575b61030e578260409161049c945260038652206040519361204285612629565b815485526001820154908686019182528560018060a01b0394856002860154169460408301958652612076600382016127e7565b606084019081526004820154976080850198895260ff6005840154169760a08601986120a18161273b565b89526120c6600860068601549560c089019687528760078201549901988952016127e7565b97878d019889526040518e819f9e829f8352519101525160408d0152511660608b01525195612103610120978860808d01526101408c0190612716565b975160a08b0152516121148161273b565b60c08a0152519088015251908601525190601f198584030190850152612716565b506007548111612023565b823461032b578060031936011261032b576020600b54604051908152f35b823461032b578060031936011261032b576020600c54604051908152f35b823461032b57604036600319011261032b576001600160401b03602435818111611264576121ae9036906004016126af565b90600435158015612424575b61030e576004358352600360205260408320600581019081549260ff84166121e18161273b565b6102eb5760019260018060a01b0384541687858501546040519063976b311360e01b825260048201528181602481865afa801561126857602091839161240a575b5001516024604051809481936317c47de960e21b835260048301525afa9081156123ff5788916123e5575b50602001516001600160a01b03163303611f5b5760ff19948516600217905542600783015584519081116123d1576122958161228c60088501546127af565b60088501612c73565b806020601f821160011461236a57879161235f575b505f19600383901b1c191690831b1760088201555b6122ca600854612e26565b6008556122d8600a54612c29565b600a5581810154855260066020526040852092600282019360018060a01b0385541687526020526040862090815416905501549060018060a01b03905416917fc262a9d60819fb8673fac5c2e74f6f04215b7a738c24f804d94a239440db24c361234d60405192604084526040840190612716565b9142602082015280600435930390a480f35b9050850151876122aa565b8492506008840188526020882090885b601f19841681106123b9575082601f198116106123a1575b5050811b0160088201556122bf565b8701515f1960f88460031b161c191690558780612392565b8882015183558694909201916020918201910161237a565b634e487b7160e01b86526041600452602486fd5b6123f991503d808a833e611f818183612673565b8861224d565b6040513d8a823e3d90fd5b61241e91503d8085833e6112bf8183612673565b8b612222565b50600754600435116121ba565b823461032b57602036600319011261032b5760043563ffffffff60e01b811680910361135957602090637965db0b60e01b8114908115612477575b506040519015158152f35b6301ffc9a760e01b1490508261246c565b83903461135957602080600319360112611264576001600160a01b036124ac6125bf565b168352600592838252604081208381549182825284820190845284842092845b868282106125a9575050506124e392500384612673565b8091815b845181101561253d576124fa8186612e32565b5183526003825260ff86604085200154166125148161273b565b15612528575b61252390612c29565b6124e7565b9261253561252391612c29565b93905061251a565b5092909161254a90612e46565b9382805b8351811015610a04576125618185612e32565b5182526003865260ff836040842001541661257b8161273b565b1561258f575b61258a90612c29565b61254e565b936125a161258a916109f18787612e32565b949050612581565b85548452600195860195899550930192016124cc565b600435906001600160a01b03821682036125d557565b5f80fd5b602435906001600160a01b03821682036125d557565b602090816040818301928281528551809452019301915f5b828110612615575050505090565b835185529381019392810192600101612607565b61012081019081106001600160401b0382111761125057604052565b6001600160401b03811161125057604052565b602081019081106001600160401b0382111761125057604052565b90601f801991011681019081106001600160401b0382111761125057604052565b6001600160401b03811161125057601f01601f191660200190565b81601f820112156125d5578035906126c682612694565b926126d46040519485612673565b828452602083830101116125d557815f926020809301838601378301015290565b5f5b8381106127065750505f910152565b81810151838201526020016126f7565b9060209161272f815180928185528580860191016126f5565b601f01601f1916010190565b6003111561274557565b634e487b7160e01b5f52602160045260245ffd5b6001600160401b0381116112505760051b60200190565b60409060031901126125d5576004359060243590565b805482101561279b575f5260205f2001905f90565b634e487b7160e01b5f52603260045260245ffd5b90600182811c921680156127dd575b60208310146127c957565b634e487b7160e01b5f52602260045260245ffd5b91607f16916127be565b9060405191825f8254926127fa846127af565b9081845260019485811690815f146128655750600114612825575b505061282392500383612673565b565b909391505f52602090815f20935f915b81831061284d57505061282393508201015f80612815565b85548884018501529485019487945091830191612835565b91505061282394506020925060ff191682840152151560051b8201015f80612815565b335f9081527f7d7ffb7a348e1c6a02869081a26547b49160dd3df72d1d75a570eb9b698292ec60205260409020547fa49807205ce4d355092ef5a8a18f56e8913cf4a201fbe287825b095693c217759060ff16156128e35750565b6044906040519063e2517d3f60e01b82523360048301526024820152fd5b805f525f60205260405f20335f5260205260ff60405f205416156128e35750565b905f9180835282602052604083209160018060a01b03169182845260205260ff604084205416155f1461299957808352826020526040832082845260205260408320600160ff198254161790557f2f8788117e7eff1d82e926ec794901d17c78024a50270940304540a733656f0d339380a4600190565b505090565b905f9180835282602052604083209160018060a01b03169182845260205260ff6040842054165f146129995780835282602052604083208284526020526040832060ff1981541690557ff6391f5c32d9c69d2a47ea670b442974b53935d1edc7fd64eb21e047a839171b339380a4600190565b519081151582036125d557565b81601f820112156125d5578051612a3481612694565b92612a426040519485612673565b818452602082840101116125d557612a6091602080850191016126f5565b90565b9080601f830112156125d557815190612a7b82612759565b92612a896040519485612673565b828452602092838086019160051b830101928084116125d557848301915b848310612ab75750505050505090565b82516001600160401b0381116125d5578691612ad884848094890101612a1e565b815201920191612aa7565b51906001600160a01b03821682036125d557565b6020818303126125d55780516001600160401b03918282116125d55701906101c09283838203126125d5576040519384018481108382111761125057604052825184526020830151602085015260408301518281116125d55781612b5c918501612a1e565b604085015260608301518281116125d55781612b79918501612a1e565b606085015260808301518281116125d55781612b96918501612a1e565b608085015260a08301519182116125d557612bb2918301612a63565b60a083015260c081015160038110156125d55760c083015260e081015160058110156125d55760e0830152610100612beb818301612ae3565b9083015261012080820151908301526101408082015190830152610160808201519083015261018080820151908301526101a0809101519082015290565b5f1981146116fa5760010190565b818110612c42575050565b5f8155600101612c37565b90601f8111612c5a575050565b612823915f52601f60205f20910160051c810190612c37565b9190601f8111612c8257505050565b612823925f5260205f20906020601f840160051c83019310612cac575b601f0160051c0190612c37565b9091508190612c9f565b80546801000000000000000081101561125057612cd891600182018155612786565b819291549060031b91821b915f19901b1916179055565b6020818303126125d55780516001600160401b03918282116125d55701906101809283838203126125d557604051938401848110838211176112505760405282518452612d3e60208401612ae3565b602085015260408301518281116125d55781612d5b918501612a1e565b604085015260608301518281116125d55781612d78918501612a1e565b606085015260808301518281116125d55781612d95918501612a1e565b608085015260a08301518281116125d55781612db2918501612a63565b60a085015260c08301518281116125d55781612dcf918501612a63565b60c085015260e08301519182116125d557612deb918301612a1e565b60e0830152610100808201519083015261012080820151908301526101408082015190830152612e1f610160809201612a11565b9082015290565b80156116fa575f190190565b805182101561279b5760209160051b010190565b90612e5082612759565b612e5d6040519182612673565b8281528092612e6e601f1991612759565b0190602036910137565b60209081818403126125d5578051906001600160401b0382116125d557019180601f840112156125d5578251612ead81612759565b93612ebb6040519586612673565b818552838086019260051b8201019283116125d5578301905b828210612ee2575050505090565b81518152908301908301612ed4565b915f928352600490602093828552604091828220908351808389829554938481520190865289862092865b8b82821061313657505050612f3392500383612673565b8294835b8351811015612f8d57612f4a8185612e32565b5185526003895260ff6005878720015416612f648161273b565b15612f78575b612f7390612c29565b612f37565b95612f85612f7391612c29565b969050612f6a565b5094959391929095801561311a57612fa490612e46565b938195825b855181101561300457612fbc8187612e32565b51845260038a5260ff6005868620015416612fd68161273b565b15612fea575b612fe590612c29565b612fa9565b96612ffc612fe5916109f18a89612e32565b979050612fdc565b50935095909450845b84518110156130c85760018082018083116130b557815b613039575b505061303490612c29565b61300d565b86518110156130b05761307f8291613051858a612e32565b518a526003808d5288888c2001549061306a838c612e32565b518c528d5288888c2001541161308557612c29565b90613024565b61308f858a612e32565b5161309a828b612e32565b516130a5878c612e32565b526106a0828b612e32565b613029565b634e487b7160e01b885260118652602488fd5b508351939650949150508181111561311357505b6130e581612e46565b915b8181106130f5575090925050565b8061310361310e9287612e32565b516106a08286612e32565b6130e7565b90506130dc565b5094955092505050519061312d82612658565b80825236813790565b8554845260019586019588955093019201612f1c565b1561315357565b60405162461bcd60e51b815260206004820152600f60248201526e496e76616c6964206164647265737360881b6044820152606490fdfea2646970667358221220c5eb317fa1af96f3df7d0e12dddb2932fad2e5ea0f92046c9d8d4cad4c82a1ec64736f6c634300081400332f8788117e7eff1d82e926ec794901d17c78024a50270940304540a733656f0d","linkReferences":{}},"methodIdentifiers":{"ADMIN_ROLE()":"75b238fc","DEFAULT_ADMIN_ROLE()":"a217fddf","acceptApplication(uint256)":"2084ea53","applicationCount()":"e2aad4a0","applications(uint256)":"dfefadff","applyToIssue(uint256,string,uint256)":"a09c726a","batchReviewApplications(uint256[],bool,string)":"8fcc8609","contributorApplications(address,uint256)":"b4ef5c71","getApplication(uint256)":"1f2f4bfd","getContributorAcceptedApplications(address)":"43e342ca","getContributorApplications(address)":"79f55783","getContributorPendingApplications(address)":"00882210","getContributorRejectedApplications(address)":"d2ce160b","getContributorStats(address)":"8c5e44c1","getIssueApplicationCount(uint256)":"326c4b97","getIssueApplications(uint256)":"7603858b","getMaintainerPendingApplications(address)":"d515049b","getPendingIssueApplications(uint256)":"748f2f4a","getRoleAdmin(bytes32)":"248a9ca3","getStats()":"c59d4847","getTopApplicants(uint256,uint256)":"d361a661","grantRole(bytes32,address)":"2f2ff15d","hasApplied(uint256,address)":"a39bf544","hasAppliedToIssue(uint256,address)":"35d5f2a8","hasRole(bytes32,address)":"91d14854","issueApplications(uint256,uint256)":"9baeda16","maxApplicationsPerIssue()":"1739a53b","minAIScore()":"152acc9b","profileRegistry()":"c9bb1a48","rejectApplication(uint256,string)":"11575df0","renounceRole(bytes32,address)":"36568abe","repoRegistry()":"483d209e","revokeRole(bytes32,address)":"d547741f","supportsInterface(bytes4)":"01ffc9a7","totalAcceptedApplications()":"810db823","totalPendingApplications()":"80f2f19d","totalRejectedApplications()":"edc234c3","updateConfiguration(uint256,uint256)":"b3e3813f","updateContracts(address,address)":"e692c49f","withdrawApplication(uint256)":"f1d5314a"},"id":26}