{"abi":[{"type":"constructor","inputs":[{"name":"_profileRegistry","type":"address","internalType":"address"},{"name":"_repoRegistry","type":"address","internalType":"address"},{"name":"_feeCollector","type":"address","internalType":"address"}],"stateMutability":"nonpayable"},{"type":"receive","stateMutability":"payable"},{"type":"function","name":"ADMIN_ROLE","inputs":[],"outputs":[{"name":"","type":"bytes32","internalType":"bytes32"}],"stateMutability":"view"},{"type":"function","name":"DEFAULT_ADMIN_ROLE","inputs":[],"outputs":[{"name":"","type":"bytes32","internalType":"bytes32"}],"stateMutability":"view"},{"type":"function","name":"MAX_FEE","inputs":[],"outputs":[{"name":"","type":"uint256","internalType":"uint256"}],"stateMutability":"view"},{"type":"function","name":"PAUSER_ROLE","inputs":[],"outputs":[{"name":"","type":"bytes32","internalType":"bytes32"}],"stateMutability":"view"},{"type":"function","name":"accumulatedFees","inputs":[],"outputs":[{"name":"","type":"uint256","internalType":"uint256"}],"stateMutability":"view"},{"type":"function","name":"allTips","inputs":[{"name":"","type":"uint256","internalType":"uint256"}],"outputs":[{"name":"from","type":"address","internalType":"address"},{"name":"to","type":"address","internalType":"address"},{"name":"amount","type":"uint256","internalType":"uint256"},{"name":"issueId","type":"uint256","internalType":"uint256"},{"name":"timestamp","type":"uint256","internalType":"uint256"},{"name":"message","type":"string","internalType":"string"}],"stateMutability":"view"},{"type":"function","name":"batchTip","inputs":[{"name":"_contributors","type":"address[]","internalType":"address[]"},{"name":"_amounts","type":"uint256[]","internalType":"uint256[]"},{"name":"_issueIds","type":"uint256[]","internalType":"uint256[]"},{"name":"_messages","type":"string[]","internalType":"string[]"}],"outputs":[],"stateMutability":"payable"},{"type":"function","name":"calculateTipAfterFee","inputs":[{"name":"_amount","type":"uint256","internalType":"uint256"}],"outputs":[{"name":"afterFee","type":"uint256","internalType":"uint256"},{"name":"fee","type":"uint256","internalType":"uint256"}],"stateMutability":"view"},{"type":"function","name":"contributorTipIds","inputs":[{"name":"","type":"address","internalType":"address"},{"name":"","type":"uint256","internalType":"uint256"}],"outputs":[{"name":"","type":"uint256","internalType":"uint256"}],"stateMutability":"view"},{"type":"function","name":"feeCollector","inputs":[],"outputs":[{"name":"","type":"address","internalType":"address"}],"stateMutability":"view"},{"type":"function","name":"getContributorTips","inputs":[{"name":"_contributor","type":"address","internalType":"address"}],"outputs":[{"name":"","type":"tuple[]","internalType":"struct TipJar.Tip[]","components":[{"name":"from","type":"address","internalType":"address"},{"name":"to","type":"address","internalType":"address"},{"name":"amount","type":"uint256","internalType":"uint256"},{"name":"issueId","type":"uint256","internalType":"uint256"},{"name":"timestamp","type":"uint256","internalType":"uint256"},{"name":"message","type":"string","internalType":"string"}]}],"stateMutability":"view"},{"type":"function","name":"getIssueTipTotal","inputs":[{"name":"_issueId","type":"uint256","internalType":"uint256"}],"outputs":[{"name":"total","type":"uint256","internalType":"uint256"}],"stateMutability":"view"},{"type":"function","name":"getIssueTips","inputs":[{"name":"_issueId","type":"uint256","internalType":"uint256"}],"outputs":[{"name":"","type":"tuple[]","internalType":"struct TipJar.Tip[]","components":[{"name":"from","type":"address","internalType":"address"},{"name":"to","type":"address","internalType":"address"},{"name":"amount","type":"uint256","internalType":"uint256"},{"name":"issueId","type":"uint256","internalType":"uint256"},{"name":"timestamp","type":"uint256","internalType":"uint256"},{"name":"message","type":"string","internalType":"string"}]}],"stateMutability":"view"},{"type":"function","name":"getRecentTips","inputs":[{"name":"_offset","type":"uint256","internalType":"uint256"},{"name":"_limit","type":"uint256","internalType":"uint256"}],"outputs":[{"name":"","type":"tuple[]","internalType":"struct TipJar.Tip[]","components":[{"name":"from","type":"address","internalType":"address"},{"name":"to","type":"address","internalType":"address"},{"name":"amount","type":"uint256","internalType":"uint256"},{"name":"issueId","type":"uint256","internalType":"uint256"},{"name":"timestamp","type":"uint256","internalType":"uint256"},{"name":"message","type":"string","internalType":"string"}]}],"stateMutability":"view"},{"type":"function","name":"getRoleAdmin","inputs":[{"name":"role","type":"bytes32","internalType":"bytes32"}],"outputs":[{"name":"","type":"bytes32","internalType":"bytes32"}],"stateMutability":"view"},{"type":"function","name":"getSenderTips","inputs":[{"name":"_sender","type":"address","internalType":"address"}],"outputs":[{"name":"","type":"tuple[]","internalType":"struct TipJar.Tip[]","components":[{"name":"from","type":"address","internalType":"address"},{"name":"to","type":"address","internalType":"address"},{"name":"amount","type":"uint256","internalType":"uint256"},{"name":"issueId","type":"uint256","internalType":"uint256"},{"name":"timestamp","type":"uint256","internalType":"uint256"},{"name":"message","type":"string","internalType":"string"}]}],"stateMutability":"view"},{"type":"function","name":"getStats","inputs":[],"outputs":[{"name":"totalVol","type":"uint256","internalType":"uint256"},{"name":"totalTips","type":"uint256","internalType":"uint256"},{"name":"accFees","type":"uint256","internalType":"uint256"},{"name":"avgTip","type":"uint256","internalType":"uint256"}],"stateMutability":"view"},{"type":"function","name":"getTipsReceived","inputs":[{"name":"_contributor","type":"address","internalType":"address"}],"outputs":[{"name":"","type":"uint256","internalType":"uint256"}],"stateMutability":"view"},{"type":"function","name":"getTipsSent","inputs":[{"name":"_sender","type":"address","internalType":"address"}],"outputs":[{"name":"","type":"uint256","internalType":"uint256"}],"stateMutability":"view"},{"type":"function","name":"getTopEarners","inputs":[{"name":"_limit","type":"uint256","internalType":"uint256"}],"outputs":[{"name":"earners","type":"address[]","internalType":"address[]"},{"name":"amounts","type":"uint256[]","internalType":"uint256[]"}],"stateMutability":"view"},{"type":"function","name":"getTopTippers","inputs":[{"name":"_limit","type":"uint256","internalType":"uint256"}],"outputs":[{"name":"tippers","type":"address[]","internalType":"address[]"},{"name":"amounts","type":"uint256[]","internalType":"uint256[]"}],"stateMutability":"view"},{"type":"function","name":"grantRole","inputs":[{"name":"role","type":"bytes32","internalType":"bytes32"},{"name":"account","type":"address","internalType":"address"}],"outputs":[],"stateMutability":"nonpayable"},{"type":"function","name":"hasRole","inputs":[{"name":"role","type":"bytes32","internalType":"bytes32"},{"name":"account","type":"address","internalType":"address"}],"outputs":[{"name":"","type":"bool","internalType":"bool"}],"stateMutability":"view"},{"type":"function","name":"issueTips","inputs":[{"name":"","type":"uint256","internalType":"uint256"},{"name":"","type":"uint256","internalType":"uint256"}],"outputs":[{"name":"from","type":"address","internalType":"address"},{"name":"to","type":"address","internalType":"address"},{"name":"amount","type":"uint256","internalType":"uint256"},{"name":"issueId","type":"uint256","internalType":"uint256"},{"name":"timestamp","type":"uint256","internalType":"uint256"},{"name":"message","type":"string","internalType":"string"}],"stateMutability":"view"},{"type":"function","name":"minTipAmount","inputs":[],"outputs":[{"name":"","type":"uint256","internalType":"uint256"}],"stateMutability":"view"},{"type":"function","name":"paused","inputs":[],"outputs":[{"name":"","type":"bool","internalType":"bool"}],"stateMutability":"view"},{"type":"function","name":"platformFeePercentage","inputs":[],"outputs":[{"name":"","type":"uint256","internalType":"uint256"}],"stateMutability":"view"},{"type":"function","name":"profileRegistry","inputs":[],"outputs":[{"name":"","type":"address","internalType":"contract ProfileRegistry"}],"stateMutability":"view"},{"type":"function","name":"renounceRole","inputs":[{"name":"role","type":"bytes32","internalType":"bytes32"},{"name":"callerConfirmation","type":"address","internalType":"address"}],"outputs":[],"stateMutability":"nonpayable"},{"type":"function","name":"repoRegistry","inputs":[],"outputs":[{"name":"","type":"address","internalType":"contract RepoRegistry"}],"stateMutability":"view"},{"type":"function","name":"revokeRole","inputs":[{"name":"role","type":"bytes32","internalType":"bytes32"},{"name":"account","type":"address","internalType":"address"}],"outputs":[],"stateMutability":"nonpayable"},{"type":"function","name":"senderTipIds","inputs":[{"name":"","type":"address","internalType":"address"},{"name":"","type":"uint256","internalType":"uint256"}],"outputs":[{"name":"","type":"uint256","internalType":"uint256"}],"stateMutability":"view"},{"type":"function","name":"setPaused","inputs":[{"name":"_paused","type":"bool","internalType":"bool"}],"outputs":[],"stateMutability":"nonpayable"},{"type":"function","name":"splitTip","inputs":[{"name":"_contributors","type":"address[]","internalType":"address[]"},{"name":"_issueId","type":"uint256","internalType":"uint256"},{"name":"_message","type":"string","internalType":"string"}],"outputs":[],"stateMutability":"payable"},{"type":"function","name":"supportsInterface","inputs":[{"name":"interfaceId","type":"bytes4","internalType":"bytes4"}],"outputs":[{"name":"","type":"bool","internalType":"bool"}],"stateMutability":"view"},{"type":"function","name":"tipContributor","inputs":[{"name":"_contributor","type":"address","internalType":"address"},{"name":"_issueId","type":"uint256","internalType":"uint256"},{"name":"_message","type":"string","internalType":"string"}],"outputs":[],"stateMutability":"payable"},{"type":"function","name":"tipIssueContributors","inputs":[{"name":"_issueId","type":"uint256","internalType":"uint256"},{"name":"_message","type":"string","internalType":"string"}],"outputs":[],"stateMutability":"payable"},{"type":"function","name":"totalTipsCount","inputs":[],"outputs":[{"name":"","type":"uint256","internalType":"uint256"}],"stateMutability":"view"},{"type":"function","name":"totalTipsReceived","inputs":[{"name":"","type":"address","internalType":"address"}],"outputs":[{"name":"","type":"uint256","internalType":"uint256"}],"stateMutability":"view"},{"type":"function","name":"totalTipsSent","inputs":[{"name":"","type":"address","internalType":"address"}],"outputs":[{"name":"","type":"uint256","internalType":"uint256"}],"stateMutability":"view"},{"type":"function","name":"totalVolume","inputs":[],"outputs":[{"name":"","type":"uint256","internalType":"uint256"}],"stateMutability":"view"},{"type":"function","name":"updateContracts","inputs":[{"name":"_profileRegistry","type":"address","internalType":"address"},{"name":"_repoRegistry","type":"address","internalType":"address"}],"outputs":[],"stateMutability":"nonpayable"},{"type":"function","name":"updateFeeCollector","inputs":[{"name":"_newCollector","type":"address","internalType":"address"}],"outputs":[],"stateMutability":"nonpayable"},{"type":"function","name":"updateMinTipAmount","inputs":[{"name":"_newMinAmount","type":"uint256","internalType":"uint256"}],"outputs":[],"stateMutability":"nonpayable"},{"type":"function","name":"updatePlatformFee","inputs":[{"name":"_newFeePercentage","type":"uint256","internalType":"uint256"}],"outputs":[],"stateMutability":"nonpayable"},{"type":"function","name":"withdrawFees","inputs":[],"outputs":[],"stateMutability":"nonpayable"},{"type":"event","name":"BatchTipSent","inputs":[{"name":"from","type":"address","indexed":true,"internalType":"address"},{"name":"totalAmount","type":"uint256","indexed":false,"internalType":"uint256"},{"name":"recipientCount","type":"uint256","indexed":false,"internalType":"uint256"},{"name":"timestamp","type":"uint256","indexed":false,"internalType":"uint256"}],"anonymous":false},{"type":"event","name":"EmergencyPause","inputs":[{"name":"paused","type":"bool","indexed":false,"internalType":"bool"},{"name":"timestamp","type":"uint256","indexed":false,"internalType":"uint256"}],"anonymous":false},{"type":"event","name":"FeeCollectorUpdated","inputs":[{"name":"oldCollector","type":"address","indexed":true,"internalType":"address"},{"name":"newCollector","type":"address","indexed":true,"internalType":"address"},{"name":"timestamp","type":"uint256","indexed":false,"internalType":"uint256"}],"anonymous":false},{"type":"event","name":"FeesWithdrawn","inputs":[{"name":"collector","type":"address","indexed":true,"internalType":"address"},{"name":"amount","type":"uint256","indexed":false,"internalType":"uint256"},{"name":"timestamp","type":"uint256","indexed":false,"internalType":"uint256"}],"anonymous":false},{"type":"event","name":"MinTipAmountUpdated","inputs":[{"name":"oldAmount","type":"uint256","indexed":false,"internalType":"uint256"},{"name":"newAmount","type":"uint256","indexed":false,"internalType":"uint256"},{"name":"timestamp","type":"uint256","indexed":false,"internalType":"uint256"}],"anonymous":false},{"type":"event","name":"PlatformFeeUpdated","inputs":[{"name":"oldFee","type":"uint256","indexed":false,"internalType":"uint256"},{"name":"newFee","type":"uint256","indexed":false,"internalType":"uint256"},{"name":"timestamp","type":"uint256","indexed":false,"internalType":"uint256"}],"anonymous":false},{"type":"event","name":"RoleAdminChanged","inputs":[{"name":"role","type":"bytes32","indexed":true,"internalType":"bytes32"},{"name":"previousAdminRole","type":"bytes32","indexed":true,"internalType":"bytes32"},{"name":"newAdminRole","type":"bytes32","indexed":true,"internalType":"bytes32"}],"anonymous":false},{"type":"event","name":"RoleGranted","inputs":[{"name":"role","type":"bytes32","indexed":true,"internalType":"bytes32"},{"name":"account","type":"address","indexed":true,"internalType":"address"},{"name":"sender","type":"address","indexed":true,"internalType":"address"}],"anonymous":false},{"type":"event","name":"RoleRevoked","inputs":[{"name":"role","type":"bytes32","indexed":true,"internalType":"bytes32"},{"name":"account","type":"address","indexed":true,"internalType":"address"},{"name":"sender","type":"address","indexed":true,"internalType":"address"}],"anonymous":false},{"type":"event","name":"TipSent","inputs":[{"name":"tipId","type":"uint256","indexed":true,"internalType":"uint256"},{"name":"from","type":"address","indexed":true,"internalType":"address"},{"name":"to","type":"address","indexed":true,"internalType":"address"},{"name":"amount","type":"uint256","indexed":false,"internalType":"uint256"},{"name":"issueId","type":"uint256","indexed":false,"internalType":"uint256"},{"name":"message","type":"string","indexed":false,"internalType":"string"},{"name":"timestamp","type":"uint256","indexed":false,"internalType":"uint256"}],"anonymous":false},{"type":"error","name":"AccessControlBadConfirmation","inputs":[]},{"type":"error","name":"AccessControlUnauthorizedAccount","inputs":[{"name":"account","type":"address","internalType":"address"},{"name":"neededRole","type":"bytes32","internalType":"bytes32"}]},{"type":"error","name":"ArrayLengthMismatch","inputs":[]},{"type":"error","name":"ContractPaused","inputs":[]},{"type":"error","name":"InsufficientBalance","inputs":[]},{"type":"error","name":"InvalidAddress","inputs":[]},{"type":"error","name":"InvalidAmount","inputs":[]},{"type":"error","name":"InvalidFeePercentage","inputs":[]},{"type":"error","name":"IssueDoesNotExist","inputs":[]},{"type":"error","name":"NoFeesToWithdraw","inputs":[]},{"type":"error","name":"ProfileDoesNotExist","inputs":[]},{"type":"error","name":"ReentrancyGuardReentrantCall","inputs":[]},{"type":"error","name":"TipAmountTooLow","inputs":[]},{"type":"error","name":"TransferFailed","inputs":[]},{"type":"error","name":"Unauthorized","inputs":[]}],"bytecode":{"object":"0x60806040525f600a5566038d7ea4c680006010553480156200001f575f80fd5b50604051620041d3380380620041d38339810160408190526200004291620002c7565b600180556001600160a01b038316620000a25760405162461bcd60e51b815260206004820152601860248201527f496e76616c69642070726f66696c65207265676973747279000000000000000060448201526064015b60405180910390fd5b6001600160a01b038216620000fa5760405162461bcd60e51b815260206004820152601560248201527f496e76616c6964207265706f2072656769737472790000000000000000000000604482015260640162000099565b6001600160a01b038116620001525760405162461bcd60e51b815260206004820152601560248201527f496e76616c69642066656520636f6c6c6563746f720000000000000000000000604482015260640162000099565b600280546001600160a01b038086166001600160a01b03199283161790925560038054858416908316179055600b8054928416929091169190911790556200019b5f33620001ff565b50620001c87fa49807205ce4d355092ef5a8a18f56e8913cf4a201fbe287825b095693c2177533620001ff565b50620001f57f65d7a28e3265b37a6474929f336521b332c1681b933f6cb9f3376673440d862a33620001ff565b505050506200030e565b5f828152602081815260408083206001600160a01b038516845290915281205460ff16620002a2575f838152602081815260408083206001600160a01b03861684529091529020805460ff19166001179055620002593390565b6001600160a01b0316826001600160a01b0316847f2f8788117e7eff1d82e926ec794901d17c78024a50270940304540a733656f0d60405160405180910390a4506001620002a5565b505f5b92915050565b80516001600160a01b0381168114620002c2575f80fd5b919050565b5f805f60608486031215620002da575f80fd5b620002e584620002ab565b9250620002f560208501620002ab565b91506200030560408501620002ab565b90509250925092565b613eb7806200031c5f395ff3fe608060405260043610610278575f3560e01c806391d148541161014a578063c6459374116100be578063d547741f11610078578063d547741f146107a3578063de20c5d1146107c2578063e63ab1e9146107e1578063e692c49f14610814578063f47f97a314610833578063f517064c14610867575f80fd5b8063c6459374146106e7578063c9bb1a4814610706578063cbd74da114610725578063cd34d1e914610744578063cdd78cfc1461076f578063d2c35ce814610784575f80fd5b8063b90736ff1161010f578063b90736ff1461063a578063bc063e1a1461064d578063c415b95c14610662578063c50fa04614610681578063c568bcc814610694578063c59d4847146106b3575f80fd5b806391d14854146105b757806397cb754b146105d6578063a217fddf146105e9578063aa0b5988146105fc578063ac6a8a8e1461061b575f80fd5b8063476343ee116101ec5780635c975abb116101a65780635c975abb146104f55780635f81a57c1461050e57806375b238fc1461052357806384ce1342146105435780638acf90dd146105775780638f8e480a146105a2575f80fd5b8063476343ee14610423578063483d209e146104375780634ce23ceb1461046e57806355cec0101461048d578063587f5ed7146104c15780635b19b6e4146104d6575f80fd5b80632c84890d1161023d5780632c84890d146103545780632e288408146103805780632f2ff15d146103b15780633641c03b146103d057806336568abe146103ef5780633746a0751461040e575f80fd5b806301ffc9a71461028357806307f4c8f9146102b757806316c38b3c146102e45780631a74135c14610305578063248a9ca314610318575f80fd5b3661027f57005b5f80fd5b34801561028e575f80fd5b506102a261029d36600461332d565b610886565b60405190151581526020015b60405180910390f35b3480156102c2575f80fd5b506102d66102d1366004613354565b6108bc565b6040516102ae92919061336b565b3480156102ef575f80fd5b506103036102fe3660046133fa565b610b43565b005b61030361031336600461359c565b610bba565b348015610323575f80fd5b50610346610332366004613354565b5f9081526020819052604090206001015490565b6040519081526020016102ae565b34801561035f575f80fd5b5061037361036e366004613603565b610d27565b6040516102ae9190613670565b34801561038b575f80fd5b5061039f61039a366004613354565b610f53565b6040516102ae96959493929190613719565b3480156103bc575f80fd5b506103036103cb366004613761565b611030565b3480156103db575f80fd5b506102d66103ea366004613354565b61105a565b3480156103fa575f80fd5b50610303610409366004613761565b6112df565b348015610419575f80fd5b50610346600f5481565b34801561042e575f80fd5b50610303611312565b348015610442575f80fd5b50600354610456906001600160a01b031681565b6040516001600160a01b0390911681526020016102ae565b348015610479575f80fd5b5061037361048836600461378f565b611425565b348015610498575f80fd5b506103466104a736600461378f565b6001600160a01b03165f9081526004602052604090205490565b3480156104cc575f80fd5b50610346600c5481565b3480156104e1575f80fd5b506103036104f0366004613354565b61163a565b348015610500575f80fd5b50600d546102a29060ff1681565b348015610519575f80fd5b50610346600e5481565b34801561052e575f80fd5b506103465f80516020613e6283398151915281565b34801561054e575f80fd5b5061034661055d36600461378f565b6001600160a01b03165f9081526005602052604090205490565b348015610582575f80fd5b5061034661059136600461378f565b60056020525f908152604090205481565b3480156105ad575f80fd5b5061034660105481565b3480156105c2575f80fd5b506102a26105d1366004613761565b6116a2565b6103036105e43660046137aa565b6116ca565b3480156105f4575f80fd5b506103465f81565b348015610607575f80fd5b50610303610616366004613354565b611c42565b348015610626575f80fd5b5061037361063536600461378f565b611cc4565b61030361064836600461384c565b611ed1565b348015610658575f80fd5b506103466103e881565b34801561066d575f80fd5b50600b54610456906001600160a01b031681565b61030361068f36600461395b565b612145565b34801561069f575f80fd5b506103466106ae36600461399e565b612299565b3480156106be575f80fd5b506106c76122c4565b6040805194855260208501939093529183015260608201526080016102ae565b3480156106f2575f80fd5b50610346610701366004613354565b6122fe565b348015610711575f80fd5b50600254610456906001600160a01b031681565b348015610730575f80fd5b5061034661073f36600461399e565b61247e565b34801561074f575f80fd5b5061034661075e36600461378f565b60046020525f908152604090205481565b34801561077a575f80fd5b50610346600a5481565b34801561078f575f80fd5b5061030361079e36600461378f565b612497565b3480156107ae575f80fd5b506103036107bd366004613761565b61253b565b3480156107cd575f80fd5b5061039f6107dc366004613603565b61255f565b3480156107ec575f80fd5b506103467f65d7a28e3265b37a6474929f336521b332c1681b933f6cb9f3376673440d862a81565b34801561081f575f80fd5b5061030361082e3660046139c8565b6125c7565b34801561083e575f80fd5b5061085261084d366004613354565b6126a2565b604080519283526020830191909152016102ae565b348015610872575f80fd5b50610373610881366004613354565b6126d2565b5f6001600160e01b03198216637965db0b60e01b14806108b657506301ffc9a760e01b6001600160e01b03198316145b92915050565b6060805f6108c8612812565b90505f816001600160401b038111156108e3576108e3613415565b60405190808252806020026020018201604052801561090c578160200160208202803683370190505b5090505f91505f5b6009548110156109d35761095460098281548110610934576109346139f4565b5f9182526020909120600690910201546001600160a01b03168385612902565b6109c1576009818154811061096b5761096b6139f4565b5f91825260209091206006909102015482516001600160a01b039091169083908590811061099b5761099b6139f4565b6001600160a01b0390921660209283029190910190910152826109bd81613a1c565b9350505b806109cb81613a1c565b915050610914565b506109de8183612967565b5f8286116109ec57856109ee565b825b9050806001600160401b03811115610a0857610a08613415565b604051908082528060200260200182016040528015610a31578160200160208202803683370190505b509450806001600160401b03811115610a4c57610a4c613415565b604051908082528060200260200182016040528015610a75578160200160208202803683370190505b5093505f5b81811015610b3a57828181518110610a9457610a946139f4565b6020026020010151868281518110610aae57610aae6139f4565b60200260200101906001600160a01b031690816001600160a01b03168152505060055f848381518110610ae357610ae36139f4565b60200260200101516001600160a01b03166001600160a01b031681526020019081526020015f2054858281518110610b1d57610b1d6139f4565b602090810291909101015280610b3281613a1c565b915050610a7a565b50505050915091565b7f65d7a28e3265b37a6474929f336521b332c1681b933f6cb9f3376673440d862a610b6d81612acb565b600d805460ff1916831515908117909155604080519182524260208301527ffc206eb0f6ebaceddd0c35f63e7b2a582c5620c7b610f3f9947c4197cde6646f910160405180910390a15050565b610bc2612ad5565b600d5460ff1615610be65760405163ab35696f60e01b815260040160405180910390fd5b82515f03610c075760405163e6c4247b60e01b815260040160405180910390fd5b8251601054610c169190613a34565b341015610c3657604051632d562a5160e11b815260040160405180910390fd5b5f612710600a5434610c489190613a34565b610c529190613a4b565b90505f610c5f8234613a6a565b90505f855182610c6f9190613a4b565b90505f5b8651811015610cb357610ca1878281518110610c9157610c916139f4565b6020026020010151838888612aff565b80610cab81613a1c565b915050610c73565b508215610cd15782600c5f828254610ccb9190613a7d565b90915550505b8551604080518481526020810192909252429082015233907f9457c6fa76f50600b9f78361af93c4b049d2c0e270411f70c86fb4bf19858f179060600160405180910390a2505050610d2260018055565b505050565b6009546060908310610d6b57604080515f8082526020820190925290610d63565b610d506132ea565b815260200190600190039081610d485790505b5090506108b6565b5f610d768385613a7d565b600954909150811115610d8857506009545b5f610d938583613a6a565b90505f816001600160401b03811115610dae57610dae613415565b604051908082528060200260200182016040528015610de757816020015b610dd46132ea565b815260200190600190039081610dcc5790505b5090505f5b82811015610f49576009805482908990610e0890600190613a6a565b610e129190613a6a565b610e1c9190613a6a565b81548110610e2c57610e2c6139f4565b5f9182526020918290206040805160c081018252600690930290910180546001600160a01b03908116845260018201541693830193909352600283015490820152600382015460608201526004820154608082015260058201805491929160a084019190610e9990613a90565b80601f0160208091040260200160405190810160405280929190818152602001828054610ec590613a90565b8015610f105780601f10610ee757610100808354040283529160200191610f10565b820191905f5260205f20905b815481529060010190602001808311610ef357829003601f168201915b505050505081525050828281518110610f2b57610f2b6139f4565b60200260200101819052508080610f4190613a1c565b915050610dec565b5095945050505050565b60098181548110610f62575f80fd5b5f9182526020909120600690910201805460018201546002830154600384015460048501546005860180546001600160a01b039687169850959094169592949193909291610faf90613a90565b80601f0160208091040260200160405190810160405280929190818152602001828054610fdb90613a90565b80156110265780601f10610ffd57610100808354040283529160200191611026565b820191905f5260205f20905b81548152906001019060200180831161100957829003601f168201915b5050505050905086565b5f8281526020819052604090206001015461104a81612acb565b6110548383612f66565b50505050565b6060805f611066612ff5565b90505f816001600160401b0381111561108157611081613415565b6040519080825280602002602001820160405280156110aa578160200160208202803683370190505b5090505f91505f5b600954811015611178576110f5600982815481106110d2576110d26139f4565b5f9182526020909120600160069092020101546001600160a01b03168385612902565b611166576009818154811061110c5761110c6139f4565b905f5260205f2090600602016001015f9054906101000a90046001600160a01b0316828481518110611140576111406139f4565b6001600160a01b03909216602092830291909101909101528261116281613a1c565b9350505b8061117081613a1c565b9150506110b2565b5061118381836130e4565b5f8286116111915785611193565b825b9050806001600160401b038111156111ad576111ad613415565b6040519080825280602002602001820160405280156111d6578160200160208202803683370190505b509450806001600160401b038111156111f1576111f1613415565b60405190808252806020026020018201604052801561121a578160200160208202803683370190505b5093505f5b81811015610b3a57828181518110611239576112396139f4565b6020026020010151868281518110611253576112536139f4565b60200260200101906001600160a01b031690816001600160a01b03168152505060045f848381518110611288576112886139f4565b60200260200101516001600160a01b03166001600160a01b031681526020019081526020015f20548582815181106112c2576112c26139f4565b6020908102919091010152806112d781613a1c565b91505061121f565b6001600160a01b03811633146113085760405163334bd91960e11b815260040160405180910390fd5b610d228282613248565b5f80516020613e6283398151915261132981612acb565b611331612ad5565b600c545f0361135357604051630d00db4d60e31b815260040160405180910390fd5b600c80545f91829055600b546040519192916001600160a01b039091169083908381818185875af1925050503d805f81146113a9576040519150601f19603f3d011682016040523d82523d5f602084013e6113ae565b606091505b50509050806113d0576040516312171d8360e31b815260040160405180910390fd5b600b54604080518481524260208201526001600160a01b03909216917fdeb5099d7943aa2b4c1142e5d53d2f7636aa8f7bd130ec79816f151572bcdf45910160405180910390a2505061142260018055565b50565b6001600160a01b0381165f90815260086020908152604080832080548251818502810185019093528083526060949383018282801561148157602002820191905f5260205f20905b81548152602001906001019080831161146d575b505050505090505f81516001600160401b038111156114a2576114a2613415565b6040519080825280602002602001820160405280156114db57816020015b6114c86132ea565b8152602001906001900390816114c05790505b5090505f5b82518110156116325760098382815181106114fd576114fd6139f4565b602002602001015181548110611515576115156139f4565b5f9182526020918290206040805160c081018252600690930290910180546001600160a01b03908116845260018201541693830193909352600283015490820152600382015460608201526004820154608082015260058201805491929160a08401919061158290613a90565b80601f01602080910402602001604051908101604052809291908181526020018280546115ae90613a90565b80156115f95780601f106115d0576101008083540402835291602001916115f9565b820191905f5260205f20905b8154815290600101906020018083116115dc57829003601f168201915b505050505081525050828281518110611614576116146139f4565b6020026020010181905250808061162a90613a1c565b9150506114e0565b509392505050565b5f80516020613e6283398151915261165181612acb565b6010805490839055604080518281526020810185905242918101919091527fdd66320fad420ce58ce8d0ddd05eb0010459cd98a1d9077a3afa3d81e9840951906060015b60405180910390a1505050565b5f918252602082815260408084206001600160a01b0393909316845291905290205460ff1690565b6116d2612ad5565b600d5460ff16156116f65760405163ab35696f60e01b815260040160405180910390fd5b60025460405163a787c80b60e01b81526001600160a01b0380861660048301528592169063a787c80b90602401602060405180830381865afa15801561173e573d5f803e3d5ffd5b505050506040513d601f19601f820116820180604052508101906117629190613ac8565b61177f57604051635a05a1b160e01b815260040160405180910390fd5b6010543410156117a257604051632d562a5160e11b815260040160405180910390fd5b82156118175760035460405163976b311360e01b8152600481018590526001600160a01b039091169063976b3113906024015f60405180830381865afa1580156117ee573d5f803e3d5ffd5b505050506040513d5f823e601f3d908101601f191682016040526118159190810190613bd4565b505b5f612710600a54346118299190613a34565b6118339190613a4b565b90505f6118408234613a6a565b90505f866001600160a01b0316826040515f6040518083038185875af1925050503d805f811461188b576040519150601f19603f3d011682016040523d82523d5f602084013e611890565b606091505b50509050806118b2576040516312171d8360e31b815260040160405180910390fd5b82156118cf5782600c5f8282546118c99190613a7d565b90915550505b6040805160c0810182523381526001600160a01b0389811660208301908152928201858152606083018a8152426080850190815260a085018b8152600980546001810182555f919091528651600682027f6e1540171b6c0c960b71a7020d9f60077f6af931a8bbf590da0223dacf75c7af810180549289166001600160a01b031993841617815599517f6e1540171b6c0c960b71a7020d9f60077f6af931a8bbf590da0223dacf75c7b0820180549190991692169190911790965593517f6e1540171b6c0c960b71a7020d9f60077f6af931a8bbf590da0223dacf75c7b186015591517f6e1540171b6c0c960b71a7020d9f60077f6af931a8bbf590da0223dacf75c7b2850155517f6e1540171b6c0c960b71a7020d9f60077f6af931a8bbf590da0223dacf75c7b3840155519293909284927f6e1540171b6c0c960b71a7020d9f60077f6af931a8bbf590da0223dacf75c7b40190611a2f9082613d77565b505088159050611acb575f8881526006602081815260408084208054600180820183559186529483902087519590940290930180546001600160a01b03199081166001600160a01b03968716178255928701519381018054909316939094169290921790558301516002820155606083015160038201556080830151600482015560a08301518391906005820190611ac79082613d77565b5050505b6001600160a01b0389165f818152600760209081526040808320805460018181018355918552838520018690553384526008835281842080549182018155845282842001859055928252600490529081208054869290611b2c908490613a7d565b9091555050335f9081526005602052604081208054869290611b4f908490613a7d565b9250508190555083600e5f828254611b679190613a7d565b9091555050600f8054905f611b7b83613a1c565b9091555050600254604051639d81e14360e01b81526001600160a01b038b811660048301526024820187905290911690639d81e143906044015f604051808303815f87803b158015611bcb575f80fd5b505af1158015611bdd573d5f803e3d5ffd5b50505050886001600160a01b0316336001600160a01b0316827f93185f52ebe1d3d456cec5b580664fa9f8cd11fd4c0a4bcbfc6ae177b5529df2878c8c42604051611c2b9493929190613e32565b60405180910390a4505050505050610d2260018055565b5f80516020613e62833981519152611c5981612acb565b6103e8821115611c7c5760405163390edff560e11b815260040160405180910390fd5b600a805490839055604080518281526020810185905242918101919091527f50f8ab96ec41b29e295dbc21aa964857bd7ba51c554c209db631610ce392d45690606001611695565b6001600160a01b0381165f908152600760209081526040808320805482518185028101850190935280835260609493830182828015611d2057602002820191905f5260205f20905b815481526020019060010190808311611d0c575b505050505090505f81516001600160401b03811115611d4157611d41613415565b604051908082528060200260200182016040528015611d7a57816020015b611d676132ea565b815260200190600190039081611d5f5790505b5090505f5b8251811015611632576009838281518110611d9c57611d9c6139f4565b602002602001015181548110611db457611db46139f4565b5f9182526020918290206040805160c081018252600690930290910180546001600160a01b03908116845260018201541693830193909352600283015490820152600382015460608201526004820154608082015260058201805491929160a084019190611e2190613a90565b80601f0160208091040260200160405190810160405280929190818152602001828054611e4d90613a90565b8015611e985780601f10611e6f57610100808354040283529160200191611e98565b820191905f5260205f20905b815481529060010190602001808311611e7b57829003601f168201915b505050505081525050828281518110611eb357611eb36139f4565b60200260200101819052508080611ec990613a1c565b915050611d7f565b611ed9612ad5565b600d5460ff1615611efd5760405163ab35696f60e01b815260040160405180910390fd5b82518451141580611f1057508151835114155b80611f1d57508051825114155b15611f3b5760405163512509d360e11b815260040160405180910390fd5b5f805b8451811015611f8057848181518110611f5957611f596139f4565b602002602001015182611f6c9190613a7d565b915080611f7881613a1c565b915050611f3e565b505f612710600a5483611f939190613a34565b611f9d9190613a4b565b90505f611faa8284613a7d565b905080341015611fcd5760405163162908e360e11b815260040160405180910390fd5b5f5b875181101561205a57612048888281518110611fed57611fed6139f4565b6020026020010151888381518110612007576120076139f4565b6020026020010151888481518110612021576120216139f4565b602002602001015188858151811061203b5761203b6139f4565b6020026020010151612aff565b8061205281613a1c565b915050611fcf565b5081156120785781600c5f8282546120729190613a7d565b90915550505b5f6120838234613a6a565b905080156120f3576040515f90339083908381818185875af1925050503d805f81146120ca576040519150601f19603f3d011682016040523d82523d5f602084013e6120cf565b606091505b50509050806120f1576040516312171d8360e31b815260040160405180910390fd5b505b8751604080518681526020810192909252429082015233907f9457c6fa76f50600b9f78361af93c4b049d2c0e270411f70c86fb4bf19858f179060600160405180910390a25050505061105460018055565b61214d612ad5565b600d5460ff16156121715760405163ab35696f60e01b815260040160405180910390fd5b60035460405163976b311360e01b8152600481018490525f916001600160a01b03169063976b3113906024015f60405180830381865afa1580156121b7573d5f803e3d5ffd5b505050506040513d5f823e601f3d908101601f191682016040526121de9190810190613bd4565b6101008101519091506001600160a01b031661220d5760405163e6c4247b60e01b815260040160405180910390fd5b60105434101561223057604051632d562a5160e11b815260040160405180910390fd5b5f612710600a54346122429190613a34565b61224c9190613a4b565b90505f6122598234613a6a565b905061226c836101000151828787612aff565b81156122895781600c5f8282546122839190613a7d565b90915550505b50505061229560018055565b5050565b6008602052815f5260405f2081815481106122b2575f80fd5b905f5260205f20015f91509150505481565b5f805f805f600f54116122d7575f6122e7565b600f54600e546122e79190613a4b565b9050600e54600f54600c5493509350935090919293565b5f81815260066020908152604080832080548251818502810185019093528083528493849084015b82821015612429575f8481526020908190206040805160c0810182526006860290920180546001600160a01b03908116845260018201541693830193909352600283015490820152600382015460608201526004820154608082015260058201805491929160a08401919061239a90613a90565b80601f01602080910402602001604051908101604052809291908181526020018280546123c690613a90565b80156124115780601f106123e857610100808354040283529160200191612411565b820191905f5260205f20905b8154815290600101906020018083116123f457829003601f168201915b50505050508152505081526020019060010190612326565b5050505090505f5b81518110156124775781818151811061244c5761244c6139f4565b602002602001015160400151836124639190613a7d565b92508061246f81613a1c565b915050612431565b5050919050565b6007602052815f5260405f2081815481106122b2575f80fd5b5f80516020613e628339815191526124ae81612acb565b816001600160a01b0381166124d65760405163e6c4247b60e01b815260040160405180910390fd5b600b80546001600160a01b038581166001600160a01b0319831681179093556040519116919082907f97f03807ba1f19363a1bdda78353d4f2c81b2247130fafdab6907b095b95873a9061252d9042815260200190565b60405180910390a350505050565b5f8281526020819052604090206001015461255581612acb565b6110548383613248565b6006602052815f5260405f208181548110612578575f80fd5b5f9182526020909120600690910201805460018201546002830154600384015460048501546005860180546001600160a01b0396871699509590941696509194909391929091610faf90613a90565b5f80516020613e628339815191526125de81612acb565b6001600160a01b03831661262b5760405162461bcd60e51b815260206004820152600f60248201526e496e76616c6964206164647265737360881b60448201526064015b60405180910390fd5b6001600160a01b0382166126735760405162461bcd60e51b815260206004820152600f60248201526e496e76616c6964206164647265737360881b6044820152606401612622565b50600280546001600160a01b039384166001600160a01b03199182161790915560038054929093169116179055565b5f80612710600a54846126b59190613a34565b6126bf9190613a4b565b90506126cb8184613a6a565b9150915091565b606060065f8381526020019081526020015f20805480602002602001604051908101604052809291908181526020015f905b82821015612807575f8481526020908190206040805160c0810182526006860290920180546001600160a01b03908116845260018201541693830193909352600283015490820152600382015460608201526004820154608082015260058201805491929160a08401919061277890613a90565b80601f01602080910402602001604051908101604052809291908181526020018280546127a490613a90565b80156127ef5780601f106127c6576101008083540402835291602001916127ef565b820191905f5260205f20905b8154815290600101906020018083116127d257829003601f168201915b50505050508152505081526020019060010190612704565b505050509050919050565b6009545f9081906001600160401b0381111561283057612830613415565b604051908082528060200260200182016040528015612859578160200160208202803683370190505b5090505f5b6009548110156128fd5761287e60098281548110610934576109346139f4565b6128eb5760098181548110612895576128956139f4565b5f91825260209091206006909102015482516001600160a01b03909116908390859081106128c5576128c56139f4565b6001600160a01b0390921660209283029190910190910152826128e781613a1c565b9350505b806128f581613a1c565b91505061285e565b505090565b5f805b8281101561295b57846001600160a01b0316848281518110612929576129296139f4565b60200260200101516001600160a01b031603612949576001915050612960565b8061295381613a1c565b915050612905565b505f90505b9392505050565b5f5b81811015610d22575f61297d826001613a7d565b90505b82811015612ab85760055f85838151811061299d5761299d6139f4565b60200260200101516001600160a01b03166001600160a01b031681526020019081526020015f205460055f8685815181106129da576129da6139f4565b60200260200101516001600160a01b03166001600160a01b031681526020019081526020015f20541015612aa6575f848381518110612a1b57612a1b6139f4565b60200260200101519050848281518110612a3757612a376139f4565b6020026020010151858481518110612a5157612a516139f4565b60200260200101906001600160a01b031690816001600160a01b03168152505080858381518110612a8457612a846139f4565b60200260200101906001600160a01b031690816001600160a01b031681525050505b80612ab081613a1c565b915050612980565b5080612ac381613a1c565b915050612969565b61142281336132b1565b600260015403612af857604051633ee5aeb560e01b815260040160405180910390fd5b6002600155565b60025460405163a787c80b60e01b81526001600160a01b0380871660048301528692169063a787c80b90602401602060405180830381865afa158015612b47573d5f803e3d5ffd5b505050506040513d601f19601f82011682018060405250810190612b6b9190613ac8565b612b8857604051635a05a1b160e01b815260040160405180910390fd5b5f856001600160a01b0316856040515f6040518083038185875af1925050503d805f8114612bd1576040519150601f19603f3d011682016040523d82523d5f602084013e612bd6565b606091505b5050905080612bf8576040516312171d8360e31b815260040160405180910390fd5b6040805160c0810182523381526001600160a01b038881166020830190815292820188815260608301888152426080850190815260a08501898152600980546001810182555f919091528651600682027f6e1540171b6c0c960b71a7020d9f60077f6af931a8bbf590da0223dacf75c7af810180549289166001600160a01b031993841617815599517f6e1540171b6c0c960b71a7020d9f60077f6af931a8bbf590da0223dacf75c7b0820180549190991692169190911790965593517f6e1540171b6c0c960b71a7020d9f60077f6af931a8bbf590da0223dacf75c7b186015591517f6e1540171b6c0c960b71a7020d9f60077f6af931a8bbf590da0223dacf75c7b2850155517f6e1540171b6c0c960b71a7020d9f60077f6af931a8bbf590da0223dacf75c7b3840155519293909284927f6e1540171b6c0c960b71a7020d9f60077f6af931a8bbf590da0223dacf75c7b40190612d589082613d77565b505086159050612df4575f8681526006602081815260408084208054600180820183559186529483902087519590940290930180546001600160a01b03199081166001600160a01b03968716178255928701519381018054909316939094169290921790558301516002820155606083015160038201556080830151600482015560a08301518391906005820190612df09082613d77565b5050505b6001600160a01b0388165f818152600760209081526040808320805460018181018355918552838520018690553384526008835281842080549182018155845282842001859055928252600490529081208054899290612e55908490613a7d565b9091555050335f9081526005602052604081208054899290612e78908490613a7d565b9250508190555086600e5f828254612e909190613a7d565b9091555050600f8054905f612ea483613a1c565b9091555050600254604051639d81e14360e01b81526001600160a01b038a81166004830152602482018a905290911690639d81e143906044015f604051808303815f87803b158015612ef4575f80fd5b505af1158015612f06573d5f803e3d5ffd5b50505050876001600160a01b0316336001600160a01b0316827f93185f52ebe1d3d456cec5b580664fa9f8cd11fd4c0a4bcbfc6ae177b5529df28a8a8a42604051612f549493929190613e32565b60405180910390a45050505050505050565b5f612f7183836116a2565b612fee575f838152602081815260408083206001600160a01b03861684529091529020805460ff19166001179055612fa63390565b6001600160a01b0316826001600160a01b0316847f2f8788117e7eff1d82e926ec794901d17c78024a50270940304540a733656f0d60405160405180910390a45060016108b6565b505f6108b6565b6009545f9081906001600160401b0381111561301357613013613415565b60405190808252806020026020018201604052801561303c578160200160208202803683370190505b5090505f5b6009548110156128fd57613061600982815481106110d2576110d26139f4565b6130d25760098181548110613078576130786139f4565b905f5260205f2090600602016001015f9054906101000a90046001600160a01b03168284815181106130ac576130ac6139f4565b6001600160a01b0390921660209283029190910190910152826130ce81613a1c565b9350505b806130dc81613a1c565b915050613041565b5f5b81811015610d22575f6130fa826001613a7d565b90505b828110156132355760045f85838151811061311a5761311a6139f4565b60200260200101516001600160a01b03166001600160a01b031681526020019081526020015f205460045f868581518110613157576131576139f4565b60200260200101516001600160a01b03166001600160a01b031681526020019081526020015f20541015613223575f848381518110613198576131986139f4565b602002602001015190508482815181106131b4576131b46139f4565b60200260200101518584815181106131ce576131ce6139f4565b60200260200101906001600160a01b031690816001600160a01b03168152505080858381518110613201576132016139f4565b60200260200101906001600160a01b031690816001600160a01b031681525050505b8061322d81613a1c565b9150506130fd565b508061324081613a1c565b9150506130e6565b5f61325383836116a2565b15612fee575f838152602081815260408083206001600160a01b0386168085529252808320805460ff1916905551339286917ff6391f5c32d9c69d2a47ea670b442974b53935d1edc7fd64eb21e047a839171b9190a45060016108b6565b6132bb82826116a2565b6122955760405163e2517d3f60e01b81526001600160a01b038216600482015260248101839052604401612622565b6040518060c001604052805f6001600160a01b031681526020015f6001600160a01b031681526020015f81526020015f81526020015f8152602001606081525090565b5f6020828403121561333d575f80fd5b81356001600160e01b031981168114612960575f80fd5b5f60208284031215613364575f80fd5b5035919050565b604080825283519082018190525f906020906060840190828701845b828110156133ac5781516001600160a01b031684529284019290840190600101613387565b505050838103828501528451808252858301918301905f5b818110156133e0578351835292840192918401916001016133c4565b5090979650505050505050565b8015158114611422575f80fd5b5f6020828403121561340a575f80fd5b8135612960816133ed565b634e487b7160e01b5f52604160045260245ffd5b6040516101c081016001600160401b038111828210171561344c5761344c613415565b60405290565b604051601f8201601f191681016001600160401b038111828210171561347a5761347a613415565b604052919050565b5f6001600160401b0382111561349a5761349a613415565b5060051b60200190565b6001600160a01b0381168114611422575f80fd5b5f82601f8301126134c7575f80fd5b813560206134dc6134d783613482565b613452565b82815260059290921b840181019181810190868411156134fa575f80fd5b8286015b8481101561351e578035613511816134a4565b83529183019183016134fe565b509695505050505050565b5f6001600160401b0382111561354157613541613415565b50601f01601f191660200190565b5f82601f83011261355e575f80fd5b813561356c6134d782613529565b818152846020838601011115613580575f80fd5b816020850160208301375f918101602001919091529392505050565b5f805f606084860312156135ae575f80fd5b83356001600160401b03808211156135c4575f80fd5b6135d0878388016134b8565b94506020860135935060408601359150808211156135ec575f80fd5b506135f98682870161354f565b9150509250925092565b5f8060408385031215613614575f80fd5b50508035926020909101359150565b5f5b8381101561363d578181015183820152602001613625565b50505f910152565b5f815180845261365c816020860160208601613623565b601f01601f19169290920160200192915050565b5f6020808301818452808551808352604092508286019150828160051b8701018488015f5b8381101561370b57888303603f19018552815180516001600160a01b0390811685528882015116888501528681015187850152606080820151908501526080808201519085015260a09081015160c0918501829052906136f781860183613645565b968901969450505090860190600101613695565b509098975050505050505050565b5f60018060a01b03808916835280881660208401525085604083015284606083015283608083015260c060a083015261375560c0830184613645565b98975050505050505050565b5f8060408385031215613772575f80fd5b823591506020830135613784816134a4565b809150509250929050565b5f6020828403121561379f575f80fd5b8135612960816134a4565b5f805f606084860312156137bc575f80fd5b83356137c7816134a4565b92506020840135915060408401356001600160401b038111156137e8575f80fd5b6135f98682870161354f565b5f82601f830112613803575f80fd5b813560206138136134d783613482565b82815260059290921b84018101918181019086841115613831575f80fd5b8286015b8481101561351e5780358352918301918301613835565b5f805f806080858703121561385f575f80fd5b84356001600160401b0380821115613875575f80fd5b613881888389016134b8565b9550602091508187013581811115613897575f80fd5b6138a389828a016137f4565b9550506040870135818111156138b7575f80fd5b6138c389828a016137f4565b9450506060870135818111156138d7575f80fd5b8701601f810189136138e7575f80fd5b80356138f56134d782613482565b81815260059190911b8201840190848101908b831115613913575f80fd5b8584015b8381101561394a5780358681111561392e575f8081fd5b61393c8e898389010161354f565b845250918601918601613917565b50989b979a50959850505050505050565b5f806040838503121561396c575f80fd5b8235915060208301356001600160401b03811115613988575f80fd5b6139948582860161354f565b9150509250929050565b5f80604083850312156139af575f80fd5b82356139ba816134a4565b946020939093013593505050565b5f80604083850312156139d9575f80fd5b82356139e4816134a4565b91506020830135613784816134a4565b634e487b7160e01b5f52603260045260245ffd5b634e487b7160e01b5f52601160045260245ffd5b5f60018201613a2d57613a2d613a08565b5060010190565b80820281158282048414176108b6576108b6613a08565b5f82613a6557634e487b7160e01b5f52601260045260245ffd5b500490565b818103818111156108b6576108b6613a08565b808201808211156108b6576108b6613a08565b600181811c90821680613aa457607f821691505b602082108103613ac257634e487b7160e01b5f52602260045260245ffd5b50919050565b5f60208284031215613ad8575f80fd5b8151612960816133ed565b5f82601f830112613af2575f80fd5b8151613b006134d782613529565b818152846020838601011115613b14575f80fd5b613b25826020830160208701613623565b949350505050565b5f82601f830112613b3c575f80fd5b81516020613b4c6134d783613482565b82815260059290921b84018101918181019086841115613b6a575f80fd5b8286015b8481101561351e5780516001600160401b03811115613b8c575f8081fd5b613b9a8986838b0101613ae3565b845250918301918301613b6e565b805160038110613bb6575f80fd5b919050565b805160058110613bb6575f80fd5b8051613bb6816134a4565b5f60208284031215613be4575f80fd5b81516001600160401b0380821115613bfa575f80fd5b908301906101c08286031215613c0e575f80fd5b613c16613429565b8251815260208301516020820152604083015182811115613c35575f80fd5b613c4187828601613ae3565b604083015250606083015182811115613c58575f80fd5b613c6487828601613ae3565b606083015250608083015182811115613c7b575f80fd5b613c8787828601613ae3565b60808301525060a083015182811115613c9e575f80fd5b613caa87828601613b2d565b60a083015250613cbc60c08401613ba8565b60c0820152613ccd60e08401613bbb565b60e08201526101009150613ce2828401613bc9565b9181019190915261012082810151908201526101408083015190820152610160808301519082015261018080830151908201526101a091820151918101919091529392505050565b601f821115610d22575f81815260208120601f850160051c81016020861015613d505750805b601f850160051c820191505b81811015613d6f57828155600101613d5c565b505050505050565b81516001600160401b03811115613d9057613d90613415565b613da481613d9e8454613a90565b84613d2a565b602080601f831160018114613dd7575f8415613dc05750858301515b5f19600386901b1c1916600185901b178555613d6f565b5f85815260208120601f198616915b82811015613e0557888601518255948401946001909101908401613de6565b5085821015613e2257878501515f19600388901b60f8161c191681555b5050505050600190811b01905550565b848152836020820152608060408201525f613e506080830185613645565b90508260608301529594505050505056fea49807205ce4d355092ef5a8a18f56e8913cf4a201fbe287825b095693c21775a2646970667358221220344ad21b5c9908776a3753f6284f8f0d394a77dafd931a28ce48714fec015e8f64736f6c63430008140033","linkReferences":{}},"methodIdentifiers":{"ADMIN_ROLE()":"75b238fc","DEFAULT_ADMIN_ROLE()":"a217fddf","MAX_FEE()":"bc063e1a","PAUSER_ROLE()":"e63ab1e9","accumulatedFees()":"587f5ed7","allTips(uint256)":"2e288408","batchTip(address[],uint256[],uint256[],string[])":"b90736ff","calculateTipAfterFee(uint256)":"f47f97a3","contributorTipIds(address,uint256)":"cbd74da1","feeCollector()":"c415b95c","getContributorTips(address)":"ac6a8a8e","getIssueTipTotal(uint256)":"c6459374","getIssueTips(uint256)":"f517064c","getRecentTips(uint256,uint256)":"2c84890d","getRoleAdmin(bytes32)":"248a9ca3","getSenderTips(address)":"4ce23ceb","getStats()":"c59d4847","getTipsReceived(address)":"55cec010","getTipsSent(address)":"84ce1342","getTopEarners(uint256)":"3641c03b","getTopTippers(uint256)":"07f4c8f9","grantRole(bytes32,address)":"2f2ff15d","hasRole(bytes32,address)":"91d14854","issueTips(uint256,uint256)":"de20c5d1","minTipAmount()":"8f8e480a","paused()":"5c975abb","platformFeePercentage()":"cdd78cfc","profileRegistry()":"c9bb1a48","renounceRole(bytes32,address)":"36568abe","repoRegistry()":"483d209e","revokeRole(bytes32,address)":"d547741f","senderTipIds(address,uint256)":"c568bcc8","setPaused(bool)":"16c38b3c","splitTip(address[],uint256,string)":"1a74135c","supportsInterface(bytes4)":"01ffc9a7","tipContributor(address,uint256,string)":"97cb754b","tipIssueContributors(uint256,string)":"c50fa046","totalTipsCount()":"3746a075","totalTipsReceived(address)":"cd34d1e9","totalTipsSent(address)":"8acf90dd","totalVolume()":"5f81a57c","updateContracts(address,address)":"e692c49f","updateFeeCollector(address)":"d2c35ce8","updateMinTipAmount(uint256)":"5b19b6e4","updatePlatformFee(uint256)":"aa0b5988","withdrawFees()":"476343ee"},"id":24}