{"abi":[{"type":"constructor","inputs":[{"name":"_profileRegistry","type":"address","internalType":"address"},{"name":"_repoRegistry","type":"address","internalType":"address"},{"name":"_feeCollector","type":"address","internalType":"address"}],"stateMutability":"nonpayable"},{"type":"receive","stateMutability":"payable"},{"type":"function","name":"ADMIN_ROLE","inputs":[],"outputs":[{"name":"","type":"bytes32","internalType":"bytes32"}],"stateMutability":"view"},{"type":"function","name":"DEFAULT_ADMIN_ROLE","inputs":[],"outputs":[{"name":"","type":"bytes32","internalType":"bytes32"}],"stateMutability":"view"},{"type":"function","name":"MAX_FEE","inputs":[],"outputs":[{"name":"","type":"uint256","internalType":"uint256"}],"stateMutability":"view"},{"type":"function","name":"PAUSER_ROLE","inputs":[],"outputs":[{"name":"","type":"bytes32","internalType":"bytes32"}],"stateMutability":"view"},{"type":"function","name":"accumulatedFees","inputs":[],"outputs":[{"name":"","type":"uint256","internalType":"uint256"}],"stateMutability":"view"},{"type":"function","name":"allTips","inputs":[{"name":"","type":"uint256","internalType":"uint256"}],"outputs":[{"name":"from","type":"address","internalType":"address"},{"name":"to","type":"address","internalType":"address"},{"name":"amount","type":"uint256","internalType":"uint256"},{"name":"issueId","type":"uint256","internalType":"uint256"},{"name":"timestamp","type":"uint256","internalType":"uint256"},{"name":"message","type":"string","internalType":"string"}],"stateMutability":"view"},{"type":"function","name":"batchTip","inputs":[{"name":"_contributors","type":"address[]","internalType":"address[]"},{"name":"_amounts","type":"uint256[]","internalType":"uint256[]"},{"name":"_issueIds","type":"uint256[]","internalType":"uint256[]"},{"name":"_messages","type":"string[]","internalType":"string[]"}],"outputs":[],"stateMutability":"payable"},{"type":"function","name":"calculateTipAfterFee","inputs":[{"name":"_amount","type":"uint256","internalType":"uint256"}],"outputs":[{"name":"afterFee","type":"uint256","internalType":"uint256"},{"name":"fee","type":"uint256","internalType":"uint256"}],"stateMutability":"view"},{"type":"function","name":"contributorTipIds","inputs":[{"name":"","type":"address","internalType":"address"},{"name":"","type":"uint256","internalType":"uint256"}],"outputs":[{"name":"","type":"uint256","internalType":"uint256"}],"stateMutability":"view"},{"type":"function","name":"feeCollector","inputs":[],"outputs":[{"name":"","type":"address","internalType":"address"}],"stateMutability":"view"},{"type":"function","name":"getContributorTips","inputs":[{"name":"_contributor","type":"address","internalType":"address"}],"outputs":[{"name":"","type":"tuple[]","internalType":"struct TipJar.Tip[]","components":[{"name":"from","type":"address","internalType":"address"},{"name":"to","type":"address","internalType":"address"},{"name":"amount","type":"uint256","internalType":"uint256"},{"name":"issueId","type":"uint256","internalType":"uint256"},{"name":"timestamp","type":"uint256","internalType":"uint256"},{"name":"message","type":"string","internalType":"string"}]}],"stateMutability":"view"},{"type":"function","name":"getIssueTipTotal","inputs":[{"name":"_issueId","type":"uint256","internalType":"uint256"}],"outputs":[{"name":"total","type":"uint256","internalType":"uint256"}],"stateMutability":"view"},{"type":"function","name":"getIssueTips","inputs":[{"name":"_issueId","type":"uint256","internalType":"uint256"}],"outputs":[{"name":"","type":"tuple[]","internalType":"struct TipJar.Tip[]","components":[{"name":"from","type":"address","internalType":"address"},{"name":"to","type":"address","internalType":"address"},{"name":"amount","type":"uint256","internalType":"uint256"},{"name":"issueId","type":"uint256","internalType":"uint256"},{"name":"timestamp","type":"uint256","internalType":"uint256"},{"name":"message","type":"string","internalType":"string"}]}],"stateMutability":"view"},{"type":"function","name":"getRecentTips","inputs":[{"name":"_offset","type":"uint256","internalType":"uint256"},{"name":"_limit","type":"uint256","internalType":"uint256"}],"outputs":[{"name":"","type":"tuple[]","internalType":"struct TipJar.Tip[]","components":[{"name":"from","type":"address","internalType":"address"},{"name":"to","type":"address","internalType":"address"},{"name":"amount","type":"uint256","internalType":"uint256"},{"name":"issueId","type":"uint256","internalType":"uint256"},{"name":"timestamp","type":"uint256","internalType":"uint256"},{"name":"message","type":"string","internalType":"string"}]}],"stateMutability":"view"},{"type":"function","name":"getRoleAdmin","inputs":[{"name":"role","type":"bytes32","internalType":"bytes32"}],"outputs":[{"name":"","type":"bytes32","internalType":"bytes32"}],"stateMutability":"view"},{"type":"function","name":"getSenderTips","inputs":[{"name":"_sender","type":"address","internalType":"address"}],"outputs":[{"name":"","type":"tuple[]","internalType":"struct TipJar.Tip[]","components":[{"name":"from","type":"address","internalType":"address"},{"name":"to","type":"address","internalType":"address"},{"name":"amount","type":"uint256","internalType":"uint256"},{"name":"issueId","type":"uint256","internalType":"uint256"},{"name":"timestamp","type":"uint256","internalType":"uint256"},{"name":"message","type":"string","internalType":"string"}]}],"stateMutability":"view"},{"type":"function","name":"getStats","inputs":[],"outputs":[{"name":"totalVol","type":"uint256","internalType":"uint256"},{"name":"totalTips","type":"uint256","internalType":"uint256"},{"name":"accFees","type":"uint256","internalType":"uint256"},{"name":"avgTip","type":"uint256","internalType":"uint256"}],"stateMutability":"view"},{"type":"function","name":"getTipsReceived","inputs":[{"name":"_contributor","type":"address","internalType":"address"}],"outputs":[{"name":"","type":"uint256","internalType":"uint256"}],"stateMutability":"view"},{"type":"function","name":"getTipsSent","inputs":[{"name":"_sender","type":"address","internalType":"address"}],"outputs":[{"name":"","type":"uint256","internalType":"uint256"}],"stateMutability":"view"},{"type":"function","name":"getTopEarners","inputs":[{"name":"_limit","type":"uint256","internalType":"uint256"}],"outputs":[{"name":"earners","type":"address[]","internalType":"address[]"},{"name":"amounts","type":"uint256[]","internalType":"uint256[]"}],"stateMutability":"view"},{"type":"function","name":"getTopTippers","inputs":[{"name":"_limit","type":"uint256","internalType":"uint256"}],"outputs":[{"name":"tippers","type":"address[]","internalType":"address[]"},{"name":"amounts","type":"uint256[]","internalType":"uint256[]"}],"stateMutability":"view"},{"type":"function","name":"grantRole","inputs":[{"name":"role","type":"bytes32","internalType":"bytes32"},{"name":"account","type":"address","internalType":"address"}],"outputs":[],"stateMutability":"nonpayable"},{"type":"function","name":"hasRole","inputs":[{"name":"role","type":"bytes32","internalType":"bytes32"},{"name":"account","type":"address","internalType":"address"}],"outputs":[{"name":"","type":"bool","internalType":"bool"}],"stateMutability":"view"},{"type":"function","name":"issueTips","inputs":[{"name":"","type":"uint256","internalType":"uint256"},{"name":"","type":"uint256","internalType":"uint256"}],"outputs":[{"name":"from","type":"address","internalType":"address"},{"name":"to","type":"address","internalType":"address"},{"name":"amount","type":"uint256","internalType":"uint256"},{"name":"issueId","type":"uint256","internalType":"uint256"},{"name":"timestamp","type":"uint256","internalType":"uint256"},{"name":"message","type":"string","internalType":"string"}],"stateMutability":"view"},{"type":"function","name":"minTipAmount","inputs":[],"outputs":[{"name":"","type":"uint256","internalType":"uint256"}],"stateMutability":"view"},{"type":"function","name":"paused","inputs":[],"outputs":[{"name":"","type":"bool","internalType":"bool"}],"stateMutability":"view"},{"type":"function","name":"platformFeePercentage","inputs":[],"outputs":[{"name":"","type":"uint256","internalType":"uint256"}],"stateMutability":"view"},{"type":"function","name":"profileRegistry","inputs":[],"outputs":[{"name":"","type":"address","internalType":"contract ProfileRegistry"}],"stateMutability":"view"},{"type":"function","name":"renounceRole","inputs":[{"name":"role","type":"bytes32","internalType":"bytes32"},{"name":"callerConfirmation","type":"address","internalType":"address"}],"outputs":[],"stateMutability":"nonpayable"},{"type":"function","name":"repoRegistry","inputs":[],"outputs":[{"name":"","type":"address","internalType":"contract RepoRegistry"}],"stateMutability":"view"},{"type":"function","name":"revokeRole","inputs":[{"name":"role","type":"bytes32","internalType":"bytes32"},{"name":"account","type":"address","internalType":"address"}],"outputs":[],"stateMutability":"nonpayable"},{"type":"function","name":"senderTipIds","inputs":[{"name":"","type":"address","internalType":"address"},{"name":"","type":"uint256","internalType":"uint256"}],"outputs":[{"name":"","type":"uint256","internalType":"uint256"}],"stateMutability":"view"},{"type":"function","name":"setPaused","inputs":[{"name":"_paused","type":"bool","internalType":"bool"}],"outputs":[],"stateMutability":"nonpayable"},{"type":"function","name":"splitTip","inputs":[{"name":"_contributors","type":"address[]","internalType":"address[]"},{"name":"_issueId","type":"uint256","internalType":"uint256"},{"name":"_message","type":"string","internalType":"string"}],"outputs":[],"stateMutability":"payable"},{"type":"function","name":"supportsInterface","inputs":[{"name":"interfaceId","type":"bytes4","internalType":"bytes4"}],"outputs":[{"name":"","type":"bool","internalType":"bool"}],"stateMutability":"view"},{"type":"function","name":"tipContributor","inputs":[{"name":"_contributor","type":"address","internalType":"address"},{"name":"_issueId","type":"uint256","internalType":"uint256"},{"name":"_message","type":"string","internalType":"string"}],"outputs":[],"stateMutability":"payable"},{"type":"function","name":"tipIssueContributors","inputs":[{"name":"_issueId","type":"uint256","internalType":"uint256"},{"name":"_message","type":"string","internalType":"string"}],"outputs":[],"stateMutability":"payable"},{"type":"function","name":"totalTipsCount","inputs":[],"outputs":[{"name":"","type":"uint256","internalType":"uint256"}],"stateMutability":"view"},{"type":"function","name":"totalTipsReceived","inputs":[{"name":"","type":"address","internalType":"address"}],"outputs":[{"name":"","type":"uint256","internalType":"uint256"}],"stateMutability":"view"},{"type":"function","name":"totalTipsSent","inputs":[{"name":"","type":"address","internalType":"address"}],"outputs":[{"name":"","type":"uint256","internalType":"uint256"}],"stateMutability":"view"},{"type":"function","name":"totalVolume","inputs":[],"outputs":[{"name":"","type":"uint256","internalType":"uint256"}],"stateMutability":"view"},{"type":"function","name":"updateContracts","inputs":[{"name":"_profileRegistry","type":"address","internalType":"address"},{"name":"_repoRegistry","type":"address","internalType":"address"}],"outputs":[],"stateMutability":"nonpayable"},{"type":"function","name":"updateFeeCollector","inputs":[{"name":"_newCollector","type":"address","internalType":"address"}],"outputs":[],"stateMutability":"nonpayable"},{"type":"function","name":"updateMinTipAmount","inputs":[{"name":"_newMinAmount","type":"uint256","internalType":"uint256"}],"outputs":[],"stateMutability":"nonpayable"},{"type":"function","name":"updatePlatformFee","inputs":[{"name":"_newFeePercentage","type":"uint256","internalType":"uint256"}],"outputs":[],"stateMutability":"nonpayable"},{"type":"function","name":"withdrawFees","inputs":[],"outputs":[],"stateMutability":"nonpayable"},{"type":"event","name":"BatchTipSent","inputs":[{"name":"from","type":"address","indexed":true,"internalType":"address"},{"name":"totalAmount","type":"uint256","indexed":false,"internalType":"uint256"},{"name":"recipientCount","type":"uint256","indexed":false,"internalType":"uint256"},{"name":"timestamp","type":"uint256","indexed":false,"internalType":"uint256"}],"anonymous":false},{"type":"event","name":"EmergencyPause","inputs":[{"name":"paused","type":"bool","indexed":false,"internalType":"bool"},{"name":"timestamp","type":"uint256","indexed":false,"internalType":"uint256"}],"anonymous":false},{"type":"event","name":"FeeCollectorUpdated","inputs":[{"name":"oldCollector","type":"address","indexed":true,"internalType":"address"},{"name":"newCollector","type":"address","indexed":true,"internalType":"address"},{"name":"timestamp","type":"uint256","indexed":false,"internalType":"uint256"}],"anonymous":false},{"type":"event","name":"FeesWithdrawn","inputs":[{"name":"collector","type":"address","indexed":true,"internalType":"address"},{"name":"amount","type":"uint256","indexed":false,"internalType":"uint256"},{"name":"timestamp","type":"uint256","indexed":false,"internalType":"uint256"}],"anonymous":false},{"type":"event","name":"MinTipAmountUpdated","inputs":[{"name":"oldAmount","type":"uint256","indexed":false,"internalType":"uint256"},{"name":"newAmount","type":"uint256","indexed":false,"internalType":"uint256"},{"name":"timestamp","type":"uint256","indexed":false,"internalType":"uint256"}],"anonymous":false},{"type":"event","name":"PlatformFeeUpdated","inputs":[{"name":"oldFee","type":"uint256","indexed":false,"internalType":"uint256"},{"name":"newFee","type":"uint256","indexed":false,"internalType":"uint256"},{"name":"timestamp","type":"uint256","indexed":false,"internalType":"uint256"}],"anonymous":false},{"type":"event","name":"RoleAdminChanged","inputs":[{"name":"role","type":"bytes32","indexed":true,"internalType":"bytes32"},{"name":"previousAdminRole","type":"bytes32","indexed":true,"internalType":"bytes32"},{"name":"newAdminRole","type":"bytes32","indexed":true,"internalType":"bytes32"}],"anonymous":false},{"type":"event","name":"RoleGranted","inputs":[{"name":"role","type":"bytes32","indexed":true,"internalType":"bytes32"},{"name":"account","type":"address","indexed":true,"internalType":"address"},{"name":"sender","type":"address","indexed":true,"internalType":"address"}],"anonymous":false},{"type":"event","name":"RoleRevoked","inputs":[{"name":"role","type":"bytes32","indexed":true,"internalType":"bytes32"},{"name":"account","type":"address","indexed":true,"internalType":"address"},{"name":"sender","type":"address","indexed":true,"internalType":"address"}],"anonymous":false},{"type":"event","name":"TipSent","inputs":[{"name":"tipId","type":"uint256","indexed":true,"internalType":"uint256"},{"name":"from","type":"address","indexed":true,"internalType":"address"},{"name":"to","type":"address","indexed":true,"internalType":"address"},{"name":"amount","type":"uint256","indexed":false,"internalType":"uint256"},{"name":"issueId","type":"uint256","indexed":false,"internalType":"uint256"},{"name":"message","type":"string","indexed":false,"internalType":"string"},{"name":"timestamp","type":"uint256","indexed":false,"internalType":"uint256"}],"anonymous":false},{"type":"error","name":"AccessControlBadConfirmation","inputs":[]},{"type":"error","name":"AccessControlUnauthorizedAccount","inputs":[{"name":"account","type":"address","internalType":"address"},{"name":"neededRole","type":"bytes32","internalType":"bytes32"}]},{"type":"error","name":"ArrayLengthMismatch","inputs":[]},{"type":"error","name":"ContractPaused","inputs":[]},{"type":"error","name":"InsufficientBalance","inputs":[]},{"type":"error","name":"InvalidAddress","inputs":[]},{"type":"error","name":"InvalidAmount","inputs":[]},{"type":"error","name":"InvalidFeePercentage","inputs":[]},{"type":"error","name":"IssueDoesNotExist","inputs":[]},{"type":"error","name":"NoFeesToWithdraw","inputs":[]},{"type":"error","name":"ProfileDoesNotExist","inputs":[]},{"type":"error","name":"ReentrancyGuardReentrantCall","inputs":[]},{"type":"error","name":"TipAmountTooLow","inputs":[]},{"type":"error","name":"TransferFailed","inputs":[]},{"type":"error","name":"Unauthorized","inputs":[]}],"bytecode":{"object":"0x608034620001c857601f6200320a38819003918201601f191683019291906001600160401b03841183851017620001cc578160609284926040968752833981010312620001c8576200005181620001e0565b906200006d836200006560208401620001e0565b9201620001e0565b600180555f600a5566038d7ea4c68000601055916001600160a01b0390811691821562000184578116928315620001405716918215620000fc5760018060a01b031991826002541617600255816003541617600355600b541617600b55620000d533620001f5565b50620000e13362000273565b50620000ed3362000313565b5051612e3b9081620003af8239f35b835162461bcd60e51b815260206004820152601560248201527f496e76616c69642066656520636f6c6c6563746f7200000000000000000000006044820152606490fd5b845162461bcd60e51b815260206004820152601560248201527f496e76616c6964207265706f20726567697374727900000000000000000000006044820152606490fd5b845162461bcd60e51b815260206004820152601860248201527f496e76616c69642070726f66696c6520726567697374727900000000000000006044820152606490fd5b5f80fd5b634e487b7160e01b5f52604160045260245ffd5b51906001600160a01b0382168203620001c857565b6001600160a01b03165f8181527fad3228b676f7d3cd4284a5443f17f1962b36e491b30a40b2405849e597ba5fb5602052604081205490919060ff166200026f57818052816020526040822081835260205260408220600160ff1982541617905533915f80516020620031ea8339815191528180a4600190565b5090565b6001600160a01b03165f8181527f7d7ffb7a348e1c6a02869081a26547b49160dd3df72d1d75a570eb9b698292ec60205260408120549091907fa49807205ce4d355092ef5a8a18f56e8913cf4a201fbe287825b095693c217759060ff166200030e57808352826020526040832082845260205260408320600160ff198254161790555f80516020620031ea833981519152339380a4600190565b505090565b6001600160a01b03165f8181527ff7c9542c591017a21c74b6f3fab6263c7952fc0aaf9db4c22a2a04ddc7f8674f60205260408120549091907f65d7a28e3265b37a6474929f336521b332c1681b933f6cb9f3376673440d862a9060ff166200030e57808352826020526040832082845260205260408320600160ff198254161790555f80516020620031ea833981519152339380a460019056fe608080604052600436101561001c575b50361561001a575f80fd5b005b5f3560e01c90816301ffc9a714611ef95750806307f4c8f914611cf757806316c38b3c14611c225780631a74135c14611927578063248a9ca3146118fb5780632c84890d146118d55780632e288408146118ae5780632f2ff15d146118725780633641c03b1461161657806336568abe146115cf5780633746a075146115b2578063476343ee14611517578063483d209e146114ef5780634ce23ceb1461144b57806355cec010146104da578063587f5ed71461142e5780635b19b6e4146113c75780635c975abb146113a55780635f81a57c1461138857806375b238fc1461134e57806384ce1342146113165780638acf90dd146113165780638f8e480a146112f957806391d14854146112b157806397cb754b14611002578063a217fddf14610fe8578063aa0b598814610f60578063ac6a8a8e14610e87578063b90736ff14610a2f578063bc063e1a14610a13578063c415b95c146109eb578063c50fa046146106d7578063c568bcc81461068e578063c59d484714610641578063c645937414610591578063c9bb1a4814610569578063cbd74da114610512578063cd34d1e9146104da578063cdd78cfc146104bd578063d2c35ce814610433578063d547741f146103f7578063de20c5d11461038a578063e63ab1e914610350578063e692c49f146102e1578063f47f97a3146102a45763f517064c14610222575f61000f565b346102a0576020806003193601126102a0576004355f52600680825260405f209081549161024f83612028565b9361025d6040519586612007565b8385525f9182528082208186015b85841061028457604051806102808982612196565b0390f35b848360019261029285612b95565b81520192019301929061026b565b5f80fd5b346102a05760203660031901126102a05760406004356102d46127106102cc600a5484612792565b0480926127c3565b9082519182526020820152f35b346102a05760403660031901126102a0576102fa612055565b61030261203f565b9061030b612429565b6001600160a01b0390811691610322831515612d61565b169061032f821515612d61565b6001600160601b0360a01b9081600254161760025560035416176003555f80f35b346102a0575f3660031901126102a05760206040517f65d7a28e3265b37a6474929f336521b332c1681b933f6cb9f3376673440d862a8152f35b346102a0576103983661213a565b905f52600660205260405f209081548110156102a0576103b791612288565b5060018060a01b0361028081835416916001840154169260028101549060038101546103ea6005600484015493016122d9565b926040519687968761237a565b346102a05760403660031901126102a05761001a60043561041661203f565b90805f525f60205261042e600160405f200154612484565b612521565b346102a05760203660031901126102a05761044c612055565b610454612429565b6001600160a01b039081169081156104ab577f97f03807ba1f19363a1bdda78353d4f2c81b2247130fafdab6907b095b95873a6020600b5492846001600160601b0360a01b851617600b55604051934285521692a3005b60405163e6c4247b60e01b8152600490fd5b346102a0575f3660031901126102a0576020600a54604051908152f35b346102a05760203660031901126102a0576001600160a01b036104fb612055565b165f526004602052602060405f2054604051908152f35b346102a05760403660031901126102a05761052b612055565b6001600160a01b03165f908152600760205260409020805460243591908210156102a05760209161055b91612414565b90546040519160031b1c8152f35b346102a0575f3660031901126102a0576002546040516001600160a01b039091168152602090f35b346102a0576020806003193601126102a0575f6004355f52600680835260405f20908154906105bf82612028565b926105cd6040519485612007565b8284525f908152858120868086015b85841061062357505f86885b81518310156106195761060d6106139160406106048686612b81565b510151906127ff565b92612b29565b916105e8565b8390604051908152f35b600191859161063185612b95565b81520192019201919087906105dc565b346102a0575f3660031901126102a057600f5460809080156106885761066981600e546127a5565b600e5491600c5490604051938452602084015260408301526060820152f35b5f610669565b346102a05760403660031901126102a0576106a7612055565b6001600160a01b03165f908152600860205260409020805460243591908210156102a05760209161055b91612414565b60403660031901126102a0576004356024356001600160401b0381116102a0576107059036906004016120f4565b9061070e612b5e565b60ff600d54166109d95760035460405163976b311360e01b8152600481018390526001600160a01b0392915f908290602490829087165afa801561092f57610100915f916109b7575b50019180835116156104ab5760105434106109a55761271061077b600a5434612792565b04938161078886346127c3565b94511693826002541692604051809463a787c80b60e01b825287600483015281602460209788935afa90811561092f575f91610978575b5015610966575f808080858a5af16107d56127d0565b5015610954576005604051946107ea86611fc5565b33865287818701528360408701528660608701524260808701528460a0870152600954956108178161280c565b8761093a575b50875f52600781526108328660405f20612af5565b335f52600881526108468660405f20612af5565b875f526004815260405f2061085c8582546127ff565b9055335f525260405f206108718382546127ff565b905561087f82600e546127ff565b600e5561088d600f54612b29565b600f556002541691823b156102a057604051639d81e14360e01b81526001600160a01b038716600482015260248101839052925f908490604490829084905af192831561092f575f80516020612de683398151915293610920575b506108fc6040519283923397429285612b37565b0390a48061090b575b60018055005b61091790600c546127ff565b600c5580610905565b61092990611ff4565b876108e8565b6040513d5f823e3d90fd5b61094e90885f526006835260405f2061299d565b8961081d565b6040516312171d8360e31b8152600490fd5b604051635a05a1b160e01b8152600490fd5b6109989150853d871161099e575b6109908183612007565b810190612594565b886107bf565b503d610986565b604051632d562a5160e11b8152600490fd5b6109d391503d805f833e6109cb8183612007565b8101906125ee565b85610757565b60405163ab35696f60e01b8152600490fd5b346102a0575f3660031901126102a057600b546040516001600160a01b039091168152602090f35b346102a0575f3660031901126102a05760206040516103e88152f35b60803660031901126102a0576001600160401b036004358181116102a057610a5b90369060040161206b565b906024358181116102a057610a749036906004016123b6565b6044358281116102a057610a8c9036906004016123b6565b606435928084116102a057366023850112156102a0578360040135610ab081612028565b94610abe6040519687612007565b8186526024602087019260051b820101913683116102a05760248201905b838210610e5f575050505050610af0612b5e565b60ff600d54166109d9578351825180911490811591610e53575b508015610e47575b610e35575f92835b8351851015610b4757610b3b610b4191610b348787612b81565b51906127ff565b94612b29565b93610b1a565b93509093612710610b5a600a5486612792565b0493610b6685826127ff565b803410610e23575f5b8351811015610d8f576001600160a01b03610b8a8286612b81565b511690610b978188612b81565b5191610ba3828b612b81565b51610bae8389612b81565b5160025460405163a787c80b60e01b81526004810185905290602090829060249082906001600160a01b03165afa90811561092f575f91610d70575b5015610966575f80808088875af1610c006127d0565b50156109545760405190610c1382611fc5565b3382528360208301528560408301528260608301524260808301528060a083015260095491610c418161280c565b83610d55575b50835f526007602052610c5d8260405f20612af5565b335f526008602052610c728260405f20612af5565b835f52600460205260405f20610c898782546127ff565b9055335f52600560205260405f20610ca28782546127ff565b9055600e610cb18782546127ff565b9055600f610cbf8154612b29565b90556002546001600160a01b031695863b156102a057604051639d81e14360e01b81526001600160a01b038616600482015260248101829052965f908890604490829084905af191821561092f57610d41975f80516020612de683398151915293610d46575b50610d396040519283923397429285612b37565b0390a4612b29565b610b6f565b610d4f90611ff4565b8f610d25565b610d6a90845f52600660205260405f2061299d565b8d610c47565b610d89915060203d60201161099e576109908183612007565b8d610bea565b50610da383918780610e0e575b50346127c3565b80610df2575b5051604080519283526020830191909152429082015233907f9457c6fa76f50600b9f78361af93c4b049d2c0e270411f70c86fb4bf19858f179080606081015b0390a260018055005b5f80808093335af1610e026127d0565b50156109545782610da9565b610e1a90600c546127ff565b600c5584610d9c565b60405163162908e360e11b8152600490fd5b60405163512509d360e11b8152600490fd5b50805183511415610b12565b90508151141585610b0a565b81358581116102a057602091610e7c8392602436918801016120f4565b815201910190610adc565b346102a0576020806003193601126102a0576001600160a01b03610ea9612055565b165f526007815260405f2090604051809283918382549182815201915f52835f20935f905b828210610f465784610ee281860382612007565b610eec8151612beb565b905f5b8151811015610f385780610f18610f12610f0c610f339486612b81565b5161223b565b50612b95565b610f228286612b81565b52610f2d8185612b81565b50612b29565b610eef565b604051806102808582612196565b855484526001958601958795509381019390910190610ece565b346102a05760203660031901126102a057600435610f7c612429565b6103e88111610fd6577f50f8ab96ec41b29e295dbc21aa964857bd7ba51c554c209db631610ce392d45690600a549080600a55610fd16040519283924291846040919493926060820195825260208201520152565b0390a1005b60405163390edff560e11b8152600490fd5b346102a0575f3660031901126102a05760206040515f8152f35b60603660031901126102a057611016612055565b6024356044356001600160401b0381116102a0576110389036906004016120f4565b91611041612b5e565b60ff600d54166109d95760025460405163a787c80b60e01b81526001600160a01b0383811660048301819052959093926020929083908290602490829089165afa90811561092f575f91611294575b50156109665760105434106109a5578415159384611248575b6127106110b8600a5434612792565b046110c381346127c3565b935f808080888a5af16110d46127d0565b50156109545781600592611233575b506040516110f081611fc5565b33815289828201528560408201528860608201524260808201528460a08201526009549761111d8261280c565b611219575b50885f52600781526111378760405f20612af5565b335f526008815261114b8760405f20612af5565b885f526004815260405f206111618682546127ff565b9055335f525260405f206111768482546127ff565b905561118483600e546127ff565b600e55611192600f54612b29565b600f5560025416803b156102a057604051639d81e14360e01b81526001600160a01b03949094166004850152602484018390525f908490604490829084905af192831561092f575f80516020612de68339815191529361120a575b506112016040519283923397429285612b37565b0390a460018055005b61121390611ff4565b866111ed565b61122d90895f526006835260405f2061299d565b89611122565b61123f90600c546127ff565b600c55896110e3565b60245f82600354166040519283809263976b311360e01b82528b60048301525afa801561092f5761127a575b506110a9565b61128d903d805f833e6109cb8183612007565b5087611274565b6112ab9150833d851161099e576109908183612007565b87611090565b346102a05760403660031901126102a0576112ca61203f565b6004355f525f60205260405f209060018060a01b03165f52602052602060ff60405f2054166040519015158152f35b346102a0575f3660031901126102a0576020601054604051908152f35b346102a05760203660031901126102a0576001600160a01b03611337612055565b165f526005602052602060405f2054604051908152f35b346102a0575f3660031901126102a05760206040517fa49807205ce4d355092ef5a8a18f56e8913cf4a201fbe287825b095693c217758152f35b346102a0575f3660031901126102a0576020600e54604051908152f35b346102a0575f3660031901126102a057602060ff600d54166040519015158152f35b346102a05760203660031901126102a0577fdd66320fad420ce58ce8d0ddd05eb0010459cd98a1d9077a3afa3d81e9840951600435611404612429565b6010549080601055610fd16040519283924291846040919493926060820195825260208201520152565b346102a0575f3660031901126102a0576020600c54604051908152f35b346102a0576020806003193601126102a0576001600160a01b0361146d612055565b165f526008815260405f2090604051809283918382549182815201915f52835f20935f905b8282106114d557846114a681860382612007565b6114b08151612beb565b905f5b8151811015610f385780610f18610f12610f0c6114d09486612b81565b6114b3565b855484526001958601958795509381019390910190611492565b346102a0575f3660031901126102a0576003546040516001600160a01b039091168152602090f35b346102a0575f3660031901126102a05761152f612429565b611537612b5e565b600c5480156115a0575f600c5560018060a01b035f8080808585600b54165af161155f6127d0565b50156109545760407fdeb5099d7943aa2b4c1142e5d53d2f7636aa8f7bd130ec79816f151572bcdf4591600b5416928151908152426020820152a260018055005b604051630d00db4d60e31b8152600490fd5b346102a0575f3660031901126102a0576020600f54604051908152f35b346102a05760403660031901126102a0576115e861203f565b336001600160a01b038216036116045761001a90600435612521565b60405163334bd91960e11b8152600490fd5b346102a0576020806003193601126102a057600435905f6009549061163a82612d2f565b5f5b83811061180f575061164f919050612d2f565b925f915f5b8181106117ac5750505f5b8281106116f45750818111156116ed57505b61167a81612d2f565b9161168482612d2f565b935f5b83811061169d5760405180610280888883611f4c565b6116e8906001600160a01b03806116b48386612b81565b51166116c08389612b81565b526116cb8285612b81565b51165f526004845260405f20546116e28289612b81565b52612b29565b611687565b9050611671565b60018101808211611798575b838110611716575061171190612b29565b61165f565b61175d906001600160a01b038061172d858a612b81565b51165f526004875260405f205481611745848b612b81565b51165f526004885260405f2054116117625750612b29565b611700565b8061176d858a612b81565b51169061177a838a612b81565b5116611786858a612b81565b526117918289612b81565b5287610f2d565b634e487b7160e01b5f52601160045260245ffd5b6117b58161223b565b5060018060a01b03906117d086898460018095015416612d9f565b156117e6575b50506117e190612b29565b611654565b946118079183966117f96117e19561223b565b500154166116e2828a612b81565b9390876117d6565b6118188161223b565b5060018060a01b039061183385858460018095015416612d9f565b15611849575b505061184490612b29565b61163c565b9361186a91839561185c6118449561223b565b500154166116e28286612b81565b929087611839565b346102a05760403660031901126102a05761001a60043561189161203f565b90805f525f6020526118a9600160405f200154612484565b6124a5565b346102a05760203660031901126102a0576004356009548110156102a0576103b79061223b565b346102a0576102806118ef6118e93661213a565b90612c5f565b60405191829182612196565b346102a05760203660031901126102a0576004355f525f6020526020600160405f200154604051908152f35b60603660031901126102a0576001600160401b036004358181116102a05761195390369060040161206b565b906044359081116102a05761196c9036906004016120f4565b611974612b5e565b60ff600d54166109d9578151156104ab57611993601054835190612792565b34106109a5576127106119a8600a5434612792565b04906119b482346127c3565b926119c08151856127a5565b935f5b8251811015611bbe576001600160a01b036119de8285612b81565b5116906024602060018060a01b03600254166040519283809263a787c80b60e01b82528760048301525afa90811561092f575f91611b9f575b5015610966575f8080808a865af1611a2d6127d0565b50156109545760405191611a4083611fc5565b33835280602084015287604084015260243560608401524260808401528560a084015260095492611a708161280c565b602435611b82575b50805f526007602052611a8e8360405f20612af5565b335f526008602052611aa38360405f20612af5565b805f52600460205260405f20611aba8982546127ff565b9055335f52600560205260405f20611ad38982546127ff565b9055600e611ae28982546127ff565b9055600f611af08154612b29565b90556002546001600160a01b031692833b156102a057604051639d81e14360e01b81526001600160a01b0383166004820152602481018a9052935f908590604490829084905af193841561092f57611b6e94611b73575b50604051905f80516020612de6833981519152339280610d398d8c42916024359085612b37565b6119c3565b611b7c90611ff4565b89611b47565b611b99906024355f52600660205260405f2061299d565b88611a78565b611bb8915060203d60201161099e576109908183612007565b88611a17565b507f9457c6fa76f50600b9f78361af93c4b049d2c0e270411f70c86fb4bf19858f17610de9838680611c0d575b5051604080519485526020850191909152429084015233929081906060820190565b611c1990600c546127ff565b600c5584611beb565b346102a05760203660031901126102a0576004358015158091036102a057335f9081527ff7c9542c591017a21c74b6f3fab6263c7952fc0aaf9db4c22a2a04ddc7f8674f60205260409020547f65d7a28e3265b37a6474929f336521b332c1681b933f6cb9f3376673440d862a9060ff1615611cd9577ffc206eb0f6ebaceddd0c35f63e7b2a582c5620c7b610f3f9947c4197cde6646f60408360ff19600d541660ff821617600d558151908152426020820152a1005b6044906040519063e2517d3f60e01b82523360048301526024820152fd5b346102a0576020806003193601126102a057600435905f60095490611d1b82612d2f565b5f5b838110611e9b5750611d30919050612d2f565b925f915f5b818110611e3d5750505f5b828110611dcf575081811115611dc857505b611d5b81612d2f565b91611d6582612d2f565b935f5b838110611d7e5760405180610280888883611f4c565b611dc3906001600160a01b0380611d958386612b81565b5116611da18389612b81565b52611dac8285612b81565b51165f526005845260405f20546116e28289612b81565b611d68565b9050611d52565b60018101808211611798575b838110611df15750611dec90612b29565b611d40565b611e38906001600160a01b0380611e08858a612b81565b51165f52600580885260405f20549082611e22858c612b81565b51165f52885260405f2054116117625750612b29565b611ddb565b611e468161223b565b50546001600160a01b0390611e6090869089908416612d9f565b15611e75575b50611e7090612b29565b611d35565b8194611e9491611e87611e709461223b565b5054166116e2828a612b81565b9390611e66565b611ea48161223b565b50546001600160a01b0390611ebe90859085908416612d9f565b15611ed3575b50611ece90612b29565b611d1d565b8193611ef291611ee5611ece9461223b565b5054166116e28286612b81565b9290611ec4565b346102a05760203660031901126102a0576004359063ffffffff60e01b82168092036102a057602091637965db0b60e01b8114908115611f3b575b5015158152f35b6301ffc9a760e01b14905083611f34565b604081019060408152825180925260608101916020809401905f5b818110611fa857505050828183039101528180845192838152019301915f5b828110611f94575050505090565b835185529381019392810192600101611f86565b82516001600160a01b031685529385019391850191600101611f67565b60c081019081106001600160401b03821117611fe057604052565b634e487b7160e01b5f52604160045260245ffd5b6001600160401b038111611fe057604052565b90601f801991011681019081106001600160401b03821117611fe057604052565b6001600160401b038111611fe05760051b60200190565b602435906001600160a01b03821682036102a057565b600435906001600160a01b03821682036102a057565b81601f820112156102a05780359161208283612028565b926120906040519485612007565b808452602092838086019260051b8201019283116102a0578301905b8282106120ba575050505090565b81356001600160a01b03811681036102a05781529083019083016120ac565b6001600160401b038111611fe057601f01601f191660200190565b81601f820112156102a05780359061210b826120d9565b926121196040519485612007565b828452602083830101116102a057815f926020809301838601378301015290565b60409060031901126102a0576004359060243590565b5f5b8381106121615750505f910152565b8181015183820152602001612152565b9060209161218a81518092818552858086019101612150565b601f01601f1916010190565b602080820190808352835180925260409283810182858560051b8401019601945f925b8584106121ca575050505050505090565b90919293949596858061222a600193603f198682030188528b51858060a01b038082511683528482015116848301528781015188830152606080820151908301526080808201519083015260a0809101519160c080928201520190612171565b9901940194019295949391906121b9565b6009548110156122745760069060095f52027f6e1540171b6c0c960b71a7020d9f60077f6af931a8bbf590da0223dacf75c7af01905f90565b634e487b7160e01b5f52603260045260245ffd5b8054821015612274575f52600660205f20910201905f90565b90600182811c921680156122cf575b60208310146122bb57565b634e487b7160e01b5f52602260045260245ffd5b91607f16916122b0565b9060405191825f8254926122ec846122a1565b9081845260019485811690815f146123575750600114612317575b505061231592500383612007565b565b909391505f52602090815f20935f915b81831061233f57505061231593508201015f80612307565b85548884018501529485019487945091830191612327565b91505061231594506020925060ff191682840152151560051b8201015f80612307565b9260c094916123b397969360018060a01b0380921686521660208501526040840152606083015260808201528160a08201520190612171565b90565b81601f820112156102a0578035916123cd83612028565b926123db6040519485612007565b808452602092838086019260051b8201019283116102a0578301905b828210612405575050505090565b813581529083019083016123f7565b8054821015612274575f5260205f2001905f90565b335f9081527f7d7ffb7a348e1c6a02869081a26547b49160dd3df72d1d75a570eb9b698292ec60205260409020547fa49807205ce4d355092ef5a8a18f56e8913cf4a201fbe287825b095693c217759060ff1615611cd95750565b805f525f60205260405f20335f5260205260ff60405f20541615611cd95750565b905f9180835282602052604083209160018060a01b03169182845260205260ff604084205416155f1461251c57808352826020526040832082845260205260408320600160ff198254161790557f2f8788117e7eff1d82e926ec794901d17c78024a50270940304540a733656f0d339380a4600190565b505090565b905f9180835282602052604083209160018060a01b03169182845260205260ff6040842054165f1461251c5780835282602052604083208284526020526040832060ff1981541690557ff6391f5c32d9c69d2a47ea670b442974b53935d1edc7fd64eb21e047a839171b339380a4600190565b908160209103126102a0575180151581036102a05790565b81601f820112156102a05780516125c2816120d9565b926125d06040519485612007565b818452602082840101116102a0576123b39160208085019101612150565b60209081818403126102a05780516001600160401b03918282116102a05701916101c09384848203126102a05760405194850185811084821117611fe05760405283518552818401518286015260408401518381116102a057816126539186016125ac565b604086015260608401518381116102a057816126709186016125ac565b606086015260808401518381116102a0578161268d9186016125ac565b608086015260a08401518381116102a057840181601f820112156102a05780516126b681612028565b946126c46040519687612007565b818652848087019260051b840101938085116102a057858401925b85841061276d575050505050505060a083015260c081015160038110156102a05760c083015260e081015160058110156102a05760e083015261010081810151906001600160a01b03821682036102a05783015261012080820151908301526101408082015190830152610160808201519083015261018080820151908301526101a0809101519082015290565b83518381116102a0578791612787848480948a01016125ac565b8152019301926126df565b8181029291811591840414171561179857565b81156127af570490565b634e487b7160e01b5f52601260045260245ffd5b9190820391821161179857565b3d156127fa573d906127e1826120d9565b916127ef6040519384612007565b82523d5f602084013e565b606090565b9190820180921161179857565b600954600160401b811015611fe05761282c60019182810160095561223b565b61298a5760a06005600180831b0392838651166001600160601b03841b90818354161782558582019060209586890151169082541617905560408601516002820155606086015160038201556080860151600482015501930151908151916001600160401b038311611fe0576128a285546122a1565b601f8111612942575b5081601f84116001146128e357509282939183925f946128d8575b50501b915f199060031b1c1916179055565b015192505f806128c6565b919083601f198116875f52845f20945f905b888383106129285750505010612910575b505050811b019055565b01515f1960f88460031b161c191690555f8080612906565b8587015188559096019594850194879350908101906128f5565b5f868152838120601f860160051c810192858710612980575b601f0160051c019186905b838110612975575050506128ab565b828155018690612966565b909250829061295b565b634e487b7160e01b5f525f60045260245ffd5b8054600160401b811015611fe0576129bc906001928382018155612288565b61298a5760a06005600180831b0392838651166001600160601b03841b90818354161782558582019060209586890151169082541617905560408601516002820155606086015160038201556080860151600482015501930151908151916001600160401b038311611fe057612a3285546122a1565b601f8111612aad575b5081601f8411600114612a6757509282939183925f946128d85750501b915f199060031b1c1916179055565b919083601f198116875f52845f20945f905b88838310612a93575050501061291057505050811b019055565b858701518855909601959485019487935090810190612a79565b5f868152838120601f860160051c810192858710612aeb575b601f0160051c019186905b838110612ae057505050612a3b565b828155018690612ad1565b9092508290612ac6565b8054600160401b811015611fe057612b1291600182018155612414565b819291549060031b91821b915f19901b1916179055565b5f1981146117985760010190565b949392606092612b599287526020870152608060408701526080860190612171565b930152565b600260015414612b6f576002600155565b604051633ee5aeb560e01b8152600490fd5b80518210156122745760209160051b010190565b90604051612ba281611fc5565b60a0612be660058395600180851b038082541686526001820154166020860152600281015460408601526003810154606086015260048101546080860152016122d9565b910152565b90612bf582612028565b604090612c0482519182612007565b8381528093612c15601f1991612028565b01915f5b838110612c265750505050565b6020908251612c3481611fc5565b5f8152825f818301525f8583015260605f818401525f608084015260a0830152828601015201612c19565b6009549182821015612d0a57612c7590826127ff565b81838211612d02575b612c87916127c3565b90612c9182612beb565b925f198101905f908211815b858110612cad5750505050505090565b81612cee5780612cd4610f12612ccf612ce994612cca8a8a6127c3565b6127c3565b61223b565b612cde828a612b81565b52610f2d8189612b81565b612c9d565b634e487b7160e01b83526011600452602483fd5b839150612c7e565b505050604051602081018181106001600160401b03821117611fe0576040525f815290565b90612d3982612028565b612d466040519182612007565b8281528092612d57601f1991612028565b0190602036910137565b15612d6857565b60405162461bcd60e51b815260206004820152600f60248201526e496e76616c6964206164647265737360881b6044820152606490fd5b905f5b838110612db157505050505f90565b6001600160a01b0380612dc48385612b81565b511690841614612ddc57612dd790612b29565b612da2565b5050505060019056fe93185f52ebe1d3d456cec5b580664fa9f8cd11fd4c0a4bcbfc6ae177b5529df2a26469706673582212207024da1dc1352b5b007d7e0af06e8af05278ee2b4b797f4c75729cd4e8821b5b64736f6c634300081400332f8788117e7eff1d82e926ec794901d17c78024a50270940304540a733656f0d","linkReferences":{}},"methodIdentifiers":{"ADMIN_ROLE()":"75b238fc","DEFAULT_ADMIN_ROLE()":"a217fddf","MAX_FEE()":"bc063e1a","PAUSER_ROLE()":"e63ab1e9","accumulatedFees()":"587f5ed7","allTips(uint256)":"2e288408","batchTip(address[],uint256[],uint256[],string[])":"b90736ff","calculateTipAfterFee(uint256)":"f47f97a3","contributorTipIds(address,uint256)":"cbd74da1","feeCollector()":"c415b95c","getContributorTips(address)":"ac6a8a8e","getIssueTipTotal(uint256)":"c6459374","getIssueTips(uint256)":"f517064c","getRecentTips(uint256,uint256)":"2c84890d","getRoleAdmin(bytes32)":"248a9ca3","getSenderTips(address)":"4ce23ceb","getStats()":"c59d4847","getTipsReceived(address)":"55cec010","getTipsSent(address)":"84ce1342","getTopEarners(uint256)":"3641c03b","getTopTippers(uint256)":"07f4c8f9","grantRole(bytes32,address)":"2f2ff15d","hasRole(bytes32,address)":"91d14854","issueTips(uint256,uint256)":"de20c5d1","minTipAmount()":"8f8e480a","paused()":"5c975abb","platformFeePercentage()":"cdd78cfc","profileRegistry()":"c9bb1a48","renounceRole(bytes32,address)":"36568abe","repoRegistry()":"483d209e","revokeRole(bytes32,address)":"d547741f","senderTipIds(address,uint256)":"c568bcc8","setPaused(bool)":"16c38b3c","splitTip(address[],uint256,string)":"1a74135c","supportsInterface(bytes4)":"01ffc9a7","tipContributor(address,uint256,string)":"97cb754b","tipIssueContributors(uint256,string)":"c50fa046","totalTipsCount()":"3746a075","totalTipsReceived(address)":"cd34d1e9","totalTipsSent(address)":"8acf90dd","totalVolume()":"5f81a57c","updateContracts(address,address)":"e692c49f","updateFeeCollector(address)":"d2c35ce8","updateMinTipAmount(uint256)":"5b19b6e4","updatePlatformFee(uint256)":"aa0b5988","withdrawFees()":"476343ee"},"id":29}