{"abi":[{"type":"constructor","inputs":[],"stateMutability":"nonpayable"},{"type":"function","name":"ADMIN_ROLE","inputs":[],"outputs":[{"name":"","type":"bytes32","internalType":"bytes32"}],"stateMutability":"view"},{"type":"function","name":"DEFAULT_ADMIN_ROLE","inputs":[],"outputs":[{"name":"","type":"bytes32","internalType":"bytes32"}],"stateMutability":"view"},{"type":"function","name":"REPUTATION_UPDATER_ROLE","inputs":[],"outputs":[{"name":"","type":"bytes32","internalType":"bytes32"}],"stateMutability":"view"},{"type":"function","name":"allUsers","inputs":[{"name":"","type":"uint256","internalType":"uint256"}],"outputs":[{"name":"","type":"address","internalType":"address"}],"stateMutability":"view"},{"type":"function","name":"createProfile","inputs":[{"name":"_githubUsername","type":"string","internalType":"string"},{"name":"_bio","type":"string","internalType":"string"},{"name":"_techStack","type":"string[]","internalType":"string[]"},{"name":"_topics","type":"string[]","internalType":"string[]"},{"name":"_experience","type":"uint8","internalType":"enum ProfileRegistry.ExperienceLevel"},{"name":"_role","type":"uint8","internalType":"enum ProfileRegistry.Role"}],"outputs":[],"stateMutability":"nonpayable"},{"type":"function","name":"getAllContributors","inputs":[],"outputs":[{"name":"","type":"address[]","internalType":"address[]"}],"stateMutability":"view"},{"type":"function","name":"getAllMaintainers","inputs":[],"outputs":[{"name":"","type":"address[]","internalType":"address[]"}],"stateMutability":"view"},{"type":"function","name":"getAllUsers","inputs":[],"outputs":[{"name":"","type":"address[]","internalType":"address[]"}],"stateMutability":"view"},{"type":"function","name":"getProfile","inputs":[{"name":"_user","type":"address","internalType":"address"}],"outputs":[{"name":"","type":"tuple","internalType":"struct ProfileRegistry.Profile","components":[{"name":"wallet","type":"address","internalType":"address"},{"name":"githubUsername","type":"string","internalType":"string"},{"name":"bio","type":"string","internalType":"string"},{"name":"techStack","type":"string[]","internalType":"string[]"},{"name":"topics","type":"string[]","internalType":"string[]"},{"name":"experience","type":"uint8","internalType":"enum ProfileRegistry.ExperienceLevel"},{"name":"role","type":"uint8","internalType":"enum ProfileRegistry.Role"},{"name":"reputationScore","type":"uint256","internalType":"uint256"},{"name":"completedIssues","type":"uint256","internalType":"uint256"},{"name":"totalEarned","type":"uint256","internalType":"uint256"},{"name":"createdAt","type":"uint256","internalType":"uint256"},{"name":"updatedAt","type":"uint256","internalType":"uint256"},{"name":"exists","type":"bool","internalType":"bool"}]}],"stateMutability":"view"},{"type":"function","name":"getProfileByGithub","inputs":[{"name":"_githubUsername","type":"string","internalType":"string"}],"outputs":[{"name":"","type":"tuple","internalType":"struct ProfileRegistry.Profile","components":[{"name":"wallet","type":"address","internalType":"address"},{"name":"githubUsername","type":"string","internalType":"string"},{"name":"bio","type":"string","internalType":"string"},{"name":"techStack","type":"string[]","internalType":"string[]"},{"name":"topics","type":"string[]","internalType":"string[]"},{"name":"experience","type":"uint8","internalType":"enum ProfileRegistry.ExperienceLevel"},{"name":"role","type":"uint8","internalType":"enum ProfileRegistry.Role"},{"name":"reputationScore","type":"uint256","internalType":"uint256"},{"name":"completedIssues","type":"uint256","internalType":"uint256"},{"name":"totalEarned","type":"uint256","internalType":"uint256"},{"name":"createdAt","type":"uint256","internalType":"uint256"},{"name":"updatedAt","type":"uint256","internalType":"uint256"},{"name":"exists","type":"bool","internalType":"bool"}]}],"stateMutability":"view"},{"type":"function","name":"getRoleAdmin","inputs":[{"name":"role","type":"bytes32","internalType":"bytes32"}],"outputs":[{"name":"","type":"bytes32","internalType":"bytes32"}],"stateMutability":"view"},{"type":"function","name":"getStats","inputs":[],"outputs":[{"name":"totalUsers_","type":"uint256","internalType":"uint256"},{"name":"totalContributors_","type":"uint256","internalType":"uint256"},{"name":"totalMaintainers_","type":"uint256","internalType":"uint256"},{"name":"totalIssuesCompleted","type":"uint256","internalType":"uint256"},{"name":"totalTipsEarned","type":"uint256","internalType":"uint256"}],"stateMutability":"view"},{"type":"function","name":"getTopContributors","inputs":[{"name":"_limit","type":"uint256","internalType":"uint256"}],"outputs":[{"name":"","type":"address[]","internalType":"address[]"}],"stateMutability":"view"},{"type":"function","name":"getUsersByExperience","inputs":[{"name":"_experience","type":"uint8","internalType":"enum ProfileRegistry.ExperienceLevel"}],"outputs":[{"name":"","type":"address[]","internalType":"address[]"}],"stateMutability":"view"},{"type":"function","name":"getUsersByTechStack","inputs":[{"name":"_tech","type":"string","internalType":"string"}],"outputs":[{"name":"","type":"address[]","internalType":"address[]"}],"stateMutability":"view"},{"type":"function","name":"getUsersByTopic","inputs":[{"name":"_topic","type":"string","internalType":"string"}],"outputs":[{"name":"","type":"address[]","internalType":"address[]"}],"stateMutability":"view"},{"type":"function","name":"getUsersPaginated","inputs":[{"name":"_offset","type":"uint256","internalType":"uint256"},{"name":"_limit","type":"uint256","internalType":"uint256"}],"outputs":[{"name":"","type":"address[]","internalType":"address[]"}],"stateMutability":"view"},{"type":"function","name":"githubUsernameToAddress","inputs":[{"name":"","type":"string","internalType":"string"}],"outputs":[{"name":"","type":"address","internalType":"address"}],"stateMutability":"view"},{"type":"function","name":"grantRole","inputs":[{"name":"role","type":"bytes32","internalType":"bytes32"},{"name":"account","type":"address","internalType":"address"}],"outputs":[],"stateMutability":"nonpayable"},{"type":"function","name":"hasProfile","inputs":[{"name":"_user","type":"address","internalType":"address"}],"outputs":[{"name":"","type":"bool","internalType":"bool"}],"stateMutability":"view"},{"type":"function","name":"hasRole","inputs":[{"name":"role","type":"bytes32","internalType":"bytes32"},{"name":"account","type":"address","internalType":"address"}],"outputs":[{"name":"","type":"bool","internalType":"bool"}],"stateMutability":"view"},{"type":"function","name":"profiles","inputs":[{"name":"","type":"address","internalType":"address"}],"outputs":[{"name":"wallet","type":"address","internalType":"address"},{"name":"githubUsername","type":"string","internalType":"string"},{"name":"bio","type":"string","internalType":"string"},{"name":"experience","type":"uint8","internalType":"enum ProfileRegistry.ExperienceLevel"},{"name":"role","type":"uint8","internalType":"enum ProfileRegistry.Role"},{"name":"reputationScore","type":"uint256","internalType":"uint256"},{"name":"completedIssues","type":"uint256","internalType":"uint256"},{"name":"totalEarned","type":"uint256","internalType":"uint256"},{"name":"createdAt","type":"uint256","internalType":"uint256"},{"name":"updatedAt","type":"uint256","internalType":"uint256"},{"name":"exists","type":"bool","internalType":"bool"}],"stateMutability":"view"},{"type":"function","name":"recordIssueCompletion","inputs":[{"name":"_user","type":"address","internalType":"address"},{"name":"_tipAmount","type":"uint256","internalType":"uint256"}],"outputs":[],"stateMutability":"nonpayable"},{"type":"function","name":"renounceRole","inputs":[{"name":"role","type":"bytes32","internalType":"bytes32"},{"name":"callerConfirmation","type":"address","internalType":"address"}],"outputs":[],"stateMutability":"nonpayable"},{"type":"function","name":"revokeRole","inputs":[{"name":"role","type":"bytes32","internalType":"bytes32"},{"name":"account","type":"address","internalType":"address"}],"outputs":[],"stateMutability":"nonpayable"},{"type":"function","name":"supportsInterface","inputs":[{"name":"interfaceId","type":"bytes4","internalType":"bytes4"}],"outputs":[{"name":"","type":"bool","internalType":"bool"}],"stateMutability":"view"},{"type":"function","name":"totalContributors","inputs":[],"outputs":[{"name":"","type":"uint256","internalType":"uint256"}],"stateMutability":"view"},{"type":"function","name":"totalMaintainers","inputs":[],"outputs":[{"name":"","type":"uint256","internalType":"uint256"}],"stateMutability":"view"},{"type":"function","name":"totalUsers","inputs":[],"outputs":[{"name":"","type":"uint256","internalType":"uint256"}],"stateMutability":"view"},{"type":"function","name":"updateProfile","inputs":[{"name":"_bio","type":"string","internalType":"string"},{"name":"_techStack","type":"string[]","internalType":"string[]"},{"name":"_topics","type":"string[]","internalType":"string[]"},{"name":"_experience","type":"uint8","internalType":"enum ProfileRegistry.ExperienceLevel"},{"name":"_role","type":"uint8","internalType":"enum ProfileRegistry.Role"}],"outputs":[],"stateMutability":"nonpayable"},{"type":"function","name":"updateReputation","inputs":[{"name":"_user","type":"address","internalType":"address"},{"name":"_newScore","type":"uint256","internalType":"uint256"}],"outputs":[],"stateMutability":"nonpayable"},{"type":"event","name":"IssueCompletionRecorded","inputs":[{"name":"user","type":"address","indexed":true,"internalType":"address"},{"name":"issueCount","type":"uint256","indexed":false,"internalType":"uint256"},{"name":"tipAmount","type":"uint256","indexed":false,"internalType":"uint256"}],"anonymous":false},{"type":"event","name":"ProfileCreated","inputs":[{"name":"user","type":"address","indexed":true,"internalType":"address"},{"name":"githubUsername","type":"string","indexed":false,"internalType":"string"},{"name":"role","type":"uint8","indexed":false,"internalType":"enum ProfileRegistry.Role"},{"name":"timestamp","type":"uint256","indexed":false,"internalType":"uint256"}],"anonymous":false},{"type":"event","name":"ProfileUpdated","inputs":[{"name":"user","type":"address","indexed":true,"internalType":"address"},{"name":"timestamp","type":"uint256","indexed":false,"internalType":"uint256"}],"anonymous":false},{"type":"event","name":"ReputationUpdated","inputs":[{"name":"user","type":"address","indexed":true,"internalType":"address"},{"name":"oldScore","type":"uint256","indexed":false,"internalType":"uint256"},{"name":"newScore","type":"uint256","indexed":false,"internalType":"uint256"},{"name":"timestamp","type":"uint256","indexed":false,"internalType":"uint256"}],"anonymous":false},{"type":"event","name":"RoleAdminChanged","inputs":[{"name":"role","type":"bytes32","indexed":true,"internalType":"bytes32"},{"name":"previousAdminRole","type":"bytes32","indexed":true,"internalType":"bytes32"},{"name":"newAdminRole","type":"bytes32","indexed":true,"internalType":"bytes32"}],"anonymous":false},{"type":"event","name":"RoleGranted","inputs":[{"name":"role","type":"bytes32","indexed":true,"internalType":"bytes32"},{"name":"account","type":"address","indexed":true,"internalType":"address"},{"name":"sender","type":"address","indexed":true,"internalType":"address"}],"anonymous":false},{"type":"event","name":"RoleRevoked","inputs":[{"name":"role","type":"bytes32","indexed":true,"internalType":"bytes32"},{"name":"account","type":"address","indexed":true,"internalType":"address"},{"name":"sender","type":"address","indexed":true,"internalType":"address"}],"anonymous":false},{"type":"error","name":"AccessControlBadConfirmation","inputs":[]},{"type":"error","name":"AccessControlUnauthorizedAccount","inputs":[{"name":"account","type":"address","internalType":"address"},{"name":"neededRole","type":"bytes32","internalType":"bytes32"}]},{"type":"error","name":"EmptyTechStack","inputs":[]},{"type":"error","name":"EmptyUsername","inputs":[]},{"type":"error","name":"InvalidAddress","inputs":[]},{"type":"error","name":"ProfileAlreadyExists","inputs":[]},{"type":"error","name":"ProfileDoesNotExist","inputs":[]},{"type":"error","name":"Unauthorized","inputs":[]},{"type":"error","name":"UsernameAlreadyTaken","inputs":[]}],"bytecode":{"object":"0x6080604052346200003257620000153362000036565b506200002133620000b4565b50604051612bf49081620001558239f35b5f80fd5b6001600160a01b03165f8181527fad3228b676f7d3cd4284a5443f17f1962b36e491b30a40b2405849e597ba5fb5602052604081205490919060ff16620000b057818052816020526040822081835260205260408220600160ff1982541617905533915f8051602062002d498339815191528180a4600190565b5090565b6001600160a01b03165f8181527f7d7ffb7a348e1c6a02869081a26547b49160dd3df72d1d75a570eb9b698292ec60205260408120549091907fa49807205ce4d355092ef5a8a18f56e8913cf4a201fbe287825b095693c217759060ff166200014f57808352826020526040832082845260205260408320600160ff198254161790555f8051602062002d49833981519152339380a4600190565b50509056fe6080806040526004361015610012575f80fd5b5f3560e01c90816301ffc9a7146123dd575080630f53a47014612374578063248a9ca3146123485780632f2ff15d1461230c57806336568abe146122c557806338e689791461228b578063398232d914611c015780633b88a0ab14611b99578063428be84f14611a50578063505163c814611a2e57806351f890ea146118d75780635c204e85146117a057806375b238fc1461176657806391d148541461171e5780639833b60f14610dac5780639d65e25214610c5c5780639d81e14314610af0578063a217fddf14610ad6578063a2bdedf414610a94578063a787c80b14610a54578063bbe1562714610962578063bff1f9e114610945578063c59d484714610886578063d547741f14610848578063de710365146106c9578063e2842d791461063c578063e5343b3814610499578063f164df9a146102d9578063f251fc8c146102bc578063f5c91a08146101925763fc9c6a1514610171575f80fd5b3461018e575f36600319011261018e576020600654604051908152f35b5f80fd5b3461018e57604036600319011261018e576101ab612430565b335f9081527f7d7ffb7a348e1c6a02869081a26547b49160dd3df72d1d75a570eb9b698292ec602052604090205460243591907fa49807205ce4d355092ef5a8a18f56e8913cf4a201fbe287825b095693c217759060ff161561029e57506001600160a01b03165f818152600160205260409020600b015490919060ff161561028c577fc2fd17ad7e9f23b8607f0bd02d7a6cdcccd5a964fa99ce5a066ed34c5b4bb55b90825f526001602052600660405f20019080825492556102876040519283924291846040919493926060820195825260208201520152565b0390a2005b604051635a05a1b160e01b8152600490fd5b6044906040519063e2517d3f60e01b82523360048301526024820152fd5b3461018e575f36600319011261018e576020600554604051908152f35b3461018e5760208060031936011261018e576004356001600160401b03811161018e5761030a903690600401612640565b5f8092600392835492828201955b848110610402575061032990612ac0565b935f915f5b8581106103475760405180610343898261272c565b0390f35b6103508161276f565b90546001600160a01b0391851b1c81165f9081526001808852604090912061037a90600401612a6c565b5f825b610394575b5050505061038f906129ee565b61032e565b81518110156103fd576103a78183612af2565b5189815191012086518d20146103c7576103c183916129ee565b9061037d565b50505081946103f3916103dc61038f9461276f565b905490871b1c166103ed828b612af2565b526129ee565b9390898080610382565b610382565b61040b8161276f565b60018060a01b03915490881b1c165f52600180855261042f600460405f2001612a6c565b5f825b610448575b505050610443906129ee565b610318565b81518110156104945761045b8183612af2565b5187815191012086518b201461047b5761047583916129ee565b90610432565b5050509061048b610443916129ee565b91908880610437565b610437565b3461018e5760208060031936011261018e576004356001600160401b03811161018e576104ca903690600401612640565b5f8092600392835492828201955b8481106105a657506104e990612ac0565b935f915f5b8581106105035760405180610343898261272c565b61050c8161276f565b90546001600160a01b0391851b1c81165f90815260018088526040909120610535908601612a6c565b5f825b61054f575b5050505061054a906129ee565b6104ee565b81518110156105a1576105628183612af2565b5189815191012086518d20146105825761057c83916129ee565b90610538565b5050508194610597916103dc61054a9461276f565b939089808061053d565b61053d565b6105af8161276f565b60018060a01b03915490881b1c165f5260018085526105d28760405f2001612a6c565b5f825b6105eb575b5050506105e6906129ee565b6104d8565b8151811015610637576105fe8183612af2565b5187815191012086518b201461061e5761061883916129ee565b906105d5565b5050509061062e6105e6916129ee565b919088806105da565b6105da565b3461018e575f36600319011261018e57604051806003549182815260208091019260035f527fc2575a0e9e593c00f959f8c92f12db2869c3395a3b0502d05e2516446f71f85b915f905b8282106106a9576103438561069d8189038261261f565b6040519182918261272c565b83546001600160a01b031686529485019460019384019390910190610686565b3461018e5760208060031936011261018e5760038054600435818111156108435750805b6106f681612ac0565b9261070082612695565b61070d604051918261261f565b828152601f1961071c84612695565b0136878301375f5b8481106107395760405180610343888261272c565b6107428161276f565b90546001600160a01b0391851b1c81165f908152600189526040812060060154905b86811061077d575b505050610778906129ee565b610724565b6107878186612af2565b51821161079c57610797906129ee565b610764565b90915f1987810188811161082f575b8381116107e85750508392916107df916107c76107789661276f565b905490891b1c166107d8828c612af2565b5285612af2565b5290888061076c565b8181019080821161082f57610819828d610812848861080a61082a9885612af2565b511692612af2565b5289612af2565b51610824828a612af2565b52612bb2565b6107ab565b634e487b7160e01b5f52601160045260245ffd5b6106ed565b3461018e57604036600319011261018e57610884600435610867612446565b90805f525f60205261087f600160405f200154612891565b61292e565b005b3461018e575f36600319011261018e575f8060045490600554926006545f9460039586545b8082106108d457505060a095506040519485526020850152604084015260608301526080820152f35b909461093961093f916108e68861276f565b90546001600160a01b03918c1b1c81165f9081526001602081815260409092206007015492999092610917916129fc565b988c6109228c61276f565b9054911b1c165f5252600860405f200154906129fc565b956129ee565b906108ab565b3461018e575f36600319011261018e576020600454604051908152f35b3461018e57602036600319011261018e576001600160a01b0380610984612430565b165f52600160205260405f20908154166109a0600183016127f0565b916109ad600282016127f0565b60058201549160ff8084169360081c1660068201546007830154600884015491600985015493610a1060ff600b600a8901549801541697610a026040519c8d9c8d5260208d61016091829101528d019061247d565b908b820360408d015261247d565b97610a1a816124fd565b60608a0152610a28816124fd565b608089015260a088015260c087015260e086015261010085015261012084015215156101408301520390f35b3461018e57602036600319011261018e576001600160a01b03610a75612430565b165f526001602052602060ff600b60405f200154166040519015158152f35b3461018e57602036600319011261018e5760043560035481101561018e57610abd60209161276f565b905460405160039290921b1c6001600160a01b03168152f35b3461018e575f36600319011261018e5760206040515f8152f35b3461018e57604036600319011261018e57610b09612430565b335f9081527fe3994c8c7a6539ba60d44a53d1460f677e2baaf41a55da4e896e1048937fdb0d602052604090205460243591907ff291841473a74a165070591654d814ac4c3cf5400bd666c7a6107a65e2849a7f9060ff161561029e57506001600160a01b03165f818152600160205260409020600b015490919060ff161561028c57815f52600160205260405f20906006820180549160086007850194610bb186546129ee565b80965501610bc08282546129fc565b809155600a8502858104600a148615171561082f577fc2fd17ad7e9f23b8607f0bd02d7a6cdcccd5a964fa99ce5a066ed34c5b4bb55b958793610c30604093662386f26fc100007fd806e052837dcc0fc1ff66af9c75b4736a5daf744fc7640e6fc0d610f30538729604906129fc565b80965582519182526020820152a260408051928352602083019190915242908201528060608101610287565b3461018e57602036600319011261018e576004356001600160401b03811161018e57610c8c903690600401612640565b610c94612a09565b506020610caa604051928381519384920161245c565b60029082019081528190036020019020546001600160a01b0390811690811561028c57610343915f52600160205260ff600b60405f2060405193610ced85612603565b8154168452610cfe600182016127f0565b6020850152610d0f600282016127f0565b6040850152610d2060038201612a6c565b6060850152610d3160048201612a6c565b6080850152826005820154818116610d48816124fd565b60a087015260081c16610d5a816124fd565b60c0850152600681015460e0850152600781015461010085015260088101546101208501526009810154610140850152600a81015461016085015201541615156101808201526040519182918261251b565b3461018e5760c036600319011261018e576004356001600160401b03811161018e57610ddc903690600401612640565b6024356001600160401b03811161018e57610dfb903690600401612640565b906044356001600160401b03811161018e57610e1b9036906004016126ac565b6064356001600160401b03811161018e57610e3a9036906004016126ac565b906003608435101561018e57600360a435101561018e57335f52600160205260ff600b60405f2001541661170c578251156116fa578051156116e8576040518351610e8981836020880161245c565b60029082019081528190036020019020546001600160a01b03166116d65760405193610eb485612603565b338552836020860152604085015260608401526080830152610ed76084356124fd565b60843560a0830152610eea60a4356124fd565b60a43560c08301525f60e08301525f6101008301525f61012083015242610140830152426101608301526001610180830152335f52600160205260405f209060018060a01b038351166bffffffffffffffffffffffff60a01b83541617825560208301519283516001600160401b03811161125857610f6c60018501546127b8565b601f81116116a3575b506020601f82116001146116385781929394955f9261162d575b50508160011b915f199060031b1c19161760018401555b60408101519283516001600160401b03811161125857610fc960028301546127b8565b601f81116115ef575b506020601f82116001146115845781929394955f92611579575b50508160011b915f199060031b1c19161760028201555b6060820151805190600160401b8211611258576003830154826003850155808310611505575b5060200190600383015f5260205f20915f905b8282106113f857505050506080820151805190600160401b8211611258576004830154826004850155808310611384575b5060200190600483015f5260205f20915f905b82821061126c578686610180600b886110c1600582016110ad60a08701516110a7816124fd565b826129b7565b60c0860151906110bc826124fd565b6129cf565b60e08401516006820155610100840151600782015561012084015160088201556101408401516009820155610160840151600a82015501910151151560ff80198354169116179055604051602081835161111e818385880161245c565b81016002815203019020336bffffffffffffffffffffffff60a01b825416179055600354600160401b8110156112585780600161115e920160035561276f565b81546001600160a01b0360039290921b91821b19163390911b179055600454611186906129ee565b60045561119460a4356124fd565b60a435611202576111a66005546129ee565b6005555b7fccaff10b98f5bfae66b69cb82b96c11d93734a8aedbb9d84af451e892c6e40e66111e06040519260608452606084019061247d565b916111ec60a4356124fd565b60a43560208201524260408201528033930390a2005b61120d60a4356124fd565b60a43560010361122a576112226006546129ee565b6006556111aa565b61123560a4356124fd565b600260a435036111aa5761124a6005546129ee565b6005556112226006546129ee565b634e487b7160e01b5f52604160045260245ffd5b80518051906001600160401b0382116112585761128986546127b8565b601f8111611349575b50602090601f83116001146112dd5792826001949360209386955f926112d2575b50505f19600383901b1c191690841b1787555b01940191019092611080565b015190508c806112b3565b90865f5260205f20915f5b601f1985168110611331575083602093600196938796938794601f19811610611319575b505050811b0187556112c6565b01515f1960f88460031b161c191690558c808061130c565b919260206001819286850151815501940192016112e8565b61137490875f5260205f206005601f8601811c8201926020871061137a575b601f01901c01906129a1565b89611292565b9192508291611368565b600484015f5260205f20908382015b81830181106113a357505061106d565b806113b0600192546127b8565b806113bd575b5001611393565b601f811183146113d257505f81555b896113b6565b5f908282526113ef601f60208420920160051c82018583016129a1565b818355556113cc565b80518051906001600160401b0382116112585761141586546127b8565b601f81116114d5575b50602090601f83116001146114695792826001949360209386955f9261145e575b50505f19600383901b1c191690841b1787555b0194019101909261103c565b015190508c8061143f565b90865f5260205f20915f5b601f19851681106114bd575083602093600196938796938794601f198116106114a5575b505050811b018755611452565b01515f1960f88460031b161c191690558c8080611498565b91926020600181928685015181550194019201611474565b6114ff90875f5260205f206005601f8601811c8201926020871061137a57601f01901c01906129a1565b8961141e565b600384015f5260205f20908382015b8183018110611524575050611029565b80611531600192546127b8565b8061153e575b5001611514565b601f8111831461155357505f81555b89611537565b5f90828252611570601f60208420920160051c82018583016129a1565b8183555561154d565b015190508580610fec565b600283015f5260205f20905f5b601f19841681106115d7575060019394959683601f198116106115bf575b505050811b016002820155611003565b01515f1960f88460031b161c191690558580806115af565b9091602060018192858b015181550193019101611591565b61161d90600284015f5260205f20601f840160051c81019160208510611623575b601f0160051c01906129a1565b85610fd2565b9091508190611610565b015190508580610f8f565b600185015f5260205f20905f5b601f198416811061168b575060019394959683601f19811610611673575b505050811b016001840155610fa6565b01515f1960f88460031b161c19169055858080611663565b9091602060018192858b015181550193019101611645565b6116d090600186015f5260205f20601f840160051c8101916020851061162357601f0160051c01906129a1565b85610f75565b604051639e9987d960e01b8152600490fd5b60405163151e13e560e01b8152600490fd5b604051634ccdfcb560e11b8152600490fd5b6040516337450d8560e11b8152600490fd5b3461018e57604036600319011261018e57611737612446565b6004355f525f60205260405f209060018060a01b03165f52602052602060ff60405f2054166040519015158152f35b3461018e575f36600319011261018e5760206040517fa49807205ce4d355092ef5a8a18f56e8913cf4a201fbe287825b095693c217758152f35b3461018e5760208060031936011261018e5760043560038082101561018e578054915f805b84811061186f57506117d690612ac0565b935f915f5b8581106117f05760405180610343898261272c565b6117f98161276f565b90546001600160a01b0391871b1c81165f908152600185526040902060050154839060ff16611827826124fd565b611830816124fd565b14611845575b50611840906129ee565b6117db565b8194611868916118576118409461276f565b905490891b1c166103ed828b612af2565b9390611836565b6118788161276f565b905490851b1c6001600160a01b03165f908152600187526040902060050154839060ff166118a5826124fd565b6118ae816124fd565b146118c2575b6118bd906129ee565b6117c5565b906118cf6118bd916129ee565b9190506118b4565b3461018e575f36600319011261018e57600380545f805b8281106119af57506118ff90612ac0565b915f805b8381106119185760405180610343878261272c565b6119218161276f565b905490841b1c6001600160a01b039081165f9081526001602052604090206005015460081c60ff16611952816124fd565b801590811561199b575b50611971575b5061196c906129ee565b611903565b81926119949161198361196c9461276f565b905490871b1c166103ed8289612af2565b9190611962565b600291506119a8816124fd565b148761195c565b6119b88161276f565b905490851b1c6001600160a01b03165f9081526001602052604090206005015460081c60ff166119e7816124fd565b8015908115611a1a575b50611a05575b611a00906129ee565b6118ee565b90611a12611a00916129ee565b9190506119f7565b60029150611a27816124fd565b14856119f1565b3461018e57604036600319011261018e5761034361069d602435600435612b06565b3461018e575f36600319011261018e57600380545f805b828110611b1b5750611a7890612ac0565b915f805b838110611a915760405180610343878261272c565b611a9a8161276f565b905490841b1c6001600160a01b039081165f9081526001602081905260409091206005015460081c60ff1690611acf826124fd565b8114908115611b07575b50611aee575b50611ae9906129ee565b611a7c565b8192611b0091611983611ae99461276f565b9190611adf565b60029150611b14816124fd565b1487611ad9565b611b248161276f565b60018060a01b03915490861b1c165f5260018060205260ff600560405f20015460081c1690611b52826124fd565b8114908115611b85575b50611b70575b611b6b906129ee565b611a67565b90611b7d611b6b916129ee565b919050611b62565b60029150611b92816124fd565b1485611b5c565b3461018e57602036600319011261018e576004356001600160401b03811161018e57611bcb6020913690600401612640565b81611bdf604051928381519384920161245c565b600290820190815281900382019020546040516001600160a01b039091168152f35b3461018e5760a036600319011261018e576004356001600160401b03811161018e57611c31903690600401612640565b6024356001600160401b03811161018e57611c509036906004016126ac565b6044356001600160401b03811161018e57611c6f9036906004016126ac565b6003606435101561018e576003608435101561018e57335f52600160205260ff600b60405f200154161561028c57335f52600160205260405f209160ff600584015460081c16611cc06084356124fd565b611cc9816124fd565b60843581036121a1575b5083516001600160401b03811161125857611cf160028501546127b8565b601f811161216e575b506020601f82116001146121035781929394955f926120f8575b50508160011b915f199060031b1c19161760028401555b805190600160401b8211611258576003840154826003860155808310612084575b5060200190600384015f5260205f20915f905b828210611f77578585805190600160401b8211611258576004830154826004850155808310611f03575b5060200190600483015f5260205f20915f905b828210611df65784611db3606435600583016129b7565b611dc2608435600583016129cf565b600a429101556040514281527f03754aecf8745159503d95ad9d4b5e5ec503371279ddc036d4ac93cd953f9de260203392a2005b80518051906001600160401b03821161125857611e1386546127b8565b601f8111611ed3575b50602090601f8311600114611e675792826001949360209386955f92611e5c575b50505f19600383901b1c191690841b1787555b01940191019092611d9c565b015190508a80611e3d565b90865f5260205f20915f5b601f1985168110611ebb575083602093600196938796938794601f19811610611ea3575b505050811b018755611e50565b01515f1960f88460031b161c191690558a8080611e96565b91926020600181928685015181550194019201611e72565b611efd90875f5260205f20601f850160051c8101916020861061162357601f0160051c01906129a1565b87611e1c565b600484015f5260205f20908382015b8183018110611f22575050611d89565b80611f2f600192546127b8565b80611f3c575b5001611f12565b601f81118314611f5157505f81555b87611f35565b5f90828252611f6e601f60208420920160051c82018583016129a1565b81835555611f4b565b80518051906001600160401b03821161125857611f9486546127b8565b601f8111612054575b50602090601f8311600114611fe85792826001949360209386955f92611fdd575b50505f19600383901b1c191690841b1787555b01940191019092611d5f565b015190508b80611fbe565b90865f5260205f20915f5b601f198516811061203c575083602093600196938796938794601f19811610612024575b505050811b018755611fd1565b01515f1960f88460031b161c191690558b8080612017565b91926020600181928685015181550194019201611ff3565b61207e90875f5260205f20601f850160051c8101916020861061162357601f0160051c01906129a1565b88611f9d565b600385015f5260205f20908382015b81830181106120a3575050611d4c565b806120b0600192546127b8565b806120bd575b5001612093565b601f811183146120d257505f81555b886120b6565b5f908282526120ef601f60208420920160051c82018583016129a1565b818355556120cc565b015190508580611d14565b600285015f5260205f20905f5b601f1984168110612156575060019394959683601f1981161061213e575b505050811b016002840155611d2b565b01515f1960f88460031b161c1916905585808061212e565b9091602060018192858b015181550193019101612110565b61219b90600286015f5260205f20601f840160051c8101916020851061162357601f0160051c01906129a1565b85611cfa565b6121aa816124fd565b8061223c57506121bb600554612bb2565b6005555b6121ca6084356124fd565b6084356121e6576121dc6005546129ee565b6005555b84611cd3565b6121f16084356124fd565b60843560010361220e576122066006546129ee565b6006556121e0565b6122196084356124fd565b6002608435036121e05761222e6005546129ee565b6005556122066006546129ee565b612245816124fd565b600181036122615750612259600654612bb2565b6006556121bf565b8061226d6002926124fd565b036121bf5761227d600554612bb2565b600555612259600654612bb2565b3461018e575f36600319011261018e5760206040517ff291841473a74a165070591654d814ac4c3cf5400bd666c7a6107a65e2849a7f8152f35b3461018e57604036600319011261018e576122de612446565b336001600160a01b038216036122fa576108849060043561292e565b60405163334bd91960e11b8152600490fd5b3461018e57604036600319011261018e5761088460043561232b612446565b90805f525f602052612343600160405f200154612891565b6128b2565b3461018e57602036600319011261018e576004355f525f6020526020600160405f200154604051908152f35b3461018e57602036600319011261018e5761238d612430565b612395612a09565b506001600160a01b039081165f818152600160205260409020600b015490919060ff161561028c57610343915f52600160205260ff600b60405f2060405193610ced85612603565b3461018e57602036600319011261018e576004359063ffffffff60e01b821680920361018e57602091637965db0b60e01b811490811561241f575b5015158152f35b6301ffc9a760e01b14905083612418565b600435906001600160a01b038216820361018e57565b602435906001600160a01b038216820361018e57565b5f5b83811061246d5750505f910152565b818101518382015260200161245e565b906020916124968151809281855285808601910161245c565b601f01601f1916010190565b908082519081815260208091019281808460051b8301019501935f915b8483106124cf5750505050505090565b90919293949584806124ed600193601f198682030187528a5161247d565b98019301930191949392906124bf565b6003111561250757565b634e487b7160e01b5f52602160045260245ffd5b602080825282516001600160a01b0316828201528201516101a0604083018190529061259890612550906101c085019061247d565b61258361256f604087015192601f19938488830301606089015261247d565b6060870151838783030160808801526124a2565b906080860151908583030160a08601526124a2565b9260a08101516125a7816124fd565b60c084015260c08101516125ba816124fd565b60e084015260e081015161010090818501528101516101209081850152810151610140908185015281015161016090818501528101519061018091828501520151151591015290565b6101a081019081106001600160401b0382111761125857604052565b90601f801991011681019081106001600160401b0382111761125857604052565b81601f8201121561018e578035906001600160401b0382116112585760405192612674601f8401601f19166020018561261f565b8284526020838301011161018e57815f926020809301838601378301015290565b6001600160401b0381116112585760051b60200190565b9080601f8301121561018e578135906126c482612695565b926126d2604051948561261f565b828452602092838086019160051b8301019280841161018e57848301915b8483106127005750505050505090565b82356001600160401b03811161018e57869161272184848094890101612640565b8152019201916126f0565b602090816040818301928281528551809452019301915f5b828110612752575050505090565b83516001600160a01b031685529381019392810192600101612744565b6003548110156127a45760035f527fc2575a0e9e593c00f959f8c92f12db2869c3395a3b0502d05e2516446f71f85b01905f90565b634e487b7160e01b5f52603260045260245ffd5b90600182811c921680156127e6575b60208310146127d257565b634e487b7160e01b5f52602260045260245ffd5b91607f16916127c7565b9060405191825f825492612803846127b8565b9081845260019485811690815f1461286e575060011461282e575b505061282c9250038361261f565b565b909391505f52602090815f20935f915b81831061285657505061282c93508201015f8061281e565b8554888401850152948501948794509183019161283e565b91505061282c94506020925060ff191682840152151560051b8201015f8061281e565b805f525f60205260405f20335f5260205260ff60405f2054161561029e5750565b905f9180835282602052604083209160018060a01b03169182845260205260ff604084205416155f1461292957808352826020526040832082845260205260408320600160ff198254161790557f2f8788117e7eff1d82e926ec794901d17c78024a50270940304540a733656f0d339380a4600190565b505090565b905f9180835282602052604083209160018060a01b03169182845260205260ff6040842054165f146129295780835282602052604083208284526020526040832060ff1981541690557ff6391f5c32d9c69d2a47ea670b442974b53935d1edc7fd64eb21e047a839171b339380a4600190565b8181106129ac575050565b5f81556001016129a1565b906129c1816124fd565b60ff80198354169116179055565b906129d9816124fd565b61ff0082549160081b169061ff001916179055565b5f19811461082f5760010190565b9190820180921161082f57565b60405190612a1682612603565b816101805f918281526060602082015260606040820152606080820152606060808201528260a08201528260c08201528260e0820152826101008201528261012082015282610140820152826101608201520152565b908154612a7881612695565b92612a86604051948561261f565b8184525f90815260208082208186015b848410612aa4575050505050565b6001838192612ab2856127f0565b815201920193019290612a96565b90612aca82612695565b612ad7604051918261261f565b8281528092612ae8601f1991612695565b0190602036910137565b80518210156127a45760209160051b010190565b90600380549182841015612b8857612b1e90846129fc565b91808311612b80575b5082820391821161082f57612b3b82612ac0565b925f5b838110612b4c575050505090565b80612b62612b5d612b7b93856129fc565b61276f565b905490851b1c6001600160a01b03166103ed8288612af2565b612b3e565b91505f612b27565b50505050604051602081018181106001600160401b03821117611258576040525f81525f36813790565b801561082f575f19019056fea264697066735822122061c28e0c2753d266a749c088a3da68ac526d4c533b2fe2d699faa0261d54895364736f6c634300081400332f8788117e7eff1d82e926ec794901d17c78024a50270940304540a733656f0d","linkReferences":{}},"methodIdentifiers":{"ADMIN_ROLE()":"75b238fc","DEFAULT_ADMIN_ROLE()":"a217fddf","REPUTATION_UPDATER_ROLE()":"38e68979","allUsers(uint256)":"a2bdedf4","createProfile(string,string,string[],string[],uint8,uint8)":"9833b60f","getAllContributors()":"51f890ea","getAllMaintainers()":"428be84f","getAllUsers()":"e2842d79","getProfile(address)":"0f53a470","getProfileByGithub(string)":"9d65e252","getRoleAdmin(bytes32)":"248a9ca3","getStats()":"c59d4847","getTopContributors(uint256)":"de710365","getUsersByExperience(uint8)":"5c204e85","getUsersByTechStack(string)":"e5343b38","getUsersByTopic(string)":"f164df9a","getUsersPaginated(uint256,uint256)":"505163c8","githubUsernameToAddress(string)":"3b88a0ab","grantRole(bytes32,address)":"2f2ff15d","hasProfile(address)":"a787c80b","hasRole(bytes32,address)":"91d14854","profiles(address)":"bbe15627","recordIssueCompletion(address,uint256)":"9d81e143","renounceRole(bytes32,address)":"36568abe","revokeRole(bytes32,address)":"d547741f","supportsInterface(bytes4)":"01ffc9a7","totalContributors()":"f251fc8c","totalMaintainers()":"fc9c6a15","totalUsers()":"bff1f9e1","updateProfile(string,string[],string[],uint8,uint8)":"398232d9","updateReputation(address,uint256)":"f5c91a08"},"id":27}