{"abi":[{"type":"constructor","inputs":[],"stateMutability":"nonpayable"},{"type":"function","name":"ADMIN_ROLE","inputs":[],"outputs":[{"name":"","type":"bytes32","internalType":"bytes32"}],"stateMutability":"view"},{"type":"function","name":"DEFAULT_ADMIN_ROLE","inputs":[],"outputs":[{"name":"","type":"bytes32","internalType":"bytes32"}],"stateMutability":"view"},{"type":"function","name":"REPUTATION_UPDATER_ROLE","inputs":[],"outputs":[{"name":"","type":"bytes32","internalType":"bytes32"}],"stateMutability":"view"},{"type":"function","name":"allUsers","inputs":[{"name":"","type":"uint256","internalType":"uint256"}],"outputs":[{"name":"","type":"address","internalType":"address"}],"stateMutability":"view"},{"type":"function","name":"createProfile","inputs":[{"name":"_githubUsername","type":"string","internalType":"string"},{"name":"_bio","type":"string","internalType":"string"},{"name":"_techStack","type":"string[]","internalType":"string[]"},{"name":"_topics","type":"string[]","internalType":"string[]"},{"name":"_experience","type":"uint8","internalType":"enum ProfileRegistry.ExperienceLevel"},{"name":"_role","type":"uint8","internalType":"enum ProfileRegistry.Role"}],"outputs":[],"stateMutability":"nonpayable"},{"type":"function","name":"getAllContributors","inputs":[],"outputs":[{"name":"","type":"address[]","internalType":"address[]"}],"stateMutability":"view"},{"type":"function","name":"getAllMaintainers","inputs":[],"outputs":[{"name":"","type":"address[]","internalType":"address[]"}],"stateMutability":"view"},{"type":"function","name":"getAllUsers","inputs":[],"outputs":[{"name":"","type":"address[]","internalType":"address[]"}],"stateMutability":"view"},{"type":"function","name":"getProfile","inputs":[{"name":"_user","type":"address","internalType":"address"}],"outputs":[{"name":"","type":"tuple","internalType":"struct ProfileRegistry.Profile","components":[{"name":"wallet","type":"address","internalType":"address"},{"name":"githubUsername","type":"string","internalType":"string"},{"name":"bio","type":"string","internalType":"string"},{"name":"techStack","type":"string[]","internalType":"string[]"},{"name":"topics","type":"string[]","internalType":"string[]"},{"name":"experience","type":"uint8","internalType":"enum ProfileRegistry.ExperienceLevel"},{"name":"role","type":"uint8","internalType":"enum ProfileRegistry.Role"},{"name":"reputationScore","type":"uint256","internalType":"uint256"},{"name":"completedIssues","type":"uint256","internalType":"uint256"},{"name":"totalEarned","type":"uint256","internalType":"uint256"},{"name":"createdAt","type":"uint256","internalType":"uint256"},{"name":"updatedAt","type":"uint256","internalType":"uint256"},{"name":"exists","type":"bool","internalType":"bool"}]}],"stateMutability":"view"},{"type":"function","name":"getProfileByGithub","inputs":[{"name":"_githubUsername","type":"string","internalType":"string"}],"outputs":[{"name":"","type":"tuple","internalType":"struct ProfileRegistry.Profile","components":[{"name":"wallet","type":"address","internalType":"address"},{"name":"githubUsername","type":"string","internalType":"string"},{"name":"bio","type":"string","internalType":"string"},{"name":"techStack","type":"string[]","internalType":"string[]"},{"name":"topics","type":"string[]","internalType":"string[]"},{"name":"experience","type":"uint8","internalType":"enum ProfileRegistry.ExperienceLevel"},{"name":"role","type":"uint8","internalType":"enum ProfileRegistry.Role"},{"name":"reputationScore","type":"uint256","internalType":"uint256"},{"name":"completedIssues","type":"uint256","internalType":"uint256"},{"name":"totalEarned","type":"uint256","internalType":"uint256"},{"name":"createdAt","type":"uint256","internalType":"uint256"},{"name":"updatedAt","type":"uint256","internalType":"uint256"},{"name":"exists","type":"bool","internalType":"bool"}]}],"stateMutability":"view"},{"type":"function","name":"getRoleAdmin","inputs":[{"name":"role","type":"bytes32","internalType":"bytes32"}],"outputs":[{"name":"","type":"bytes32","internalType":"bytes32"}],"stateMutability":"view"},{"type":"function","name":"getStats","inputs":[],"outputs":[{"name":"totalUsers_","type":"uint256","internalType":"uint256"},{"name":"totalContributors_","type":"uint256","internalType":"uint256"},{"name":"totalMaintainers_","type":"uint256","internalType":"uint256"},{"name":"totalIssuesCompleted","type":"uint256","internalType":"uint256"},{"name":"totalTipsEarned","type":"uint256","internalType":"uint256"}],"stateMutability":"view"},{"type":"function","name":"getTopContributors","inputs":[{"name":"_limit","type":"uint256","internalType":"uint256"}],"outputs":[{"name":"","type":"address[]","internalType":"address[]"}],"stateMutability":"view"},{"type":"function","name":"getUsersByExperience","inputs":[{"name":"_experience","type":"uint8","internalType":"enum ProfileRegistry.ExperienceLevel"}],"outputs":[{"name":"","type":"address[]","internalType":"address[]"}],"stateMutability":"view"},{"type":"function","name":"getUsersByTechStack","inputs":[{"name":"_tech","type":"string","internalType":"string"}],"outputs":[{"name":"","type":"address[]","internalType":"address[]"}],"stateMutability":"view"},{"type":"function","name":"getUsersByTopic","inputs":[{"name":"_topic","type":"string","internalType":"string"}],"outputs":[{"name":"","type":"address[]","internalType":"address[]"}],"stateMutability":"view"},{"type":"function","name":"getUsersPaginated","inputs":[{"name":"_offset","type":"uint256","internalType":"uint256"},{"name":"_limit","type":"uint256","internalType":"uint256"}],"outputs":[{"name":"","type":"address[]","internalType":"address[]"}],"stateMutability":"view"},{"type":"function","name":"githubUsernameToAddress","inputs":[{"name":"","type":"string","internalType":"string"}],"outputs":[{"name":"","type":"address","internalType":"address"}],"stateMutability":"view"},{"type":"function","name":"grantRole","inputs":[{"name":"role","type":"bytes32","internalType":"bytes32"},{"name":"account","type":"address","internalType":"address"}],"outputs":[],"stateMutability":"nonpayable"},{"type":"function","name":"hasProfile","inputs":[{"name":"_user","type":"address","internalType":"address"}],"outputs":[{"name":"","type":"bool","internalType":"bool"}],"stateMutability":"view"},{"type":"function","name":"hasRole","inputs":[{"name":"role","type":"bytes32","internalType":"bytes32"},{"name":"account","type":"address","internalType":"address"}],"outputs":[{"name":"","type":"bool","internalType":"bool"}],"stateMutability":"view"},{"type":"function","name":"profiles","inputs":[{"name":"","type":"address","internalType":"address"}],"outputs":[{"name":"wallet","type":"address","internalType":"address"},{"name":"githubUsername","type":"string","internalType":"string"},{"name":"bio","type":"string","internalType":"string"},{"name":"experience","type":"uint8","internalType":"enum ProfileRegistry.ExperienceLevel"},{"name":"role","type":"uint8","internalType":"enum ProfileRegistry.Role"},{"name":"reputationScore","type":"uint256","internalType":"uint256"},{"name":"completedIssues","type":"uint256","internalType":"uint256"},{"name":"totalEarned","type":"uint256","internalType":"uint256"},{"name":"createdAt","type":"uint256","internalType":"uint256"},{"name":"updatedAt","type":"uint256","internalType":"uint256"},{"name":"exists","type":"bool","internalType":"bool"}],"stateMutability":"view"},{"type":"function","name":"recordIssueCompletion","inputs":[{"name":"_user","type":"address","internalType":"address"},{"name":"_tipAmount","type":"uint256","internalType":"uint256"}],"outputs":[],"stateMutability":"nonpayable"},{"type":"function","name":"renounceRole","inputs":[{"name":"role","type":"bytes32","internalType":"bytes32"},{"name":"callerConfirmation","type":"address","internalType":"address"}],"outputs":[],"stateMutability":"nonpayable"},{"type":"function","name":"revokeRole","inputs":[{"name":"role","type":"bytes32","internalType":"bytes32"},{"name":"account","type":"address","internalType":"address"}],"outputs":[],"stateMutability":"nonpayable"},{"type":"function","name":"supportsInterface","inputs":[{"name":"interfaceId","type":"bytes4","internalType":"bytes4"}],"outputs":[{"name":"","type":"bool","internalType":"bool"}],"stateMutability":"view"},{"type":"function","name":"totalContributors","inputs":[],"outputs":[{"name":"","type":"uint256","internalType":"uint256"}],"stateMutability":"view"},{"type":"function","name":"totalMaintainers","inputs":[],"outputs":[{"name":"","type":"uint256","internalType":"uint256"}],"stateMutability":"view"},{"type":"function","name":"totalUsers","inputs":[],"outputs":[{"name":"","type":"uint256","internalType":"uint256"}],"stateMutability":"view"},{"type":"function","name":"updateProfile","inputs":[{"name":"_bio","type":"string","internalType":"string"},{"name":"_techStack","type":"string[]","internalType":"string[]"},{"name":"_topics","type":"string[]","internalType":"string[]"},{"name":"_experience","type":"uint8","internalType":"enum ProfileRegistry.ExperienceLevel"},{"name":"_role","type":"uint8","internalType":"enum ProfileRegistry.Role"}],"outputs":[],"stateMutability":"nonpayable"},{"type":"function","name":"updateReputation","inputs":[{"name":"_user","type":"address","internalType":"address"},{"name":"_newScore","type":"uint256","internalType":"uint256"}],"outputs":[],"stateMutability":"nonpayable"},{"type":"event","name":"IssueCompletionRecorded","inputs":[{"name":"user","type":"address","indexed":true,"internalType":"address"},{"name":"issueCount","type":"uint256","indexed":false,"internalType":"uint256"},{"name":"tipAmount","type":"uint256","indexed":false,"internalType":"uint256"}],"anonymous":false},{"type":"event","name":"ProfileCreated","inputs":[{"name":"user","type":"address","indexed":true,"internalType":"address"},{"name":"githubUsername","type":"string","indexed":false,"internalType":"string"},{"name":"role","type":"uint8","indexed":false,"internalType":"enum ProfileRegistry.Role"},{"name":"timestamp","type":"uint256","indexed":false,"internalType":"uint256"}],"anonymous":false},{"type":"event","name":"ProfileUpdated","inputs":[{"name":"user","type":"address","indexed":true,"internalType":"address"},{"name":"timestamp","type":"uint256","indexed":false,"internalType":"uint256"}],"anonymous":false},{"type":"event","name":"ReputationUpdated","inputs":[{"name":"user","type":"address","indexed":true,"internalType":"address"},{"name":"oldScore","type":"uint256","indexed":false,"internalType":"uint256"},{"name":"newScore","type":"uint256","indexed":false,"internalType":"uint256"},{"name":"timestamp","type":"uint256","indexed":false,"internalType":"uint256"}],"anonymous":false},{"type":"event","name":"RoleAdminChanged","inputs":[{"name":"role","type":"bytes32","indexed":true,"internalType":"bytes32"},{"name":"previousAdminRole","type":"bytes32","indexed":true,"internalType":"bytes32"},{"name":"newAdminRole","type":"bytes32","indexed":true,"internalType":"bytes32"}],"anonymous":false},{"type":"event","name":"RoleGranted","inputs":[{"name":"role","type":"bytes32","indexed":true,"internalType":"bytes32"},{"name":"account","type":"address","indexed":true,"internalType":"address"},{"name":"sender","type":"address","indexed":true,"internalType":"address"}],"anonymous":false},{"type":"event","name":"RoleRevoked","inputs":[{"name":"role","type":"bytes32","indexed":true,"internalType":"bytes32"},{"name":"account","type":"address","indexed":true,"internalType":"address"},{"name":"sender","type":"address","indexed":true,"internalType":"address"}],"anonymous":false},{"type":"error","name":"AccessControlBadConfirmation","inputs":[]},{"type":"error","name":"AccessControlUnauthorizedAccount","inputs":[{"name":"account","type":"address","internalType":"address"},{"name":"neededRole","type":"bytes32","internalType":"bytes32"}]},{"type":"error","name":"EmptyTechStack","inputs":[]},{"type":"error","name":"EmptyUsername","inputs":[]},{"type":"error","name":"InvalidAddress","inputs":[]},{"type":"error","name":"ProfileAlreadyExists","inputs":[]},{"type":"error","name":"ProfileDoesNotExist","inputs":[]},{"type":"error","name":"Unauthorized","inputs":[]},{"type":"error","name":"UsernameAlreadyTaken","inputs":[]}],"bytecode":{"object":"0x608060405234801562000010575f80fd5b506200001d5f3362000051565b506200004a7fa49807205ce4d355092ef5a8a18f56e8913cf4a201fbe287825b095693c217753362000051565b50620000fd565b5f828152602081815260408083206001600160a01b038516845290915281205460ff16620000f4575f838152602081815260408083206001600160a01b03861684529091529020805460ff19166001179055620000ab3390565b6001600160a01b0316826001600160a01b0316847f2f8788117e7eff1d82e926ec794901d17c78024a50270940304540a733656f0d60405160405180910390a4506001620000f7565b505f5b92915050565b6134f4806200010b5f395ff3fe608060405234801561000f575f80fd5b50600436106101dc575f3560e01c80639d65e25211610109578063d547741f1161009e578063f164df9a1161006e578063f164df9a146104a8578063f251fc8c146104bb578063f5c91a08146104c4578063fc9c6a15146104d7575f80fd5b8063d547741f14610467578063de7103651461047a578063e2842d791461048d578063e5343b3814610495575f80fd5b8063a787c80b116100d9578063a787c80b146103d6578063bbe1562714610404578063bff1f9e11461042e578063c59d484714610437575f80fd5b80639d65e252146103965780639d81e143146103a9578063a217fddf146103bc578063a2bdedf4146103c3575f80fd5b80633b88a0ab1161017f5780635c204e851161014f5780635c204e851461033657806375b238fc1461034957806391d14854146103705780639833b60f14610383575f80fd5b80633b88a0ab146102ba578063428be84f14610306578063505163c81461031b57806351f890ea1461032e575f80fd5b80632f2ff15d116101ba5780632f2ff15d1461025857806336568abe1461026d57806338e6897914610280578063398232d9146102a7575f80fd5b806301ffc9a7146101e05780630f53a47014610208578063248a9ca314610228575b5f80fd5b6101f36101ee366004612bbb565b6104e0565b60405190151581526020015b60405180910390f35b61021b610216366004612c04565b610516565b6040516101ff9190612cfa565b61024a610236366004612e05565b5f9081526020819052604090206001015490565b6040519081526020016101ff565b61026b610266366004612e1c565b61090b565b005b61026b61027b366004612e1c565b610935565b61024a7ff291841473a74a165070591654d814ac4c3cf5400bd666c7a6107a65e2849a7f81565b61026b6102b5366004612fa6565b61096d565b6102ee6102c836600461304e565b80516020818301810180516002825292820191909301209152546001600160a01b031681565b6040516001600160a01b0390911681526020016101ff565b61030e610ac9565b6040516101ff9190613087565b61030e6103293660046130d3565b610ccc565b61030e610de2565b61030e6103443660046130f3565b610fd8565b61024a7fa49807205ce4d355092ef5a8a18f56e8913cf4a201fbe287825b095693c2177581565b6101f361037e366004612e1c565b6111ac565b61026b61039136600461310e565b6111d4565b61021b6103a436600461304e565b6115b5565b61026b6103b73660046131d2565b6118f9565b61024a5f81565b6102ee6103d1366004612e05565b611a85565b6101f36103e4366004612c04565b6001600160a01b03165f908152600160205260409020600b015460ff1690565b610417610412366004612c04565b611aad565b6040516101ff9b9a999897969594939291906131fa565b61024a60045481565b61043f611c23565b604080519586526020860194909452928401919091526060830152608082015260a0016101ff565b61026b610475366004612e1c565b611ce6565b61030e610488366004612e05565b611d0a565b61030e611f88565b61030e6104a336600461304e565b611fe8565b61030e6104b636600461304e565b612396565b61024a60055481565b61026b6104d23660046131d2565b612744565b61024a60065481565b5f6001600160e01b03198216637965db0b60e01b148061051057506301ffc9a760e01b6001600160e01b03198316145b92915050565b61051e612a8a565b6001600160a01b0382165f908152600160205260409020600b0154829060ff1661055b57604051635a05a1b160e01b815260040160405180910390fd5b6001600160a01b038084165f9081526001602081815260409283902083516101a081019094528054909416835290830180549293929184019161059d9061328a565b80601f01602080910402602001604051908101604052809291908181526020018280546105c99061328a565b80156106145780601f106105eb57610100808354040283529160200191610614565b820191905f5260205f20905b8154815290600101906020018083116105f757829003601f168201915b5050505050815260200160028201805461062d9061328a565b80601f01602080910402602001604051908101604052809291908181526020018280546106599061328a565b80156106a45780601f1061067b576101008083540402835291602001916106a4565b820191905f5260205f20905b81548152906001019060200180831161068757829003601f168201915b5050505050815260200160038201805480602002602001604051908101604052809291908181526020015f905b82821015610779578382905f5260205f200180546106ee9061328a565b80601f016020809104026020016040519081016040528092919081815260200182805461071a9061328a565b80156107655780601f1061073c57610100808354040283529160200191610765565b820191905f5260205f20905b81548152906001019060200180831161074857829003601f168201915b5050505050815260200190600101906106d1565b50505050815260200160048201805480602002602001604051908101604052809291908181526020015f905b8282101561084d578382905f5260205f200180546107c29061328a565b80601f01602080910402602001604051908101604052809291908181526020018280546107ee9061328a565b80156108395780601f1061081057610100808354040283529160200191610839565b820191905f5260205f20905b81548152906001019060200180831161081c57829003601f168201915b5050505050815260200190600101906107a5565b50505090825250600582015460209091019060ff16600281111561087357610873612cbd565b600281111561088457610884612cbd565b81526020016005820160019054906101000a900460ff1660028111156108ac576108ac612cbd565b60028111156108bd576108bd612cbd565b815260068201546020820152600782015460408201526008820154606082015260098201546080820152600a82015460a0820152600b9091015460ff16151560c09091015291505b50919050565b5f8281526020819052604090206001015461092581612815565b61092f8383612822565b50505050565b6001600160a01b038116331461095e5760405163334bd91960e11b815260040160405180910390fd5b61096882826128b1565b505050565b335f818152600160205260409020600b015460ff1661099f57604051635a05a1b160e01b815260040160405180910390fd5b335f9081526001602052604090208260028111156109bf576109bf612cbd565b6005820154610100900460ff1660028111156109dd576109dd612cbd565b146109f95760058101546109f990610100900460ff168461291a565b60028101610a078882613309565b508551610a1d9060038301906020890190612b05565b508451610a339060048301906020880190612b05565b5060058101805485919060ff19166001836002811115610a5557610a55612cbd565b021790555060058101805484919061ff001916610100836002811115610a7d57610a7d612cbd565b021790555042600a820181905560405190815233907f03754aecf8745159503d95ad9d4b5e5ec503371279ddc036d4ac93cd953f9de2906020015b60405180910390a250505050505050565b60605f805b600354811015610b78575f60015f60038481548110610aef57610aef6133c4565b5f9182526020808320909101546001600160a01b0316835282019290925260400190206005015460ff6101009091041690506001816002811115610b3557610b35612cbd565b1480610b5257506002816002811115610b5057610b50612cbd565b145b15610b655782610b61816133ec565b9350505b5080610b70816133ec565b915050610ace565b505f816001600160401b03811115610b9257610b92612e46565b604051908082528060200260200182016040528015610bbb578160200160208202803683370190505b5090505f805b600354811015610cc3575f60015f60038481548110610be257610be26133c4565b5f9182526020808320909101546001600160a01b0316835282019290925260400190206005015460ff6101009091041690506001816002811115610c2857610c28612cbd565b1480610c4557506002816002811115610c4357610c43612cbd565b145b15610cb05760038281548110610c5d57610c5d6133c4565b905f5260205f20015f9054906101000a90046001600160a01b0316848481518110610c8a57610c8a6133c4565b6001600160a01b039092166020928302919091019091015282610cac816133ec565b9350505b5080610cbb816133ec565b915050610bc1565b50909392505050565b6003546060908310610cec5750604080515f815260208101909152610510565b5f610cf78385613404565b600354909150811115610d0957506003545b5f610d148583613417565b90505f816001600160401b03811115610d2f57610d2f612e46565b604051908082528060200260200182016040528015610d58578160200160208202803683370190505b5090505f5b82811015610dd8576003610d718289613404565b81548110610d8157610d816133c4565b905f5260205f20015f9054906101000a90046001600160a01b0316828281518110610dae57610dae6133c4565b6001600160a01b039092166020928302919091019091015280610dd0816133ec565b915050610d5d565b5095945050505050565b60605f805b600354811015610e8f575f60015f60038481548110610e0857610e086133c4565b5f9182526020808320909101546001600160a01b0316835282019290925260400181206005015460ff610100909104169150816002811115610e4c57610e4c612cbd565b1480610e6957506002816002811115610e6757610e67612cbd565b145b15610e7c5782610e78816133ec565b9350505b5080610e87816133ec565b915050610de7565b505f816001600160401b03811115610ea957610ea9612e46565b604051908082528060200260200182016040528015610ed2578160200160208202803683370190505b5090505f805b600354811015610cc3575f60015f60038481548110610ef957610ef96133c4565b5f9182526020808320909101546001600160a01b0316835282019290925260400181206005015460ff610100909104169150816002811115610f3d57610f3d612cbd565b1480610f5a57506002816002811115610f5857610f58612cbd565b145b15610fc55760038281548110610f7257610f726133c4565b905f5260205f20015f9054906101000a90046001600160a01b0316848481518110610f9f57610f9f6133c4565b6001600160a01b039092166020928302919091019091015282610fc1816133ec565b9350505b5080610fd0816133ec565b915050610ed8565b60605f805b60035481101561106f57836002811115610ff957610ff9612cbd565b60015f6003848154811061100f5761100f6133c4565b5f9182526020808320909101546001600160a01b0316835282019290925260400190206005015460ff16600281111561104a5761104a612cbd565b0361105d5781611059816133ec565b9250505b80611067816133ec565b915050610fdd565b505f816001600160401b0381111561108957611089612e46565b6040519080825280602002602001820160405280156110b2578160200160208202803683370190505b5090505f805b6003548110156111a2578560028111156110d4576110d4612cbd565b60015f600384815481106110ea576110ea6133c4565b5f9182526020808320909101546001600160a01b0316835282019290925260400190206005015460ff16600281111561112557611125612cbd565b03611190576003818154811061113d5761113d6133c4565b905f5260205f20015f9054906101000a90046001600160a01b031683838151811061116a5761116a6133c4565b6001600160a01b03909216602092830291909101909101528161118c816133ec565b9250505b8061119a816133ec565b9150506110b8565b5090949350505050565b5f918252602082815260408084206001600160a01b0393909316845291905290205460ff1690565b335f818152600160205260409020600b015460ff1615611207576040516337450d8560e11b815260040160405180910390fd5b86515f0361122857604051634ccdfcb560e11b815260040160405180910390fd5b84515f036112495760405163151e13e560e01b815260040160405180910390fd5b5f6001600160a01b0316600288604051611263919061342a565b908152604051908190036020019020546001600160a01b03161461129a57604051639e9987d960e01b815260040160405180910390fd5b604051806101a00160405280336001600160a01b031681526020018881526020018781526020018681526020018581526020018460028111156112df576112df612cbd565b81526020018360028111156112f6576112f6612cbd565b81525f6020808301829052604080840183905260608401839052426080850181905260a0850152600160c0909401849052338352838252909120835181546001600160a01b0319166001600160a01b0390911617815590830151909182019061135f9082613309565b50604082015160028201906113749082613309565b5060608201518051611390916003840191602090910190612b05565b50608082015180516113ac916004840191602090910190612b05565b5060a082015160058201805460ff191660018360028111156113d0576113d0612cbd565b021790555060c082015160058201805461ff0019166101008360028111156113fa576113fa612cbd565b021790555060e08201516006820155610100820151600782015561012082015160088201556101408201516009820155610160820151600a82015561018090910151600b909101805460ff19169115159190911790556040513390600290611463908a9061342a565b90815260405190819003602001902080546001600160a01b03929092166001600160a01b0319928316179055600380546001810182555f9182527fc2575a0e9e593c00f959f8c92f12db2869c3395a3b0502d05e2516446f71f85b018054909216331790915560048054916114d7836133ec565b909155505f90508260028111156114f0576114f0612cbd565b0361150e5760058054905f611504836133ec565b9190505550611578565b600182600281111561152257611522612cbd565b036115365760068054905f611504836133ec565b600282600281111561154a5761154a612cbd565b036115785760058054905f61155e836133ec565b909155505060068054905f611572836133ec565b91905055505b336001600160a01b03167fccaff10b98f5bfae66b69cb82b96c11d93734a8aedbb9d84af451e892c6e40e6888442604051610ab893929190613445565b6115bd612a8a565b5f6002836040516115ce919061342a565b908152604051908190036020019020546001600160a01b031690508061160757604051635a05a1b160e01b815260040160405180910390fd5b6001600160a01b038082165f9081526001602081815260409283902083516101a08101909452805490941683529083018054929392918401916116499061328a565b80601f01602080910402602001604051908101604052809291908181526020018280546116759061328a565b80156116c05780601f10611697576101008083540402835291602001916116c0565b820191905f5260205f20905b8154815290600101906020018083116116a357829003601f168201915b505050505081526020016002820180546116d99061328a565b80601f01602080910402602001604051908101604052809291908181526020018280546117059061328a565b80156117505780601f1061172757610100808354040283529160200191611750565b820191905f5260205f20905b81548152906001019060200180831161173357829003601f168201915b5050505050815260200160038201805480602002602001604051908101604052809291908181526020015f905b82821015611825578382905f5260205f2001805461179a9061328a565b80601f01602080910402602001604051908101604052809291908181526020018280546117c69061328a565b80156118115780601f106117e857610100808354040283529160200191611811565b820191905f5260205f20905b8154815290600101906020018083116117f457829003601f168201915b50505050508152602001906001019061177d565b50505050815260200160048201805480602002602001604051908101604052809291908181526020015f905b8282101561084d578382905f5260205f2001805461186e9061328a565b80601f016020809104026020016040519081016040528092919081815260200182805461189a9061328a565b80156118e55780601f106118bc576101008083540402835291602001916118e5565b820191905f5260205f20905b8154815290600101906020018083116118c857829003601f168201915b505050505081526020019060010190611851565b7ff291841473a74a165070591654d814ac4c3cf5400bd666c7a6107a65e2849a7f61192381612815565b6001600160a01b0383165f908152600160205260409020600b0154839060ff1661196057604051635a05a1b160e01b815260040160405180910390fd5b6001600160a01b0384165f90815260016020526040812060068101546007820180549293919291611990836133ec565b919050555084826008015f8282546119a89190613404565b909155505060088201546119c490662386f26fc1000090613473565b60078301546119d490600a613492565b6119de9190613404565b6006830155600782015460408051918252602082018790526001600160a01b038816917fd806e052837dcc0fc1ff66af9c75b4736a5daf744fc7640e6fc0d610f3053872910160405180910390a2600682015460408051838152602081019290925242908201526001600160a01b038716907fc2fd17ad7e9f23b8607f0bd02d7a6cdcccd5a964fa99ce5a066ed34c5b4bb55b9060600160405180910390a2505050505050565b60038181548110611a94575f80fd5b5f918252602090912001546001600160a01b0316905081565b600160208190525f9182526040909120805491810180546001600160a01b0390931692611ad99061328a565b80601f0160208091040260200160405190810160405280929190818152602001828054611b059061328a565b8015611b505780601f10611b2757610100808354040283529160200191611b50565b820191905f5260205f20905b815481529060010190602001808311611b3357829003601f168201915b505050505090806002018054611b659061328a565b80601f0160208091040260200160405190810160405280929190818152602001828054611b919061328a565b8015611bdc5780601f10611bb357610100808354040283529160200191611bdc565b820191905f5260205f20905b815481529060010190602001808311611bbf57829003601f168201915b50505060058401546006850154600786015460088701546009880154600a890154600b90990154979860ff808716996101009097048116985094965092949193909291168b565b6004546005546006545f80805b600354811015611cde5760015f60038381548110611c5057611c506133c4565b5f9182526020808320909101546001600160a01b03168352820192909252604001902060070154611c819084613404565b925060015f60038381548110611c9957611c996133c4565b5f9182526020808320909101546001600160a01b03168352820192909252604001902060080154611cca9083613404565b915080611cd6816133ec565b915050611c30565b509091929394565b5f82815260208190526040902060010154611d0081612815565b61092f83836128b1565b6003546060905f908311611d1e5782611d22565b6003545b90505f816001600160401b03811115611d3d57611d3d612e46565b604051908082528060200260200182016040528015611d66578160200160208202803683370190505b5090505f826001600160401b03811115611d8257611d82612e46565b604051908082528060200260200182016040528015611dab578160200160208202803683370190505b5090505f5b6003548110156111a2575f60015f60038481548110611dd157611dd16133c4565b5f9182526020808320909101546001600160a01b0316835282019290925260400181206006015491505b85811015611f7357838181518110611e1557611e156133c4565b6020026020010151821115611f61575f611e30600188613417565b90505b81811115611edc5785611e47600183613417565b81518110611e5757611e576133c4565b6020026020010151868281518110611e7157611e716133c4565b6001600160a01b039092166020928302919091019091015284611e95600183613417565b81518110611ea557611ea56133c4565b6020026020010151858281518110611ebf57611ebf6133c4565b602090810291909101015280611ed4816134a9565b915050611e33565b5060038381548110611ef057611ef06133c4565b905f5260205f20015f9054906101000a90046001600160a01b0316858281518110611f1d57611f1d6133c4565b60200260200101906001600160a01b031690816001600160a01b03168152505081848281518110611f5057611f506133c4565b602002602001018181525050611f73565b80611f6b816133ec565b915050611dfb565b50508080611f80906133ec565b915050611db0565b60606003805480602002602001604051908101604052809291908181526020018280548015611fde57602002820191905f5260205f20905b81546001600160a01b03168152600190910190602001808311611fc0575b5050505050905090565b60605f805b600354811015612171575f60015f6003848154811061200e5761200e6133c4565b5f9182526020808320909101546001600160a01b031683528281019390935260409182018120600301805483518186028101860190945280845292939092919084015b828210156120f9578382905f5260205f2001805461206e9061328a565b80601f016020809104026020016040519081016040528092919081815260200182805461209a9061328a565b80156120e55780601f106120bc576101008083540402835291602001916120e5565b820191905f5260205f20905b8154815290600101906020018083116120c857829003601f168201915b505050505081526020019060010190612051565b5050505090505f5b815181101561215c578580519060200120828281518110612124576121246133c4565b6020026020010151805190602001200361214a5783612142816133ec565b94505061215c565b80612154816133ec565b915050612101565b50508080612169906133ec565b915050611fed565b505f816001600160401b0381111561218b5761218b612e46565b6040519080825280602002602001820160405280156121b4578160200160208202803683370190505b5090505f805b6003548110156111a2575f60015f600384815481106121db576121db6133c4565b5f9182526020808320909101546001600160a01b031683528281019390935260409182018120600301805483518186028101860190945280845292939092919084015b828210156122c6578382905f5260205f2001805461223b9061328a565b80601f01602080910402602001604051908101604052809291908181526020018280546122679061328a565b80156122b25780601f10612289576101008083540402835291602001916122b2565b820191905f5260205f20905b81548152906001019060200180831161229557829003601f168201915b50505050508152602001906001019061221e565b5050505090505f5b81518110156123815787805190602001208282815181106122f1576122f16133c4565b6020026020010151805190602001200361236f5760038381548110612318576123186133c4565b905f5260205f20015f9054906101000a90046001600160a01b0316858581518110612345576123456133c4565b6001600160a01b039092166020928302919091019091015283612367816133ec565b945050612381565b80612379816133ec565b9150506122ce565b5050808061238e906133ec565b9150506121ba565b60605f805b60035481101561251f575f60015f600384815481106123bc576123bc6133c4565b5f9182526020808320909101546001600160a01b031683528281019390935260409182018120600401805483518186028101860190945280845292939092919084015b828210156124a7578382905f5260205f2001805461241c9061328a565b80601f01602080910402602001604051908101604052809291908181526020018280546124489061328a565b80156124935780601f1061246a57610100808354040283529160200191612493565b820191905f5260205f20905b81548152906001019060200180831161247657829003601f168201915b5050505050815260200190600101906123ff565b5050505090505f5b815181101561250a5785805190602001208282815181106124d2576124d26133c4565b602002602001015180519060200120036124f857836124f0816133ec565b94505061250a565b80612502816133ec565b9150506124af565b50508080612517906133ec565b91505061239b565b505f816001600160401b0381111561253957612539612e46565b604051908082528060200260200182016040528015612562578160200160208202803683370190505b5090505f805b6003548110156111a2575f60015f60038481548110612589576125896133c4565b5f9182526020808320909101546001600160a01b031683528281019390935260409182018120600401805483518186028101860190945280845292939092919084015b82821015612674578382905f5260205f200180546125e99061328a565b80601f01602080910402602001604051908101604052809291908181526020018280546126159061328a565b80156126605780601f1061263757610100808354040283529160200191612660565b820191905f5260205f20905b81548152906001019060200180831161264357829003601f168201915b5050505050815260200190600101906125cc565b5050505090505f5b815181101561272f57878051906020012082828151811061269f5761269f6133c4565b6020026020010151805190602001200361271d57600383815481106126c6576126c66133c4565b905f5260205f20015f9054906101000a90046001600160a01b03168585815181106126f3576126f36133c4565b6001600160a01b039092166020928302919091019091015283612715816133ec565b94505061272f565b80612727816133ec565b91505061267c565b5050808061273c906133ec565b915050612568565b7fa49807205ce4d355092ef5a8a18f56e8913cf4a201fbe287825b095693c2177561276e81612815565b6001600160a01b0383165f908152600160205260409020600b0154839060ff166127ab57604051635a05a1b160e01b815260040160405180910390fd5b6001600160a01b0384165f818152600160209081526040918290206006018054908790558251818152918201879052428284015291519192917fc2fd17ad7e9f23b8607f0bd02d7a6cdcccd5a964fa99ce5a066ed34c5b4bb55b9181900360600190a25050505050565b61281f8133612a4d565b50565b5f61282d83836111ac565b6128aa575f838152602081815260408083206001600160a01b03861684529091529020805460ff191660011790556128623390565b6001600160a01b0316826001600160a01b0316847f2f8788117e7eff1d82e926ec794901d17c78024a50270940304540a733656f0d60405160405180910390a4506001610510565b505f610510565b5f6128bc83836111ac565b156128aa575f838152602081815260408083206001600160a01b0386168085529252808320805460ff1916905551339286917ff6391f5c32d9c69d2a47ea670b442974b53935d1edc7fd64eb21e047a839171b9190a4506001610510565b5f82600281111561292d5761292d612cbd565b0361294b5760058054905f612941836134a9565b91905055506129b5565b600182600281111561295f5761295f612cbd565b036129735760068054905f612941836134a9565b600282600281111561298757612987612cbd565b036129b55760058054905f61299b836134a9565b909155505060068054905f6129af836134a9565b91905055505b5f8160028111156129c8576129c8612cbd565b036129e55760058054905f6129dc836133ec565b91905055505050565b60018160028111156129f9576129f9612cbd565b03612a0d5760068054905f6129dc836133ec565b6002816002811115612a2157612a21612cbd565b03612a495760058054905f612a35836133ec565b909155505060068054905f6129dc836133ec565b5050565b612a5782826111ac565b612a495760405163e2517d3f60e01b81526001600160a01b03821660048201526024810183905260440160405180910390fd5b604051806101a001604052805f6001600160a01b03168152602001606081526020016060815260200160608152602001606081526020015f6002811115612ad357612ad3612cbd565b81526020015f81526020015f81526020015f81526020015f81526020015f81526020015f81526020015f151581525090565b828054828255905f5260205f20908101928215612b49579160200282015b82811115612b495782518290612b399082613309565b5091602001919060010190612b23565b50612b55929150612b59565b5090565b80821115612b55575f612b6c8282612b75565b50600101612b59565b508054612b819061328a565b5f825580601f10612b90575050565b601f0160209004905f5260205f209081019061281f91905b80821115612b55575f8155600101612ba8565b5f60208284031215612bcb575f80fd5b81356001600160e01b031981168114612be2575f80fd5b9392505050565b80356001600160a01b0381168114612bff575f80fd5b919050565b5f60208284031215612c14575f80fd5b612be282612be9565b5f5b83811015612c37578181015183820152602001612c1f565b50505f910152565b5f8151808452612c56816020860160208601612c1d565b601f01601f19169290920160200192915050565b5f81518084526020808501808196508360051b810191508286015f5b85811015612cb0578284038952612c9e848351612c3f565b98850198935090840190600101612c86565b5091979650505050505050565b634e487b7160e01b5f52602160045260245ffd5b6003811061281f57634e487b7160e01b5f52602160045260245ffd5b612cf681612cd1565b9052565b60208152612d146020820183516001600160a01b03169052565b5f60208301516101a0806040850152612d316101c0850183612c3f565b91506040850151601f1980868503016060870152612d4f8483612c3f565b93506060870151915080868503016080870152612d6c8483612c6a565b935060808701519150808685030160a087015250612d8a8382612c6a565b92505060a0850151612d9f60c0860182612ced565b5060c0850151612db260e0860182612ced565b5060e08501516101008581019190915285015161012080860191909152850151610140808601919091528501516101608086019190915285015161018080860191909152850151801515828601526111a2565b5f60208284031215612e15575f80fd5b5035919050565b5f8060408385031215612e2d575f80fd5b82359150612e3d60208401612be9565b90509250929050565b634e487b7160e01b5f52604160045260245ffd5b604051601f8201601f191681016001600160401b0381118282101715612e8257612e82612e46565b604052919050565b5f82601f830112612e99575f80fd5b81356001600160401b03811115612eb257612eb2612e46565b612ec5601f8201601f1916602001612e5a565b818152846020838601011115612ed9575f80fd5b816020850160208301375f918101602001919091529392505050565b5f82601f830112612f04575f80fd5b813560206001600160401b0380831115612f2057612f20612e46565b8260051b612f2f838201612e5a565b9384528581018301938381019088861115612f48575f80fd5b84880192505b85831015612f8357823584811115612f65575f8081fd5b612f738a87838c0101612e8a565b8352509184019190840190612f4e565b98975050505050505050565b6003811061281f575f80fd5b8035612bff81612f8f565b5f805f805f60a08688031215612fba575f80fd5b85356001600160401b0380821115612fd0575f80fd5b612fdc89838a01612e8a565b96506020880135915080821115612ff1575f80fd5b612ffd89838a01612ef5565b95506040880135915080821115613012575f80fd5b5061301f88828901612ef5565b935050606086013561303081612f8f565b9150608086013561304081612f8f565b809150509295509295909350565b5f6020828403121561305e575f80fd5b81356001600160401b03811115613073575f80fd5b61307f84828501612e8a565b949350505050565b602080825282518282018190525f9190848201906040850190845b818110156130c75783516001600160a01b0316835292840192918401916001016130a2565b50909695505050505050565b5f80604083850312156130e4575f80fd5b50508035926020909101359150565b5f60208284031215613103575f80fd5b8135612be281612f8f565b5f805f805f8060c08789031215613123575f80fd5b86356001600160401b0380821115613139575f80fd5b6131458a838b01612e8a565b9750602089013591508082111561315a575f80fd5b6131668a838b01612e8a565b9650604089013591508082111561317b575f80fd5b6131878a838b01612ef5565b9550606089013591508082111561319c575f80fd5b506131a989828a01612ef5565b9350506131b860808801612f9b565b91506131c660a08801612f9b565b90509295509295509295565b5f80604083850312156131e3575f80fd5b6131ec83612be9565b946020939093013593505050565b6001600160a01b038c168152610160602082018190525f9061321e8382018e612c3f565b90508281036040840152613232818d612c3f565b91505061323e8a612cd1565b89606083015261324d89612cd1565b608082019890985260a081019690965260c086019490945260e0850192909252610100840152610120830152151561014090910152949350505050565b600181811c9082168061329e57607f821691505b60208210810361090557634e487b7160e01b5f52602260045260245ffd5b601f821115610968575f81815260208120601f850160051c810160208610156132e25750805b601f850160051c820191505b81811015613301578281556001016132ee565b505050505050565b81516001600160401b0381111561332257613322612e46565b61333681613330845461328a565b846132bc565b602080601f831160018114613369575f84156133525750858301515b5f19600386901b1c1916600185901b178555613301565b5f85815260208120601f198616915b8281101561339757888601518255948401946001909101908401613378565b50858210156133b457878501515f19600388901b60f8161c191681555b5050505050600190811b01905550565b634e487b7160e01b5f52603260045260245ffd5b634e487b7160e01b5f52601160045260245ffd5b5f600182016133fd576133fd6133d8565b5060010190565b80820180821115610510576105106133d8565b81810381811115610510576105106133d8565b5f825161343b818460208701612c1d565b9190910192915050565b606081525f6134576060830186612c3f565b905061346284612cd1565b602082019390935260400152919050565b5f8261348d57634e487b7160e01b5f52601260045260245ffd5b500490565b8082028115828204841417610510576105106133d8565b5f816134b7576134b76133d8565b505f19019056fea26469706673582212206eb4db2d34b29a7743e38caae5ccf63b80fc03934b002a0ef6bbcd0bfc95e02f64736f6c63430008140033","linkReferences":{}},"methodIdentifiers":{"ADMIN_ROLE()":"75b238fc","DEFAULT_ADMIN_ROLE()":"a217fddf","REPUTATION_UPDATER_ROLE()":"38e68979","allUsers(uint256)":"a2bdedf4","createProfile(string,string,string[],string[],uint8,uint8)":"9833b60f","getAllContributors()":"51f890ea","getAllMaintainers()":"428be84f","getAllUsers()":"e2842d79","getProfile(address)":"0f53a470","getProfileByGithub(string)":"9d65e252","getRoleAdmin(bytes32)":"248a9ca3","getStats()":"c59d4847","getTopContributors(uint256)":"de710365","getUsersByExperience(uint8)":"5c204e85","getUsersByTechStack(string)":"e5343b38","getUsersByTopic(string)":"f164df9a","getUsersPaginated(uint256,uint256)":"505163c8","githubUsernameToAddress(string)":"3b88a0ab","grantRole(bytes32,address)":"2f2ff15d","hasProfile(address)":"a787c80b","hasRole(bytes32,address)":"91d14854","profiles(address)":"bbe15627","recordIssueCompletion(address,uint256)":"9d81e143","renounceRole(bytes32,address)":"36568abe","revokeRole(bytes32,address)":"d547741f","supportsInterface(bytes4)":"01ffc9a7","totalContributors()":"f251fc8c","totalMaintainers()":"fc9c6a15","totalUsers()":"bff1f9e1","updateProfile(string,string[],string[],uint8,uint8)":"398232d9","updateReputation(address,uint256)":"f5c91a08"},"id":22}