{"abi":[{"type":"constructor","inputs":[],"stateMutability":"nonpayable"},{"type":"function","name":"ADMIN_ROLE","inputs":[],"outputs":[{"name":"","type":"bytes32","internalType":"bytes32"}],"stateMutability":"view"},{"type":"function","name":"APPLICATION_MANAGER_ROLE","inputs":[],"outputs":[{"name":"","type":"bytes32","internalType":"bytes32"}],"stateMutability":"view"},{"type":"function","name":"DEFAULT_ADMIN_ROLE","inputs":[],"outputs":[{"name":"","type":"bytes32","internalType":"bytes32"}],"stateMutability":"view"},{"type":"function","name":"addIssue","inputs":[{"name":"_repoId","type":"uint256","internalType":"uint256"},{"name":"_githubIssueId","type":"string","internalType":"string"},{"name":"_title","type":"string","internalType":"string"},{"name":"_description","type":"string","internalType":"string"},{"name":"_labels","type":"string[]","internalType":"string[]"},{"name":"_difficulty","type":"uint8","internalType":"enum RepoRegistry.Difficulty"},{"name":"_estimatedHours","type":"uint256","internalType":"uint256"},{"name":"_bountyAmount","type":"uint256","internalType":"uint256"}],"outputs":[{"name":"","type":"uint256","internalType":"uint256"}],"stateMutability":"nonpayable"},{"type":"function","name":"addRepo","inputs":[{"name":"_githubRepoId","type":"string","internalType":"string"},{"name":"_name","type":"string","internalType":"string"},{"name":"_description","type":"string","internalType":"string"},{"name":"_techStack","type":"string[]","internalType":"string[]"},{"name":"_topics","type":"string[]","internalType":"string[]"},{"name":"_homepage","type":"string","internalType":"string"},{"name":"_stars","type":"uint256","internalType":"uint256"}],"outputs":[{"name":"","type":"uint256","internalType":"uint256"}],"stateMutability":"nonpayable"},{"type":"function","name":"assignIssue","inputs":[{"name":"_issueId","type":"uint256","internalType":"uint256"},{"name":"_contributor","type":"address","internalType":"address"}],"outputs":[],"stateMutability":"nonpayable"},{"type":"function","name":"closeIssue","inputs":[{"name":"_issueId","type":"uint256","internalType":"uint256"}],"outputs":[],"stateMutability":"nonpayable"},{"type":"function","name":"completeIssue","inputs":[{"name":"_issueId","type":"uint256","internalType":"uint256"}],"outputs":[],"stateMutability":"nonpayable"},{"type":"function","name":"contributorIssues","inputs":[{"name":"","type":"address","internalType":"address"},{"name":"","type":"uint256","internalType":"uint256"}],"outputs":[{"name":"","type":"uint256","internalType":"uint256"}],"stateMutability":"view"},{"type":"function","name":"deactivateRepo","inputs":[{"name":"_repoId","type":"uint256","internalType":"uint256"}],"outputs":[],"stateMutability":"nonpayable"},{"type":"function","name":"getActiveReposPaginated","inputs":[{"name":"_offset","type":"uint256","internalType":"uint256"},{"name":"_limit","type":"uint256","internalType":"uint256"}],"outputs":[{"name":"","type":"uint256[]","internalType":"uint256[]"}],"stateMutability":"view"},{"type":"function","name":"getAllActiveRepos","inputs":[],"outputs":[{"name":"","type":"uint256[]","internalType":"uint256[]"}],"stateMutability":"view"},{"type":"function","name":"getAllOpenIssues","inputs":[],"outputs":[{"name":"","type":"uint256[]","internalType":"uint256[]"}],"stateMutability":"view"},{"type":"function","name":"getContributorActiveIssues","inputs":[{"name":"_contributor","type":"address","internalType":"address"}],"outputs":[{"name":"","type":"uint256[]","internalType":"uint256[]"}],"stateMutability":"view"},{"type":"function","name":"getContributorCompletedIssues","inputs":[{"name":"_contributor","type":"address","internalType":"address"}],"outputs":[{"name":"","type":"uint256[]","internalType":"uint256[]"}],"stateMutability":"view"},{"type":"function","name":"getContributorIssues","inputs":[{"name":"_contributor","type":"address","internalType":"address"}],"outputs":[{"name":"","type":"uint256[]","internalType":"uint256[]"}],"stateMutability":"view"},{"type":"function","name":"getIssue","inputs":[{"name":"_issueId","type":"uint256","internalType":"uint256"}],"outputs":[{"name":"","type":"tuple","internalType":"struct RepoRegistry.Issue","components":[{"name":"id","type":"uint256","internalType":"uint256"},{"name":"repoId","type":"uint256","internalType":"uint256"},{"name":"githubIssueId","type":"string","internalType":"string"},{"name":"title","type":"string","internalType":"string"},{"name":"description","type":"string","internalType":"string"},{"name":"labels","type":"string[]","internalType":"string[]"},{"name":"difficulty","type":"uint8","internalType":"enum RepoRegistry.Difficulty"},{"name":"status","type":"uint8","internalType":"enum RepoRegistry.Status"},{"name":"assignedContributor","type":"address","internalType":"address"},{"name":"estimatedHours","type":"uint256","internalType":"uint256"},{"name":"bountyAmount","type":"uint256","internalType":"uint256"},{"name":"createdAt","type":"uint256","internalType":"uint256"},{"name":"assignedAt","type":"uint256","internalType":"uint256"},{"name":"completedAt","type":"uint256","internalType":"uint256"}]}],"stateMutability":"view"},{"type":"function","name":"getIssueByGithubId","inputs":[{"name":"_githubIssueId","type":"string","internalType":"string"}],"outputs":[{"name":"","type":"tuple","internalType":"struct RepoRegistry.Issue","components":[{"name":"id","type":"uint256","internalType":"uint256"},{"name":"repoId","type":"uint256","internalType":"uint256"},{"name":"githubIssueId","type":"string","internalType":"string"},{"name":"title","type":"string","internalType":"string"},{"name":"description","type":"string","internalType":"string"},{"name":"labels","type":"string[]","internalType":"string[]"},{"name":"difficulty","type":"uint8","internalType":"enum RepoRegistry.Difficulty"},{"name":"status","type":"uint8","internalType":"enum RepoRegistry.Status"},{"name":"assignedContributor","type":"address","internalType":"address"},{"name":"estimatedHours","type":"uint256","internalType":"uint256"},{"name":"bountyAmount","type":"uint256","internalType":"uint256"},{"name":"createdAt","type":"uint256","internalType":"uint256"},{"name":"assignedAt","type":"uint256","internalType":"uint256"},{"name":"completedAt","type":"uint256","internalType":"uint256"}]}],"stateMutability":"view"},{"type":"function","name":"getIssuesByDifficulty","inputs":[{"name":"_difficulty","type":"uint8","internalType":"enum RepoRegistry.Difficulty"}],"outputs":[{"name":"","type":"uint256[]","internalType":"uint256[]"}],"stateMutability":"view"},{"type":"function","name":"getIssuesByStatus","inputs":[{"name":"_status","type":"uint8","internalType":"enum RepoRegistry.Status"}],"outputs":[{"name":"","type":"uint256[]","internalType":"uint256[]"}],"stateMutability":"view"},{"type":"function","name":"getIssuesWithBounty","inputs":[],"outputs":[{"name":"","type":"uint256[]","internalType":"uint256[]"}],"stateMutability":"view"},{"type":"function","name":"getMaintainerRepos","inputs":[{"name":"_maintainer","type":"address","internalType":"address"}],"outputs":[{"name":"","type":"uint256[]","internalType":"uint256[]"}],"stateMutability":"view"},{"type":"function","name":"getRepo","inputs":[{"name":"_repoId","type":"uint256","internalType":"uint256"}],"outputs":[{"name":"","type":"tuple","internalType":"struct RepoRegistry.Repo","components":[{"name":"id","type":"uint256","internalType":"uint256"},{"name":"maintainer","type":"address","internalType":"address"},{"name":"githubRepoId","type":"string","internalType":"string"},{"name":"name","type":"string","internalType":"string"},{"name":"description","type":"string","internalType":"string"},{"name":"techStack","type":"string[]","internalType":"string[]"},{"name":"topics","type":"string[]","internalType":"string[]"},{"name":"homepage","type":"string","internalType":"string"},{"name":"stars","type":"uint256","internalType":"uint256"},{"name":"createdAt","type":"uint256","internalType":"uint256"},{"name":"updatedAt","type":"uint256","internalType":"uint256"},{"name":"isActive","type":"bool","internalType":"bool"}]}],"stateMutability":"view"},{"type":"function","name":"getRepoByGithubId","inputs":[{"name":"_githubRepoId","type":"string","internalType":"string"}],"outputs":[{"name":"","type":"tuple","internalType":"struct RepoRegistry.Repo","components":[{"name":"id","type":"uint256","internalType":"uint256"},{"name":"maintainer","type":"address","internalType":"address"},{"name":"githubRepoId","type":"string","internalType":"string"},{"name":"name","type":"string","internalType":"string"},{"name":"description","type":"string","internalType":"string"},{"name":"techStack","type":"string[]","internalType":"string[]"},{"name":"topics","type":"string[]","internalType":"string[]"},{"name":"homepage","type":"string","internalType":"string"},{"name":"stars","type":"uint256","internalType":"uint256"},{"name":"createdAt","type":"uint256","internalType":"uint256"},{"name":"updatedAt","type":"uint256","internalType":"uint256"},{"name":"isActive","type":"bool","internalType":"bool"}]}],"stateMutability":"view"},{"type":"function","name":"getRepoIssues","inputs":[{"name":"_repoId","type":"uint256","internalType":"uint256"}],"outputs":[{"name":"","type":"uint256[]","internalType":"uint256[]"}],"stateMutability":"view"},{"type":"function","name":"getReposByTechStack","inputs":[{"name":"_tech","type":"string","internalType":"string"}],"outputs":[{"name":"","type":"uint256[]","internalType":"uint256[]"}],"stateMutability":"view"},{"type":"function","name":"getReposByTopic","inputs":[{"name":"_topic","type":"string","internalType":"string"}],"outputs":[{"name":"","type":"uint256[]","internalType":"uint256[]"}],"stateMutability":"view"},{"type":"function","name":"getRoleAdmin","inputs":[{"name":"role","type":"bytes32","internalType":"bytes32"}],"outputs":[{"name":"","type":"bytes32","internalType":"bytes32"}],"stateMutability":"view"},{"type":"function","name":"getStats","inputs":[],"outputs":[{"name":"totalRepos","type":"uint256","internalType":"uint256"},{"name":"activeRepos","type":"uint256","internalType":"uint256"},{"name":"totalIssues","type":"uint256","internalType":"uint256"},{"name":"openIssues","type":"uint256","internalType":"uint256"},{"name":"completedIssues","type":"uint256","internalType":"uint256"},{"name":"totalBounty","type":"uint256","internalType":"uint256"}],"stateMutability":"view"},{"type":"function","name":"githubIssueIdToIssueId","inputs":[{"name":"","type":"string","internalType":"string"}],"outputs":[{"name":"","type":"uint256","internalType":"uint256"}],"stateMutability":"view"},{"type":"function","name":"githubRepoIdToRepoId","inputs":[{"name":"","type":"string","internalType":"string"}],"outputs":[{"name":"","type":"uint256","internalType":"uint256"}],"stateMutability":"view"},{"type":"function","name":"grantRole","inputs":[{"name":"role","type":"bytes32","internalType":"bytes32"},{"name":"account","type":"address","internalType":"address"}],"outputs":[],"stateMutability":"nonpayable"},{"type":"function","name":"hasRole","inputs":[{"name":"role","type":"bytes32","internalType":"bytes32"},{"name":"account","type":"address","internalType":"address"}],"outputs":[{"name":"","type":"bool","internalType":"bool"}],"stateMutability":"view"},{"type":"function","name":"issueCount","inputs":[],"outputs":[{"name":"","type":"uint256","internalType":"uint256"}],"stateMutability":"view"},{"type":"function","name":"issues","inputs":[{"name":"","type":"uint256","internalType":"uint256"}],"outputs":[{"name":"id","type":"uint256","internalType":"uint256"},{"name":"repoId","type":"uint256","internalType":"uint256"},{"name":"githubIssueId","type":"string","internalType":"string"},{"name":"title","type":"string","internalType":"string"},{"name":"description","type":"string","internalType":"string"},{"name":"difficulty","type":"uint8","internalType":"enum RepoRegistry.Difficulty"},{"name":"status","type":"uint8","internalType":"enum RepoRegistry.Status"},{"name":"assignedContributor","type":"address","internalType":"address"},{"name":"estimatedHours","type":"uint256","internalType":"uint256"},{"name":"bountyAmount","type":"uint256","internalType":"uint256"},{"name":"createdAt","type":"uint256","internalType":"uint256"},{"name":"assignedAt","type":"uint256","internalType":"uint256"},{"name":"completedAt","type":"uint256","internalType":"uint256"}],"stateMutability":"view"},{"type":"function","name":"maintainerRepos","inputs":[{"name":"","type":"address","internalType":"address"},{"name":"","type":"uint256","internalType":"uint256"}],"outputs":[{"name":"","type":"uint256","internalType":"uint256"}],"stateMutability":"view"},{"type":"function","name":"reactivateRepo","inputs":[{"name":"_repoId","type":"uint256","internalType":"uint256"}],"outputs":[],"stateMutability":"nonpayable"},{"type":"function","name":"renounceRole","inputs":[{"name":"role","type":"bytes32","internalType":"bytes32"},{"name":"callerConfirmation","type":"address","internalType":"address"}],"outputs":[],"stateMutability":"nonpayable"},{"type":"function","name":"repoCount","inputs":[],"outputs":[{"name":"","type":"uint256","internalType":"uint256"}],"stateMutability":"view"},{"type":"function","name":"repoIssues","inputs":[{"name":"","type":"uint256","internalType":"uint256"},{"name":"","type":"uint256","internalType":"uint256"}],"outputs":[{"name":"","type":"uint256","internalType":"uint256"}],"stateMutability":"view"},{"type":"function","name":"repos","inputs":[{"name":"","type":"uint256","internalType":"uint256"}],"outputs":[{"name":"id","type":"uint256","internalType":"uint256"},{"name":"maintainer","type":"address","internalType":"address"},{"name":"githubRepoId","type":"string","internalType":"string"},{"name":"name","type":"string","internalType":"string"},{"name":"description","type":"string","internalType":"string"},{"name":"homepage","type":"string","internalType":"string"},{"name":"stars","type":"uint256","internalType":"uint256"},{"name":"createdAt","type":"uint256","internalType":"uint256"},{"name":"updatedAt","type":"uint256","internalType":"uint256"},{"name":"isActive","type":"bool","internalType":"bool"}],"stateMutability":"view"},{"type":"function","name":"revokeRole","inputs":[{"name":"role","type":"bytes32","internalType":"bytes32"},{"name":"account","type":"address","internalType":"address"}],"outputs":[],"stateMutability":"nonpayable"},{"type":"function","name":"startIssue","inputs":[{"name":"_issueId","type":"uint256","internalType":"uint256"}],"outputs":[],"stateMutability":"nonpayable"},{"type":"function","name":"supportsInterface","inputs":[{"name":"interfaceId","type":"bytes4","internalType":"bytes4"}],"outputs":[{"name":"","type":"bool","internalType":"bool"}],"stateMutability":"view"},{"type":"function","name":"totalActiveRepos","inputs":[],"outputs":[{"name":"","type":"uint256","internalType":"uint256"}],"stateMutability":"view"},{"type":"function","name":"totalBountyAmount","inputs":[],"outputs":[{"name":"","type":"uint256","internalType":"uint256"}],"stateMutability":"view"},{"type":"function","name":"totalCompletedIssues","inputs":[],"outputs":[{"name":"","type":"uint256","internalType":"uint256"}],"stateMutability":"view"},{"type":"function","name":"totalOpenIssues","inputs":[],"outputs":[{"name":"","type":"uint256","internalType":"uint256"}],"stateMutability":"view"},{"type":"function","name":"transferOwnership","inputs":[{"name":"_repoId","type":"uint256","internalType":"uint256"},{"name":"_newMaintainer","type":"address","internalType":"address"}],"outputs":[],"stateMutability":"nonpayable"},{"type":"function","name":"unassignIssue","inputs":[{"name":"_issueId","type":"uint256","internalType":"uint256"}],"outputs":[],"stateMutability":"nonpayable"},{"type":"function","name":"updateIssue","inputs":[{"name":"_issueId","type":"uint256","internalType":"uint256"},{"name":"_title","type":"string","internalType":"string"},{"name":"_description","type":"string","internalType":"string"},{"name":"_labels","type":"string[]","internalType":"string[]"},{"name":"_difficulty","type":"uint8","internalType":"enum RepoRegistry.Difficulty"},{"name":"_estimatedHours","type":"uint256","internalType":"uint256"},{"name":"_bountyAmount","type":"uint256","internalType":"uint256"}],"outputs":[],"stateMutability":"nonpayable"},{"type":"function","name":"updateRepo","inputs":[{"name":"_repoId","type":"uint256","internalType":"uint256"},{"name":"_description","type":"string","internalType":"string"},{"name":"_techStack","type":"string[]","internalType":"string[]"},{"name":"_topics","type":"string[]","internalType":"string[]"},{"name":"_homepage","type":"string","internalType":"string"},{"name":"_stars","type":"uint256","internalType":"uint256"}],"outputs":[],"stateMutability":"nonpayable"},{"type":"event","name":"IssueAdded","inputs":[{"name":"issueId","type":"uint256","indexed":true,"internalType":"uint256"},{"name":"repoId","type":"uint256","indexed":true,"internalType":"uint256"},{"name":"title","type":"string","indexed":false,"internalType":"string"},{"name":"difficulty","type":"uint8","indexed":false,"internalType":"enum RepoRegistry.Difficulty"},{"name":"bountyAmount","type":"uint256","indexed":false,"internalType":"uint256"},{"name":"timestamp","type":"uint256","indexed":false,"internalType":"uint256"}],"anonymous":false},{"type":"event","name":"IssueAssigned","inputs":[{"name":"issueId","type":"uint256","indexed":true,"internalType":"uint256"},{"name":"contributor","type":"address","indexed":true,"internalType":"address"},{"name":"timestamp","type":"uint256","indexed":false,"internalType":"uint256"}],"anonymous":false},{"type":"event","name":"IssueClosed","inputs":[{"name":"issueId","type":"uint256","indexed":true,"internalType":"uint256"},{"name":"timestamp","type":"uint256","indexed":false,"internalType":"uint256"}],"anonymous":false},{"type":"event","name":"IssueCompleted","inputs":[{"name":"issueId","type":"uint256","indexed":true,"internalType":"uint256"},{"name":"contributor","type":"address","indexed":true,"internalType":"address"},{"name":"completedAt","type":"uint256","indexed":false,"internalType":"uint256"}],"anonymous":false},{"type":"event","name":"IssueStatusUpdated","inputs":[{"name":"issueId","type":"uint256","indexed":true,"internalType":"uint256"},{"name":"oldStatus","type":"uint8","indexed":false,"internalType":"enum RepoRegistry.Status"},{"name":"newStatus","type":"uint8","indexed":false,"internalType":"enum RepoRegistry.Status"},{"name":"timestamp","type":"uint256","indexed":false,"internalType":"uint256"}],"anonymous":false},{"type":"event","name":"IssueUpdated","inputs":[{"name":"issueId","type":"uint256","indexed":true,"internalType":"uint256"},{"name":"timestamp","type":"uint256","indexed":false,"internalType":"uint256"}],"anonymous":false},{"type":"event","name":"RepoAdded","inputs":[{"name":"repoId","type":"uint256","indexed":true,"internalType":"uint256"},{"name":"maintainer","type":"address","indexed":true,"internalType":"address"},{"name":"githubRepoId","type":"string","indexed":false,"internalType":"string"},{"name":"name","type":"string","indexed":false,"internalType":"string"},{"name":"timestamp","type":"uint256","indexed":false,"internalType":"uint256"}],"anonymous":false},{"type":"event","name":"RepoDeactivated","inputs":[{"name":"repoId","type":"uint256","indexed":true,"internalType":"uint256"},{"name":"timestamp","type":"uint256","indexed":false,"internalType":"uint256"}],"anonymous":false},{"type":"event","name":"RepoReactivated","inputs":[{"name":"repoId","type":"uint256","indexed":true,"internalType":"uint256"},{"name":"timestamp","type":"uint256","indexed":false,"internalType":"uint256"}],"anonymous":false},{"type":"event","name":"RepoUpdated","inputs":[{"name":"repoId","type":"uint256","indexed":true,"internalType":"uint256"},{"name":"timestamp","type":"uint256","indexed":false,"internalType":"uint256"}],"anonymous":false},{"type":"event","name":"RoleAdminChanged","inputs":[{"name":"role","type":"bytes32","indexed":true,"internalType":"bytes32"},{"name":"previousAdminRole","type":"bytes32","indexed":true,"internalType":"bytes32"},{"name":"newAdminRole","type":"bytes32","indexed":true,"internalType":"bytes32"}],"anonymous":false},{"type":"event","name":"RoleGranted","inputs":[{"name":"role","type":"bytes32","indexed":true,"internalType":"bytes32"},{"name":"account","type":"address","indexed":true,"internalType":"address"},{"name":"sender","type":"address","indexed":true,"internalType":"address"}],"anonymous":false},{"type":"event","name":"RoleRevoked","inputs":[{"name":"role","type":"bytes32","indexed":true,"internalType":"bytes32"},{"name":"account","type":"address","indexed":true,"internalType":"address"},{"name":"sender","type":"address","indexed":true,"internalType":"address"}],"anonymous":false},{"type":"error","name":"AccessControlBadConfirmation","inputs":[]},{"type":"error","name":"AccessControlUnauthorizedAccount","inputs":[{"name":"account","type":"address","internalType":"address"},{"name":"neededRole","type":"bytes32","internalType":"bytes32"}]},{"type":"error","name":"EmptyIssueName","inputs":[]},{"type":"error","name":"EmptyRepoId","inputs":[]},{"type":"error","name":"InvalidStatus","inputs":[]},{"type":"error","name":"IssueAlreadyExists","inputs":[]},{"type":"error","name":"IssueDoesNotExist","inputs":[]},{"type":"error","name":"IssueNotAssigned","inputs":[]},{"type":"error","name":"IssueNotInProgress","inputs":[]},{"type":"error","name":"IssueNotOpen","inputs":[]},{"type":"error","name":"NotAssignedContributor","inputs":[]},{"type":"error","name":"NotMaintainer","inputs":[]},{"type":"error","name":"RepoAlreadyExists","inputs":[]},{"type":"error","name":"RepoDoesNotExist","inputs":[]},{"type":"error","name":"RepoInactive","inputs":[]},{"type":"error","name":"Unauthorized","inputs":[]}],"bytecode":{"object":"0x608060405234801562000010575f80fd5b506200001d5f3362000051565b506200004a7fa49807205ce4d355092ef5a8a18f56e8913cf4a201fbe287825b095693c217753362000051565b50620000fd565b5f828152602081815260408083206001600160a01b038516845290915281205460ff16620000f4575f838152602081815260408083206001600160a01b03861684529091529020805460ff19166001179055620000ab3390565b6001600160a01b0316826001600160a01b0316847f2f8788117e7eff1d82e926ec794901d17c78024a50270940304540a733656f0d60405160405180910390a4506001620000f7565b505f5b92915050565b615253806200010b5f395ff3fe608060405234801561000f575f80fd5b50600436106102ff575f3560e01c80638f97771411610195578063de72b83d116100e4578063f10215af1161009e578063f607ecaf11610079578063f607ecaf14610738578063f65fb58d1461074b578063fa7ea7501461075e578063fd15387d14610771575f80fd5b8063f10215af14610709578063f134510b14610712578063f196d20214610725575f80fd5b8063de72b83d146106a1578063e5b2a024146106aa578063e9ebc0c8146106bd578063efd832b8146106d0578063f010e2c2146106e3578063f063d309146106f6575f80fd5b8063a217fddf1161014f578063c1c058e41161012a578063c1c058e414610633578063c5923a7e14610646578063c59d48471461064f578063d547741f1461068e575f80fd5b8063a217fddf14610611578063b6aa03cf14610618578063bb730bab14610620575f80fd5b80638f9777141461058457806391d14854146105a4578063976b3113146105b757806398cf147a146105ca5780639d6cf9f4146105d3578063a0769ad7146105fe575f80fd5b8063423001cc1161025157806377de11311161020b5780638525a425116101e65780638525a4251461055857806389bf373b146105605780638abd30f1146105685780638c2086f51461057b575f80fd5b806377de11311461050b57806382d257021461053257806384bdcddf14610545575f80fd5b8063423001cc14610479578063434dcdeb1461048c578063530aa276146104b55780635f11f7a4146104be5780636d06c5a5146104d157806375b238fc146104e4575f80fd5b8063249ba9cb116102bc57806329507f731161029757806329507f73146104205780632f2ff15d14610433578063305f15291461044657806336568abe14610466575f80fd5b8063249ba9cb146103cf57806326af1954146103fa578063288c8f621461040d575f80fd5b806301ffc9a714610303578063026bad671461032b57806304e15de514610340578063132848581461036c57806313bce2d91461038c578063248a9ca3146103ad575b5f80fd5b610316610311366004614541565b610784565b60405190151581526020015b60405180910390f35b61033e61033936600461456f565b6107ba565b005b61035361034e36600461456f565b6108b2565b6040516103229d9c9b9a9998979695949392919061460b565b61037f61037a3660046146b3565b610ab3565b60405161032291906146d3565b61039f61039a366004614731565b610c54565b604051908152602001610322565b61039f6103bb36600461456f565b5f9081526020819052604090206001015490565b61039f6103dd366004614808565b805160208183018101805160078252928201919093012091525481565b61039f610408366004614731565b610c7f565b61033e61041b36600461456f565b610c98565b61033e61042e366004614841565b610ddb565b61033e610441366004614841565b610ee4565b610459610454366004614808565b610f0e565b60405161032291906148be565b61033e610474366004614841565b6113ae565b61037f6104873660046149d3565b6113e1565b61049f61049a36600461456f565b6115ca565b6040516103229a999897969594939291906149ec565b61039f600b5481565b6104596104cc36600461456f565b61183d565b61037f6104df3660046149d3565b611c01565b61039f7fa49807205ce4d355092ef5a8a18f56e8913cf4a201fbe287825b095693c2177581565b61039f7f020f3d218b9e6e9bc1ec7181d6f3fa404a8f29787a07258e863d949e04556fe381565b61037f6105403660046149d3565b611c6a565b61033e61055336600461456f565b611e8a565b61037f611f6f565b61037f612098565b61039f610576366004614b1a565b6121f0565b61039f60085481565b610597610592366004614808565b61247a565b6040516103229190614c0e565b6103166105b2366004614841565b612836565b6105976105c536600461456f565b61285e565b61039f60095481565b61039f6105e1366004614808565b805160208183018101805160068252928201919093012091525481565b61033e61060c36600461456f565b612b3f565b61039f5f81565b61037f612cb1565b61033e61062e36600461456f565b612da3565b61037f610641366004614d23565b612f03565b61039f600c5481565b600854600a54600954600b54600c54600d54604080519687526020870195909552938501929092526060840152608083015260a082015260c001610322565b61033e61069c366004614841565b61304f565b61039f600d5481565b61039f6106b8366004614d4f565b613073565b61037f6106cb366004614808565b6133f7565b61033e6106de366004614e20565b613745565b61033e6106f136600461456f565b613885565b61033e610704366004614ecd565b61397f565b61039f600a5481565b61037f610720366004614f83565b613a8e565b61039f6107333660046146b3565b613c34565b61037f61074636600461456f565b613c4d565b61033e610759366004614841565b613cda565b61037f61076c366004614808565b613eaf565b61037f61077f3660046149d3565b6141fd565b5f6001600160e01b03198216637965db0b60e01b14806107b457506301ffc9a760e01b6001600160e01b03198316145b92915050565b808015806107c9575060085481115b156107e7576040516319dbcedd60e31b815260040160405180910390fd5b5f828152600160208190526040909120015482906001600160a01b0316331461082357604051639b96b05160e01b815260040160405180910390fd5b5f838152600160205260409020600b015460ff166108ad575f8381526001602081905260408220600b8101805460ff191690921790915542600a9182015580549161086d83614fb0565b9190505550827fb325dea060a051bccc5efd64e1d0b7fb4b13b72184c64ca61ddc1f242a634009426040516108a491815260200190565b60405180910390a25b505050565b600260208190525f9182526040909120805460018201549282018054919392916108db90614fc8565b80601f016020809104026020016040519081016040528092919081815260200182805461090790614fc8565b80156109525780601f1061092957610100808354040283529160200191610952565b820191905f5260205f20905b81548152906001019060200180831161093557829003601f168201915b50505050509080600301805461096790614fc8565b80601f016020809104026020016040519081016040528092919081815260200182805461099390614fc8565b80156109de5780601f106109b5576101008083540402835291602001916109de565b820191905f5260205f20905b8154815290600101906020018083116109c157829003601f168201915b5050505050908060040180546109f390614fc8565b80601f0160208091040260200160405190810160405280929190818152602001828054610a1f90614fc8565b8015610a6a5780601f10610a4157610100808354040283529160200191610a6a565b820191905f5260205f20905b815481529060010190602001808311610a4d57829003601f168201915b505050506006830154600784015460088501546009860154600a870154600b90970154959660ff8086169761010087049091169650620100009095046001600160a01b0316948d565b60605f600a546001600160401b03811115610ad057610ad0614759565b604051908082528060200260200182016040528015610af9578160200160208202803683370190505b5090505f60015b6008548111610b60575f818152600160205260409020600b015460ff1615610b4e5780838381518110610b3557610b35614ffa565b602090810291909101015281610b4a81614fb0565b9250505b80610b5881614fb0565b915050610b00565b5081518510610b80575050604080515f81526020810190915290506107b4565b5f610b8b858761500e565b90508251811115610b9a575081515b5f610ba58783615021565b90505f816001600160401b03811115610bc057610bc0614759565b604051908082528060200260200182016040528015610be9578160200160208202803683370190505b5090505f5b82811015610c485785610c01828b61500e565b81518110610c1157610c11614ffa565b6020026020010151828281518110610c2b57610c2b614ffa565b602090810291909101015280610c4081614fb0565b915050610bee565b50979650505050505050565b6005602052815f5260405f208181548110610c6d575f80fd5b905f5260205f20015f91509150505481565b6003602052815f5260405f208181548110610c6d575f80fd5b80801580610ca7575060095481115b15610cc55760405163f30b1da560e01b815260040160405180910390fd5b5f8281526002602090815260408083206001808201548552928390529220908101546001600160a01b03163314610d0f57604051639b96b05160e01b815260040160405180910390fd5b6006820154610100900460ff165f816004811115610d2f57610d2f6145d3565b03610d4957600b8054905f610d4383615034565b91905055505b60068301805461ff0019166104001790556008830154600d80545f90610d70908490615021565b909155505060405142815285907f0cc52df10276c6f3b0b41b632ca823795e08cce0356339c9a54c0986506469399060200160405180910390a2845f805160206151fe83398151915282600442604051610dcc93929190615049565b60405180910390a25050505050565b81801580610dea575060085481115b15610e08576040516319dbcedd60e31b815260040160405180910390fd5b5f838152600160208190526040909120015483906001600160a01b03163314610e4457604051639b96b05160e01b815260040160405180910390fd5b6001600160a01b038316610e915760405162461bcd60e51b815260206004820152600f60248201526e496e76616c6964206164647265737360881b60448201526064015b60405180910390fd5b50505f82815260016020818152604080842080840180546001600160a01b039097166001600160a01b03199097168717905542600a90910155938352600381529282208054918201815582529190200155565b5f82815260208190526040902060010154610efe81614264565b610f088383614271565b50505050565b610f166143a6565b5f600683604051610f279190615072565b9081526020016040518091039020549050805f03610f58576040516319dbcedd60e31b815260040160405180910390fd5b5f8181526001602081815260409283902083516101808101855281548152928101546001600160a01b0316918301919091526002810180549293919291840191610fa190614fc8565b80601f0160208091040260200160405190810160405280929190818152602001828054610fcd90614fc8565b80156110185780601f10610fef57610100808354040283529160200191611018565b820191905f5260205f20905b815481529060010190602001808311610ffb57829003601f168201915b5050505050815260200160038201805461103190614fc8565b80601f016020809104026020016040519081016040528092919081815260200182805461105d90614fc8565b80156110a85780601f1061107f576101008083540402835291602001916110a8565b820191905f5260205f20905b81548152906001019060200180831161108b57829003601f168201915b505050505081526020016004820180546110c190614fc8565b80601f01602080910402602001604051908101604052809291908181526020018280546110ed90614fc8565b80156111385780601f1061110f57610100808354040283529160200191611138565b820191905f5260205f20905b81548152906001019060200180831161111b57829003601f168201915b5050505050815260200160058201805480602002602001604051908101604052809291908181526020015f905b8282101561120d578382905f5260205f2001805461118290614fc8565b80601f01602080910402602001604051908101604052809291908181526020018280546111ae90614fc8565b80156111f95780601f106111d0576101008083540402835291602001916111f9565b820191905f5260205f20905b8154815290600101906020018083116111dc57829003601f168201915b505050505081526020019060010190611165565b50505050815260200160068201805480602002602001604051908101604052809291908181526020015f905b828210156112e1578382905f5260205f2001805461125690614fc8565b80601f016020809104026020016040519081016040528092919081815260200182805461128290614fc8565b80156112cd5780601f106112a4576101008083540402835291602001916112cd565b820191905f5260205f20905b8154815290600101906020018083116112b057829003601f168201915b505050505081526020019060010190611239565b5050505081526020016007820180546112f990614fc8565b80601f016020809104026020016040519081016040528092919081815260200182805461132590614fc8565b80156113705780601f1061134757610100808354040283529160200191611370565b820191905f5260205f20905b81548152906001019060200180831161135357829003601f168201915b50505091835250506008820154602082015260098201546040820152600a8201546060820152600b9091015460ff1615156080909101529392505050565b6001600160a01b03811633146113d75760405163334bd91960e11b815260040160405180910390fd5b6108ad8282614300565b6001600160a01b0381165f90815260056020908152604080832080548251818502810185019093528083526060949383018282801561143d57602002820191905f5260205f20905b815481526020019060010190808311611429575b505050505090505f805b82518110156114c357600360025f85848151811061146757611467614ffa565b602002602001015181526020019081526020015f2060060160019054906101000a900460ff16600481111561149e5761149e6145d3565b036114b157816114ad81614fb0565b9250505b806114bb81614fb0565b915050611447565b505f816001600160401b038111156114dd576114dd614759565b604051908082528060200260200182016040528015611506578160200160208202803683370190505b5090505f805b84518110156115bf57600360025f87848151811061152c5761152c614ffa565b602002602001015181526020019081526020015f2060060160019054906101000a900460ff166004811115611563576115636145d3565b036115ad5784818151811061157a5761157a614ffa565b602002602001015183838151811061159457611594614ffa565b6020908102919091010152816115a981614fb0565b9250505b806115b781614fb0565b91505061150c565b509095945050505050565b600160208190525f91825260409091208054918101546002820180546001600160a01b0390921692916115fc90614fc8565b80601f016020809104026020016040519081016040528092919081815260200182805461162890614fc8565b80156116735780601f1061164a57610100808354040283529160200191611673565b820191905f5260205f20905b81548152906001019060200180831161165657829003601f168201915b50505050509080600301805461168890614fc8565b80601f01602080910402602001604051908101604052809291908181526020018280546116b490614fc8565b80156116ff5780601f106116d6576101008083540402835291602001916116ff565b820191905f5260205f20905b8154815290600101906020018083116116e257829003601f168201915b50505050509080600401805461171490614fc8565b80601f016020809104026020016040519081016040528092919081815260200182805461174090614fc8565b801561178b5780601f106117625761010080835404028352916020019161178b565b820191905f5260205f20905b81548152906001019060200180831161176e57829003601f168201915b5050505050908060070180546117a090614fc8565b80601f01602080910402602001604051908101604052809291908181526020018280546117cc90614fc8565b80156118175780601f106117ee57610100808354040283529160200191611817565b820191905f5260205f20905b8154815290600101906020018083116117fa57829003601f168201915b5050505060088301546009840154600a850154600b909501549394919390925060ff168a565b6118456143a6565b81801580611854575060085481115b15611872576040516319dbcedd60e31b815260040160405180910390fd5b5f8381526001602081815260409283902083516101808101855281548152928101546001600160a01b03169183019190915260028101805492939192918401916118bb90614fc8565b80601f01602080910402602001604051908101604052809291908181526020018280546118e790614fc8565b80156119325780601f1061190957610100808354040283529160200191611932565b820191905f5260205f20905b81548152906001019060200180831161191557829003601f168201915b5050505050815260200160038201805461194b90614fc8565b80601f016020809104026020016040519081016040528092919081815260200182805461197790614fc8565b80156119c25780601f10611999576101008083540402835291602001916119c2565b820191905f5260205f20905b8154815290600101906020018083116119a557829003601f168201915b505050505081526020016004820180546119db90614fc8565b80601f0160208091040260200160405190810160405280929190818152602001828054611a0790614fc8565b8015611a525780601f10611a2957610100808354040283529160200191611a52565b820191905f5260205f20905b815481529060010190602001808311611a3557829003601f168201915b5050505050815260200160058201805480602002602001604051908101604052809291908181526020015f905b82821015611b27578382905f5260205f20018054611a9c90614fc8565b80601f0160208091040260200160405190810160405280929190818152602001828054611ac890614fc8565b8015611b135780601f10611aea57610100808354040283529160200191611b13565b820191905f5260205f20905b815481529060010190602001808311611af657829003601f168201915b505050505081526020019060010190611a7f565b50505050815260200160068201805480602002602001604051908101604052809291908181526020015f905b828210156112e1578382905f5260205f20018054611b7090614fc8565b80601f0160208091040260200160405190810160405280929190818152602001828054611b9c90614fc8565b8015611be75780601f10611bbe57610100808354040283529160200191611be7565b820191905f5260205f20905b815481529060010190602001808311611bca57829003601f168201915b505050505081526020019060010190611b53565b50919050565b6001600160a01b0381165f90815260036020908152604091829020805483518184028101840190945280845260609392830182828015611c5e57602002820191905f5260205f20905b815481526020019060010190808311611c4a575b50505050509050919050565b6001600160a01b0381165f908152600560209081526040808320805482518185028101850190935280835260609493830182828015611cc657602002820191905f5260205f20905b815481526020019060010190808311611cb2575b505050505090505f805b8251811015611d6d575f60025f858481518110611cef57611cef614ffa565b60209081029190910181015182528101919091526040015f2060060154610100900460ff1690506001816004811115611d2a57611d2a6145d3565b1480611d4757506002816004811115611d4557611d456145d3565b145b15611d5a5782611d5681614fb0565b9350505b5080611d6581614fb0565b915050611cd0565b505f816001600160401b03811115611d8757611d87614759565b604051908082528060200260200182016040528015611db0578160200160208202803683370190505b5090505f805b84518110156115bf575f60025f878481518110611dd557611dd5614ffa565b60209081029190910181015182528101919091526040015f2060060154610100900460ff1690506001816004811115611e1057611e106145d3565b1480611e2d57506002816004811115611e2b57611e2b6145d3565b145b15611e7757858281518110611e4457611e44614ffa565b6020026020010151848481518110611e5e57611e5e614ffa565b602090810291909101015282611e7381614fb0565b9350505b5080611e8281614fb0565b915050611db6565b80801580611e99575060085481115b15611eb7576040516319dbcedd60e31b815260040160405180910390fd5b5f828152600160208190526040909120015482906001600160a01b03163314611ef357604051639b96b05160e01b815260040160405180910390fd5b5f838152600160205260409020600b015460ff16156108ad575f838152600160205260408120600b8101805460ff1916905542600a91820155805491611f3883615034565b9190505550827fd2c80c5bd503101fbf05bb714eed8883aa6d46a3893b1346332608d621e5288c426040516108a491815260200190565b60605f60015b6009548111611fce575f8082815260026020526040902060060154610100900460ff166004811115611fa957611fa96145d3565b03611fbc5781611fb881614fb0565b9250505b80611fc681614fb0565b915050611f75565b505f816001600160401b03811115611fe857611fe8614759565b604051908082528060200260200182016040528015612011578160200160208202803683370190505b5090505f60015b600954811161208f575f8082815260026020526040902060060154610100900460ff16600481111561204c5761204c6145d3565b0361207d578083838151811061206457612064614ffa565b60209081029190910101528161207981614fb0565b9250505b8061208781614fb0565b915050612018565b50909392505050565b60605f60015b6009548111612113575f81815260026020526040902060080154158015906120ee57505f8082815260026020526040902060060154610100900460ff1660048111156120ec576120ec6145d3565b145b1561210157816120fd81614fb0565b9250505b8061210b81614fb0565b91505061209e565b505f816001600160401b0381111561212d5761212d614759565b604051908082528060200260200182016040528015612156578160200160208202803683370190505b5090505f60015b600954811161208f575f81815260026020526040902060080154158015906121ad57505f8082815260026020526040902060060154610100900460ff1660048111156121ab576121ab6145d3565b145b156121de57808383815181106121c5576121c5614ffa565b6020908102919091010152816121da81614fb0565b9250505b806121e881614fb0565b91505061215d565b5f87515f0361221257604051631901fcad60e01b815260040160405180910390fd5b6006886040516122229190615072565b9081526020016040518091039020545f1461225057604051630efc2b1f60e31b815260040160405180910390fd5b60088054905f61225f83614fb0565b909155505060408051610180810182526008548082523360208084019182528385018d8152606085018d9052608085018c905260a085018b905260c085018a905260e085018990526101008501889052426101208601819052610140860152600161016086018190525f948552918290529490922083518155905191810180546001600160a01b0319166001600160a01b03909316929092179091559151909190600282019061230f90826150da565b506060820151600382019061232490826150da565b506080820151600482019061233990826150da565b5060a0820151805161235591600584019160209091019061440c565b5060c0820151805161237191600684019160209091019061440c565b5060e0820151600782019061238690826150da565b506101008201516008828101919091556101208301516009830155610140830151600a83015561016090920151600b909101805460ff1916911515919091179055335f908152600360209081526040808320845481546001810183559185529290932090920155905490516006906123ff908b90615072565b90815260405190819003602001902055600a8054905f61241e83614fb0565b9190505550336001600160a01b03166008547fd129cac81304d7637a39cfda31df598756f5437392b2abb4f85a8411adb0344b8a8a4260405161246393929190615195565b60405180910390a350600854979650505050505050565b612482614460565b5f6007836040516124939190615072565b9081526020016040518091039020549050805f036124c45760405163f30b1da560e01b815260040160405180910390fd5b60025f8281526020019081526020015f20604051806101c00160405290815f82015481526020016001820154815260200160028201805461250490614fc8565b80601f016020809104026020016040519081016040528092919081815260200182805461253090614fc8565b801561257b5780601f106125525761010080835404028352916020019161257b565b820191905f5260205f20905b81548152906001019060200180831161255e57829003601f168201915b5050505050815260200160038201805461259490614fc8565b80601f01602080910402602001604051908101604052809291908181526020018280546125c090614fc8565b801561260b5780601f106125e25761010080835404028352916020019161260b565b820191905f5260205f20905b8154815290600101906020018083116125ee57829003601f168201915b5050505050815260200160048201805461262490614fc8565b80601f016020809104026020016040519081016040528092919081815260200182805461265090614fc8565b801561269b5780601f106126725761010080835404028352916020019161269b565b820191905f5260205f20905b81548152906001019060200180831161267e57829003601f168201915b5050505050815260200160058201805480602002602001604051908101604052809291908181526020015f905b82821015612770578382905f5260205f200180546126e590614fc8565b80601f016020809104026020016040519081016040528092919081815260200182805461271190614fc8565b801561275c5780601f106127335761010080835404028352916020019161275c565b820191905f5260205f20905b81548152906001019060200180831161273f57829003601f168201915b5050505050815260200190600101906126c8565b50505090825250600682015460209091019060ff166002811115612796576127966145d3565b60028111156127a7576127a76145d3565b81526020016006820160019054906101000a900460ff1660048111156127cf576127cf6145d3565b60048111156127e0576127e06145d3565b815260068201546201000090046001600160a01b03166020820152600782015460408201526008820154606082015260098201546080820152600a82015460a0820152600b9091015460c0909101529392505050565b5f918252602082815260408084206001600160a01b0393909316845291905290205460ff1690565b612866614460565b81801580612875575060095481115b156128935760405163f30b1da560e01b815260040160405180910390fd5b60025f8481526020019081526020015f20604051806101c00160405290815f8201548152602001600182015481526020016002820180546128d390614fc8565b80601f01602080910402602001604051908101604052809291908181526020018280546128ff90614fc8565b801561294a5780601f106129215761010080835404028352916020019161294a565b820191905f5260205f20905b81548152906001019060200180831161292d57829003601f168201915b5050505050815260200160038201805461296390614fc8565b80601f016020809104026020016040519081016040528092919081815260200182805461298f90614fc8565b80156129da5780601f106129b1576101008083540402835291602001916129da565b820191905f5260205f20905b8154815290600101906020018083116129bd57829003601f168201915b505050505081526020016004820180546129f390614fc8565b80601f0160208091040260200160405190810160405280929190818152602001828054612a1f90614fc8565b8015612a6a5780601f10612a4157610100808354040283529160200191612a6a565b820191905f5260205f20905b815481529060010190602001808311612a4d57829003601f168201915b5050505050815260200160058201805480602002602001604051908101604052809291908181526020015f905b82821015612770578382905f5260205f20018054612ab490614fc8565b80601f0160208091040260200160405190810160405280929190818152602001828054612ae090614fc8565b8015612b2b5780601f10612b0257610100808354040283529160200191612b2b565b820191905f5260205f20905b815481529060010190602001808311612b0e57829003601f168201915b505050505081526020019060010190612a97565b80801580612b4e575060095481115b15612b6c5760405163f30b1da560e01b815260040160405180910390fd5b5f8281526002602090815260408083206001808201548552928390529220908101546001600160a01b03163314612bb657604051639b96b05160e01b815260040160405180910390fd5b60026006830154610100900460ff166004811115612bd657612bd66145d3565b14612bf3576040516219d11760e51b815260040160405180910390fd5b60068201805461ff001981166103001790915542600b840155600c805461010090920460ff1691905f612c2583614fb0565b91905055508260080154600d5f828254612c3f9190615021565b90915550506006830154604051428152620100009091046001600160a01b03169086907f55a178e5f37419daeed81ca0ffdac6b33ccd1523ca2f26c742056c33dbc1960f9060200160405180910390a3845f805160206151fe83398151915282600342604051610dcc93929190615049565b60605f60015b6008548111612cf9575f818152600160205260409020600b015460ff1615612ce75781612ce381614fb0565b9250505b80612cf181614fb0565b915050612cb7565b505f816001600160401b03811115612d1357612d13614759565b604051908082528060200260200182016040528015612d3c578160200160208202803683370190505b5090505f60015b600854811161208f575f818152600160205260409020600b015460ff1615612d915780838381518110612d7857612d78614ffa565b602090810291909101015281612d8d81614fb0565b9250505b80612d9b81614fb0565b915050612d43565b80801580612db2575060095481115b15612dd05760405163f30b1da560e01b815260040160405180910390fd5b5f8281526002602090815260408083206001808201548552928390529220908101546001600160a01b03163314612e1a57604051639b96b05160e01b815260040160405180910390fd5b5f6006830154610100900460ff166004811115612e3957612e396145d3565b1480612e62575060036006830154610100900460ff166004811115612e6057612e606145d3565b145b80612e8a575060046006830154610100900460ff166004811115612e8857612e886145d3565b145b15612ea8576040516307a92f1960e51b815260040160405180910390fd5b600682018054610100600160b01b031981169091555f600a8401819055600b805461010090930460ff169291612edd83614fb0565b9190505550845f805160206151fe833981519152825f42604051610dcc93929190615049565b60605f60015b6009548111612f7357836004811115612f2457612f246145d3565b5f82815260026020526040902060060154610100900460ff166004811115612f4e57612f4e6145d3565b03612f615781612f5d81614fb0565b9250505b80612f6b81614fb0565b915050612f09565b505f816001600160401b03811115612f8d57612f8d614759565b604051908082528060200260200182016040528015612fb6578160200160208202803683370190505b5090505f60015b600954811161304557856004811115612fd857612fd86145d3565b5f82815260026020526040902060060154610100900460ff166004811115613002576130026145d3565b03613033578083838151811061301a5761301a614ffa565b60209081029190910101528161302f81614fb0565b9250505b8061303d81614fb0565b915050612fbd565b5090949350505050565b5f8281526020819052604090206001015461306981614264565b610f088383614300565b5f88801580613083575060085481115b156130a1576040516319dbcedd60e31b815260040160405180910390fd5b5f8a815260016020819052604090912001548a906001600160a01b031633146130dd57604051639b96b05160e01b815260040160405180910390fd5b5f8b8152600160205260409020600b015460ff1661310e57604051630ebf9c2360e31b815260040160405180910390fd5b88515f0361312f576040516303937b0760e61b815260040160405180910390fd5b60078a60405161313f9190615072565b9081526020016040518091039020545f1461316d576040516322d6cb1960e01b815260040160405180910390fd5b60098054905f61317c83614fb0565b9190505550604051806101c0016040528060095481526020018c81526020018b81526020018a81526020018981526020018881526020018760028111156131c5576131c56145d3565b81526020015f81525f602080830182905260408084018a90526060840189905242608085015260a0840183905260c0909301829052600954825260028082529183902084518155908401516001820155918301519082019061322790826150da565b506060820151600382019061323c90826150da565b506080820151600482019061325190826150da565b5060a0820151805161326d91600584019160209091019061440c565b5060c082015160068201805460ff19166001836002811115613291576132916145d3565b021790555060e082015160068201805461ff0019166101008360048111156132bb576132bb6145d3565b02179055506101008201516006820180546001600160a01b03909216620100000262010000600160b01b03199092169190911790556101208201516007808301919091556101408301516008830155610160830151600980840191909155610180840151600a8401556101a090930151600b909201919091555f8d815260046020908152604080832085548154600181018355918552929093209092015591549151613368908d90615072565b90815260405190819003602001902055600b8054905f61338783614fb0565b919050555083600d5f82825461339d919061500e565b925050819055508a6009547fa31657be9ac04d3dfa6798c7f0c0eb8db90a146b6fda8fc8436df3ef3ee3de618b8988426040516133dd94939291906151ca565b60405180910390a350506009549998505050505050505050565b60605f60015b600854811161356d575f818152600160205260409020600b015460ff161561355b575f81815260016020908152604080832060060180548251818502810185019093528083529192909190849084015b828210156134f5578382905f5260205f2001805461346a90614fc8565b80601f016020809104026020016040519081016040528092919081815260200182805461349690614fc8565b80156134e15780601f106134b8576101008083540402835291602001916134e1565b820191905f5260205f20905b8154815290600101906020018083116134c457829003601f168201915b50505050508152602001906001019061344d565b5050505090505f5b815181101561355857858051906020012082828151811061352057613520614ffa565b60200260200101518051906020012003613546578361353e81614fb0565b945050613558565b8061355081614fb0565b9150506134fd565b50505b8061356581614fb0565b9150506133fd565b505f816001600160401b0381111561358757613587614759565b6040519080825280602002602001820160405280156135b0578160200160208202803683370190505b5090505f60015b6008548111613045575f818152600160205260409020600b015460ff1615613733575f81815260016020908152604080832060060180548251818502810185019093528083529192909190849084015b828210156136af578382905f5260205f2001805461362490614fc8565b80601f016020809104026020016040519081016040528092919081815260200182805461365090614fc8565b801561369b5780601f106136725761010080835404028352916020019161369b565b820191905f5260205f20905b81548152906001019060200180831161367e57829003601f168201915b505050505081526020019060010190613607565b5050505090505f5b81518110156137305787805190602001208282815181106136da576136da614ffa565b6020026020010151805190602001200361371e578285858151811061370157613701614ffa565b60209081029190910101528361371681614fb0565b945050613730565b8061372881614fb0565b9150506136b7565b50505b8061373d81614fb0565b9150506135b7565b86801580613754575060095481115b156137725760405163f30b1da560e01b815260040160405180910390fd5b5f8881526002602090815260408083206001808201548552928390529220908101546001600160a01b031633146137bc57604051639b96b05160e01b815260040160405180910390fd5b838260080154600d546137cf9190615021565b6137d9919061500e565b600d55600382016137ea8a826150da565b50600482016137f989826150da565b50865161380f90600584019060208a019061440c565b5060068201805487919060ff19166001836002811115613831576138316145d3565b021790555060078201859055600882018490556040514281528a907fcd163937822a3ee9f8cca3992bd454656b3ce593d27ad3cefc576ed5d9d116a49060200160405180910390a250505050505050505050565b80801580613894575060095481115b156138b25760405163f30b1da560e01b815260040160405180910390fd5b5f82815260026020526040902060068101546201000090046001600160a01b031633146138f25760405163fd6afc7960e01b815260040160405180910390fd5b60016006820154610100900460ff166004811115613912576139126145d3565b14613930576040516307a92f1960e51b815260040160405180910390fd5b60068101805461ff001981166102001790915560405161010090910460ff169084905f805160206151fe833981519152906139719084906002904290615049565b60405180910390a250505050565b8580158061398e575060085481115b156139ac576040516319dbcedd60e31b815260040160405180910390fd5b5f878152600160208190526040909120015487906001600160a01b031633146139e857604051639b96b05160e01b815260040160405180910390fd5b5f88815260016020526040902060048101613a0389826150da565b508651613a1990600583019060208a019061440c565b508551613a2f906006830190602089019061440c565b5060078101613a3e86826150da565b506008810184905542600a820181905560405190815289907f32d2c9464d660d2bce21ae0293d1ba1ea3a926e666f795eca34a95550ea689619060200160405180910390a2505050505050505050565b60605f60015b6009548111613b3057836002811115613aaf57613aaf6145d3565b5f8281526002602081905260409091206006015460ff1690811115613ad657613ad66145d3565b148015613b0b57505f8082815260026020526040902060060154610100900460ff166004811115613b0957613b096145d3565b145b15613b1e5781613b1a81614fb0565b9250505b80613b2881614fb0565b915050613a94565b505f816001600160401b03811115613b4a57613b4a614759565b604051908082528060200260200182016040528015613b73578160200160208202803683370190505b5090505f60015b600954811161304557856002811115613b9557613b956145d3565b5f8281526002602081905260409091206006015460ff1690811115613bbc57613bbc6145d3565b148015613bf157505f8082815260026020526040902060060154610100900460ff166004811115613bef57613bef6145d3565b145b15613c225780838381518110613c0957613c09614ffa565b602090810291909101015281613c1e81614fb0565b9250505b80613c2c81614fb0565b915050613b7a565b6004602052815f5260405f208181548110610c6d575f80fd5b606081801580613c5e575060085481115b15613c7c576040516319dbcedd60e31b815260040160405180910390fd5b5f8381526004602090815260409182902080548351818402810184019094528084529091830182828015613ccd57602002820191905f5260205f20905b815481526020019060010190808311613cb9575b5050505050915050919050565b81801580613ce9575060095481115b15613d075760405163f30b1da560e01b815260040160405180910390fd5b5f838152600260209081526040808320600180820154855292839052908320918201549092906001600160a01b0316331480613d685750613d687f020f3d218b9e6e9bc1ec7181d6f3fa404a8f29787a07258e863d949e04556fe333612836565b905080613d87576040516282b42960e81b815260040160405180910390fd5b5f6006840154610100900460ff166004811115613da657613da66145d3565b14613dc45760405163eb3edb8760e01b815260040160405180910390fd5b6006830180546101006001600160a01b03881662010000810261ff001916610100600160b01b0319841617821790935542600a8701555f9283526005602090815260408420805460018101825590855290842001899055600b805460ff929093049190911692613e3383615034565b9190505550856001600160a01b0316877f4379a47cc4244fc90b7829ce742179a7bd34e7131b2865ae1afc8a978c9c904242604051613e7491815260200190565b60405180910390a3865f805160206151fe83398151915282600142604051613e9e93929190615049565b60405180910390a250505050505050565b60605f60015b6008548111614025575f818152600160205260409020600b015460ff1615614013575f81815260016020908152604080832060050180548251818502810185019093528083529192909190849084015b82821015613fad578382905f5260205f20018054613f2290614fc8565b80601f0160208091040260200160405190810160405280929190818152602001828054613f4e90614fc8565b8015613f995780601f10613f7057610100808354040283529160200191613f99565b820191905f5260205f20905b815481529060010190602001808311613f7c57829003601f168201915b505050505081526020019060010190613f05565b5050505090505f5b8151811015614010578580519060200120828281518110613fd857613fd8614ffa565b60200260200101518051906020012003613ffe5783613ff681614fb0565b945050614010565b8061400881614fb0565b915050613fb5565b50505b8061401d81614fb0565b915050613eb5565b505f816001600160401b0381111561403f5761403f614759565b604051908082528060200260200182016040528015614068578160200160208202803683370190505b5090505f60015b6008548111613045575f818152600160205260409020600b015460ff16156141eb575f81815260016020908152604080832060050180548251818502810185019093528083529192909190849084015b82821015614167578382905f5260205f200180546140dc90614fc8565b80601f016020809104026020016040519081016040528092919081815260200182805461410890614fc8565b80156141535780601f1061412a57610100808354040283529160200191614153565b820191905f5260205f20905b81548152906001019060200180831161413657829003601f168201915b5050505050815260200190600101906140bf565b5050505090505f5b81518110156141e857878051906020012082828151811061419257614192614ffa565b602002602001015180519060200120036141d657828585815181106141b9576141b9614ffa565b6020908102919091010152836141ce81614fb0565b9450506141e8565b806141e081614fb0565b91505061416f565b50505b806141f581614fb0565b91505061406f565b6001600160a01b0381165f90815260056020908152604091829020805483518184028101840190945280845260609392830182828015611c5e57602002820191905f5260205f2090815481526020019060010190808311611c4a5750505050509050919050565b61426e8133614369565b50565b5f61427c8383612836565b6142f9575f838152602081815260408083206001600160a01b03861684529091529020805460ff191660011790556142b13390565b6001600160a01b0316826001600160a01b0316847f2f8788117e7eff1d82e926ec794901d17c78024a50270940304540a733656f0d60405160405180910390a45060016107b4565b505f6107b4565b5f61430b8383612836565b156142f9575f838152602081815260408083206001600160a01b0386168085529252808320805460ff1916905551339286917ff6391f5c32d9c69d2a47ea670b442974b53935d1edc7fd64eb21e047a839171b9190a45060016107b4565b6143738282612836565b6143a25760405163e2517d3f60e01b81526001600160a01b038216600482015260248101839052604401610e88565b5050565b6040518061018001604052805f81526020015f6001600160a01b031681526020016060815260200160608152602001606081526020016060815260200160608152602001606081526020015f81526020015f81526020015f81526020015f151581525090565b828054828255905f5260205f20908101928215614450579160200282015b82811115614450578251829061444090826150da565b509160200191906001019061442a565b5061445c9291506144df565b5090565b604051806101c001604052805f81526020015f8152602001606081526020016060815260200160608152602001606081526020015f60028111156144a6576144a66145d3565b81526020015f81526020015f6001600160a01b031681526020015f81526020015f81526020015f81526020015f81526020015f81525090565b8082111561445c575f6144f282826144fb565b506001016144df565b50805461450790614fc8565b5f825580601f10614516575050565b601f0160209004905f5260205f209081019061426e91905b8082111561445c575f815560010161452e565b5f60208284031215614551575f80fd5b81356001600160e01b031981168114614568575f80fd5b9392505050565b5f6020828403121561457f575f80fd5b5035919050565b5f5b838110156145a0578181015183820152602001614588565b50505f910152565b5f81518084526145bf816020860160208601614586565b601f01601f19169290920160200192915050565b634e487b7160e01b5f52602160045260245ffd5b600381106145f7576145f76145d3565b9052565b600581106145f7576145f76145d3565b5f6101a08f83528e602084015280604084015261462a8184018f6145a8565b9050828103606084015261463e818e6145a8565b90508281036080840152614652818d6145a8565b91505061466260a083018b6145e7565b61466f60c083018a6145fb565b6001600160a01b039790971660e082015261010081019590955261012085019390935261014084019190915261016083015261018090910152979650505050505050565b5f80604083850312156146c4575f80fd5b50508035926020909101359150565b602080825282518282018190525f9190848201906040850190845b8181101561470a578351835292840192918401916001016146ee565b50909695505050505050565b80356001600160a01b038116811461472c575f80fd5b919050565b5f8060408385031215614742575f80fd5b61474b83614716565b946020939093013593505050565b634e487b7160e01b5f52604160045260245ffd5b604051601f8201601f191681016001600160401b038111828210171561479557614795614759565b604052919050565b5f82601f8301126147ac575f80fd5b81356001600160401b038111156147c5576147c5614759565b6147d8601f8201601f191660200161476d565b8181528460208386010111156147ec575f80fd5b816020850160208301375f918101602001919091529392505050565b5f60208284031215614818575f80fd5b81356001600160401b0381111561482d575f80fd5b6148398482850161479d565b949350505050565b5f8060408385031215614852575f80fd5b8235915061486260208401614716565b90509250929050565b5f81518084526020808501808196508360051b810191508286015f5b858110156148b157828403895261489f8483516145a8565b98850198935090840190600101614887565b5091979650505050505050565b60208152815160208201525f60208301516148e460408401826001600160a01b03169052565b5060408301516101808060608501526149016101a08501836145a8565b91506060850151601f198086850301608087015261491f84836145a8565b935060808701519150808685030160a087015261493c84836145a8565b935060a08701519150808685030160c0870152614959848361486b565b935060c08701519150808685030160e0870152614976848361486b565b935060e0870151915061010081878603018188015261499585846145a8565b908801516101208881019190915288015161014080890191909152880151610160808901919091528801518015158589015290945091506130459050565b5f602082840312156149e3575f80fd5b61456882614716565b8a81526001600160a01b038a166020820152610140604082018190525f90614a168382018c6145a8565b90508281036060840152614a2a818b6145a8565b90508281036080840152614a3e818a6145a8565b905082810360a0840152614a5281896145a8565b9150508560c08301528460e0830152836101008301528215156101208301529b9a5050505050505050505050565b5f82601f830112614a8f575f80fd5b813560206001600160401b0380831115614aab57614aab614759565b8260051b614aba83820161476d565b9384528581018301938381019088861115614ad3575f80fd5b84880192505b85831015614b0e57823584811115614af0575f8081fd5b614afe8a87838c010161479d565b8352509184019190840190614ad9565b98975050505050505050565b5f805f805f805f60e0888a031215614b30575f80fd5b87356001600160401b0380821115614b46575f80fd5b614b528b838c0161479d565b985060208a0135915080821115614b67575f80fd5b614b738b838c0161479d565b975060408a0135915080821115614b88575f80fd5b614b948b838c0161479d565b965060608a0135915080821115614ba9575f80fd5b614bb58b838c01614a80565b955060808a0135915080821115614bca575f80fd5b614bd68b838c01614a80565b945060a08a0135915080821115614beb575f80fd5b50614bf88a828b0161479d565b92505060c0880135905092959891949750929550565b6020815281516020820152602082015160408201525f60408301516101c0806060850152614c406101e08501836145a8565b91506060850151601f1980868503016080870152614c5e84836145a8565b935060808701519150808685030160a0870152614c7b84836145a8565b935060a08701519150808685030160c087015250614c99838261486b565b92505060c0850151614cae60e08601826145e7565b5060e0850151610100614cc3818701836145fb565b8601519050610120614cdf868201836001600160a01b03169052565b8601516101408681019190915286015161016080870191909152860151610180808701919091528601516101a0808701919091529095015193019290925250919050565b5f60208284031215614d33575f80fd5b813560058110614568575f80fd5b80356003811061472c575f80fd5b5f805f805f805f80610100898b031215614d67575f80fd5b8835975060208901356001600160401b0380821115614d84575f80fd5b614d908c838d0161479d565b985060408b0135915080821115614da5575f80fd5b614db18c838d0161479d565b975060608b0135915080821115614dc6575f80fd5b614dd28c838d0161479d565b965060808b0135915080821115614de7575f80fd5b50614df48b828c01614a80565b945050614e0360a08a01614d41565b925060c0890135915060e089013590509295985092959890939650565b5f805f805f805f60e0888a031215614e36575f80fd5b8735965060208801356001600160401b0380821115614e53575f80fd5b614e5f8b838c0161479d565b975060408a0135915080821115614e74575f80fd5b614e808b838c0161479d565b965060608a0135915080821115614e95575f80fd5b50614ea28a828b01614a80565b945050614eb160808901614d41565b925060a0880135915060c0880135905092959891949750929550565b5f805f805f8060c08789031215614ee2575f80fd5b8635955060208701356001600160401b0380821115614eff575f80fd5b614f0b8a838b0161479d565b96506040890135915080821115614f20575f80fd5b614f2c8a838b01614a80565b95506060890135915080821115614f41575f80fd5b614f4d8a838b01614a80565b94506080890135915080821115614f62575f80fd5b50614f6f89828a0161479d565b92505060a087013590509295509295509295565b5f60208284031215614f93575f80fd5b61456882614d41565b634e487b7160e01b5f52601160045260245ffd5b5f60018201614fc157614fc1614f9c565b5060010190565b600181811c90821680614fdc57607f821691505b602082108103611bfb57634e487b7160e01b5f52602260045260245ffd5b634e487b7160e01b5f52603260045260245ffd5b808201808211156107b4576107b4614f9c565b818103818111156107b4576107b4614f9c565b5f8161504257615042614f9c565b505f190190565b6060810161505782866145fb565b61506460208301856145fb565b826040830152949350505050565b5f8251615083818460208701614586565b9190910192915050565b601f8211156108ad575f81815260208120601f850160051c810160208610156150b35750805b601f850160051c820191505b818110156150d2578281556001016150bf565b505050505050565b81516001600160401b038111156150f3576150f3614759565b615107816151018454614fc8565b8461508d565b602080601f83116001811461513a575f84156151235750858301515b5f19600386901b1c1916600185901b1785556150d2565b5f85815260208120601f198616915b8281101561516857888601518255948401946001909101908401615149565b508582101561518557878501515f19600388901b60f8161c191681555b5050505050600190811b01905550565b606081525f6151a760608301866145a8565b82810360208401526151b981866145a8565b915050826040830152949350505050565b608081525f6151dc60808301876145a8565b90506151eb60208301866145e7565b6040820193909352606001529291505056fe865e28190d692c855cc9e2efab11452e26cdbca74b72111f18fb68fd29ac19cba2646970667358221220abf9a1e46a84dc78e5dd6e7bfb550da3224a4f26419c1a76bc802bb54aa69b4a64736f6c63430008140033","linkReferences":{}},"methodIdentifiers":{"ADMIN_ROLE()":"75b238fc","APPLICATION_MANAGER_ROLE()":"77de1131","DEFAULT_ADMIN_ROLE()":"a217fddf","addIssue(uint256,string,string,string,string[],uint8,uint256,uint256)":"e5b2a024","addRepo(string,string,string,string[],string[],string,uint256)":"8abd30f1","assignIssue(uint256,address)":"f65fb58d","closeIssue(uint256)":"288c8f62","completeIssue(uint256)":"a0769ad7","contributorIssues(address,uint256)":"13bce2d9","deactivateRepo(uint256)":"84bdcddf","getActiveReposPaginated(uint256,uint256)":"13284858","getAllActiveRepos()":"b6aa03cf","getAllOpenIssues()":"8525a425","getContributorActiveIssues(address)":"82d25702","getContributorCompletedIssues(address)":"423001cc","getContributorIssues(address)":"fd15387d","getIssue(uint256)":"976b3113","getIssueByGithubId(string)":"8f977714","getIssuesByDifficulty(uint8)":"f134510b","getIssuesByStatus(uint8)":"c1c058e4","getIssuesWithBounty()":"89bf373b","getMaintainerRepos(address)":"6d06c5a5","getRepo(uint256)":"5f11f7a4","getRepoByGithubId(string)":"305f1529","getRepoIssues(uint256)":"f607ecaf","getReposByTechStack(string)":"fa7ea750","getReposByTopic(string)":"e9ebc0c8","getRoleAdmin(bytes32)":"248a9ca3","getStats()":"c59d4847","githubIssueIdToIssueId(string)":"249ba9cb","githubRepoIdToRepoId(string)":"9d6cf9f4","grantRole(bytes32,address)":"2f2ff15d","hasRole(bytes32,address)":"91d14854","issueCount()":"98cf147a","issues(uint256)":"04e15de5","maintainerRepos(address,uint256)":"26af1954","reactivateRepo(uint256)":"026bad67","renounceRole(bytes32,address)":"36568abe","repoCount()":"8c2086f5","repoIssues(uint256,uint256)":"f196d202","repos(uint256)":"434dcdeb","revokeRole(bytes32,address)":"d547741f","startIssue(uint256)":"f010e2c2","supportsInterface(bytes4)":"01ffc9a7","totalActiveRepos()":"f10215af","totalBountyAmount()":"de72b83d","totalCompletedIssues()":"c5923a7e","totalOpenIssues()":"530aa276","transferOwnership(uint256,address)":"29507f73","unassignIssue(uint256)":"bb730bab","updateIssue(uint256,string,string,string[],uint8,uint256,uint256)":"efd832b8","updateRepo(uint256,string,string[],string[],string,uint256)":"f063d309"},"id":23}