{"abi":[{"type":"constructor","inputs":[],"stateMutability":"nonpayable"},{"type":"function","name":"ADMIN_ROLE","inputs":[],"outputs":[{"name":"","type":"bytes32","internalType":"bytes32"}],"stateMutability":"view"},{"type":"function","name":"APPLICATION_MANAGER_ROLE","inputs":[],"outputs":[{"name":"","type":"bytes32","internalType":"bytes32"}],"stateMutability":"view"},{"type":"function","name":"DEFAULT_ADMIN_ROLE","inputs":[],"outputs":[{"name":"","type":"bytes32","internalType":"bytes32"}],"stateMutability":"view"},{"type":"function","name":"addIssue","inputs":[{"name":"_repoId","type":"uint256","internalType":"uint256"},{"name":"_githubIssueId","type":"string","internalType":"string"},{"name":"_title","type":"string","internalType":"string"},{"name":"_description","type":"string","internalType":"string"},{"name":"_labels","type":"string[]","internalType":"string[]"},{"name":"_difficulty","type":"uint8","internalType":"enum RepoRegistry.Difficulty"},{"name":"_estimatedHours","type":"uint256","internalType":"uint256"},{"name":"_bountyAmount","type":"uint256","internalType":"uint256"}],"outputs":[{"name":"","type":"uint256","internalType":"uint256"}],"stateMutability":"nonpayable"},{"type":"function","name":"addRepo","inputs":[{"name":"_githubRepoId","type":"string","internalType":"string"},{"name":"_name","type":"string","internalType":"string"},{"name":"_description","type":"string","internalType":"string"},{"name":"_techStack","type":"string[]","internalType":"string[]"},{"name":"_topics","type":"string[]","internalType":"string[]"},{"name":"_homepage","type":"string","internalType":"string"},{"name":"_stars","type":"uint256","internalType":"uint256"}],"outputs":[{"name":"","type":"uint256","internalType":"uint256"}],"stateMutability":"nonpayable"},{"type":"function","name":"assignIssue","inputs":[{"name":"_issueId","type":"uint256","internalType":"uint256"},{"name":"_contributor","type":"address","internalType":"address"}],"outputs":[],"stateMutability":"nonpayable"},{"type":"function","name":"closeIssue","inputs":[{"name":"_issueId","type":"uint256","internalType":"uint256"}],"outputs":[],"stateMutability":"nonpayable"},{"type":"function","name":"completeIssue","inputs":[{"name":"_issueId","type":"uint256","internalType":"uint256"}],"outputs":[],"stateMutability":"nonpayable"},{"type":"function","name":"contributorIssues","inputs":[{"name":"","type":"address","internalType":"address"},{"name":"","type":"uint256","internalType":"uint256"}],"outputs":[{"name":"","type":"uint256","internalType":"uint256"}],"stateMutability":"view"},{"type":"function","name":"deactivateRepo","inputs":[{"name":"_repoId","type":"uint256","internalType":"uint256"}],"outputs":[],"stateMutability":"nonpayable"},{"type":"function","name":"getActiveReposPaginated","inputs":[{"name":"_offset","type":"uint256","internalType":"uint256"},{"name":"_limit","type":"uint256","internalType":"uint256"}],"outputs":[{"name":"","type":"uint256[]","internalType":"uint256[]"}],"stateMutability":"view"},{"type":"function","name":"getAllActiveRepos","inputs":[],"outputs":[{"name":"","type":"uint256[]","internalType":"uint256[]"}],"stateMutability":"view"},{"type":"function","name":"getAllOpenIssues","inputs":[],"outputs":[{"name":"","type":"uint256[]","internalType":"uint256[]"}],"stateMutability":"view"},{"type":"function","name":"getContributorActiveIssues","inputs":[{"name":"_contributor","type":"address","internalType":"address"}],"outputs":[{"name":"","type":"uint256[]","internalType":"uint256[]"}],"stateMutability":"view"},{"type":"function","name":"getContributorCompletedIssues","inputs":[{"name":"_contributor","type":"address","internalType":"address"}],"outputs":[{"name":"","type":"uint256[]","internalType":"uint256[]"}],"stateMutability":"view"},{"type":"function","name":"getContributorIssues","inputs":[{"name":"_contributor","type":"address","internalType":"address"}],"outputs":[{"name":"","type":"uint256[]","internalType":"uint256[]"}],"stateMutability":"view"},{"type":"function","name":"getIssue","inputs":[{"name":"_issueId","type":"uint256","internalType":"uint256"}],"outputs":[{"name":"","type":"tuple","internalType":"struct RepoRegistry.Issue","components":[{"name":"id","type":"uint256","internalType":"uint256"},{"name":"repoId","type":"uint256","internalType":"uint256"},{"name":"githubIssueId","type":"string","internalType":"string"},{"name":"title","type":"string","internalType":"string"},{"name":"description","type":"string","internalType":"string"},{"name":"labels","type":"string[]","internalType":"string[]"},{"name":"difficulty","type":"uint8","internalType":"enum RepoRegistry.Difficulty"},{"name":"status","type":"uint8","internalType":"enum RepoRegistry.Status"},{"name":"assignedContributor","type":"address","internalType":"address"},{"name":"estimatedHours","type":"uint256","internalType":"uint256"},{"name":"bountyAmount","type":"uint256","internalType":"uint256"},{"name":"createdAt","type":"uint256","internalType":"uint256"},{"name":"assignedAt","type":"uint256","internalType":"uint256"},{"name":"completedAt","type":"uint256","internalType":"uint256"}]}],"stateMutability":"view"},{"type":"function","name":"getIssueByGithubId","inputs":[{"name":"_githubIssueId","type":"string","internalType":"string"}],"outputs":[{"name":"","type":"tuple","internalType":"struct RepoRegistry.Issue","components":[{"name":"id","type":"uint256","internalType":"uint256"},{"name":"repoId","type":"uint256","internalType":"uint256"},{"name":"githubIssueId","type":"string","internalType":"string"},{"name":"title","type":"string","internalType":"string"},{"name":"description","type":"string","internalType":"string"},{"name":"labels","type":"string[]","internalType":"string[]"},{"name":"difficulty","type":"uint8","internalType":"enum RepoRegistry.Difficulty"},{"name":"status","type":"uint8","internalType":"enum RepoRegistry.Status"},{"name":"assignedContributor","type":"address","internalType":"address"},{"name":"estimatedHours","type":"uint256","internalType":"uint256"},{"name":"bountyAmount","type":"uint256","internalType":"uint256"},{"name":"createdAt","type":"uint256","internalType":"uint256"},{"name":"assignedAt","type":"uint256","internalType":"uint256"},{"name":"completedAt","type":"uint256","internalType":"uint256"}]}],"stateMutability":"view"},{"type":"function","name":"getIssuesByDifficulty","inputs":[{"name":"_difficulty","type":"uint8","internalType":"enum RepoRegistry.Difficulty"}],"outputs":[{"name":"","type":"uint256[]","internalType":"uint256[]"}],"stateMutability":"view"},{"type":"function","name":"getIssuesByStatus","inputs":[{"name":"_status","type":"uint8","internalType":"enum RepoRegistry.Status"}],"outputs":[{"name":"","type":"uint256[]","internalType":"uint256[]"}],"stateMutability":"view"},{"type":"function","name":"getIssuesWithBounty","inputs":[],"outputs":[{"name":"","type":"uint256[]","internalType":"uint256[]"}],"stateMutability":"view"},{"type":"function","name":"getMaintainerRepos","inputs":[{"name":"_maintainer","type":"address","internalType":"address"}],"outputs":[{"name":"","type":"uint256[]","internalType":"uint256[]"}],"stateMutability":"view"},{"type":"function","name":"getRepo","inputs":[{"name":"_repoId","type":"uint256","internalType":"uint256"}],"outputs":[{"name":"","type":"tuple","internalType":"struct RepoRegistry.Repo","components":[{"name":"id","type":"uint256","internalType":"uint256"},{"name":"maintainer","type":"address","internalType":"address"},{"name":"githubRepoId","type":"string","internalType":"string"},{"name":"name","type":"string","internalType":"string"},{"name":"description","type":"string","internalType":"string"},{"name":"techStack","type":"string[]","internalType":"string[]"},{"name":"topics","type":"string[]","internalType":"string[]"},{"name":"homepage","type":"string","internalType":"string"},{"name":"stars","type":"uint256","internalType":"uint256"},{"name":"createdAt","type":"uint256","internalType":"uint256"},{"name":"updatedAt","type":"uint256","internalType":"uint256"},{"name":"isActive","type":"bool","internalType":"bool"}]}],"stateMutability":"view"},{"type":"function","name":"getRepoByGithubId","inputs":[{"name":"_githubRepoId","type":"string","internalType":"string"}],"outputs":[{"name":"","type":"tuple","internalType":"struct RepoRegistry.Repo","components":[{"name":"id","type":"uint256","internalType":"uint256"},{"name":"maintainer","type":"address","internalType":"address"},{"name":"githubRepoId","type":"string","internalType":"string"},{"name":"name","type":"string","internalType":"string"},{"name":"description","type":"string","internalType":"string"},{"name":"techStack","type":"string[]","internalType":"string[]"},{"name":"topics","type":"string[]","internalType":"string[]"},{"name":"homepage","type":"string","internalType":"string"},{"name":"stars","type":"uint256","internalType":"uint256"},{"name":"createdAt","type":"uint256","internalType":"uint256"},{"name":"updatedAt","type":"uint256","internalType":"uint256"},{"name":"isActive","type":"bool","internalType":"bool"}]}],"stateMutability":"view"},{"type":"function","name":"getRepoIssues","inputs":[{"name":"_repoId","type":"uint256","internalType":"uint256"}],"outputs":[{"name":"","type":"uint256[]","internalType":"uint256[]"}],"stateMutability":"view"},{"type":"function","name":"getReposByTechStack","inputs":[{"name":"_tech","type":"string","internalType":"string"}],"outputs":[{"name":"","type":"uint256[]","internalType":"uint256[]"}],"stateMutability":"view"},{"type":"function","name":"getReposByTopic","inputs":[{"name":"_topic","type":"string","internalType":"string"}],"outputs":[{"name":"","type":"uint256[]","internalType":"uint256[]"}],"stateMutability":"view"},{"type":"function","name":"getRoleAdmin","inputs":[{"name":"role","type":"bytes32","internalType":"bytes32"}],"outputs":[{"name":"","type":"bytes32","internalType":"bytes32"}],"stateMutability":"view"},{"type":"function","name":"getStats","inputs":[],"outputs":[{"name":"totalRepos","type":"uint256","internalType":"uint256"},{"name":"activeRepos","type":"uint256","internalType":"uint256"},{"name":"totalIssues","type":"uint256","internalType":"uint256"},{"name":"openIssues","type":"uint256","internalType":"uint256"},{"name":"completedIssues","type":"uint256","internalType":"uint256"},{"name":"totalBounty","type":"uint256","internalType":"uint256"}],"stateMutability":"view"},{"type":"function","name":"githubIssueIdToIssueId","inputs":[{"name":"","type":"string","internalType":"string"}],"outputs":[{"name":"","type":"uint256","internalType":"uint256"}],"stateMutability":"view"},{"type":"function","name":"githubRepoIdToRepoId","inputs":[{"name":"","type":"string","internalType":"string"}],"outputs":[{"name":"","type":"uint256","internalType":"uint256"}],"stateMutability":"view"},{"type":"function","name":"grantRole","inputs":[{"name":"role","type":"bytes32","internalType":"bytes32"},{"name":"account","type":"address","internalType":"address"}],"outputs":[],"stateMutability":"nonpayable"},{"type":"function","name":"hasRole","inputs":[{"name":"role","type":"bytes32","internalType":"bytes32"},{"name":"account","type":"address","internalType":"address"}],"outputs":[{"name":"","type":"bool","internalType":"bool"}],"stateMutability":"view"},{"type":"function","name":"issueCount","inputs":[],"outputs":[{"name":"","type":"uint256","internalType":"uint256"}],"stateMutability":"view"},{"type":"function","name":"issues","inputs":[{"name":"","type":"uint256","internalType":"uint256"}],"outputs":[{"name":"id","type":"uint256","internalType":"uint256"},{"name":"repoId","type":"uint256","internalType":"uint256"},{"name":"githubIssueId","type":"string","internalType":"string"},{"name":"title","type":"string","internalType":"string"},{"name":"description","type":"string","internalType":"string"},{"name":"difficulty","type":"uint8","internalType":"enum RepoRegistry.Difficulty"},{"name":"status","type":"uint8","internalType":"enum RepoRegistry.Status"},{"name":"assignedContributor","type":"address","internalType":"address"},{"name":"estimatedHours","type":"uint256","internalType":"uint256"},{"name":"bountyAmount","type":"uint256","internalType":"uint256"},{"name":"createdAt","type":"uint256","internalType":"uint256"},{"name":"assignedAt","type":"uint256","internalType":"uint256"},{"name":"completedAt","type":"uint256","internalType":"uint256"}],"stateMutability":"view"},{"type":"function","name":"maintainerRepos","inputs":[{"name":"","type":"address","internalType":"address"},{"name":"","type":"uint256","internalType":"uint256"}],"outputs":[{"name":"","type":"uint256","internalType":"uint256"}],"stateMutability":"view"},{"type":"function","name":"reactivateRepo","inputs":[{"name":"_repoId","type":"uint256","internalType":"uint256"}],"outputs":[],"stateMutability":"nonpayable"},{"type":"function","name":"renounceRole","inputs":[{"name":"role","type":"bytes32","internalType":"bytes32"},{"name":"callerConfirmation","type":"address","internalType":"address"}],"outputs":[],"stateMutability":"nonpayable"},{"type":"function","name":"repoCount","inputs":[],"outputs":[{"name":"","type":"uint256","internalType":"uint256"}],"stateMutability":"view"},{"type":"function","name":"repoIssues","inputs":[{"name":"","type":"uint256","internalType":"uint256"},{"name":"","type":"uint256","internalType":"uint256"}],"outputs":[{"name":"","type":"uint256","internalType":"uint256"}],"stateMutability":"view"},{"type":"function","name":"repos","inputs":[{"name":"","type":"uint256","internalType":"uint256"}],"outputs":[{"name":"id","type":"uint256","internalType":"uint256"},{"name":"maintainer","type":"address","internalType":"address"},{"name":"githubRepoId","type":"string","internalType":"string"},{"name":"name","type":"string","internalType":"string"},{"name":"description","type":"string","internalType":"string"},{"name":"homepage","type":"string","internalType":"string"},{"name":"stars","type":"uint256","internalType":"uint256"},{"name":"createdAt","type":"uint256","internalType":"uint256"},{"name":"updatedAt","type":"uint256","internalType":"uint256"},{"name":"isActive","type":"bool","internalType":"bool"}],"stateMutability":"view"},{"type":"function","name":"revokeRole","inputs":[{"name":"role","type":"bytes32","internalType":"bytes32"},{"name":"account","type":"address","internalType":"address"}],"outputs":[],"stateMutability":"nonpayable"},{"type":"function","name":"startIssue","inputs":[{"name":"_issueId","type":"uint256","internalType":"uint256"}],"outputs":[],"stateMutability":"nonpayable"},{"type":"function","name":"supportsInterface","inputs":[{"name":"interfaceId","type":"bytes4","internalType":"bytes4"}],"outputs":[{"name":"","type":"bool","internalType":"bool"}],"stateMutability":"view"},{"type":"function","name":"totalActiveRepos","inputs":[],"outputs":[{"name":"","type":"uint256","internalType":"uint256"}],"stateMutability":"view"},{"type":"function","name":"totalBountyAmount","inputs":[],"outputs":[{"name":"","type":"uint256","internalType":"uint256"}],"stateMutability":"view"},{"type":"function","name":"totalCompletedIssues","inputs":[],"outputs":[{"name":"","type":"uint256","internalType":"uint256"}],"stateMutability":"view"},{"type":"function","name":"totalOpenIssues","inputs":[],"outputs":[{"name":"","type":"uint256","internalType":"uint256"}],"stateMutability":"view"},{"type":"function","name":"transferOwnership","inputs":[{"name":"_repoId","type":"uint256","internalType":"uint256"},{"name":"_newMaintainer","type":"address","internalType":"address"}],"outputs":[],"stateMutability":"nonpayable"},{"type":"function","name":"unassignIssue","inputs":[{"name":"_issueId","type":"uint256","internalType":"uint256"}],"outputs":[],"stateMutability":"nonpayable"},{"type":"function","name":"updateIssue","inputs":[{"name":"_issueId","type":"uint256","internalType":"uint256"},{"name":"_title","type":"string","internalType":"string"},{"name":"_description","type":"string","internalType":"string"},{"name":"_labels","type":"string[]","internalType":"string[]"},{"name":"_difficulty","type":"uint8","internalType":"enum RepoRegistry.Difficulty"},{"name":"_estimatedHours","type":"uint256","internalType":"uint256"},{"name":"_bountyAmount","type":"uint256","internalType":"uint256"}],"outputs":[],"stateMutability":"nonpayable"},{"type":"function","name":"updateRepo","inputs":[{"name":"_repoId","type":"uint256","internalType":"uint256"},{"name":"_description","type":"string","internalType":"string"},{"name":"_techStack","type":"string[]","internalType":"string[]"},{"name":"_topics","type":"string[]","internalType":"string[]"},{"name":"_homepage","type":"string","internalType":"string"},{"name":"_stars","type":"uint256","internalType":"uint256"}],"outputs":[],"stateMutability":"nonpayable"},{"type":"event","name":"IssueAdded","inputs":[{"name":"issueId","type":"uint256","indexed":true,"internalType":"uint256"},{"name":"repoId","type":"uint256","indexed":true,"internalType":"uint256"},{"name":"title","type":"string","indexed":false,"internalType":"string"},{"name":"difficulty","type":"uint8","indexed":false,"internalType":"enum RepoRegistry.Difficulty"},{"name":"bountyAmount","type":"uint256","indexed":false,"internalType":"uint256"},{"name":"timestamp","type":"uint256","indexed":false,"internalType":"uint256"}],"anonymous":false},{"type":"event","name":"IssueAssigned","inputs":[{"name":"issueId","type":"uint256","indexed":true,"internalType":"uint256"},{"name":"contributor","type":"address","indexed":true,"internalType":"address"},{"name":"timestamp","type":"uint256","indexed":false,"internalType":"uint256"}],"anonymous":false},{"type":"event","name":"IssueClosed","inputs":[{"name":"issueId","type":"uint256","indexed":true,"internalType":"uint256"},{"name":"timestamp","type":"uint256","indexed":false,"internalType":"uint256"}],"anonymous":false},{"type":"event","name":"IssueCompleted","inputs":[{"name":"issueId","type":"uint256","indexed":true,"internalType":"uint256"},{"name":"contributor","type":"address","indexed":true,"internalType":"address"},{"name":"completedAt","type":"uint256","indexed":false,"internalType":"uint256"}],"anonymous":false},{"type":"event","name":"IssueStatusUpdated","inputs":[{"name":"issueId","type":"uint256","indexed":true,"internalType":"uint256"},{"name":"oldStatus","type":"uint8","indexed":false,"internalType":"enum RepoRegistry.Status"},{"name":"newStatus","type":"uint8","indexed":false,"internalType":"enum RepoRegistry.Status"},{"name":"timestamp","type":"uint256","indexed":false,"internalType":"uint256"}],"anonymous":false},{"type":"event","name":"IssueUpdated","inputs":[{"name":"issueId","type":"uint256","indexed":true,"internalType":"uint256"},{"name":"timestamp","type":"uint256","indexed":false,"internalType":"uint256"}],"anonymous":false},{"type":"event","name":"RepoAdded","inputs":[{"name":"repoId","type":"uint256","indexed":true,"internalType":"uint256"},{"name":"maintainer","type":"address","indexed":true,"internalType":"address"},{"name":"githubRepoId","type":"string","indexed":false,"internalType":"string"},{"name":"name","type":"string","indexed":false,"internalType":"string"},{"name":"timestamp","type":"uint256","indexed":false,"internalType":"uint256"}],"anonymous":false},{"type":"event","name":"RepoDeactivated","inputs":[{"name":"repoId","type":"uint256","indexed":true,"internalType":"uint256"},{"name":"timestamp","type":"uint256","indexed":false,"internalType":"uint256"}],"anonymous":false},{"type":"event","name":"RepoReactivated","inputs":[{"name":"repoId","type":"uint256","indexed":true,"internalType":"uint256"},{"name":"timestamp","type":"uint256","indexed":false,"internalType":"uint256"}],"anonymous":false},{"type":"event","name":"RepoUpdated","inputs":[{"name":"repoId","type":"uint256","indexed":true,"internalType":"uint256"},{"name":"timestamp","type":"uint256","indexed":false,"internalType":"uint256"}],"anonymous":false},{"type":"event","name":"RoleAdminChanged","inputs":[{"name":"role","type":"bytes32","indexed":true,"internalType":"bytes32"},{"name":"previousAdminRole","type":"bytes32","indexed":true,"internalType":"bytes32"},{"name":"newAdminRole","type":"bytes32","indexed":true,"internalType":"bytes32"}],"anonymous":false},{"type":"event","name":"RoleGranted","inputs":[{"name":"role","type":"bytes32","indexed":true,"internalType":"bytes32"},{"name":"account","type":"address","indexed":true,"internalType":"address"},{"name":"sender","type":"address","indexed":true,"internalType":"address"}],"anonymous":false},{"type":"event","name":"RoleRevoked","inputs":[{"name":"role","type":"bytes32","indexed":true,"internalType":"bytes32"},{"name":"account","type":"address","indexed":true,"internalType":"address"},{"name":"sender","type":"address","indexed":true,"internalType":"address"}],"anonymous":false},{"type":"error","name":"AccessControlBadConfirmation","inputs":[]},{"type":"error","name":"AccessControlUnauthorizedAccount","inputs":[{"name":"account","type":"address","internalType":"address"},{"name":"neededRole","type":"bytes32","internalType":"bytes32"}]},{"type":"error","name":"EmptyIssueName","inputs":[]},{"type":"error","name":"EmptyRepoId","inputs":[]},{"type":"error","name":"InvalidStatus","inputs":[]},{"type":"error","name":"IssueAlreadyExists","inputs":[]},{"type":"error","name":"IssueDoesNotExist","inputs":[]},{"type":"error","name":"IssueNotAssigned","inputs":[]},{"type":"error","name":"IssueNotInProgress","inputs":[]},{"type":"error","name":"IssueNotOpen","inputs":[]},{"type":"error","name":"NotAssignedContributor","inputs":[]},{"type":"error","name":"NotMaintainer","inputs":[]},{"type":"error","name":"RepoAlreadyExists","inputs":[]},{"type":"error","name":"RepoDoesNotExist","inputs":[]},{"type":"error","name":"RepoInactive","inputs":[]},{"type":"error","name":"Unauthorized","inputs":[]}],"bytecode":{"object":"0x6080604052346200003257620000153362000036565b506200002133620000b4565b506040516148b49081620001558239f35b5f80fd5b6001600160a01b03165f8181527fad3228b676f7d3cd4284a5443f17f1962b36e491b30a40b2405849e597ba5fb5602052604081205490919060ff16620000b057818052816020526040822081835260205260408220600160ff1982541617905533915f8051602062004a098339815191528180a4600190565b5090565b6001600160a01b03165f8181527f7d7ffb7a348e1c6a02869081a26547b49160dd3df72d1d75a570eb9b698292ec60205260408120549091907fa49807205ce4d355092ef5a8a18f56e8913cf4a201fbe287825b095693c217759060ff166200014f57808352826020526040832082845260205260408320600160ff198254161790555f8051602062004a09833981519152339380a4600190565b50509056fe6080806040526004361015610012575f80fd5b5f3560e01c90816301ffc9a714613da957508063026bad6714613d5357806304e15de514613c615780631328485814613c4757806313bce2d914613bfe578063248a9ca314613bd2578063249ba9cb14613b8957806326af195414613b31578063288c8f6214613a2f57806329507f731461395b5780632f2ff15d1461391f578063305f1529146138b257806336568abe1461386b578063423001cc14613728578063434dcdeb14613636578063530aa276146136195780635f11f7a4146135105780636d06c5a51461349d57806375b238fc1461346357806377de11311461342957806382d25702146132a057806384bdcddf1461324a5780638525a4251461317057806389bf373b146130645780638abd30f1146126205780638c2086f5146126035780638f9777141461258457806391d148541461253c578063976b31131461241e57806398cf147a146124015780639d6cf9f4146123a5578063a0769ad714612289578063a217fddf1461226f578063b6aa03cf146121af578063bb730bab146120ba578063c1c058e414611fc1578063c5923a7e14611fa4578063c59d484714611f5d578063d547741f14611f1f578063de72b83d14611f02578063e5b2a0241461168e578063e9ebc0c8146114f2578063efd832b81461100d578063f010e2c214610f45578063f063d3091461088b578063f10215af1461086e578063f134510b14610717578063f196d202146106da578063f607ecaf1461064b578063f65fb58d1461048d578063fa7ea750146102df5763fd15387d14610258575f80fd5b346102db576020806003193601126102db576001600160a01b0361027a613fde565b165f526005815260405f209060405190818184549182815201935f52815f20915f905b8282106102c4576102c0856102b481890382613e6c565b60405191829182613fa4565b0390f35b83548652948501946001938401939091019061029d565b5f80fd5b346102db576020806003193601126102db576004356001600160401b0381116102db57610310903690600401614033565b600854918181015f60015b858111156103ef575061032d906146b1565b925f916001935b8685111561034a57604051806102c08882613fa4565b845f96949596526001815260405f2060ff600b82015416156103e1576005610372910161465d565b965f5b88518110156103d257610388818a6146e3565b5183815191012085518520146103a6576103a190614478565b610375565b50946103cb91975080876103bf6103c593889a986146e3565b52614478565b93614478565b9395610334565b509493956103cb919750614478565b50959392946103cb90614478565b93919092845f526001815260405f2060ff600b820154161561047e576005610417910161465d565b955f5b875181101561046e5761042d81896146e3565b51838151910120855185201461044b5761044690614478565b61041a565b50936104669196506104609095929395614478565b91614478565b94929461031b565b5093919294610466919650614478565b50949290919361046690614478565b346102db5760403660031901126102db576004356104a9613ff4565b81158015610640575b61062e57815f5260206002815260405f209060018201545f526001815260018060a01b039081600160405f20015416331480156105f1575b156105e057600683019060ff825460081c169260058410156105cc57836105ba57825462010000600160b01b031916601087901b62010000600160b01b03161783555f8051602061485f8339815191529560609560019461010061ff0019825416179055600a4291015516805f52600582526105698760405f206144b0565b610574600b546144e4565b600b55867f4379a47cc4244fc90b7829ce742179a7bd34e7131b2865ae1afc8a978c9c904283604051428152a36105ae6040518094613f81565b820152426040820152a2005b60405163eb3edb8760e01b8152600490fd5b634e487b7160e01b5f52602160045260245ffd5b6040516282b42960e81b8152600490fd5b507f020f3d218b9e6e9bc1ec7181d6f3fa404a8f29787a07258e863d949e04556fe35f525f815260405f20335f52815260ff60405f2054166104ea565b60405163f30b1da560e01b8152600490fd5b5060095482116104b2565b346102db576020806003193601126102db57600435801580156106cf575b6106bd575f526004815260405f209060405190818184549182815201935f52815f20915f905b8282106106a6576102c0856102b481890382613e6c565b83548652948501946001938401939091019061068f565b6040516319dbcedd60e31b8152600490fd5b506008548111610669565b346102db576106e836613f8e565b905f52600460205260405f2080548210156102db576020916107099161400a565b90546040519160031b1c8152f35b346102db576020806003193601126102db57600435906003908183101590816102db57600954915f60015b848111156107f25750610754906146b1565b935f9560015b8581111561077057604051806102c08982613fa4565b805f52600280865260ff600686828260405f20015416906105cc57868110156105cc57851492836107cd575b5050506107b2575b6107ad90614478565b61075a565b966107c581896103bf6107ad948b6146e3565b9790506107a4565b90919250835f52875260405f20015460081c1660058110156105cc571589808061079c565b805f52600280855260ff600685828260405f20015416906105cc57898110156105cc578a149283610849575b505050610834575b61082f90614478565b610742565b9061084161082f91614478565b919050610826565b90919250835f52865260405f20015460081c1660058110156105cc571588808061081e565b346102db575f3660031901126102db576020600a54604051908152f35b346102db5760c03660031901126102db576024356001600160401b0381116102db576108bb903690600401614033565b6044356001600160401b0381116102db576108da9036906004016141dc565b906064356001600160401b0381116102db576108fa9036906004016141dc565b6084356001600160401b0381116102db57610919903690600401614033565b92600435158015610f38575b6106bd576004355f52600160205260018060a01b03600160405f200154163303610f26576004355f52600160205260405f20928051906001600160401b038211610b645781906109786004870154613dfc565b601f8111610ef3575b50602090601f8311600114610e85575f92610e7a575b50508160011b915f199060031b1c19161760048401555b805190600160401b8211610b64576005840154826005860155808310610e06575b5060200190600584015f5260205f20915f905b828210610cf95750505050805190600160401b8211610b64576006830154826006850155808310610c85575b5060200190600683015f5260205f20915f905b828210610b785785856007810182516001600160401b038111610b6457610a488254613dfc565b601f8111610b29575b506020601f8211600114610ac757819293945f92610abc575b50508160011b915f199060031b1c19161790555b60a4356008820155600a429101556040514281527f32d2c9464d660d2bce21ae0293d1ba1ea3a926e666f795eca34a95550ea68961602060043592a2005b015190508480610a6a565b601f19821690835f5260205f20915f5b818110610b1157509583600195969710610af9575b505050811b019055610a7e565b01515f1960f88460031b161c19169055848080610aec565b9192602060018192868b015181550194019201610ad7565b610b5490835f5260205f20601f840160051c81019160208510610b5a575b601f0160051c019061449a565b84610a51565b9091508190610b47565b634e487b7160e01b5f52604160045260245ffd5b80518051906001600160401b038211610b6457610b958654613dfc565b601f8111610c55575b50602090601f8311600114610be95792826001949360209386955f92610bde575b50505f19600383901b1c191690841b1787555b01940191019092610a21565b015190508b80610bbf565b90865f5260205f20915f5b601f1985168110610c3d575083602093600196938796938794601f19811610610c25575b505050811b018755610bd2565b01515f1960f88460031b161c191690558b8080610c18565b91926020600181928685015181550194019201610bf4565b610c7f90875f5260205f20601f850160051c81019160208610610b5a57601f0160051c019061449a565b88610b9e565b600684015f5260205f20908382015b8183018110610ca4575050610a0e565b80610cb160019254613dfc565b80610cbe575b5001610c94565b601f81118314610cd357505f81555b88610cb7565b5f90828252610cf0601f60208420920160051c820185830161449a565b81835555610ccd565b80518051906001600160401b038211610b6457610d168654613dfc565b601f8111610dd6575b50602090601f8311600114610d6a5792826001949360209386955f92610d5f575b50505f19600383901b1c191690841b1787555b019401910190926109e2565b015190508c80610d40565b90865f5260205f20915f5b601f1985168110610dbe575083602093600196938796938794601f19811610610da6575b505050811b018755610d53565b01515f1960f88460031b161c191690558c8080610d99565b91926020600181928685015181550194019201610d75565b610e0090875f5260205f20601f850160051c81019160208610610b5a57601f0160051c019061449a565b89610d1f565b600585015f5260205f20908382015b8183018110610e255750506109cf565b80610e3260019254613dfc565b80610e3f575b5001610e15565b601f81118314610e5457505f81555b89610e38565b5f90828252610e71601f60208420920160051c820185830161449a565b81835555610e4e565b015190508680610997565b9250600486015f5260205f20905f935b601f1984168510610ed8576001945083601f19811610610ec0575b505050811b0160048401556109ae565b01515f1960f88460031b161c19169055868080610eb0565b81810151835560209485019460019093019290910190610e95565b610f2090600488015f5260205f20601f850160051c81019160208610610b5a57601f0160051c019061449a565b87610981565b604051639b96b05160e01b8152600490fd5b5060085460043511610925565b346102db5760203660031901126102db5760043580158015611002575b61062e575f818152600260205260409020600601805433601082901c6001600160a01b031603610ff05760ff8160081c1660058110156105cc5760018103610fde575f8051602061485f8339815191529261020060609361ff001916179055610fce6040518092613f81565b60026020820152426040820152a2005b6040516307a92f1960e51b8152600490fd5b60405163fd6afc7960e01b8152600490fd5b506009548111610f62565b346102db5760e03660031901126102db576024356001600160401b0381116102db5761103d903690600401614033565b6044356001600160401b0381116102db5761105c903690600401614033565b906064356001600160401b0381116102db5761107c9036906004016141dc565b6084359060038210156102db576004351580156114e5575b61062e576004355f52600260205260405f209260018401545f52600160205260018060a01b03600160405f200154163303610f26576110e6600d546110e160c435916008880154906145f7565b6145ea565b600d5580516001600160401b038111610b64578060038601926111098454613dfc565b601f81116114b5575b50602090601f8311600114611451575f92611446575b50508160011b915f199060031b1c19161790555b83516001600160401b038111610b64576111596004850154613dfc565b601f8111611413575b506020601f82116001146113a85781929394955f9261139d575b50508160011b915f199060031b1c19161760048401555b805190600160401b8211610b64576005840154826005860155808310611329575b5060200190600584015f5260205f20915f905b82821061121c57856111dc86600683016145d2565b60a4356007820155600860c4359101556040514281527fcd163937822a3ee9f8cca3992bd454656b3ce593d27ad3cefc576ed5d9d116a4602060043592a2005b80518051906001600160401b038211610b64576112398654613dfc565b601f81116112f9575b50602090601f831160011461128d5792826001949360209386955f92611282575b50505f19600383901b1c191690841b1787555b019401910190926111c7565b015190508b80611263565b90865f5260205f20915f5b601f19851681106112e1575083602093600196938796938794601f198116106112c9575b505050811b018755611276565b01515f1960f88460031b161c191690558b80806112bc565b91926020600181928685015181550194019201611298565b61132390875f5260205f20601f850160051c81019160208610610b5a57601f0160051c019061449a565b88611242565b600585015f5260205f20908382015b81830181106113485750506111b4565b8061135560019254613dfc565b80611362575b5001611338565b601f8111831461137757505f81555b8861135b565b5f90828252611394601f60208420920160051c820185830161449a565b81835555611371565b01519050858061117c565b600485015f5260205f20905f5b601f19841681106113fb575060019394959683601f198116106113e3575b505050811b016004840155611193565b01515f1960f88460031b161c191690558580806113d3565b9091602060018192858b0151815501930191016113b5565b61144090600486015f5260205f20601f840160051c81019160208510610b5a57601f0160051c019061449a565b85611162565b015190508780611128565b5f858152602081209350601f198516905b81811061149d5750908460019594939210611485575b505050811b01905561113c565b01515f1960f88460031b161c19169055878080611478565b92936020600181928786015181550195019301611462565b6114df90855f5260205f20601f850160051c81019160208610610b5a57601f0160051c019061449a565b88611112565b5060095460043511611094565b346102db576020806003193601126102db576004356001600160401b0381116102db57611523903690600401614033565b600854918181015f60015b858111156115f65750611540906146b1565b925f916001935b8685111561155d57604051806102c08882613fa4565b845f96949596526001815260405f2060ff600b82015416156115e8576006611585910161465d565b965f5b88518110156115d95761159b818a6146e3565b5183815191012085518520146115b9576115b490614478565b611588565b50946115d291975080876103bf6103c593889a986146e3565b9395611547565b509493956115d2919750614478565b50959392946115d290614478565b93919092845f526001815260405f2060ff600b820154161561167f57600661161e910161465d565b955f5b875181101561166f5761163481896146e3565b5183815191012085518520146116525761164d90614478565b611621565b50936116679196506104609095929395614478565b94929461152e565b5093919294611667919650614478565b50949290919361166790614478565b346102db576101003660031901126102db57602480356001600160401b0381116102db576116c0903690600401614033565b906044356001600160401b0381116102db576116e0903690600401614033565b906064356001600160401b0381116102db57611700903690600401614033565b6084356001600160401b0381116102db5761171f9036906004016141dc565b600360a43510156102db57600435158015611ef5575b6106bd576004355f52600160205260018060a01b03600160405f200154163303610f26576004355f52600160205260ff600b60405f2001541615611ee357835115611ed157604051602081875161178f8183858c01613f2e565b8101600781520301902054611ebf576117a9600954614478565b9081600955604051926117bb84613e50565b8284526004356020850152866040850152856060850152608084015260a08301526117eb60a43560c084016145ba565b5f60e08301525f61010083015260c43561012083015260e435610140830152426101608301525f6101808301525f6101a08301525f52600260205260405f2091815183556020820151600184015560408201518051906001600160401b038211611ca857819061185e6002870154613dfc565b601f8111611e8c575b50602090601f8311600114611e1e575f92611e13575b50508160011b915f199060031b1c19161760028401555b60608201518051906001600160401b038211611ca85781906118b96003870154613dfc565b601f8111611de0575b50602090601f8311600114611d72575f92611d67575b50508160011b915f199060031b1c19161760038401555b60808201518051906001600160401b038211611ca85781906119146004870154613dfc565b601f8111611d34575b50602090601f8311600114611cc6575f92611cbb575b50508160011b915f199060031b1c19161760048401555b60a0820151805190600160401b8211611ca8576005850154826005870155808310611c34575b50602001600585015f5260205f205f915b838310611b14575050505060c08201516003811015611b00576119a790600685016145d2565b60e0820151906005821015611aed57600684018054610100850151610100600160b01b0319909116600885901b61ff00161760109190911b62010000600160b01b0316179055602080868887600b6101a089610120810151600785015561014081015160088501556101608101516009850155610180810151600a85015501519101556004355f5260048352611a4360405f20600954906144b0565b611a5f6009549384928160405193828580945193849201613f2e565b8101600781520301902055611a75600b54614478565b600b55611a8660e435600d546145ea565b600d55817fa31657be9ac04d3dfa6798c7f0c0eb8db90a146b6fda8fc8436df3ef3ee3de61611ac060405193608085526080850190613f4f565b92611acf86820160a435613f74565b60e435604082015242606082015280600435940390a3604051908152f35b634e487b7160e01b5f9081526021600452fd5b50634e487b7160e01b5f9081526021600452fd5b80518051906001600160401b038211611c2157611b318454613dfc565b601f8111611bf1575b50602090601f8311600114611b855792826001949360209386955f92611b7a575b50505f19600383901b1c191690841b1785555b01920192019190611981565b015190508e80611b5b565b90845f5260205f20915f5b601f1985168110611bd9575083602093600196938796938794601f19811610611bc1575b505050811b018555611b6e565b01515f1960f88460031b161c191690558e8080611bb4565b91926020600181928685015181550194019201611b90565b611c1b90855f5260205f20601f850160051c81019160208610610b5a57601f0160051c019061449a565b8b611b3a565b86634e487b7160e01b5f5260416004525ffd5b600586015f5260205f20908382015b8183018110611c53575050611970565b80611c6060019254613dfc565b80611c6d575b5001611c43565b601f81118314611c8257505f81555b8b611c66565b5f90828252611c9f601f60208420920160051c820185830161449a565b81835555611c7c565b82634e487b7160e01b5f5260416004525ffd5b015190508780611933565b9250600486015f5260205f20905f935b601f1984168510611d19576001945083601f19811610611d01575b505050811b01600484015561194a565b01515f1960f88460031b161c19169055878080611cf1565b81810151835560209485019460019093019290910190611cd6565b611d6190600488015f5260205f20601f850160051c81019160208610610b5a57601f0160051c019061449a565b8861191d565b0151905087806118d8565b9250600386015f5260205f20905f935b601f1984168510611dc5576001945083601f19811610611dad575b505050811b0160038401556118ef565b01515f1960f88460031b161c19169055878080611d9d565b81810151835560209485019460019093019290910190611d82565b611e0d90600388015f5260205f20601f850160051c81019160208610610b5a57601f0160051c019061449a565b886118c2565b01519050878061187d565b9250600286015f5260205f20905f935b601f1984168510611e71576001945083601f19811610611e59575b505050811b016002840155611894565b01515f1960f88460031b161c19169055878080611e49565b81810151835560209485019460019093019290910190611e2e565b611eb990600288015f5260205f20601f850160051c81019160208610610b5a57601f0160051c019061449a565b88611867565b6040516322d6cb1960e01b8152600490fd5b6040516303937b0760e61b8152600490fd5b604051630ebf9c2360e31b8152600490fd5b5060085460043511611735565b346102db575f3660031901126102db576020600d54604051908152f35b346102db5760403660031901126102db57611f5b600435611f3e613ff4565b90805f525f602052611f56600160405f20015461434a565b614405565b005b346102db575f3660031901126102db5760c0600854600a54600954600b54600c5491600d5493604051958652602086015260408501526060840152608083015260a0820152f35b346102db575f3660031901126102db576020600c54604051908152f35b346102db576020806003193601126102db57600435906005908183101590816102db57600954915f60015b8481111561206d5750611ffe906146b1565b935f9260015b8581111561201a57604051806102c08982613fa4565b805f52600282528360ff600660405f20015460081c16906105cc57838110156105cc578814612052575b61204d90614478565b612004565b9361206581866103bf61204d948b6146e3565b949050612044565b805f52600284528260ff600660405f20015460081c16906105cc57868110156105cc5787146120a5575b6120a090614478565b611fec565b906120b26120a091614478565b919050612097565b346102db5760203660031901126102db57600435801580156121a4575b61062e57805f52600260205260405f2060018101545f52600160205260018060a01b03600160405f200154163303610f2657600681019081549160ff8360081c16906005821015806105cc578215908115612198575b8115612188575b50610fde57600a6060935f925f8051602061485f83398151915296610100600160b01b03191690550155612169600b54614478565b600b556121796040518092613f81565b5f6020820152426040820152a2005b90506105cc576004821486612134565b5050600382145f61212d565b5060095481116120d7565b346102db575f3660031901126102db576008545f60015b8281111561223457506121d8906146b1565b905f60015b828111156121f357604051806102c08682613fa4565b805f52600160205260ff600b60405f20015416612219575b61221490614478565b6121dd565b9061222c81836103bf61221494886146e3565b91905061220b565b805f52600160205260ff600b60405f2001541661225a575b61225590614478565b6121c6565b9061226761225591614478565b91905061224c565b346102db575f3660031901126102db5760206040515f8152f35b346102db5760203660031901126102db576004358015801561239a575b61062e57805f52600260205260405f2060018101545f52600160205260018060a01b0380600160405f200154163303610f26576006820180549160ff8360081c169160058310156105cc57600283036123895761233960085f8051602061485f8339815191529661030060609761ff00191617845542600b82015561232c600c54614478565b600c550154600d546145f7565b600d555460101c16847f55a178e5f37419daeed81ca0ffdac6b33ccd1523ca2f26c742056c33dbc1960f6020604051428152a36123796040518092613f81565b60036020820152426040820152a2005b6040516219d11760e51b8152600490fd5b5060095481116122a6565b346102db5760203660031901126102db576004356001600160401b0381116102db576123ee60206123db81933690600401614033565b8160405193828580945193849201613f2e565b8101600681520301902054604051908152f35b346102db575f3660031901126102db576020600954604051908152f35b346102db5760203660031901126102db5760043561243a6147f4565b5080158015612531575b61062e575f5260026020526102c060405f20600b6040519161246583613e50565b805483526001810154602084015261247f60028201613e8d565b604084015261249060038201613e8d565b60608401526124a160048201613e8d565b60808401526124b26005820161465d565b60a084015260068101546124cc60ff821660c086016145ba565b6124df60ff8260081c1660e086016145c6565b60101c6001600160a01b0316610100840152600781015461012084015260088101546101408401526009810154610160840152600a81015461018084015201546101a08201526040519182918261425c565b506009548111612444565b346102db5760403660031901126102db57612555613ff4565b6004355f525f60205260405f209060018060a01b03165f52602052602060ff60405f2054166040519015158152f35b346102db5760203660031901126102db576004356001600160401b0381116102db5760206125b96125d5923690600401614033565b6125c16147f4565b508160405193828580945193849201613f2e565b8101600781520301902054801561062e575f5260026020526102c060405f20600b6040519161246583613e50565b346102db575f3660031901126102db576020600854604051908152f35b346102db5760e03660031901126102db576004356001600160401b0381116102db57612650903690600401614033565b6024356001600160401b0381116102db5761266f903690600401614033565b6044356001600160401b0381116102db5761268e903690600401614033565b916064356001600160401b0381116102db576126ae9036906004016141dc565b6084356001600160401b0381116102db576126cd9036906004016141dc565b60a4356001600160401b0381116102db576126ec903690600401614033565b908351156130525760405160208186516127098183858b01613f2e565b810160068152030190205461304057612723600854614478565b92836008556040519661273588613e34565b848852336020890152856040890152866060890152608088015260a087015260c086015260e085015260c435610100850152426101208501524261014085015260016101608501525f52600160205260405f2091835183556001830160018060a01b036020860151166bffffffffffffffffffffffff60a01b82541617905560408401518051906001600160401b038211610b645781906127d96002870154613dfc565b601f811161300d575b50602090601f8311600114612f9f575f92612f94575b50508160011b915f199060031b1c19161760028401555b60608401518051906001600160401b038211610b645781906128346003870154613dfc565b601f8111612f61575b50602090601f8311600114612ef3575f92612ee8575b50508160011b915f199060031b1c19161760038401555b60808401518051906001600160401b038211610b6457819061288f6004870154613dfc565b601f8111612eb5575b50602090601f8311600114612e47575f92612e3c575b50508160011b915f199060031b1c19161760048401555b60a0840151805190600160401b8211610b64576005850154826005870155808310612dc8575b5060200190600585015f5260205f20915f905b828210612cbb575050505060c0840151805190600160401b8211610b64576006850154826006870155808310612c47575b5060200190600685015f5260205f20915f905b828210612b3a575050505060e08401519384516001600160401b038111610b64576020956129736007870154613dfc565b601f8111612b09575b508690601f8311600114612a9657958261016093600b93612a76995f92612a8b575b50508160011b915f199060031b1c19161760078201555b61010084015160088201556101208401516009820155610140840151600a82015501910151151560ff80198354169116179055335f52600384526129ff60405f20600854906144b0565b7fd129cac81304d7637a39cfda31df598756f5437392b2abb4f85a8411adb0344b6008549384928360405188818851612a3b8183858d01613f2e565b8101600681520301902055612a51600a54614478565b600a55612a6960405195606087526060870190613f4f565b9085820388870152613f4f565b924260408201528033940390a3604051908152f35b015190508a8061299e565b90600787015f52875f20915f5b601f1985168110612af2575083600b93612a76999360019361016097601f19811610612ada575b505050811b0160078201556129b5565b01515f1960f88460031b161c191690558a8080612aca565b919289600181928685015181550194019201612aa3565b612b3490600788015f52885f20601f850160051c8101918a8610610b5a57601f0160051c019061449a565b8761297c565b80518051906001600160401b038211610b6457612b578654613dfc565b601f8111612c17575b50602090601f8311600114612bab5792826001949360209386955f92612ba0575b50505f19600383901b1c191690841b1787555b01940191019092612942565b015190508d80612b81565b90865f5260205f20915f5b601f1985168110612bff575083602093600196938796938794601f19811610612be7575b505050811b018755612b94565b01515f1960f88460031b161c191690558d8080612bda565b91926020600181928685015181550194019201612bb6565b612c4190875f5260205f20601f850160051c81019160208610610b5a57601f0160051c019061449a565b8a612b60565b600686015f5260205f20908382015b8183018110612c6657505061292f565b80612c7360019254613dfc565b80612c80575b5001612c56565b601f81118314612c9557505f81555b8a612c79565b5f90828252612cb2601f60208420920160051c820185830161449a565b81835555612c8f565b80518051906001600160401b038211610b6457612cd88654613dfc565b601f8111612d98575b50602090601f8311600114612d2c5792826001949360209386955f92612d21575b50505f19600383901b1c191690841b1787555b019401910190926128fe565b015190508d80612d02565b90865f5260205f20915f5b601f1985168110612d80575083602093600196938796938794601f19811610612d68575b505050811b018755612d15565b01515f1960f88460031b161c191690558d8080612d5b565b91926020600181928685015181550194019201612d37565b612dc290875f5260205f20601f850160051c81019160208610610b5a57601f0160051c019061449a565b8a612ce1565b600586015f5260205f20908382015b8183018110612de75750506128eb565b80612df460019254613dfc565b80612e01575b5001612dd7565b601f81118314612e1657505f81555b8a612dfa565b5f90828252612e33601f60208420920160051c820185830161449a565b81835555612e10565b0151905086806128ae565b9250600486015f5260205f20905f935b601f1984168510612e9a576001945083601f19811610612e82575b505050811b0160048401556128c5565b01515f1960f88460031b161c19169055868080612e72565b81810151835560209485019460019093019290910190612e57565b612ee290600488015f5260205f20601f850160051c81019160208610610b5a57601f0160051c019061449a565b87612898565b015190508680612853565b9250600386015f5260205f20905f935b601f1984168510612f46576001945083601f19811610612f2e575b505050811b01600384015561286a565b01515f1960f88460031b161c19169055868080612f1e565b81810151835560209485019460019093019290910190612f03565b612f8e90600388015f5260205f20601f850160051c81019160208610610b5a57601f0160051c019061449a565b8761283d565b0151905086806127f8565b9250600286015f5260205f20905f935b601f1984168510612ff2576001945083601f19811610612fda575b505050811b01600284015561280f565b01515f1960f88460031b161c19169055868080612fca565b81810151835560209485019460019093019290910190612faf565b61303a90600288015f5260205f20601f850160051c81019160208610610b5a57601f0160051c019061449a565b876127e2565b604051630efc2b1f60e31b8152600490fd5b604051631901fcad60e01b8152600490fd5b346102db575f3660031901126102db576009545f60015b8281111561310f575061308d906146b1565b5f9160015b818111156130a857604051806102c08582613fa4565b805f52600260205260405f20600880820154151591826130f3575b50506130d8575b6130d390614478565b613092565b926130eb81856103bf6130d394876146e3565b9390506130ca565b60ff925060060154901c1660058110156105cc571585806130c3565b805f52600260205260405f2060088082015415159182613154575b505061313f575b61313a90614478565b61307b565b9061314c61313a91614478565b919050613131565b60ff925060060154901c1660058110156105cc5715848061312a565b346102db575f3660031901126102db576009545f60015b828111156132025750613199906146b1565b5f9160015b818111156131b457604051806102c08582613fa4565b805f52600260205260ff600660405f20015460081c1660058110156105cc57156131e7575b6131e290614478565b61319e565b926131fa81856103bf6131e294876146e3565b9390506131d9565b805f52600260205260ff600660405f20015460081c1660058110156105cc5715613235575b61323090614478565b613187565b9061324261323091614478565b919050613227565b346102db5760203660031901126102db5760043580158015613295575b6106bd575f81815260016020819052604090912001546001600160a01b03163303610f2657611f5b906144f0565b506008548111613267565b346102db576020806003193601126102db576001600160a01b036132c2613fde565b165f52600580825260405f20906040518083858295549384815201905f52855f20925f5b87828210613413575050506132fd92500383613e6c565b5f905f5b83518110156133735761331481856146e3565b515f52600280865260ff600660405f20015460081c1690838210156105cc5760018214918215613369575b5050613354575b61334f90614478565b613301565b9161336161334f91614478565b929050613346565b149050868061333f565b50929061337f906146b1565b5f905f5b84518110156134055761339681866146e3565b515f52600280855260ff600660405f20015460081c1690878210156105cc57600182149182156133fb575b50506133d6575b6133d190614478565b613383565b916133f36133d1916133e885886146e3565b516103bf82866146e3565b9290506133c8565b14905087806133c1565b604051806102c08482613fa4565b85548452600195860195889550930192016132e6565b346102db575f3660031901126102db5760206040517f020f3d218b9e6e9bc1ec7181d6f3fa404a8f29787a07258e863d949e04556fe38152f35b346102db575f3660031901126102db5760206040517fa49807205ce4d355092ef5a8a18f56e8913cf4a201fbe287825b095693c217758152f35b346102db576020806003193601126102db576001600160a01b036134bf613fde565b165f526003815260405f209060405190818184549182815201935f52815f20915f905b8282106134f9576102c0856102b481890382613e6c565b8354865294850194600193840193909101906134e2565b346102db5760203660031901126102db5760043561352c614604565b508015801561360e575b6106bd575f5260016020526102c060405f2060ff600b6040519261355984613e34565b8054845260018101546001600160a01b0316602085015261357c60028201613e8d565b604085015261358d60038201613e8d565b606085015261359e60048201613e8d565b60808501526135af6005820161465d565b60a08501526135c06006820161465d565b60c08501526135d160078201613e8d565b60e085015260088101546101008501526009810154610120850152600a8101546101408501520154161515610160820152604051918291826140e3565b506008548111613536565b346102db575f3660031901126102db576020600b54604051908152f35b346102db5760203660031901126102db576004355f9081526001602081815260409092208054918101546001600160a01b031661367560028301613e8d565b9161368260038201613e8d565b9261370b61369260048401613e8d565b6136fd6136a160078601613e8d565b916136ef6008870154986136e160098901549760ff600b600a8c01549b0154169a6040519e8f9e8f908152015260408d61014091829101528d0190613f4f565b908b820360608d0152613f4f565b9089820360808b0152613f4f565b9087820360a0890152613f4f565b9360c086015260e085015261010084015215156101208301520390f35b346102db576020806003193601126102db576001600160a01b0361374a613fde565b165f5260059081815260405f20906040518083838295549384815201905f52835f20925f5b858282106138555750505061378692500383613e6c565b5f905f5b83518110156137e55761379d81856146e3565b515f526002825260ff600660405f20015460081c16858110156105cc576003146137d0575b6137cb90614478565b61378a565b916137dd6137cb91614478565b9290506137c2565b50906137f184916146b1565b5f905f5b85518110156134055761380881876146e3565b515f526002855260ff600660405f20015460081c16848110156105cc5760031461383b575b61383690614478565b6137f5565b9161384d613836916133e885896146e3565b92905061382d565b855484526001958601958895509301920161376f565b346102db5760403660031901126102db57613884613ff4565b336001600160a01b038216036138a057611f5b90600435614405565b60405163334bd91960e11b8152600490fd5b346102db5760203660031901126102db576004356001600160401b0381116102db5760206138e76138ef923690600401614033565b6125c1614604565b810160068152030190205480156106bd575f5260016020526102c060405f2060ff600b6040519261355984613e34565b346102db5760403660031901126102db57611f5b60043561393e613ff4565b90805f525f602052613956600160405f20015461434a565b614389565b346102db5760403660031901126102db57600435613977613ff4565b81158015613a24575b6106bd57815f52600160205260018060a01b039081600160405f200154163303610f2657169081156139ed57611f5b91815f52600160205260405f2060018101826bffffffffffffffffffffffff60a01b825416179055600a429101555f52600360205260405f206144b0565b60405162461bcd60e51b815260206004820152600f60248201526e496e76616c6964206164647265737360881b6044820152606490fd5b506008548211613980565b346102db5760203660031901126102db5760043580158015613b26575b61062e57805f52600260205260405f2060018101545f52600160205260018060a01b03600160405f200154163303610f26576006810160ff815460081c1660058110156105cc57613ac860085f8051602061485f833981519152946060948415613b13575b805461ff0019166104001790550154600d546145f7565b600d55837f0cc52df10276c6f3b0b41b632ca823795e08cce0356339c9a54c0986506469396020604051428152a2613b036040518092613f81565b60046020820152426040820152a2005b613b1e600b546144e4565b600b55613ab1565b506009548111613a4c565b346102db5760403660031901126102db57613b4a613fde565b6001600160a01b03165f908152600360205260409020805460243591908210156102db57602091613b7a9161400a565b90549060031b1c604051908152f35b346102db5760203660031901126102db576004356001600160401b0381116102db57613bbf60206123db81933690600401614033565b8101600781520301902054604051908152f35b346102db5760203660031901126102db576004355f525f6020526020600160405f200154604051908152f35b346102db5760403660031901126102db57613c17613fde565b6001600160a01b03165f908152600560205260409020805460243591908210156102db576020916107099161400a565b346102db576102c06102b4613c5b36613f8e565b906146f7565b346102db5760203660031901126102db576004355f526002602052602060405f208054906001810154613c9660028301613e8d565b91613ca360038201613e8d565b92613cb060048301613e8d565b93600683015494613cfc6007850154916136ef6008870154946136e1600989015497600b600a8b01549a01549a6040519e8f9e8f908152015260408d6101a091829101528d0190613f4f565b95613d0d60a0890160ff8316613f74565b613d2060c0890160ff8360081c16613f81565b60101c6001600160a01b031660e08801526101008701526101208601526101408501526101608401526101808301520390f35b346102db5760203660031901126102db5760043580158015613d9e575b6106bd575f81815260016020819052604090912001546001600160a01b03163303610f2657611f5b90614557565b506008548111613d70565b346102db5760203660031901126102db576004359063ffffffff60e01b82168092036102db57602091637965db0b60e01b8114908115613deb575b5015158152f35b6301ffc9a760e01b14905083613de4565b90600182811c92168015613e2a575b6020831014613e1657565b634e487b7160e01b5f52602260045260245ffd5b91607f1691613e0b565b61018081019081106001600160401b03821117610b6457604052565b6101c081019081106001600160401b03821117610b6457604052565b90601f801991011681019081106001600160401b03821117610b6457604052565b9060405191825f825492613ea084613dfc565b9081845260019485811690815f14613f0b5750600114613ecb575b5050613ec992500383613e6c565b565b909391505f52602090815f20935f915b818310613ef3575050613ec993508201015f80613ebb565b85548884018501529485019487945091830191613edb565b915050613ec994506020925060ff191682840152151560051b8201015f80613ebb565b5f5b838110613f3f5750505f910152565b8181015183820152602001613f30565b90602091613f6881518092818552858086019101613f2e565b601f01601f1916010190565b9060038210156105cc5752565b9060058210156105cc5752565b60409060031901126102db576004359060243590565b602090816040818301928281528551809452019301915f5b828110613fca575050505090565b835185529381019392810192600101613fbc565b600435906001600160a01b03821682036102db57565b602435906001600160a01b03821682036102db57565b805482101561401f575f5260205f2001905f90565b634e487b7160e01b5f52603260045260245ffd5b81601f820112156102db578035906001600160401b038211610b645760405192614067601f8401601f191660200185613e6c565b828452602083830101116102db57815f926020809301838601378301015290565b908082519081815260208091019281808460051b8301019501935f915b8483106140b55750505050505090565b90919293949584806140d3600193601f198682030187528a51613f4f565b98019301930191949392906140a5565b602081528151602082015260018060a01b036020830151166040820152604082015161411d610180918260608501526101a0840190613f4f565b9261419861418261416e61415a614146606086015198601f19998a8a83030160808b0152613f4f565b6080860151898983030160a08a0152613f4f565b60a0850151888883030160c0890152614088565b60c0840151878783030160e0880152614088565b60e0830151610100968683030187870152613f4f565b93810151610120908185015281015161014090818501528101519061016091828501520151151591015290565b6001600160401b038111610b645760051b60200190565b9080601f830112156102db578135906141f4826141c5565b926142026040519485613e6c565b828452602092838086019160051b830101928084116102db57848301915b8483106142305750505050505090565b82356001600160401b0381116102db57869161425184848094890101614033565b815201920191614220565b60208152815160208201526020820151604082015260408201516142d96142916101c0928360608601526101e0850190613f4f565b6142c46142b0606087015192601f199384888303016080890152613f4f565b6080870151838783030160a0880152613f4f565b9060a0860151908583030160c0860152614088565b926142ec60c082015160e0850190613f74565b60e08101516143016101009182860190613f81565b60018060a01b0390820151166101209081850152810151610140908185015281015161016090818501528101516101809081850152810151906101a09182850152015191015290565b805f525f60205260405f20335f5260205260ff60405f2054161561436b5750565b6044906040519063e2517d3f60e01b82523360048301526024820152fd5b905f9180835282602052604083209160018060a01b03169182845260205260ff604084205416155f1461440057808352826020526040832082845260205260408320600160ff198254161790557f2f8788117e7eff1d82e926ec794901d17c78024a50270940304540a733656f0d339380a4600190565b505090565b905f9180835282602052604083209160018060a01b03169182845260205260ff6040842054165f146144005780835282602052604083208284526020526040832060ff1981541690557ff6391f5c32d9c69d2a47ea670b442974b53935d1edc7fd64eb21e047a839171b339380a4600190565b5f1981146144865760010190565b634e487b7160e01b5f52601160045260245ffd5b8181106144a5575050565b5f815560010161449a565b8054600160401b811015610b64576144cd9160018201815561400a565b819291549060031b91821b915f19901b1916179055565b8015614486575f190190565b805f52600160205260405f20600b8101805460ff8116156145515760ff19169055600a42910155614522600a546144e4565b600a557fd2c80c5bd503101fbf05bb714eed8883aa6d46a3893b1346332608d621e5288c6020604051428152a2565b50505050565b805f52600160205260405f20600b8101805460ff81166145515760ff1916600117905542600a918201555461458b90614478565b600a557fb325dea060a051bccc5efd64e1d0b7fb4b13b72184c64ca61ddc1f242a6340096020604051428152a2565b60038210156105cc5752565b60058210156105cc5752565b9060038110156105cc5760ff80198354169116179055565b9190820180921161448657565b9190820391821161448657565b6040519061461182613e34565b816101605f91828152826020820152606080604083015280808301528060808301528060a08301528060c083015260e08201528261010082015282610120820152826101408201520152565b908154614669816141c5565b926146776040519485613e6c565b8184525f90815260208082208186015b848410614695575050505050565b60018381926146a385613e8d565b815201920193019290614687565b906146bb826141c5565b6146c86040519182613e6c565b82815280926146d9601f19916141c5565b0190602036910137565b805182101561401f5760209160051b010190565b90614703600a546146b1565b905f60019081600854925b838111156147b45750505050815183101561478b578261473161474192826145ea565b8351808211614783575b506145f7565b9061474b826146b1565b925f5b83811061475c575050505090565b8061477361476d61477e93856145ea565b856146e3565b516103bf82886146e3565b61474e565b90505f61473b565b505050604051602081018181106001600160401b03821117610b64576040525f81525f36813790565b805f528160205260ff600b60405f200154166147d9575b6147d490614478565b61470e565b916147ec81846103bf6147d4948a6146e3565b9290506147cb565b6040519061480182613e50565b816101a05f918281528260208201526060604082015260608082015260606080820152606060a08201528260c08201528260e08201528261010082015282610120820152826101408201528261016082015282610180820152015256fe865e28190d692c855cc9e2efab11452e26cdbca74b72111f18fb68fd29ac19cba264697066735822122015276d4a55858d333c406c96a7c64e9f37cad3cc93aa68ed0b82b0ff098fd2c364736f6c634300081400332f8788117e7eff1d82e926ec794901d17c78024a50270940304540a733656f0d","linkReferences":{}},"methodIdentifiers":{"ADMIN_ROLE()":"75b238fc","APPLICATION_MANAGER_ROLE()":"77de1131","DEFAULT_ADMIN_ROLE()":"a217fddf","addIssue(uint256,string,string,string,string[],uint8,uint256,uint256)":"e5b2a024","addRepo(string,string,string,string[],string[],string,uint256)":"8abd30f1","assignIssue(uint256,address)":"f65fb58d","closeIssue(uint256)":"288c8f62","completeIssue(uint256)":"a0769ad7","contributorIssues(address,uint256)":"13bce2d9","deactivateRepo(uint256)":"84bdcddf","getActiveReposPaginated(uint256,uint256)":"13284858","getAllActiveRepos()":"b6aa03cf","getAllOpenIssues()":"8525a425","getContributorActiveIssues(address)":"82d25702","getContributorCompletedIssues(address)":"423001cc","getContributorIssues(address)":"fd15387d","getIssue(uint256)":"976b3113","getIssueByGithubId(string)":"8f977714","getIssuesByDifficulty(uint8)":"f134510b","getIssuesByStatus(uint8)":"c1c058e4","getIssuesWithBounty()":"89bf373b","getMaintainerRepos(address)":"6d06c5a5","getRepo(uint256)":"5f11f7a4","getRepoByGithubId(string)":"305f1529","getRepoIssues(uint256)":"f607ecaf","getReposByTechStack(string)":"fa7ea750","getReposByTopic(string)":"e9ebc0c8","getRoleAdmin(bytes32)":"248a9ca3","getStats()":"c59d4847","githubIssueIdToIssueId(string)":"249ba9cb","githubRepoIdToRepoId(string)":"9d6cf9f4","grantRole(bytes32,address)":"2f2ff15d","hasRole(bytes32,address)":"91d14854","issueCount()":"98cf147a","issues(uint256)":"04e15de5","maintainerRepos(address,uint256)":"26af1954","reactivateRepo(uint256)":"026bad67","renounceRole(bytes32,address)":"36568abe","repoCount()":"8c2086f5","repoIssues(uint256,uint256)":"f196d202","repos(uint256)":"434dcdeb","revokeRole(bytes32,address)":"d547741f","startIssue(uint256)":"f010e2c2","supportsInterface(bytes4)":"01ffc9a7","totalActiveRepos()":"f10215af","totalBountyAmount()":"de72b83d","totalCompletedIssues()":"c5923a7e","totalOpenIssues()":"530aa276","transferOwnership(uint256,address)":"29507f73","unassignIssue(uint256)":"bb730bab","updateIssue(uint256,string,string,string[],uint8,uint256,uint256)":"efd832b8","updateRepo(uint256,string,string[],string[],string,uint256)":"f063d309"},"id":28}